:1000000045C1000073C1000071C100006FC1000054
:100010006DC100006BC1000069C1000067C1000034
:1000200065C1000063C1000061C100005FC1000044
:100030005DC100005BC1000059C1000057C1000054
:1000400055C1000053C1000051C100004FC1000064
:100050004DC100004BC1000049C1000092C7000023
:1000600045C10000A0C1000075C100003FC10000F3
:100070003DC100003BC1000039C1000037C1000094
:1000800035C1000033C1000031C100002FC10000A4
:100090002DC100002BC1000029C10000BCC7000019
:1000A00025C1000023C1000021C100001FC10000C4
:1000B0001DC100001BC1000019C1000017C10000D4
:1000C00015C1000013C1000011C100000FC10000E4
:1000D0000DC100000BC1000009C1000007C10000F4
:1000E00005C10000820AD90A2D0C2D0C2D0C2D0CF7
:1000F000FE0A060B2D0C2D0C2D0C2D0C0F0B2D0CB0
:10010000810BAB0B2D0C2D0CF60BFC0B2D0C2D0CC1
:10011000280CA80BC80CEF0C040D2C0D2F0D320D64
:10012000350D2C023102360240024A02C30254024B
:100130005C0264026E027802820291029B02C30298
:10014000A502AF02B902D806DB06CA06CE06D4065F
:100150001207DF06E306E906ED06F106F706FB06E1
:10016000FF061207050709070D07000020002300FE
:10017000260029002C002F0032000001000003019E
:10018000060109010505050507050808080802021A
:1001900002020A0A08080404040401010101010121
:1001A00001010303030303030303040707070C0C04
:1001B0000C0C0C0C0C0C02020202060606060606CB
:1001C00006060B0B0B0B0B0B0B0B01021020200870
:1001D00008102040102040800201020108040201A2
:1001E0000102040810204080804020100804020111
:1001F000800402018040201008040201080402016A
:1002000001020408102040800102040810204080F0
:1002100000000A0B02090C0D0E0807030401000080
:1002200000000000000000000000000000000000CE
:10023000000000000000000000000000121110008B
:1002400000000000000000000000000000000000AE
:1002500000000000000000002100240027002A0008
:100260002D003000330001010000040107010A01E4
:1002700000002200250028002B002E003100340051
:1002800002010000050108010B01F70D11241FBE3A
:10029000CFEFD1E2DEBFCDBF00E00CBF19E0A0E0A0
:1002A000B2E0E2E8F0E200E00BBF02C007900D927E
:1002B000AE33B107D9F720E1AEE3B9E001C01D923A
:1002C000A13FB207E1F711E0C6E4D1E000E006C0CB
:1002D00021970109802FFE010E942610C534D10705
:1002E00080E00807A9F7C8D70C943F1089CECF92B9
:1002F000DF92EF92FF920F931F93CF93DF936C01E6
:100300007A018B01C0E0D0E0CE15DF0581F0D80185
:100310006D918D01D601ED91FC910190F081E02D60
:10032000C6011995892B11F02196EECF7E01C701E8
:10033000DF91CF911F910F91FF90EF90DF90CF90C1
:1003400008958DE899E0A1D321E0892B09F420E0FC
:10035000822F08951F920F920FB60F9211240BB6A1
:100360000F922F933F934F935F936F937F938F934E
:100370009F93AF93BF93EF93FF938DE899E06ED473
:10038000FF91EF91BF91AF919F918F917F916F916D
:100390005F914F913F912F910F900BBE0F900FBE29
:1003A0000F901F9018951F920F920FB60F92112465
:1003B0000BB60F922F938F939F93EF93FF93E09140
:1003C0009D09F0919E098081E091A309F091A40913
:1003D00082FD12C090818091A6098F5F8F7320915A
:1003E000A709821751F0E091A609F0E0E357F64F14
:1003F000958F8093A60901C08081FF91EF919F9115
:100400008F912F910F900BBE0F900FBE0F901F90EA
:100410001895CF93DF93EC0161E083E032D520970C
:1004200011F460E004C0CF3FD10529F461E083E01E
:10043000DF91CF91F8C4E3E1F2E0E4918E2F90E0F8
:10044000FC013197E231F10508F09DC08827EF5695
:10045000FF4F8F4F0C94261084B5806884BDC7BDB4
:1004600097C084B5806284BDC8BD92C08091800071
:10047000806880938000D0938900C093880088C0F2
:1004800080918000806280938000D0938B00C09325
:100490008A007EC080918000886080938000D09325
:1004A0008D00C0938C0074C08091B00080688093F0
:1004B000B000C093B3006CC08091B00080628093A4
:1004C000B000C093B40064C08091900080688093B5
:1004D0009000D0939900C09398005AC080919000EA
:1004E000806280939000D0939B00C0939A0050C08C
:1004F00080919000886080939000D0939D00C0937D
:100500009C0046C08091A00080688093A0008091EC
:10051000A0008F7B8093A000D093A900C093A80077
:1005200037C08091A00080628093A000D093AB0080
:10053000C093AA002DC08091A00088608093A00085
:10054000D093AD00C093AC0023C08091200180689F
:1005500080932001D0932901C093280119C0809174
:100560002001806280932001D0932B01C0932A0147
:100570000FC080912001886080932001D0932D01CD
:10058000C0932C0105C0C038D1050CF04FCF49CF26
:10059000DF91CF910895009761F0FC010190002058
:1005A000E9F73197AF01481B590BBC018DE899E081
:1005B0009ECE80E090E00895CF93DF93ECDFEC01D6
:1005C0008CE198E0E8DF8C0F9D1FDF91CF910895BB
:1005D0000F931F9390917F0A80917E0A992331F0A7
:1005E00081111CC081E080937E0A18C0811145C032
:1005F000BCD46093800A7093810A8093820A90939E
:10060000830A81E080937F0A80937E0A8FEF90E0D7
:1006100000DF8BE299E01F910F91CECFA6D400911D
:10062000800A1091810A2091820A3091830ADC01AC
:10063000CB01801B910BA20BB30B0091840A10918C
:10064000850A2091860A3091870A081719072A0718
:100650003B0798F410927F0A61E082E0E4D3E091D6
:100660007C0AF0917D0AEE0FFF1FE458F54F818957
:100670009289CFDE80E299E0CECF1F910F9108954D
:100680000F931F9380918A0A81110BC06ED462511F
:100690007D4F70938C0A60938B0A81E080938A0A65
:1006A00012C063D420918B0A30918C0A890120E01A
:1006B00030E0061717072807390728F410928A0A2E
:1006C0001F910F9185CF1F910F9108958F929F9247
:1006D000AF92BF920F931F93CF93DF93CDB7DEB747
:1006E000A1970FB6F894DEBF0FBECDBF19A242305E
:1006F00008F44AE08E010F5D1F4F842E912CA12C2F
:10070000B12CA50194010E940410E62FB901CA0181
:1007100001501109EA3014F4E05D01C0E95CD80130
:10072000EC93232B242B252B61F7C80134DFA196F2
:100730000FB6F894DEBF0FBECDBFDF91CF911F91F2
:100740000F91BF90AF909F908F900895682F8DE884
:1007500099E0A6C2CF92DF92EF92FF92CF93DF9300
:1007600097FF17C06B017C018DE2F0DFEC0166277B
:100770007727CB016C197D098E099F094AE0A6DF16
:100780008C0F9D1FDF91CF91FF90EF90DF90CF9066
:1007900008954AE0DF91CF91FF90EF90DF90CF90E6
:1007A00095CFCF93DF93BC01990F880B990BD2DFC4
:1007B000EC018CE198E0EFDE8C0F9D1FDF91CF9173
:1007C0000895E9CE0F931F93CF93DF93EC018C0133
:1007D0000F5B1F4F8991882321F0B8DFC017D10725
:1007E000C9F7DF91CF911F910F91089583E399E0AD
:1007F000E8DF80913002AADF8BE099E0E2DF6091D0
:10080000490270914A02072E000C880B990BA2DF57
:100810008BE099E0D6DF88E392E0D3DF8BE099E0CC
:10082000D0DF89E399E0CDDF8AE198E0CACF0F936A
:100830001F93CF93DF93FC01DC010D900020E9F7BB
:10084000CD0148978E179F0709F062C088E192E0BA
:10085000EF01DF010D900020E9F71197AE1BBF0BF0
:100860009E012E1B3F0B2A173B0728F42991DC0120
:100870002D93CD01EECF818180933002DF0112965E
:10088000C3E3D2E08F010A5F1F4F8D918993A017B8
:10089000B107D9F7EF011092370283E392E00E948B
:1008A000A40F9093320280933102A8E3B2E0FE01DC
:1008B0007296E80189918E018D93CE17DF07C9F7F3
:1008C0001092440220913802822F022E000C990BC4
:1008D000C0970A9710F02D3269F488E392E00E94E5
:1008E000C10F609345027093460280934702909334
:1008F00048020BC08FEF9FEFDC018093450290937D
:100900004602A0934702B093480288EC90E002C0F0
:1009100081E991E090934A0280934902DF91CF915F
:100920001F910F9108950F931F93CF93DF938091A1
:100930007A0A882329F0DF91CF911F910F9115C377
:1009400080916A098111FCCF81E080936A098093CC
:1009500069099FEF909368091092670993E090935B
:1009600066098093650980916509846080936509B3
:1009700080916409813061F4109264098091650965
:100980008093BB008091BC0083FDF8CF85EC01C053
:1009900085EE8093BC0080916A098130E1F38091FB
:1009A0006709843018F49091670901C094E0A4E4C9
:1009B000B9E0EDE6F9E080E0891721F02D9121936F
:1009C0008F5FFACF10926C0980936B09882319F11D
:1009D0008AE29AE007D1182F8AE29AE003D1C82F61
:1009E0008AE29AE0FFD0D82F8AE29AE0FBD04C2F1F
:1009F00050E060E070E0512B762F652F542F442794
:100A00004D2B762F652F542F44278A019B01082BED
:100A1000C901B80104C061E070E080E090E0DF91BE
:100A2000CF911F910F910895FC01538D448D252F77
:100A300030E0842F90E0821B930B541710F0CF9678
:100A4000089501970895FC01918D828D981761F0AA
:100A5000828DDF01A80FB11D5D968C91928D9F5FF5
:100A60009F73928F90E008958FEF9FEF0895FC01A0
:100A7000918D828D981731F0828DE80FF11D858D53
:100A800090E008958FEF9FEF0895FC01918D228DE6
:100A9000892F90E0805C9F4F821B91098F7399276B
:100AA000089580E090E0892B19F04BDC811125C07E
:100AB00080E090E0892B41F080E090E0892B21F0EC
:100AC0000E94000081111CC080E090E0892B41F061
:100AD00080E090E0892B21F00E940000811113C07A
:100AE00080E090E0892BA1F080E090E0892B81F0FC
:100AF0000E94000081110AC008950E940000D8CF12
:100B00000E940000E1CF0E940000EACF0C94000098
:100B100008953FB7F8948091ED109091EE10A09158
:100B2000EF10B091F01026B5A89B05C02F3F19F02B
:100B30000196A11DB11D3FBFBA2FA92F982F88275D
:100B4000820F911DA11DB11DBC01CD0142E0660FB8
:100B5000771F881F991F4A95D1F7089585ED8093D7
:100B6000BC008091BC0084FDFCCF10926A090895FE
:100B70004091C510262F30E0240F311D2132310560
:100B8000DCF420916A092430C9F4FC0180E090E093
:100B9000861758F43091C5102191DC01AB55BF4E3A
:100BA000A30FB11D2C930196F3CF8091C510680F50
:100BB0006093C51080E0089581E0089582E0089573
:100BC000089508950895E0916C0980916B09E817E4
:100BD00030F4F0E0E359F64F808190E008958FEF14
:100BE0009FEF089590916C0980916B09981750F4CC
:100BF000E92FF0E0E359F64F208130E09F5F9093BA
:100C00006C0902C02FEF3FEFC901089580916B0975
:100C100090E020916C09821B91090895CF93DF9396
:100C2000CB01EA01642FA4DFCE01DF91CF910895BB
:100C3000CF93DF931F92CDB7DEB7698361E0CE011A
:100C4000019696DF81E090E00F90DF91CF910895BB
:100C5000089580E090E008950E942E10FC01848D9C
:100C6000DF01A80FB11DA35ABF4F2C91848D90E0D6
:100C700001968F739927848FA689B7892C93A089B1
:100C8000B1898C91837080648C93938D848D98133B
:100C900006C00288F389E02D80818F7D80830895CE
:100CA000EF92FF920F931F93CF93DF93EC0181E0BC
:100CB000888F9B8D8C8D981305C0E889F989808178
:100CC00085FD25C0F62E0B8D10E00F5F1F4F0F73B3
:100CD0001127E02E8C8DE8120BC00FB607FCFACF5F
:100CE000E889F989808185FFF5CFCE01B7DFF2CFA2
:100CF0008B8DFE01E80FF11DE35AFF4FF0829FB785
:100D0000F8940B8FEA89FB89808180620AC09FB7C3
:100D1000F894EE89FF896083E889F989808183707E
:100D2000806480839FBF81E090E0DF91CF911F912D
:100D30000F91FF90EF900895CF93DF93EC01888D92
:100D40008823C1F0EA89FB89808185FD05C0A889D7
:100D5000B9898C9186FD0EC00FB607FCF5CF808156
:100D600085FFF2CFA889B9898C9185FFEDCFCE019F
:100D700075DFE8CFDF91CF91089590E0FC013197C6
:100D8000E231F10508F04EC08827ED55FF4F8F4F37
:100D90000C942610809180008F7703C08091800092
:100DA0008F7D80938000089580918000877FF9CFA8
:100DB00084B58F7702C084B58F7D84BD08958091FE
:100DC000B0008F7703C08091B0008F7D8093B0001A
:100DD0000895809190008F7707C0809190008F7D5B
:100DE00003C080919000877F809390000895809148
:100DF000A0008F7707C08091A0008F7D03C08091F5
:100E0000A000877F8093A0000895809120018F77B4
:100E100007C0809120018F7D03C080912001877FD2
:100E20008093200108951F93CF93DF93282F30E004
:100E3000F901E05FFD4F8491F901E653FE4FD49133
:100E4000F901EC57FE4FC491CC23B9F0162F811154
:100E500094DFEC2FF0E0EE0FFF1FE059FD4FA5915E
:100E6000B4919FB7F894111104C08C91D095D823F8
:100E700002C0EC91DE2BDC939FBFDF91CF911F91DD
:100E80000895CF93DF9390E0FC01E653FE4F249149
:100E9000FC01EC57FE4F8491882361F190E0880FAC
:100EA000991FFC01EA5AFD4FC591D491FC01E0590C
:100EB000FD4FA591B491611109C09FB7F894888145
:100EC000209582238883EC912E230BC0623061F43D
:100ED0009FB7F8948881322F309583238883EC91D3
:100EE0002E2B2C939FBF06C08FB7F894E8812E2B32
:100EF00028838FBFDF91CF9108958F929F92AF92F9
:100F0000BF92CF92DF92EF92FF926B017C0101DEE4
:100F10004B015C01C114D104E104F104E9F0F9DDF5
:100F2000DC01CB0188199909AA09BB09883E9340C5
:100F3000A105B10578F321E0C21AD108E108F10852
:100F400088EE880E83E0981EA11CB11CC114D10448
:100F5000E104F10421F7DECFFF90EF90DF90CF9016
:100F6000BF90AF909F908F9008952FB7F8946091A5
:100F7000E9107091EA108091EB109091EC102FBF66
:100F800008951F920F920FB60F9211242F933F9343
:100F90008F939F93AF93BF938091E9109091EA1044
:100FA000A091EB10B091EC103091E81023E0230FEA
:100FB0002D3720F40196A11DB11D05C026E8230F91
:100FC0000296A11DB11D2093E8108093E910909323
:100FD000EA10A093EB10B093EC108091ED1090917B
:100FE000EE10A091EF10B091F0100196A11DB11D6F
:100FF0008093ED109093EE10A093EF10B093F0104B
:10100000BF91AF919F918F913F912F910F900FBE04
:101010000F901F9018951F920F920FB60F921124E8
:101020000BB60F922F933F934F935F936F937F93E2
:101030008F939F93AF93BF93EF93FF938091B900EA
:10104000887F803609F49CC068F5883209F45BC05B
:1010500090F4803109F454C038F4882309F4F6C0C0
:10106000883009F44DC0F5C0883109F44CC0803295
:1010700009F45DC0EEC0803409F468C048F48033E0
:1010800009F455C0883309F0E4C080936809D8C0DA
:10109000803509F44FC0883509F45DC0883409F003
:1010A000D8C0D6C0883909F4C7C0A8F4883709F475
:1010B00067C038F4883609F463C0803709F460C02B
:1010C000C8C0883809F4B8C0803909F45FC08038D6
:1010D00009F0BFC05BC0803B09F486C038F4803A99
:1010E00009F466C0883A09F47FC0B3C0803C09F4B3
:1010F000A7C0883C09F4A4C0883B09F48AC0A9C0F1
:101100008091650910C090916709809166099817D0
:1011100070F5E091670981E08E0F80936709F0E038
:10112000EC5BF64F80818093BB0085EC86C080939A
:1011300068098EC0E091670981E08E0F809367098E
:101140008091BB00F0E0EC5BF64F808390916709E3
:10115000809166096EC0E091670981E08E0F8093EF
:1011600067098091BB00F0E0EC5BF64F80838091D3
:10117000690981116DC081E08093640984EA61C0CE
:1011800083E080936A091092E710CFCF8091E71037
:10119000803208F051C0E091E71081E08E0F80931B
:1011A000E7108091BB00F0E0E953FF4E8083BDCF94
:1011B00085EC8093BC0010926A098091E710803220
:1011C00030F4E091E710F0E0E953FF4E10826091B7
:1011D000E71070E0E0913E09F0913F0987EC90E163
:1011E00019951092E71035C084E080936A09109237
:1011F000C6101092C510E0914009F091410919956F
:101200008091C510811105C081E08093C5101092B6
:10121000A510E091C61081E08E0F8093C610F0E01B
:10122000EB55FF4E80818093BB009091C61080915A
:10123000C510981708F479CF85E88093BC0009C0E1
:1012400085EC8093BC0010926A0903C01092680973
:1012500085DCFF91EF91BF91AF919F918F917F912D
:101260006F915F914F913F912F910F900BBE0F9017
:101270000FBE0F901F901895789484B5826084BD3E
:1012800084B5816084BD85B5826085BD85B581608A
:1012900085BD80916E00816080936E001092810008
:1012A00080918100826080938100809181008160C3
:1012B0008093810080918000816080938000809184
:1012C000B10084608093B1008091B0008160809310
:1012D000B000809191008260809391008091910094
:1012E0008160809391008091900081608093900054
:1012F0008091A10082608093A1008091A100816013
:101300008093A1008091A00081608093A0008091D3
:10131000210182608093210180912101816080936D
:1013200021018091200181608093200180917A00C9
:10133000846080937A0080917A00826080937A0042
:1013400080917A00816080937A0080917A00806831
:1013500080937A001092C100E0919D09F0919E095E
:1013600082E08083E0919D09F0919E091082E091D6
:101370009909F0919A091082E0919B09F0919C09DA
:1013800080E180831092A509E091A109F091A20962
:1013900086E08083E0919F09F091A00980818061BF
:1013A0008083E0919F09F091A0098081886080830B
:1013B000E0919F09F091A009808180688083E0918D
:1013C0009F09F091A00980818F7D80838BEF97E04A
:1013D000F8D964E670E080E090E08FDD87E098E087
:1013E000F0D910926C0910926B0910924309109277
:1013F000420910926A09C1E0C09369091092640918
:1014000061E084E110DD61E085E10DDD8091B900EE
:101410008E7F8093B9008091B9008D7F8093B90051
:1014200088E48093B80085E48093BC0080EE95E06A
:10143000909341098093400981EE95E090933F0994
:1014400080933E09C093740A10927A0A2EE3822E8A
:101450002AE0922E38E1E32E45E1F42E58ECC52E19
:10146000D12C67EE262E6FE0362E8DE899E00DDB4D
:10147000892BD9F08DE899E0E6DA8093560A8C330F
:1014800039F020913C0A30913D0A8E33C9F0F2C107
:10149000F4012E2D11922A95E9F780933E0A81E0FE
:1014A00090E090933D0A80933C0A94E6A92E9AE03E
:1014B000B92E0CE51AE0C0E0D0E066246394F2C1D6
:1014C000F901EA5CF54F80878EE39AE0B0D980910C
:1014D000490290914A02883C910509F0C4C1E0910B
:1014E00030028E2FEE0F990BAA0BBB0BFC01E154BF
:1014F000F109E831F10508F0B0C18827EE58FF4F37
:101500008F4FA4C510DA2B013C0107EA1AE0E8016D
:101510008881882361F04DE050E068E372E0CE01FD
:101520000896A0D5892B19F429E931E098C1659670
:101530002C163D0669F780E090E0F801208121112A
:101540000AC0A8E3B2E0F89EA001F99E500D112454
:1015500020E030E009C001960B5E1F4F80349105FA
:1015600061F783EA91E03BC36D91F901E40FF51F48
:10157000E955F54F60872F5F3F4F2D303105A1F7BB
:10158000F89EF001F99EF00D1124E955F54F81E028
:1015900080838091310290913202481A590A610881
:1015A0007108448255826682778213821282118288
:1015B000C3C00FEA1AE0C0E0D0E04DE050E068E3BD
:1015C00072E0C8014FD5892B81F4FC9EF001FD9E8D
:1015D000F00D1124E955F54F8091310290913202BE
:1015E0009383828381E08183A7C021960B5E1F4F86
:1015F000C034D10511F784E991E0F1C294D94AE0F1
:1016000065D88CE198E00E94CB022FC18FE198E071
:10161000D8D8809130029AD888E298E01BC1809196
:10162000310290913202893EE3E09E07F1F0A8F486
:10163000883E934009F017C110927B0A60E084E372
:10164000F2DB10927E0A10927F0A60E082E0EBDB10
:1016500080E090E00E94090206C1893233E29307DC
:1016600061F08A32934259F1FEC081E080937B0A97
:1016700061E084E3D8DB04D8F6C080914502909104
:101680004602A0914702B09148020097A105B1051A
:1016900019F410927A0AE7C081309105A105B105CD
:1016A00021F481E080937A0ADEC00297A105B1059A
:1016B00009F0D9C080917A0A882399F3EACF809102
:1016C000450290914602A0914702B09148020097CE
:1016D000A105B10519F410925B0AC5C081309105CE
:1016E000A105B10521F481E080935B0ABCC002979B
:1016F000A105B10509F0B7C080915B0A882399F371
:10170000EACF0FEA1AE0C0E0D0E04DE050E068E335
:1017100072E0C801A7D4892BA1F4FC9EF001FD9EC4
:10172000F00D1124E955F54F1082118213821282B7
:101730001482158216821782D0924A02C092490200
:1017400092C021960B5E1F4FC034D105F1F653CFE6
:1017500082E398E07FC00091310210913202C8010B
:1017600001978034910510F000E410E089E398E0DF
:101770000E94DC02C7EADAE0A12CB12C0A151B0595
:1017800009F473C0688170E080E090E00E94AA03D1
:101790008BE698E016D8698170E080E090E00E94C6
:1017A000AA038BE698E00DD86A817B8180E090E007
:1017B0004AE00E9466038CE698E003D86C817D8144
:1017C0008E819F814AE00E94660388E798E00E942C
:1017D000E103CE0108960E94E2038EE198E00E94A8
:1017E000DC02FFEFAF1ABF0A6596C8CF80917A0A74
:1017F00090E00E94D10339C04090310250903202F3
:101800008DE798E00E94DC02C9E7D0E1052C000CCE
:10181000660877088E0161E0888105DBC301B201AB
:101820006CDB60E08881FFDAC301B20166DB80E92E
:1018300098E00E94E1032296F801808191810E9444
:10184000D103F0E1C939DF0729F789E998E002C03F
:1018500087EA98E00E94DC0208C026E931E0309374
:101860004A02209349020E94F60380E092E00E941F
:1018700017040EC02631310558F4F901EA5CF54F22
:1018800080872F5F3F4F30933D0A20933C0A0DCE57
:10189000F4012E2D11922A95E9F710923D0A10922B
:1018A0003C0A03CEF801808180933B0AF501219127
:1018B00031915F013327F901E05FFD4F8491F90118
:1018C000E653FE4F7490F901EC57FE4F54905520AB
:1018D00099F0811152DAE52DF0E0EE0FFF1FE65985
:1018E000FE4FA591B491EC917E2231E020E009F405
:1018F00030E0832F922F02C080E090E0282F2170EB
:10190000F80121938F01892B09F0B3C080913B0A24
:10191000281709F4AEC029DB2091370A3091380A24
:101920004091390A50913A0ADC01CB01821B930B9A
:10193000A40BB50B833D9105A105B10508F499C031
:1019400014DB6093370A7093380A8093390A9093B6
:101950003A0AFE013197E730F10528F48827E65767
:10196000FF4F8F4F73C380917C0A90917D0A01963F
:1019700090937D0A80937C0A2091880A3091890A8D
:1019800028173907ACF430937D0A20937C0A10C0E5
:1019900080917C0A90917D0A019797FD05C09093F4
:1019A0007D0A80937C0A04C010927D0A10927C0A02
:1019B00080917E0A882381F080917F0A81110CC07A
:1019C000E0917C0AF0917D0AEE0FFF1FE458F54F7D
:1019D000818992890E9409028EEA98E034C0809140
:1019E0007B0A882321F010927B0A60E003C060929A
:1019F0007B0A61E084E317DA86EB98E00E94E1035A
:101A000080917B0A90E025C080917E0A882361F056
:101A100010927E0A10927F0A60E082E004DA80E091
:101A200090E00E94090202C00E94E80280EC98E067
:101A30000E94E10360917E0A70E080E090E00E94E5
:101A4000AA0387EC98E00E94E10380917C0A9091C0
:101A50007D0A0E94D1030DC080ED98E008C08BED97
:101A600098E005C087EE98E002C083EF98E00E94FE
:101A7000DC022196C830D10509F014CF0E949304EE
:101A80002B013C01C7EADAE08881882309F44AC0C7
:101A90000A811B818C819D81AE81BF81B301A2012E
:101AA000481B590B6A0B7B0BF801EE0FFF1FEE0F63
:101AB000FF1FED5CFF4E80819181A281B38184176D
:101AC0009507A607B70770F58981FE0138965F0173
:101AD000882309F489C049DAF801EE0FFF1FEE0FE1
:101AE000FF1FE551F04F6083718382839383000F62
:101AF000111FF801E958FF4E61E0808194D981E01F
:101B000099E00E94E103C5010E94E2038DE099E0A3
:101B10000E94E103188219821B821A821C821D8294
:101B20001E821F8265962C163D0609F0ADCF80916E
:101B30008A0A882319F00E94400305C080917F0A19
:101B400081110E94E8020E9493040091760A10918C
:101B5000770A2091780A3091790A60177107820715
:101B6000930749F06093760A7093770A8093780A16
:101B70009093790A07C08091360A811103C081E0F1
:101B80008093360AC7EEDFE007E710E1EED94C801C
:101B90005D806E807F8020912F10309130104091B9
:101BA000311050913210420E531E641E751E46169F
:101BB00057066806790640F460E0F801808133D961
:101BC0001C821D821E821F8224960E5F1F4F27E2F9
:101BD00030E12C173D07D1F60E94510546CC909379
:101BE0004A02809349023FCE84E199E08ACFFF9276
:101BF0000F931F93CF93DF931092900910928F0948
:101C000088EE93E0A0E0B0E0809391099093920970
:101C1000A0939309B09394092BED37E030938E098C
:101C200020938D0925EC30E030939A09209399098F
:101C300024EC30E030939C0920939B0920EC30E0A9
:101C400030939E0920939D0921EC30E03093A00948
:101C500020939F0922EC30E03093A2092093A10940
:101C600026EC30E03093A4092093A3091092A60932
:101C70001092A7091092A8091092A90910922D0A92
:101C800010922C0A80932E0A90932F0AA093300A68
:101C9000B093310A8DEE97E090932B0A80932A0A35
:101CA00082E2EBE4F2E0A7E7B0E101900D928A95C1
:101CB000E1F780E991E0A0E0B0E080932F109093ED
:101CC0003010A0933110B09332108EE390E1A0E079
:101CD000B0E08093E70F9093E80FA093E90FB093E3
:101CE000EA0F85EC99E6A0E0B0E080933310909382
:101CF0003410A0933510B09336104EE653E260E0F6
:101D000070E04093371050933810609339107093FF
:101D10003A1040933B1050933C1060933D107093E9
:101D20003E1044E853E360E070E040933F1050936E
:101D300040106093411070934210409343105093B1
:101D40004410609345107093461047EB53E460E0F5
:101D500070E040934710509348106093491070937F
:101D60004A1040934B1050934C1060934D10709359
:101D70004E104CEA53E560E070E040934F105093F2
:101D80005010609351107093521040935310509321
:101D90005410609355107093561080935710909381
:101DA0005810A0935910B0935A1080935B109093E1
:101DB0005C10A0935D10B0935E1080935F109093C1
:101DC0006010A0936110B0936210809363109093A1
:101DD0006410A0936510B093661080936710909381
:101DE0006810A0936910B0936A1080936B10909361
:101DF0006C10A0936D10B0936E1080936F10909341
:101E00007010A0937110B093721080937310909320
:101E10007410A0937510B0937610C9E7D0E18E01CD
:101E200061E088812ED8229660E0F80180810E94CE
:101E30001307F0E1C939DF0791F780E495E0EDE69B
:101E4000F2E0A7EABAE001900D920197E1F7109253
:101E50007D0A10927C0A10927E0A10927F0A1092DC
:101E6000800A1092810A1092820A1092830A88EBEB
:101E70009BE0A0E0B0E08093840A9093850AA09351
:101E8000860AB093870A8CE090E09093890A809349
:101E9000880A10928A0A10928C0A10928B0A8AE1A0
:101EA000EDEAF7E0ADE8BAE001900D928A95E1F72E
:101EB00061E082E00E94410761E084E30E94410703
:101EC00010927B0A1092760A1092770A1092780A82
:101ED0001092790A10927A0A1092570A1092580AB0
:101EE0001092590A10925A0A10925B0A80E1E7ECAC
:101EF000F7E0A4E6BAE001900D928A95E1F710921E
:101F0000360A1092370A1092380A1092390A109243
:101F10003A0A81E080933B0AC4E6DAE00CE51AE075
:101F2000FF24F3948881229662E00E944107F80121
:101F3000F1928F01FAE0C437DF07A1F7DF91CF916B
:101F40001F910F91FF900895FC0188279927E8942D
:101F500021912032E9F3293010F02E30C8F32B32D2
:101F600039F02D3231F4689403C046D0820F911DB0
:101F7000219120532A30C8F31EF4909581959F4FEC
:101F800008951F93FC0199278827BC01E8941191BB
:101F90001032E9F3193010F01E30C8F31B3249F04B
:101FA0001D3241F4689405C012D0610F711D811D6E
:101FB000911D119110531A30B8F33EF4909580950D
:101FC000709561957F4F8F4F9F4F1F910895592FA7
:101FD000482F372F262F660F771F881F991F660FF0
:101FE000771F881F991F620F731F841F951F660F2D
:101FF000771F881F991F08957AE0979F902D879FDC
:10200000802D910D11240895A1E21A2EAA1BBB1B4D
:10201000FD010DC0AA1FBB1FEE1FFF1FA217B307B4
:10202000E407F50720F0A21BB30BE40BF50B661FCA
:10203000771F881F991F1A9469F76095709580958E
:1020400090959B01AC01BD01CF010895EE0FFF1FDC
:10205000881F8BBF0790F691E02D199481E090E0E6
:10206000F8940DC0FB01DC0104C08D910190801932
:1020700021F441505040C8F7881B990B0895F894FB
:02208000FFCF90
:102082003C7A5A5A5A7A7A7A7A7A7A7A7A7A7A7A4C
:102092007A7A4353554D3E003C7A5A5A5A7A7A7AA2
:1020A2007A7A7A7A7A7A7A7A7A7A4353554D3E00F4
:1020B2007A00007A000000007A00000000000000B0
:1020C2000000000000FFFFFFFF980100001600174C
:1020D20000180019001A001B001C001D001E001F22
:1020E200002000210022002300240025000000001F
:1020F20000000000007A7A7A7A7A7A7A7A7A7A7AA0
:102102007A0000000000000000007A7A7A7A7A7A77
:102112007A7A7A7A7A7A0000000000000000007A67
:102122007A7A7A7A7A7A7A7A7A7A7A00000000006F
:10213200000000007A7A7A7A7A7A7A7A7A7A7A7AE5
:102142000000000000000000007A7A7A7A7A7A7A37
:102152007A7A7A7A7A0000000000000000007A7A27
:102162007A7A7A7A7A7A7A7A7A7A000000000000A9
:102172000000007A7A7A7A7A7A7A7A7A7A7A7A00A5
:1021820000000000000000007A7A7A7A7A7A7A7A7D
:102192007A7A7A7A0000000000000000007A7A7AE7
:1021A2007A7A7A7A7A7A7A7A7A00000000000000E3
:1021B20000007A7A7A7A7A7A7A7A7A7A7A7A000065
:1021C200000000000000007A7A7A7A7A7A7A7A7AC3
:1021D2007A7A7A0000000000000000007A7A7A7AA7
:1021E2007A7A7A7A7A7A7A7A00000000000000001D
:1021F200007A7A7A7A7A7A7A7A7A7A7A7A00000025
:102202000000000000007A7A7A7A7A7A7A7A7A7A08
:102212007A7A0000000000000000007A7A7A7A7A66
:102222007A7A7A7A7A7A7A00000000000000000056
:102232007A7A7A7A7A7A7A7A7A7A7A7A00000000E4
:1022420000000000007A7A7A7A7A7A7A7A7A7A7A4E
:102252007A0000000000000000007A7A7A7A7A7A26
:102262007A7A7A7A7A7A0000000000000000007A16
:102272007A7A7A7A7A7A7A7A7A7A7A00000000001E
:10228200000000007A7A7A7A7A7A7A7A7A7A7A7A94
:102292000000000000000000007A7A7A7A7A7A7AE6
:1022A2007A7A7A7A7A0000000000000000007A7AD6
:1022B2007A7A7A7A7A7A7A7A7A7A00000000000058
:1022C2000000007A7A7A7A7A7A7A7A7A7A7A7A0054
:1022D20000000000000000007A7A7A7A7A7A7A7A2C
:1022E2007A7A7A7A0000000000000000007A7A7A96
:1022F2007A7A7A7A7A7A7A7A7A0000000000000092
:1023020000007A7A7A7A7A7A7A7A7A7A7A7A000013
:10231200000000000000007A7A7A7A7A7A7A7A7A71
:102322007A7A7A0000000000000000007A7A7A7A55
:102332007A7A7A7A7A7A7A7A0000000000000000CB
:10234200007A7A7A7A7A7A7A7A7A7A7A7A000000D3
:102352000000000000007A7A7A7A7A7A7A7A7A7AB7
:102362007A7A0000000000000000007A7A7A7A7A15
:102372007A7A7A7A7A7A7A00000000000000000005
:102382007A7A7A7A7A7A7A7A7A7A7A7A0000000093
:1023920000000000007A7A7A7A7A7A7A7A7A7A7AFD
:1023A2007A0000000000000000007A7A7A7A7A7AD5
:1023B2007A7A7A7A7A7A0000000000000000007AC5
:1023C2007A7A7A7A7A7A7A7A7A7A7A0000000000CD
:1023D200000000007A7A7A7A7A7A7A7A7A7A7A7A43
:1023E2000000000000000000007A7A7A7A7A7A7A95
:1023F2007A7A7A7A7A0000000000000000007A7A85
:102402007A7A7A7A7A7A7A7A7A7A00000000000006
:102412000000007A7A7A7A7A7A7A7A7A7A7A7A0002
:1024220000000000000000007A7A7A7A7A7A7A7ADA
:102432007A7A7A7A0000000000000000007A7A7A44
:102442007A7A7A7A7A7A7A7A7A0000000000000040
:1024520000007A7A7A7A7A7A7A7A7A7A7A7A0000C2
:10246200000000000000007A7A7A7A7A7A7A7A7A20
:102472007A7A7A0000000000000000007A7A7A7A04
:102482007A7A7A7A7A7A7A7A00000000000000007A
:10249200007A7A7A7A7A7A7A7A7A7A7A7A00000082
:1024A2000000000000007A7A7A7A7A7A7A7A7A7A66
:1024B2007A7A0000000000000000007A7A7A7A7AC4
:1024C2007A7A7A7A7A7A7A000000000000000000B4
:1024D2007A7A7A7A7A7A7A7A7A7A7A7A0000000042
:1024E20000000000007A7A7A7A7A7A7A7A7A7A7AAC
:1024F2007A0000000000000000007A7A7A7A7A7A84
:102502007A7A7A7A7A7A0000000000000000007A73
:102512007A7A7A7A7A7A7A7A7A7A7A00000000007B
:10252200000000007A7A7A7A7A7A7A7A7A7A7A7AF1
:102532000000000000000000007A7A7A7A7A7A7A43
:102542007A7A7A7A7A0000000000000000007A7A33
:102552007A7A7A7A7A7A7A7A7A7A000000000000B5
:102562000000007A7A7A7A7A7A7A7A7A7A7A7A00B1
:1025720000000000000000007A7A7A7A7A7A7A7A89
:102582007A7A7A7A0000000000000000007A7A7AF3
:102592007A7A7A7A7A7A7A7A7A00000000000000EF
:1025A20000007A7A7A7A7A7A7A7A7A7A7A7A000071
:1025B200000000000000007A7A7A7A7A7A7A7A7ACF
:1025C2007A7A7A0000000000000000007A7A7A7AB3
:1025D2007A7A7A7A7A7A7A7A000000000000000029
:1025E200007A7A7A7A7A7A7A7A7A7A7A7A00000031
:1025F2000000000000007A7A7A7A7A7A7A7A7A7A15
:102602007A7A0000000000000000007A7A7A7A7A72
:102612007A7A7A7A7A7A7A00000000000000000062
:102622007A7A7A7A7A7A7A7A7A7A7A7A003C004B69
:10263200005A00690082009100A000AF00BE00CDE8
:1026420000DC00F500FF0006000700080009000A90
:10265200000B000C000D0000000000500677011472
:10266200059C064505230537050000000018060EE7
:10267200062906E2050606F205E3055B42425F4FC4
:102682004E4C494E455D005B42656C742042756359
:102692006B6C652076302E362E325D000D0A0043BB
:1026A2006F6D6D616E6420002052656365697665A9
:1026B2006400544F444F2058004F636365642020E8
:1026C200203A2020417369676E6420203A2020203E
:1026D2002042696E202020203A2020202044697365
:1026E200742020203A20202049640020202020202D
:1026F200203A20202020200020203A200054657318
:1027020074696E67206F7574707574732E2E2E0047
:102712006F75747075743A20005465737420636F1A
:102722006D706C65746500544F444F205700737090
:102732006565643A200062656C742069733A200012
:102742004D6F64653A20002053706565643A20003D
:10275200627574746F6E5F72756E00627574746FF9
:102762006E5F73746F7000627574746F6E5F626512
:102772006C7400627574746F6E5F66656564657211
:10278200005B54454C2D432D3230302D002D4353E8
:10279200554D5D005B54454C2D462D3230302D0099
:1027A20066756C6C20737065656400737461727415
:0E27B2007570005B41434B2D004353554D00A5
:00000001FF
