:1000000045C1000073C1000071C100006FC1000054
:100010006DC100006BC1000069C1000067C1000034
:1000200065C1000063C1000061C100005FC1000044
:100030005DC100005BC1000059C1000057C1000054
:1000400055C1000053C1000051C100004FC1000064
:100050004DC100004BC1000049C1000087C4000031
:1000600045C10000D7C30000ACC300003FC1000081
:100070003DC100003BC1000039C1000037C1000094
:1000800035C1000033C1000031C100002FC10000A4
:100090002DC100002BC1000029C10000B1C4000027
:1000A00025C1000023C1000021C100001FC10000C4
:1000B0001DC100001BC1000019C1000017C10000D4
:1000C00015C1000013C1000011C100000FC10000E4
:1000D0000DC100000BC1000009C1000007C10000F4
:1000E00005C10000CB02CE02BD02C102C70205035A
:1000F000D202D602DC02E002E402EA02EE02F202DE
:100100000503F802FC0200037B0ACA0A040C040C73
:10011000040C040CF20AF90A040C040C040C040C80
:10012000020B040C700B940B040C040CCF0BD40BBF
:10013000040C040C000C910B9E0CC40CD90CF80C94
:10014000FB0CFE0C010D540659065E06680672068D
:10015000EB067C0684068C069606A006AA06B9065F
:10016000C306EB06CD06D706E106000021002400F9
:1001700027002A002D003000330001010000040197
:1001800007010A0100002200250028002B002E0094
:100190003100340002010000050108010B010000DC
:1001A00020002300260029002C002F00320000012F
:1001B00000000301060109010505050507050808FA
:1001C0000808020202020A0A0808040404040101E1
:1001D00001010101010103030303030303030407F6
:1001E00007070C0C0C0C0C0C0C0C0202020206068D
:1001F0000606060606060B0B0B0B0B0B0B0B010280
:100200001020200808102040102040800201020128
:1002100008040201010204081020408080402010E0
:100220000804020180040201804020100804020139
:1002300008040201010204081020408001020408A1
:100240001020408000000A0B02090C0D0E08070365
:100250000401000000000000000000000000000099
:10026000000000000000000000000000000000008E
:10027000121110000000000000000000000000004B
:1002800000000000000000000000C50D11241FBE8A
:10029000CFEFD1E2DEBFCDBF00E00CBF18E0A0E0A1
:1002A000B2E0E8E1F0E200E00BBF02C007900D927F
:1002B000AE3FB107D9F720E1AEEFB8E001C01D9223
:1002C000A137B207E1F711E0C6E4D1E000E006C0D3
:1002D00021970109802FFE010E94F10FC534D1073B
:1002E00080E00807A9F7C3D70C940A1089CECF92F3
:1002F000DF92EF92FF920F931F93CF93DF936C01E6
:100300007A018B01C0E0D0E0CE15DF0581F0D80185
:100310006D918D01D601ED91FC910190F081E02D60
:10032000C6011995892B11F02196EECF7E01C701E8
:10033000DF91CF911F910F91FF90EF90DF90CF90C1
:10034000089508950895FC01538D448D252F30E0C4
:10035000842F90E0821B930B541710F0CF960895D2
:1003600001970895FC01918D828D981761F0828D1F
:10037000DF01A80FB11D5D968C91928D9F5F9F73D9
:10038000928F90E008958FEF9FEF0895FC01918D7B
:10039000828D981731F0828DE80FF11D858D90E0E8
:1003A00008958FEF9FEF0895FC01918D228D892F85
:1003B00090E0805C9F4F821B91098F73992708956D
:1003C00089E999E0F1DF21E0892B09F420E0822F0F
:1003D0000895FC01848DDF01A80FB11DA35ABF4F02
:1003E0002C91848D90E001968F739927848FA68934
:1003F000B7892C93A089B1898C91837080648C9388
:10040000938D848D981306C00288F389E02D808136
:100410008F7D80830895EF92FF920F931F93CF9368
:10042000DF93EC0181E0888F9B8D8C8D981305C044
:10043000E889F989808185FD25C0F62E0B8D10E0B5
:100440000F5F1F4F0F731127E02E8C8DE8120BC02A
:100450000FB607FCFACFE889F989808185FFF5CFCF
:10046000CE01B7DFF2CF8B8DFE01E80FF11DE35A0D
:10047000FF4FF0829FB7F8940B8FEA89FB89808148
:1004800080620AC09FB7F894EE89FF896083E8898B
:10049000F98980818370806480839FBF81E090E0D0
:1004A000DF91CF911F910F91FF90EF900895CF931F
:1004B000DF93EC01888D8823C1F0EA89FB89808174
:1004C00085FD05C0A889B9898C9186FD0EC00FB63F
:1004D00007FCF5CF808185FFF2CFA889B9898C917F
:1004E00085FFEDCFCE0175DFE8CFDF91CF91089585
:1004F00080E090E0892B19F063DF811125C080E056
:1005000090E0892B41F080E090E0892B21F00E945F
:10051000000081111CC080E090E0892B41F080E058
:1005200090E0892B21F00E940000811113C080E02F
:1005300090E0892BA1F080E090E0892B81F00E946F
:10054000000081110AC008950E940000D8CF0E94C7
:100550000000E1CF0E940000EACF0C940000089553
:1005600090E0FC013197E231F10508F04EC0882798
:10057000EE58FF4F8F4F0C94F10F809180008F77D2
:1005800003C0809180008F7D8093800008958091CA
:100590008000877FF9CF84B58F7702C084B58F7DC7
:1005A00084BD08958091B0008F7703C08091B00022
:1005B0008F7D8093B0000895809190008F7707C061
:1005C000809190008F7D03C080919000877F809301
:1005D000900008958091A0008F7707C08091A000BF
:1005E0008F7D03C08091A000877F8093A000089535
:1005F000809120018F7707C0809120018F7D03C0FB
:1006000080912001877F8093200108953FB7F8945F
:100610008091460990914709A0914809B0914909F4
:1006200026B5A89B05C02F3F19F00196A11DB11D4D
:100630003FBFBA2FA92F982F8827820F911DA11D88
:10064000B11DBC01CD0142E0660F771F881F991FC5
:100650004A95D1F708958F929F92AF92BF92CF9211
:10066000DF92EF92FF926B017C01D0DF4B015C01C6
:10067000C114D104E104F104E9F0C8DFDC01CB01CD
:1006800088199909AA09BB09883E9340A105B105BB
:1006900078F321E0C21AD108E108F10888EE880E4B
:1006A00083E0981EA11CB11CC114D104E104F10423
:1006B00021F7DECFFF90EF90DF90CF90BF90AF900B
:1006C0009F908F90089585ED8093BC008091BC0031
:1006D00084FDFCCF10927609089540911E09262FC3
:1006E00030E0240F311D21323105DCF420917609F0
:1006F0002430C9F4FC0180E090E0861758F4309172
:100700001E092191DC01A250B74FA30FB11D2C93FC
:100710000196F3CF80911E09680F60931E0980E057
:10072000089581E0089582E008950895E0917809A0
:1007300080917709E81730F4F0E0E758F64F8081B0
:1007400090E008958FEF9FEF089590917809809140
:100750007709981750F4E92FF0E0E758F64F208119
:1007600030E09F5F9093780902C02FEF3FEFC901FF
:1007700008958091770990E020917809821B910972
:100780000895CF93DF93CB01EA01642FA6DFCE015A
:10079000DF91CF910895CF93DF931F92CDB7DEB74E
:1007A000698361E0CE01019698DF81E090E00F90CF
:1007B000DF91CF910895089580E090E008950E9420
:1007C000F90F1F920F920FB60F9211240BB60F92D2
:1007D0002F933F934F935F936F937F938F939F9349
:1007E000AF93BF93EF93FF9389E999E0F2DDFF9117
:1007F000EF91BF91AF919F918F917F916F915F9199
:100800004F913F912F910F900BBE0F900FBE0F9005
:100810001F9018951F920F920FB60F9211240BB6CE
:100820000F922F938F939F93EF93FF93E091A909DA
:10083000F091AA098081E091AF09F091B00982FDA1
:1008400012C090818091B2098F5F8F732091B3099C
:10085000821751F0E091B209F0E0E756F64F958F1C
:100860008093B20901C08081FF91EF919F918F9198
:100870002F910F900BBE0F900FBE0F901F901895E9
:100880001F93CF93DF93282F30E0F901EC5BFD4FEE
:100890008491F901E250FE4FD491F901E854FE4FE2
:1008A000C491CC23B9F0162F81115ADEEC2FF0E061
:1008B000EE0FFF1FEC57FE4FA591B4919FB7F89430
:1008C000111104C08C91D095D82302C0EC91DE2B7D
:1008D000DC939FBFDF91CF911F910895CF93DF935A
:1008E00090E0FC01E250FE4F2491FC01E854FE4FE1
:1008F0008491882361F190E0880F991FFC01E659EB
:10090000FE4FC591D491FC01EC57FE4FA591B491D7
:10091000611109C09FB7F89488812095822388834C
:10092000EC912E230BC0623061F49FB7F89488815C
:10093000322F309583238883EC912E2B2C939FBFED
:1009400006C08FB7F894E8812E2B28838FBFDF91E4
:10095000CF9108952FB7F89460914209709143099F
:1009600080914409909145092FBF08951F920F92DD
:100970000FB60F9211242F933F938F939F93AF93B2
:10098000BF938091420990914309A0914409B0918D
:1009900045093091410923E0230F2D3720F40196BA
:1009A000A11DB11D05C026E8230F0296A11DB11D92
:1009B000209341098093420990934309A0934409ED
:1009C000B09345098091460990914709A091480943
:1009D000B09149090196A11DB11D809346099093DC
:1009E0004709A0934809B0934909BF91AF919F91DE
:1009F0008F913F912F910F900FBE0F901F901895E0
:100A00001F920F920FB60F9211240BB60F922F93D5
:100A10003F934F935F936F937F938F939F93AF9386
:100A2000BF93EF93FF938091B900887F803609F4DC
:100A30009CC068F5883209F45BC090F4803109F4F9
:100A400054C038F4882309F4F6C0883009F44DC046
:100A5000F5C0883109F44CC0803209F45DC0EEC0A5
:100A6000803409F468C048F4803309F455C08833F1
:100A700009F0E4C080937409D8C0803509F44FC0F0
:100A8000883509F45DC0883409F0D8C0D6C08839EB
:100A900009F4C7C0A8F4883709F467C038F4883669
:100AA00009F463C0803709F460C0C8C0883809F40D
:100AB000B8C0803909F45FC0803809F0BFC05BC09E
:100AC000803B09F486C038F4803A09F466C0883A5D
:100AD00009F47FC0B3C0803C09F4A7C0883C09F486
:100AE000A4C0883B09F48AC0A9C08091710910C0D4
:100AF0009091730980917209981770F5E0917309CC
:100B000081E08E0F80937309F0E0E05BF64F808107
:100B10008093BB0085EC86C0809374098EC0E09101
:100B2000730981E08E0F809373098091BB00F0E020
:100B3000E05BF64F808390917309809172096EC0DB
:100B4000E091730981E08E0F809373098091BB005F
:100B5000F0E0E05BF64F80838091750981116DC0F4
:100B600081E08093700984EA61C083E08093760914
:100B700010924009CFCF80914009803208F051C0D7
:100B8000E091400981E08E0F809340098091BB0085
:100B9000F0E0E05EF64F8083BDCF85EC8093BC0033
:100BA0001092760980914009803230F4E09140093A
:100BB000F0E0E05EF64F10826091400970E0E09155
:100BC0004A09F0914B0980E299E019951092400989
:100BD00035C084E08093760910921F0910921E0997
:100BE000E0914C09F0914D09199580911E098111F0
:100BF00005C081E080931E091092FE08E0911F0954
:100C000081E08E0F80931F09F0E0E250F74F808162
:100C10008093BB0090911F0980911E09981708F4DA
:100C200079CF85E88093BC0009C085EC8093BC0037
:100C30001092760903C01092740945DDFF91EF917F
:100C4000BF91AF919F918F917F916F915F914F91E4
:100C50003F912F910F900BBE0F900FBE0F901F90E2
:100C60001895CF93DF93EC0161E083E037DE2097A6
:100C700011F460E004C0CF3FD10529F461E083E0C6
:100C8000DF91CF91FDCDE7E4F2E0E4918E2F90E08B
:100C9000FC013197E231F10508F09DC08827ED5540
:100CA000FF4F8F4F0C94F10F84B5806884BDC7BD92
:100CB00097C084B5806284BDC8BD92C08091800019
:100CC000806880938000D0938900C093880088C09A
:100CD00080918000806280938000D0938B00C093CD
:100CE0008A007EC080918000886080938000D093CD
:100CF0008D00C0938C0074C08091B0008068809398
:100D0000B000C093B3006CC08091B000806280934B
:100D1000B000C093B40064C080919000806880935C
:100D20009000D0939900C09398005AC08091900091
:100D3000806280939000D0939B00C0939A0050C033
:100D400080919000886080939000D0939D00C09324
:100D50009C0046C08091A00080688093A000809194
:100D6000A0008F7B8093A000D093A900C093A8001F
:100D700037C08091A00080628093A000D093AB0028
:100D8000C093AA002DC08091A00088608093A0002D
:100D9000D093AD00C093AC0023C080912001806847
:100DA00080932001D0932901C093280119C080911C
:100DB0002001806280932001D0932B01C0932A01EF
:100DC0000FC080912001886080932001D0932D0175
:100DD000C0932C0105C0C038D1050CF04FCF49CFCE
:100DE000DF91CF910895009761F0FC010190002000
:100DF000E9F73197AF01481B590BBC0189E999E02C
:100E000076CA80E090E00895CF93DF93ECDFEC01A9
:100E10008CED97E0E8DF8C0F9D1FDF91CF91089557
:100E20000F931F9390918B0A80918A0A992331F036
:100E300081111CC081E080938A0A18C0811142C0D0
:100E400089DD60938C0A70938D0A80938E0A90934B
:100E50008F0A81E080938B0A80938A0A84E190E074
:100E600000DF8BEE98E01F910F91CECF73DD0091E4
:100E70008C0A10918D0A20918E0A30918F0ADC0124
:100E8000CB01801B910BA20BB30B0091900A109128
:100E9000910A2091920A3091930A081719072A079C
:100EA0003B0780F410928B0AE091880AF091890A3E
:100EB000EE0FFF1FE857F54F81899289D2DE80EE51
:100EC00098E0D1CF1F910F9108950F931F938091B8
:100ED000960A81110BC03EDD62517D4F7093980AD6
:100EE0006093970A81E08093960A12C033DD2091C7
:100EF000970A3091980A890120E030E00617170719
:100F00002807390728F41092960A1F910F9188CF6D
:100F10001F910F9108958F929F92AF92BF920F935E
:100F20001F93CF93DF93CDB7DEB7A1970FB6F89499
:100F3000DEBF0FBECDBF19A2423008F44AE08E01D9
:100F40000F5D1F4F842E912CA12CB12CA501940173
:100F50000E94CF0FE62FB901CA0101501109EA30F2
:100F600014F4E05D01C0E95CD801EC93232B242B41
:100F7000252B61F7C80137DFA1960FB6F894DEBFC5
:100F80000FBECDBFDF91CF911F910F91BF90AF905A
:100F90009F908F900895682F89E999E03CCACF927D
:100FA000DF92EF92FF92CF93DF9397FF17C06B0111
:100FB0007C018DE2F0DFEC0166277727CB016C190D
:100FC0007D098E099F094AE0A6DF8C0F9D1FDF91E6
:100FD000CF91FF90EF90DF90CF9008954AE0DF919E
:100FE000CF91FF90EF90DF90CF9095CFCF93DF938D
:100FF000BC01990F880B990BD2DFEC018CED97E0C7
:10100000F2DE8C0F9D1FDF91CF910895ECCE0F93F0
:101010001F93CF93DF93EC018C010F5B1F4F8991DE
:10102000882321F0B8DFC017D107C9F7DF91CF912E
:101030001F910F91089583EF98E0E8DF80913002CF
:10104000AADF8FEB98E0E2DF6091490270914A02DB
:10105000072E000C880B990BA2DF8FEB98E0D6DFF0
:1010600088E392E0D3DF8FEB98E0D0DF89EF98E060
:10107000CDDF8AED97E0C8CE0F931F93CF93DF9318
:10108000FC01DC010D900020E9F7CD0148978E1797
:101090009F0709F060C088E192E0EF01DF010D9049
:1010A0000020E9F71197AE1BBF0B9E012E1B3F0BD3
:1010B0002A173B0728F42991DC012D93CD01EECFAF
:1010C000818180933002DF011296C3E3D2E08F0169
:1010D0000A5F1F4F8D918993A017B107D9F7EF01D0
:1010E0001092370283E392E0FAD690933202809313
:1010F0003102A8E3B2E0FE017296E80189918E0107
:101100008D93CE17DF07C9F7109244022091380261
:10111000822F022E000C990BC0970A9710F02D32E7
:1011200061F488E392E0F8D660934502709346023A
:1011300080934702909348020BC08FEF9FEFDC0132
:101140008093450290934602A0934702B0934802D1
:1011500088EC90E002C081E991E090934A0280938C
:101160004902DF91CF911F910F9108950F931F9323
:10117000CF93DF938091860A882329F0DF91CF9166
:101180001F910F91E7CB809176098111FCCF81E00F
:1011900080937609809375099FEF9093740910925C
:1011A000730993E09093720980937109809171099A
:1011B00084608093710980917009813061F410928C
:1011C0007009809171098093BB008091BC0083FD00
:1011D000F8CF85EC01C085EE8093BC008091760944
:1011E0008130E1F380917309843018F49091730990
:1011F00001C094E0A0E5B9E0E9E7F9E080E08917F3
:1012000021F02D9121938F5FFACF1092780980936E
:101210007709882319F186E39AE097DA182F86E395
:101220009AE093DAC82F86E39AE08FDAD82F86E324
:101230009AE08BDA4C2F50E060E070E0512B762F73
:10124000652F542F44274D2B762F652F542F44277D
:101250008A019B01082BC901B80104C061E070E05C
:1012600080E090E0DF91CF911F910F9108957894E5
:1012700084B5826084BD84B5816084BD85B582609B
:1012800085BD85B5816085BD80916E00816080934C
:101290006E001092810080918100826080938100B5
:1012A00080918100816080938100809180008160C5
:1012B000809380008091B10084608093B100809120
:1012C000B00081608093B000809191008260809333
:1012D00091008091910081608093910080919000B5
:1012E0008160809390008091A10082608093A10032
:1012F0008091A10081608093A1008091A000816015
:101300008093A000809121018260809321018091CF
:10131000210181608093210180912001816080936F
:10132000200180917A00846080937A0080917A0015
:10133000826080937A0080917A00816080937A0045
:1013400080917A00806880937A001092C100E091C9
:10135000A909F091AA0982E08083E091A909F0919E
:10136000AA091082E091A509F091A6091082E091E6
:10137000A709F091A80980E180831092B109E0915A
:10138000AD09F091AE0986E08083E091AB09F09160
:10139000AC09808180618083E091AB09F091AC0958
:1013A000808188608083E091AB09F091AC098081F5
:1013B00080688083E091AB09F091AC0980818F7DDA
:1013C00080838BEB97E022DE64E670E080E090E0C3
:1013D00042D987EC97E01ADE1092780910927709CB
:1013E00010924F0910924E0910927609C1E0C093F5
:1013F00075091092700961E084E142DA61E085E1EB
:101400003FDA8091B9008E7F8093B9008091B90056
:101410008D7F8093B90088E48093B80085E4809341
:10142000BC0081EA91E090934D0980934C0982EAD7
:1014300091E090934B0980934A09C093800A1092DF
:10144000860AFAE4EF2EFAE0FF2EA8ECCA2ED12C81
:10145000B3EB2B2EBFE03B2E89E999E00E94D4012B
:10146000892BE1F089E999E00E94B2018093620A38
:101470008C3339F02091480A3091490A8E33C9F0F3
:10148000CEC1F70128E111922A95E9F780934A0A23
:1014900081E090E09093490A8093480AE0E76E2E3D
:1014A000EAE07E2E08E61AE0C0E0D0E0442443944F
:1014B000CEC1F901EE5BF54F80878AE49AE0DCDD6E
:1014C0008091490290914A02883C910509F0A2C19D
:1014D000E09130028E2FEE0F990BAA0BBB0BFC0193
:1014E000E154F109E831F10508F08EC18827EC5785
:1014F000FF4F8F4F76C53ADE2B013C01C0E0D0E0B4
:101500004DE050E068E372E0CE018C54954F75D504
:10151000892B19F4E9E9F1E079C16496C115F5E088
:10152000DF0771F7E3EBFAE080E090E02081211122
:101530000BC0A8E3B2E024E1289FA001299F500D31
:10154000112421E030E008C00196749680349105A2
:1015500069F7E3EAF1E05AC16D91FA01E20FF31F76
:10156000ED54F54F60832F5F3F4F2E303105A1F7CB
:1015700044E1489F9001499F300D1124F901ED5439
:10158000F54F81E08083408A518A628A738A178688
:101590001686BBC004EB1AE0C0E0D0E04DE050E09E
:1015A00068E372E0C80129D5892B79F484E18C9F26
:1015B000F0018D9FF00D1124ED54F54F8091310213
:1015C0009091320297878687A0C021960C5E1F4FAC
:1015D000C034D10519F784E991E090934A028093D1
:1015E000490218C1C3DD4AE096DC8CED97E0FBDBD5
:1015F00012C18FED97E00ADD80913002CCDC88EEDD
:1016000097E000C18091310290913202893EE3E07F
:101610009E07D1F088F4883E934009F0FBC01092F9
:10162000870A60E084E32CD910928A0A10928B0A10
:1016300080E090E016DBEEC08932E3E29E0761F0C5
:101640008A32934259F1E6C081E08093870A61E0D3
:1016500084E316D93ADCDEC08091450290914602BF
:10166000A0914702B09148020097A105B10519F475
:101670001092860ACFC081309105A105B10521F4F1
:1016800081E08093860AC6C00297A105B10509F0E2
:10169000C1C08091860A882399F3EACF80914502E0
:1016A00090914602A0914702B09148020097A1058F
:1016B000B10519F41092670AADC081309105A105FA
:1016C000B10521F481E08093670AA4C00297A105C7
:1016D000B10509F09FC08091670A882399F3EACF8A
:1016E00004EB1AE0C0E0D0E04DE050E068E372E0C7
:1016F000C80183D4892B71F484E18C9FF0018D9F04
:10170000F00D1124ED54F54F1082D0924A02C09290
:10171000490280C021960C5E1F4FC034D10521F7CD
:101720005ACF82EF97E06EC0609031027090320223
:10173000C30101978034910518F070E4672E712C75
:1017400089EF97E061DBC3EBDAE000E010E06016C0
:10175000710609F460C0688170E080E090E01FDCF1
:101760008FE198E053DC6E857F8580E090E04AE071
:10177000D2DB80E298E04ADC688979898A899B8992
:101780004AE0C9DB8CE298E041DCCE0101963FDC07
:101790008CED97E03BDC0F5F1F4F6496D8CF8091B4
:1017A000860A90E023DC37C040903102509032022C
:1017B00081E398E029DBC5E4D0E1052C000C660844
:1017C00077088E0161E088815BD8C301B2010E9475
:1017D0002B0360E0888154D8C301B2010E942B031F
:1017E00084E498E013DC2296F80180819181FEDB8D
:1017F00085E690E18C179D0721F78DE498E002C003
:101800008BE598E001DB07C0E6E9F1E0F0934A02DE
:10181000E093490210DC80E092E02EDC0EC026311D
:10182000310558F4F901EE5BF54F80872F5F3F4F8C
:101830003093490A2093480A31CEF70128E11192EA
:101840002A95E9F71092490A1092480A27CEF80122
:1018500080818093470AF301219131913F01332721
:10186000F901EC5BFD4F8491F901E250FE4F549079
:10187000F901E854FE4FA490AA20A1F081110E9422
:10188000B002EA2DF0E0EE0FFF1FE256FE4FA591E9
:10189000B491EC915E2231E020E009F430E0832F36
:1018A000922F02C080E090E0282F2170F801219350
:1018B0008F01892B09F0A8C08091470A281709F4E5
:1018C000A3C048D88090430A9090440AA090450A4B
:1018D000B090460ADC01CB0188199909AA09BB0915
:1018E000833D9105A105B10508F48EC033D86093FE
:1018F000430A7093440A8093450A9093460AFE0176
:101900003197E730F10528F48827E456FF4F8F4FD1
:1019100068C38091880A9091890A01969093890AF8
:101920008093880A2091940A3091950A28173907E4
:10193000ACF43093890A2093880A10C08091880AF9
:101940009091890A019797FD05C09093890A809329
:10195000880A04C01092890A1092880A80918A0A23
:10196000882379F080918B0A81110BC0E091880A5D
:10197000F091890AEE0FFF1FE857F54F8189928990
:1019800070D982E698E02DC08091870A882321F0E3
:101990001092870A60E003C04092870A61E084E306
:1019A0000E9440048AE698E031DB8091870A90E04B
:1019B0001DC080918A0A882341F010928A0A1092F1
:1019C0008B0A80E090E04DD901C02ADA84E798E0E4
:1019D0001DDB60918A0A70E080E090E0E0DA8BE73E
:1019E00098E014DB8091880A9091890AFFDA0CC094
:1019F00084E898E008C08FE898E005C08BE998E09B
:101A000002C087EA98E000DA2196C830D10509F0D3
:101A10001ECFACDB2B013C01C3EBDAE088818823CD
:101A200009F451C00E851F8588899989AA89BB89C7
:101A300053014201881A990AAA0ABB0AF801EE0F5B
:101A4000FF1FEE0FFF1FE150F04F40815181628177
:101A500073818091B30F9091B40FA091B50FB091A5
:101A6000B60F840F951FA61FB71F88159905AA05E5
:101A7000BB0508F484C0481559056A057B0518F5AF
:101A800001151105B1F00E94AA04F801EE0FFF1F25
:101A9000EE0FFF1FE954F04F6083718382839383BD
:101AA000000F111FF801ED5BFF4E61E080810E9485
:101AB000400485EB98E0AADACE010196A8DA81EC21
:101AC00098E0A2D9188264962C163D0609F0A6CF9C
:101AD0008091960A882311F0F8D904C080918B0A6E
:101AE00081119ED943DB0091820A1091830A2091D3
:101AF000840A3091850A601771078207930749F0BD
:101B00006093820A7093830A8093840A9093850A73
:101B100007C08091420A811103C081E08093420A8C
:101B2000C3EBDFE003E410E10E94AA044C805D8077
:101B30006E807F808090FB0F9090FC0FA090FD0F37
:101B4000B090FE0F840C951CA61CB71C8616970639
:101B5000A806B90648F460E0F80180810E944004BC
:101B60001C821D821E821F8224960E5F1F4F83EFF0
:101B70009FE08C179D07C1F60E9478026DCC88EC1F
:101B800098E042D984ED98E096CFFF920F931F938F
:101B9000CF93DF9310929C0910929B0988EE93E0FB
:101BA000A0E0B0E080939D0990939E09A0939F09C7
:101BB000B093A0092BE937E030939A092093990953
:101BC00025EC30E03093A6092093A50924EC30E001
:101BD0003093A8092093A70920EC30E03093AA099C
:101BE0002093A90921EC30E03093AC092093AB0994
:101BF00022EC30E03093AE092093AD0926EC30E0C2
:101C00003093B0092093AF091092B2091092B30932
:101C10001092B4091092B5091092390A1092380A3C
:101C200080933A0A90933B0AA0933C0AB0933D0AF2
:101C30008DEA97E09093370A8093360A82E2EBE4CC
:101C4000F2E0A3E4B0E101900D928A95E1F780E91A
:101C500091E0A0E0B0E08093FB0F9093FC0FA09385
:101C6000FD0FB093FE0F8EE390E1A0E0B0E0809313
:101C7000B30F9093B40FA093B50FB093B60F85E256
:101C80009AE5A0E0B0E08093FF0F90930010A0933E
:101C90000110B09302104DE259E160E070E0409312
:101CA0000310509304106093051070930610409336
:101CB0000710509308106093091070930A104BE6B8
:101CC00059E260E070E040930B1050930C10609369
:101CD0000D1070930E1040930F10509310106093DE
:101CE00011107093121049EA59E360E070E04093DC
:101CF00013105093141060931510709316104093A6
:101D00001710509318106093191070931A1047EE23
:101D100059E460E070E040931B1050931C106093F6
:101D20001D1070931E1040931F105093201060934D
:101D30002110709322108093231090932410A0936D
:101D40002510B09326108093271090932810A0930D
:101D50002910B0932A1080932B1090932C10A093ED
:101D60002D10B0932E1080932F1090933010A093CD
:101D70003110B09332108093331090933410A093AD
:101D80003510B09336108093371090933810A0938D
:101D90003910B0933A1080933B1090933C10A0936D
:101DA0003D10B0933E1080933F1090934010A0934D
:101DB0004110B0934210C5E4D0E18E0161E088810A
:101DC0000E946E04229660E0F80180810E94400427
:101DD000F0E1C536DF0789F780E095E0EDE6F2E057
:101DE000A3EBBAE001900D920197E1F71092890AF6
:101DF0001092880A10928A0A10928B0A10928C0A0A
:101E000010928D0A10928E0A10928F0A80ED97E040
:101E1000A0E0B0E08093900A9093910AA093920A78
:101E2000B093930A8CE090E09093950A8093940A83
:101E30001092960A1092980A1092970A8AE1EDE69B
:101E4000F7E0A9E9BAE001900D928A95E1F761E027
:101E500084E30E946E041092870A1092820A109204
:101E6000830A1092840A1092850A1092860A1092B0
:101E7000630A1092640A1092650A1092660A109220
:101E8000670A80E1E7E8F7E0A0E7BAE001900D9289
:101E90008A95E1F71092420A1092430A1092440A7E
:101EA0001092450A1092460A81E08093470AC0E7E3
:101EB000DAE008E61AE0FF24F3948881229662E0D3
:101EC0000E946E04F801F1928F01FAE0C038DF073A
:101ED000A1F7DF91CF911F910F91FF900895FC0121
:101EE00088279927E89421912032E9F3293010F0CE
:101EF0002E30C8F32B3239F02D3231F4689403C000
:101F000046D0820F911D219120532A30C8F31EF430
:101F1000909581959F4F08951F93FC0199278827DD
:101F2000BC01E89411911032E9F3193010F01E3021
:101F3000C8F31B3249F01D3241F4689405C012D039
:101F4000610F711D811D911D119110531A30B8F34D
:101F50003EF490958095709561957F4F8F4F9F4F80
:101F60001F910895592F482F372F262F660F771F5F
:101F7000881F991F660F771F881F991F620F731F95
:101F8000841F951F660F771F881F991F08957AE099
:101F9000979F902D879F802D910D11240895A1E288
:101FA0001A2EAA1BBB1BFD010DC0AA1FBB1FEE1FD3
:101FB000FF1FA217B307E407F50720F0A21BB30B1E
:101FC000E40BF50B661F771F881F991F1A9469F79A
:101FD00060957095809590959B01AC01BD01CF01F6
:101FE0000895EE0FFF1F881F8BBF0790F691E02D1D
:101FF000199481E090E0F8940DC0FB01DC0104C06D
:102000008D910190801921F441505040C8F7881BF0
:08201000990B0895F894FFCF2D
:102018003C7A5A5A5A7A7A7A7A7A7A7A7A7A7A7AB6
:102028007A7A4353554D3E003C7A5A5A5A7A7A7A0C
:102038007A7A7A7A7A7A7A7A7A7A4353554D3E005E
:102048007A00007A000000007A000000000000001A
:102058000000000000FFFFFFFF98010000160017B6
:1020680000180019001A001B001C001D001E001F8C
:1020780000200021002200230024002500007A7A95
:102088007A7A7A7A7A7A7A7A7A7A00000000000084
:1020980000007A7A7A7A7A7A7A7A7A7A7A7A000080
:1020A8000000000000007A7A7A7A7A7A7A7A7A7A64
:1020B8007A7A00000000000000007A7A7A7A7A7A48
:1020C8007A7A7A7A7A7A00000000000000007A7A38
:1020D8007A7A7A7A7A7A7A7A7A7A00000000000034
:1020E80000007A7A7A7A7A7A7A7A7A7A7A7A000030
:1020F8000000000000007A7A7A7A7A7A7A7A7A7A14
:102108007A7A00000000000000007A7A7A7A7A7AF7
:102118007A7A7A7A7A7A00000000000000007A7AE7
:102128007A7A7A7A7A7A7A7A7A7A000000000000E3
:1021380000007A7A7A7A7A7A7A7A7A7A7A7A0000DF
:102148000000000000007A7A7A7A7A7A7A7A7A7AC3
:102158007A7A00000000000000007A7A7A7A7A7AA7
:102168007A7A7A7A7A7A00000000000000007A7A97
:102178007A7A7A7A7A7A7A7A7A7A00000000000093
:1021880000007A7A7A7A7A7A7A7A7A7A7A7A00008F
:102198000000000000007A7A7A7A7A7A7A7A7A7A73
:1021A8007A7A00000000000000007A7A7A7A7A7A57
:1021B8007A7A7A7A7A7A00000000000000007A7A47
:1021C8007A7A7A7A7A7A7A7A7A7A00000000000043
:1021D80000007A7A7A7A7A7A7A7A7A7A7A7A00003F
:1021E8000000000000007A7A7A7A7A7A7A7A7A7A23
:1021F8007A7A00000000000000007A7A7A7A7A7A07
:102208007A7A7A7A7A7A00000000000000007A7AF6
:102218007A7A7A7A7A7A7A7A7A7A000000000000F2
:1022280000007A7A7A7A7A7A7A7A7A7A7A7A0000EE
:102238000000000000007A7A7A7A7A7A7A7A7A7AD2
:102248007A7A00000000000000007A7A7A7A7A7AB6
:102258007A7A7A7A7A7A00000000000000007A7AA6
:102268007A7A7A7A7A7A7A7A7A7A000000000000A2
:1022780000007A7A7A7A7A7A7A7A7A7A7A7A00009E
:102288000000000000007A7A7A7A7A7A7A7A7A7A82
:102298007A7A00000000000000007A7A7A7A7A7A66
:1022A8007A7A7A7A7A7A00000000000000007A7A56
:1022B8007A7A7A7A7A7A7A7A7A7A00000000000052
:1022C80000007A7A7A7A7A7A7A7A7A7A7A7A00004E
:1022D8000000000000007A7A7A7A7A7A7A7A7A7A32
:1022E8007A7A00000000000000007A7A7A7A7A7A16
:1022F8007A7A7A7A7A7A00000000000000007A7A06
:102308007A7A7A7A7A7A7A7A7A7A00000000000001
:1023180000007A7A7A7A7A7A7A7A7A7A7A7A0000FD
:102328000000000000007A7A7A7A7A7A7A7A7A7AE1
:102338007A7A00000000000000007A7A7A7A7A7AC5
:102348007A7A7A7A7A7A00000000000000007A7AB5
:102358007A7A7A7A7A7A7A7A7A7A000000000000B1
:1023680000007A7A7A7A7A7A7A7A7A7A7A7A0000AD
:102378000000000000007A7A7A7A7A7A7A7A7A7A91
:102388007A7A00000000000000007A7A7A7A7A7A75
:102398007A7A7A7A7A7A00000000000000007A7A65
:1023A8007A7A7A7A7A7A7A7A7A7A00000000000061
:1023B80000007A7A7A7A7A7A7A7A7A7A7A7A00005D
:1023C8000000000000007A7A7A7A7A7A7A7A7A7A41
:1023D8007A7A00000000000000007A7A7A7A7A7A25
:1023E8007A7A7A7A7A7A00000000000000007A7A15
:1023F8007A7A7A7A7A7A7A7A7A7A00000000000011
:1024080000007A7A7A7A7A7A7A7A7A7A7A7A00000C
:102418000000000000007A7A7A7A7A7A7A7A7A7AF0
:102428007A7A00000000000000007A7A7A7A7A7AD4
:102438007A7A7A7A7A7A00000000000000007A7AC4
:102448007A7A7A7A7A7A7A7A7A7A000000000000C0
:1024580000007A7A7A7A7A7A7A7A7A7A7A7A0000BC
:102468000000000000007A7A7A7A7A7A7A7A7A7AA0
:102478007A7A00000000000000007A7A7A7A7A7A84
:102488007A7A7A7A7A7A00000000000000007A7A74
:102498007A7A7A7A7A7A7A7A7A7A00000000000070
:1024A80000007A7A7A7A7A7A7A7A7A7A7A7A00006C
:1024B8000000000000007A7A7A7A7A7A7A7A7A7A50
:1024C8007A7A00000000000000007A7A7A7A7A7A34
:1024D8007A7A7A7A7A7A00000000000000007A7A24
:1024E8007A7A7A7A7A7A7A7A7A7A00000000000020
:1024F80000007A7A7A7A7A7A7A7A7A7A7A7A00001C
:102508000000000000007A7A7A7A7A7A7A7A7A7AFF
:102518007A7A00000000000000007A7A7A7A7A7AE3
:102528007A7A7A7A7A7A00000000000000007A7AD3
:102538007A7A7A7A7A7A7A7A7A7A000000000000CF
:1025480000007A7A7A7A7A7A7A7A7A7A7A7A0000CB
:102558000000000000007A7A7A7A7A7A7A7A7A7AAF
:102568007A7A00000000000000007A7A7A7A7A7A93
:102578007A7A7A7A7A7A000000000000003C004BF0
:10258800005A00690082009100A000AF00BE00CD93
:1025980000DC00F500FF0006000700080009000A3B
:1025A800000B000C000D00000000000B027701A3D7
:1025B800015702D401B201C60100000000CB03C1DB
:1025C80003DC039503B903A50396035B42425F4FFF
:1025D8004E4C494E455D005B42656C742042756304
:1025E8006B6C652076302E362E305D000D0A004368
:1025F8006F6D6D616E642000205265636569766554
:102608006400544F444F2058004F63632E2020200D
:102618003A2020202042696E202020203A202020C5
:1026280020446973742020203A2020204964002027
:1026380020202020203A20202020200020203A207E
:102648000054657374696E67206F75747075747360
:102658002E2E2E006F75747075743A2000546573B1
:102668007420636F6D706C65746500544F444F201F
:10267800570073706565643A200062656C74206960
:10268800733A20004D6F64653A20002053706565E9
:10269800643A2000627574746F6E5F72756E0062C2
:1026A8007574746F6E5F73746F7000627574746F95
:1026B8006E5F62656C7400627574746F6E5F6665D8
:1026C80065646572005B54454C2D432D3230302DC6
:1026D800002D4353554D5D004C6F7374206120707D
:1026E800617274005B54454C2D462D3230302D00FC
:1026F80066756C6C207370656564007374617274C0
:0E2708007570005B41434B2D004353554D004F
:020000023000CC
:10E000000D9489F10D94B2F10D94B2F10D94B2F129
:10E010000D94B2F10D94B2F10D94B2F10D94B2F1F0
:10E020000D94B2F10D94B2F10D94B2F10D94B2F1E0
:10E030000D94B2F10D94B2F10D94B2F10D94B2F1D0
:10E040000D94B2F10D94B2F10D94B2F10D94B2F1C0
:10E050000D94B2F10D94B2F10D94B2F10D94B2F1B0
:10E060000D94B2F10D94B2F10D94B2F10D94B2F1A0
:10E070000D94B2F10D94B2F10D94B2F10D94B2F190
:10E080000D94B2F10D94B2F10D94B2F10D94B2F180
:10E090000D94B2F10D94B2F10D94B2F10D94B2F170
:10E0A0000D94B2F10D94B2F10D94B2F10D94B2F160
:10E0B0000D94B2F10D94B2F10D94B2F10D94B2F150
:10E0C0000D94B2F10D94B2F10D94B2F10D94B2F140
:10E0D0000D94B2F10D94B2F10D94B2F10D94B2F130
:10E0E0000D94B2F141546D656761323536300041AF
:10E0F000726475696E6F206578706C6F72657220DE
:10E1000073746B3530305632206279204D4C530099
:10E11000426F6F746C6F616465723E004875683F52
:10E1200000436F6D70696C6564206F6E203D200048
:10E130004350552054797065202020203D20005FF9
:10E140005F4156525F415243485F5F3D2000415658
:10E1500052204C696243205665723D20004743437C
:10E160002056657273696F6E203D20004350552024
:10E1700049442020202020203D20004C6F7720663D
:10E18000757365202020203D20004869676820665F
:10E190007573652020203D200045787420667573D6
:10E1A00065202020203D20004C6F636B2066757336
:10E1B000652020203D20004D617220203720323024
:10E1C000313300312E362E3800342E332E350056A2
:10E1D00023202020414444522020206F7020636F70
:10E1E00064652020202020696E73747275637469E1
:10E1F0006F6E2061646472202020496E74657272B3
:10E20000757074006E6F20766563746F7200726A49
:10E210006D702020006A6D70200057686174207056
:10E220006F72743A00506F7274206E6F7420737541
:10E2300070706F72746564004D7573742062652030
:10E2400061206C6574746572002000577269747483
:10E25000696E672045450052656164696E672045B7
:10E26000450045452065727220636E743D00504F35
:10E27000525400303D5A65726F2061646472003FF1
:10E280003D43505520737461747300403D454550C3
:10E29000524F4D207465737400423D426C696E6B41
:10E2A000204C454400453D44756D70204545505215
:10E2B0004F4D00463D44756D7020464C415348001B
:10E2C000483D48656C70004C3D4C69737420492F83
:10E2D0004F20506F72747300513D51756974005234
:10E2E0003D44756D702052414D00563D73686F7707
:10E2F00020696E7465727275707420566563746FF0
:10E30000727300593D506F727420626C696E6B00BD
:10E310002A0011241FBECFEFD1E2DEBFCDBF01E046
:10E320000CBF12E0A0E0B2E0EEE1FDEF03E00BBFB6
:10E3300002C007900D92A030B107D9F712E0A0E01B
:10E34000B2E001C01D92AE30B107E1F70F9460F367
:10E350000D948DFE01E20EBF0FEF0DBF11241FBE05
:10E360000D9460F30D9400F020E030E040ED57E0B4
:10E3700005C0FA013197F1F72F5F3F4F2817390792
:10E38000C0F308959C01260F311DC901A0E0B0E043
:10E390002F5F3F4FABBFFC018791882361F08093D3
:10E3A000C6008091C00086FFFCCF8091C0008064D1
:10E3B0008093C000EACF08958DE08093C6008091DD
:10E3C000C00086FFFCCF8091C00080648093C000B5
:10E3D0008AE08093C6008091C00086FFFCCF8091C8
:10E3E000C00080648093C00008950F94C2F10F9420
:10E3F000DCF10895FC019081992359F09093C600B7
:10E400008091C00086FFFCCF8091C0008064809323
:10E41000C0003196992379F70895282F982F929567
:10E420009F70892F805D8A3308F0895F8093C600D2
:10E430008091C00086FFFCCF8091C00080648093F3
:10E44000C000822F8F70982F905D9A3308F0995FEB
:10E450009093C6008091C00086FFFCCF8091C000E1
:10E4600080648093C00008959C01FB01853691056E
:10E470001CF46330710594F0C90164E670E00F94F8
:10E480002EFE605D7F4F6093C6008091C00086FFC6
:10E49000FCCF8091C00080648093C0002B30310598
:10E4A00014F43297B4F0C90164E670E00F942EFEC4
:10E4B0006AE070E00F942EFE605D7F4F6093C600AF
:10E4C0008091C00086FFFCCF8091C0008064809363
:10E4D000C000C9016AE070E00F942EFEC0968093E0
:10E4E000C6008091C00086FFFCCF8091C000806490
:10E4F0008093C00008951F93182F8EE692EE60E07F
:10E500000F94C2F11093C6008091C00086FFFCCF2B
:10E510008091C00080648093C0000F94DCF11F9153
:10E5200008952F923F924F925F926F927F928F92B7
:10E530009F92AF92BF92CF92DF92EF92FF920F9392
:10E540001F93DF93CF93CDB7DEB762970FB6F894E2
:10E55000DEBF0FBECDBF382E622ECA01DB015C01CB
:10E560006D01772420E2222E2E010894411C511CBB
:10E570008BC081E0A81680E0B80681E0C80680E084
:10E58000D80628F0C601AA27BB270F940DF2BB2797
:10E59000AD2D9C2D8B2D0F940DF28A2D0F940DF225
:10E5A0002092C6008091C00086FFFCCF8091C00001
:10E5B00080648093C0009DE29093C6008091C0006B
:10E5C00086FFFCCF8091C00080648093C0002092C1
:10E5D000C6008091C00086FFFCCF8091C00080649F
:10E5E0008093C00019828601750188249924A1E0D6
:10E5F0003A1651F03A1620F0B2E03B1661F409C029
:10E600000BBFF701779007C0C7010F9477FE782EF4
:10E6100002C0F7017080872D0F940DF22092C60082
:10E620008091C00086FFFCCF8091C0008064809301
:10E63000C000872D8052F401EF70F0708F3520F408
:10E64000E40DF51D708204C0E40DF51D8EE280839B
:10E650000894E11CF11C011D111D0894811C911CE2
:10E6600090E18916910409F0C2CF80E190E0A0E02A
:10E67000B0E0A80EB91ECA1EDB1E198AC2010F9493
:10E68000FAF10F94DCF16A94662009F072CF629679
:10E690000FB6F894DEBF0FBECDBFCF91DF911F91B3
:10E6A0000F91FF90EF90DF90CF90BF90AF909F9031
:10E6B0008F907F906F905F904F903F902F90089534
:10E6C0002F923F924F925F926F927F928F929F9282
:10E6D000AF92BF92CF92DF92EF92FF920F931F9370
:10E6E000DF93CF93CDB7DEB7CD53D1400FB6F894BB
:10E6F000DEBF0FBECDBF01E20EBF0FEF0DBF94B75F
:10E70000F894A89514BE80916000886180936000A1
:10E7100010926000789493FF05C0E0910002F091A0
:10E7200001021995279A2F9A8091C00082608093E8
:10E73000C00080E18093C40088E18093C1000000A4
:10E74000EE24FF24870144E0A42EB12CCC24DD2448
:10E7500024C0C5010197F1F70894E11CF11C011DCB
:10E76000111D21E2E2162EE4F20620E0020720E06D
:10E77000120718F031E0C32ED12CC801B70127ECE5
:10E780003BE140E050E00F9441FE611571058105C9
:10E79000910519F485B1805885B98091C00087FD35
:10E7A00003C0C114D104A9F2A6014F5F5F4FC25E3E
:10E7B000DE4F59834883CE51D140C25EDE4F8881FF
:10E7C0009981CE51D140019711F00D9410FEC05D9A
:10E7D000DE4F19821882C053D14060E0C15DDE4F28
:10E7E0001882CF52D14088249924C35DDE4F19820C
:10E7F0001882CD52D140C05EDE4F188219821A8233
:10E800001B82C052D140CE5CDE4F188219821A8220
:10E810001B82C253D140EE24FF2487010BBFF701B6
:10E8200007911691C45CDE4F19830883CC53D14005
:10E830000D940BFEC25EDE4F28813981CE51D1404E
:10E840002130310509F52091C600C25EDE4F1982E4
:10E850001882CE51D14022C02F5F3F4F4F4F5F4FA4
:10E86000213082E138078AE7480780E0580780F0C6
:10E87000C45CDE4FE881F981CC53D140EF5FFF4F9C
:10E8800019F0EE27FF27099420E030E040E050E047
:10E890008091C00087FFE0CF2091C600C35DDE4FAE
:10E8A00048815981CD52D1404F5F5F4FC35DDE4FEC
:10E8B00059834883CD52D140213209F063C64A3092
:10E8C000510508F05FC60894811C911C53E0851621
:10E8D000910409F059C600E010E018C081E280936D
:10E8E000C6008091C00086FFFCCF8091C00080648C
:10E8F0008093C0002F5F3F4F2931310579F70F9486
:10E90000DCF10F5F1F4F0530110519F020E030E0FA
:10E91000E5CF10920A0210920B0210920C02109294
:10E920000D02109206021092070210920802109235
:10E930000902109202021092030210920402109235
:10E9400005028FEE90EE60E00F94F5F180E191EE1C
:10E9500060E00F94C2F18091C00087FFFCCF9091DE
:10E96000C600903608F09F759032B8F09093C600BC
:10E970008091C00086FFFCCF8091C00080648093AE
:10E98000C000A0E2A093C6008091C00086FFFCCF2B
:10E990008091C00080648093C000983409F4D7C18E
:10E9A0009934B8F4923409F459C1933458F490333B
:10E9B00019F1903308F4E3C59F33A1F1903409F0C5
:10E9C000DEC5BDC0953409F470C1963409F0D7C5D1
:10E9D00098C1923509F42BC2933538F49C3409F46C
:10E9E000F5C1913509F0CBC518C2963509F445C279
:10E9F000993509F0C4C567C483E792EE62E00F94CD
:10EA0000F5F110920602109207021092080210927D
:10EA1000090210920A0210920B0210920C0210923C
:10EA20000D0213C18FE792EE62E00F94F5F18FEEC5
:10EA300090EE60E00F94F5F181E291EE60E00F94CA
:10EA4000C2F187EB91EE60E00F94F5F180E391EE77
:10EA500060E00F94C2F184EE90EE60E00F94F5F167
:10EA60008FE391EE60E00F94C2F186E090E061E008
:10EA700070E00F9434F20F94DCF18DE591EE60E0DC
:10EA80000F94C2F189EC91EE60E00F94F5F18EE401
:10EA900091EE60E00F94C2F183EC91EE60E00F9490
:10EAA000F5F18CE691EE60E00F94C2F18EE10F94E7
:10EAB0000DF288E90F940DF281E00F940DF20F949E
:10EAC000DCF18BE791EE60E00F94C2F119E0E0E039
:10EAD000F0E010935700E4918E2F0F940DF20F94F5
:10EAE000DCF18AE891EE60E00F94C2F1E3E0F0E03F
:10EAF00010935700E4918E2F0F940DF20F94DCF1D8
:10EB000089E991EE60E00F94C2F1E2E0F0E0109349
:10EB10005700E4918E2F0F940DF20F94DCF188EAE8
:10EB200091EE60E00F94C2F1E1E0F0E01093570045
:10EB30001491812F0F940DF20F94DCF107CF8BE825
:10EB400092EE62E00F94F5F18BE492EE60E00F94A8
:10EB5000F5F10F94DCF100E010E019C0C8016F2D51
:10EB60000F947FFEFF2031F489E492EE60E00F9471
:10EB7000C2F10BC0F092C6008091C00086FFFCCFAE
:10EB80008091C00080648093C0000F5F1F4FC80158
:10EB900081519F41A0E0B0E0ABBFFC01F790BAE229
:10EBA000FB1621F0E2E000301E07C1F60F94DCF105
:10EBB0000F94DCF187E592EE60E00F94F5F10F948D
:10EBC000DCF1CC24DD2400E010E01EC0C8010F946D
:10EBD00077FEF82E882331F489E492EE60E00F94FA
:10EBE000C2F10BC08093C6008091C00086FFFCCFAD
:10EBF0008091C00080648093C000FE1419F00894D6
:10EC0000C11CD11C0F5F1F4FC80181519F41A0E063
:10EC1000B0E0ABBFFC01E790FAE2EF1621F022E092
:10EC20000030120799F60F94DCF10F94DCF182E6C4
:10EC300092EE60E00F94C2F1C60161E070E00F94C3
:10EC400034F20F94DCF10F94DCF110920202109276
:10EC50000302109204021092050278CE89E992EE26
:10EC600062E00F94F5F1279A2F9A16C02F9880E052
:10EC700090E0E0EDF7E03197F1F7019684369105E9
:10EC8000C1F72F9A80E090E0E0EDF7E03197F1F7DF
:10EC9000019684369105C1F78091C00087FFE6CFC9
:10ECA0008091C00087FFFCCF64C485EA92EE62E0E9
:10ECB0000F94F5F140910202509103026091040219
:10ECC0007091050281E020E10F9491F2809102029F
:10ECD00090910302A0910402B091050280509F4FD1
:10ECE000AF4FBF4F8093020290930302A0930402A0
:10ECF000B093050280509041A040B04008F426CE69
:10ED0000A4CF83EB92EE62E00F94F5F140910602FE
:10ED100050910702609108027091090280E020E1A1
:10ED20000F9491F28091060290910702A09108023F
:10ED3000B091090280509F4FAF4FBF4F80930602A2
:10ED400090930702A0930802B0930902FFCD80ECD4
:10ED500092EE62E00F94F5F183E792EE60E00F949B
:10ED6000F5F18FE792EE60E00F94F5F18BE892EE0B
:10ED700060E00F94F5F189E992EE60E00F94F5F10F
:10ED800085EA92EE60E00F94F5F183EB92EE60E09D
:10ED90000F94F5F180EC92EE60E00F94F5F187ECC2
:10EDA00092EE60E00F94F5F188ED92EE60E00F9442
:10EDB000F5F18FED92EE60E00F94F5F18AEE92EEB0
:10EDC00060E00F94F5F183E093EEBDCD87EC92EE19
:10EDD00062E00F94F5F181E40F947BF282E40F94EA
:10EDE0007BF283E40F947BF284E40F947BF285E45E
:10EDF0000F947BF286E40F947BF287E40F947BF20E
:10EE000088E40F947BF28AE40F947BF28BE40F94F6
:10EE10007BF28CE40F947BF299CD88ED92EE62E068
:10EE20000F94F5F1772473948824992409C48FED05
:10EE300092EE62E00F94F5F140910A0250910B02BC
:10EE400060910C0270910D0282E020E10F9491F22A
:10EE500080910A0290910B02A0910C02B0910D02D8
:10EE600080509F4FAF4FBF4F80930A0290930B0289
:10EE7000A0930C02B0930D0269CD8AEE92EE62E08F
:10EE80000F94F5F184EE90EE60E00F94F5F18FECC5
:10EE900091EE60E00F94F5F1662477244301CC5D98
:10EEA000DE4F19821882C452D140D401C301B695F5
:10EEB000A79597958795CA5DDE4F88839983AA8326
:10EEC000BB83C652D140CC5DDE4FA881B981C4520C
:10EED000D1401196CC5DDE4FB983A883C452D14096
:10EEE000CD0162E070E00F9434F2B0E2B093C6005E
:10EEF0008091C00086FFFCCF8091C0008064809329
:10EF0000C000EDE2E093C6008091C00086FFFCCF18
:10EF10008091C00080648093C000F0E2F093C6004E
:10EF20008091C00086FFFCCF8091C00080648093F8
:10EF3000C000CA5DDE4FE880F9800A811B81C6529D
:10EF4000D140BB27A12F902F8F2D0F940DF2CA5DBA
:10EF5000DE4F8881C652D1400F940DF2B0E2FB2EF5
:10EF6000F092C6008091C00086FFFCCF8091C00067
:10EF700080648093C0000DE30093C6008091C000C0
:10EF800086FFFCCF8091C00080648093C00010E2B7
:10EF90001093C6008091C00086FFFCCF8091C00016
:10EFA00080648093C0008BBEF3012791C65DDE4F65
:10EFB0002883CA52D140A22EBB24CC24DD2408943D
:10EFC000611C711C811C911C8BBEF3018791282E42
:10EFD0003324442455240894611C711C811C911C09
:10EFE0008BBEF3013791C55DDE4F3883CB52D140E4
:10EFF0000894611C711C811C911C8BBEF30147910C
:10F00000C45DDE4F4883CC52D140ADEFEA2EAFEF66
:10F01000FA2EAFEF0A2FAFEF1A2F6E0C7F1C801E57
:10F02000911E142D032DF22CEE24EA0CFB1C0C1D5A
:10F030001D1D0F940DF220E22093C6008091C000A8
:10F0400086FFFCCF8091C00080648093C000C65DC5
:10F05000DE4F8881CA52D1400F940DF230E23093D6
:10F06000C6008091C00086FFFCCF8091C000806404
:10F070008093C000C45DDE4F8881CC52D1400F9494
:10F080000DF240E24093C6008091C00086FFFCCFA5
:10F090008091C00080648093C000C55DDE4F888190
:10F0A000CB52D1400F940DF250E25093C6008091A4
:10F0B000C00086FFFCCF8091C00080648093C000B8
:10F0C0008FEFE8168FEFF80680E0080780E018075A
:10F0D00031F484E092EE60E00F94C2F1DFC0D80119
:10F0E000C7018070907CA070B0708050904CA040A0
:10F0F000B040D1F52FEF3FE340E050E0E222F322B1
:10F1000004231523CA5DDE4FA880B980CA80DB8046
:10F11000C652D140AE0CBF1CC01ED11EAA0CBB1CD7
:10F12000CC1CDD1C8EE092EE60E00F94C2F1BB2798
:10F13000A12F902F8F2D0F940DF28E2D0F940DF285
:10F1400030E23093C6008091C00086FFFCCF8091F2
:10F15000C00080648093C0004EE34093C60080915D
:10F16000C00086FFFCCF87C08EE09EEFA0E0B0E03D
:10F17000E822F9220A231B239CE0E91694E9F90608
:10F1800090E0090790E0190709F088C0C45DDE4FE0
:10F19000A881CC52D140EA2EFF2400E010E0102FCD
:10F1A0000F2DFE2CEE24C55DDE4FB881CB52D14031
:10F1B000EB0EF11C011D111DD601C501817090706F
:10F1C000A070B070DC0199278827E80EF91E0A1F8D
:10F1D0001B1F20EF30E040E050E0A222B322C42207
:10F1E000D52241E1AA0CBB1CCC1CDD1C4A95D1F7F1
:10F1F000EA0CFB1C0C1D1D1D81E090E0A0E0B0E0BE
:10F20000282239224A225B2235E1220C331C441C7D
:10F21000551C3A95D1F7E20CF31C041D151D57013E
:10F220006801AA0CBB1CCC1CDD1C85E192EE60E0E1
:10F230000F94C2F1C801AA27BB270F940DF2BB2778
:10F24000A12F902F8F2D0F940DF28E2D0F940DF274
:10F2500090E29093C6008091C00086FFFCCF809121
:10F26000C00080648093C000AEE3A093C60080918C
:10F27000C00086FFFCCF8091C00080648093C000F6
:10F28000C601AA27BB270F940DF2BB27AD2D9C2DDD
:10F290008B2D0F940DF28A2D0F940DF20F94DCF14B
:10F2A000CC5DDE4FE881F981C452D140F99709F471
:10F2B0004DCBF4E0EF2EF12C012D112D6E0C7F1CA7
:10F2C000801E911EF2CD83E093EE62E00F94F5F183
:10F2D0008AE192EE60E00F94C2F18091C00087FF56
:10F2E000FCCF1091C6001F751093C6008091C0001E
:10F2F00086FFFCCF8091C00080648093C0000F9493
:10F30000DCF1812F81548A3108F036C1163409F4BA
:10F3100095C0173490F4133409F44EC0143430F40B
:10F320001134F1F0123409F01DC130C0143409F465
:10F3300059C0153409F016C16BC01A3409F4C4C0A1
:10F340001B3438F4173409F48FC0183409F00AC19B
:10F35000A1C01B3409F4D2C01C3409F003C1E8C0B9
:10F360008FEF81B90DC082B1809582B980E090E0C5
:10F37000E0EDF7E03197F1F70196883C9105C1F790
:10F380008091C00087FFEFCF12B8EFC08FEF84B934
:10F390000DC085B1809585B980E090E0E0EDF7E0A3
:10F3A0003197F1F70196883C9105C1F78091C00033
:10F3B00087FFEFCF15B8D9C08FEF87B90DC088B1DF
:10F3C000809588B980E090E0E0EDF7E03197F1F7C3
:10F3D0000196883C9105C1F78091C00087FFEFCF6F
:10F3E00018B8C3C08FEF8AB90DC08BB180958BB9A7
:10F3F00080E090E0E0EDF7E03197F1F70196883C8E
:10F400009105C1F78091C00087FFEFCF1BB8ADC059
:10F410008FEF8DB90DC08EB180958EB980E090E0F0
:10F42000E0EDF7E03197F1F70196883C9105C1F7DF
:10F430008091C00087FFEFCF1EB897C08FEF80BBD1
:10F440000DC081B3809581BB80E090E0E0EDF7E0F6
:10F450003197F1F70196883C9105C1F78091C00082
:10F4600087FFEFCF11BA81C08FEF83BB0DC084B38C
:10F47000809584BB80E090E0E0EDF7E03197F1F714
:10F480000196883C9105C1F78091C00087FFEFCFBE
:10F4900014BA6BC08FEF809301010FC080910201FD
:10F4A00080958093020180E090E0E0EDF7E03197F5
:10F4B000F1F70196883C9105C1F78091C00087FF64
:10F4C000EDCF1092020151C08FEF809304010FC065
:10F4D0008091050180958093050180E090E0E0ED4A
:10F4E000F7E03197F1F70196883C9105C1F78091DB
:10F4F000C00087FFEDCF1092050137C08FEF8093DA
:10F5000007010FC08091080180958093080180E079
:10F5100090E0E0EDF7E03197F1F70196883C910536
:10F52000C1F78091C00087FFEDCF109208011DC088
:10F530008FEF80930A010FC080910B01809580931B
:10F540000B0180E090E0E0EDF7E03197F1F70196F4
:10F55000883C9105C1F78091C00087FFEDCF1092E4
:10F560000B0103C085E292EEEEC98091C00087FFD7
:10F57000FCCF8091C600EAC988E392EEE4C98CE131
:10F5800091EEE1C988249924933011F1943028F444
:10F59000913089F09230B8F408C0953061F195301F
:10F5A000F0F0963009F048C043C02B3109F042C951
:10F5B00091E06BE13FC96227C15DDE4F2883CF52E6
:10F5C000D14092E037C9B22FA0E0622793E032C960
:10F5D000822F90E0A82BB92B622794E02BC92E3004
:10F5E00009F039C3622795E0C05DDE4F19821882A9
:10F5F000C053D1401FC9E1E0F0E0EC0FFD1FC05D3A
:10F60000DE4F08811981C053D140E00FF11F2083E4
:10F610000F5F1F4FC05DDE4F19830883C053D14079
:10F6200062270A171B0709F005C9D80196E002C92D
:10F63000261709F010C303C0973009F0FBC87724E0
:10F640009981933109F412C19431C8F4963009F4C8
:10F65000D8C0973050F4923009F406C1933009F4C1
:10F660006DC0913009F059C253C0913109F477C08F
:10F67000923108F0BBC0903109F04FC2F5C098310B
:10F6800009F487C0993150F4953109F4EFC09531F0
:10F6900008F4C6C1963109F040C2C2C19A3109F4DA
:10F6A0006CC09A3108F491C09B3109F45BC09D3164
:10F6B00009F033C29D81903359F48F81882311F46E
:10F6C0009EE11CC0813011F091E018C098E916C08D
:10F6D000892F807591F0903539F4E0E0F0E089E011
:10F6E0008093570094910AC0983539F4E3E0F0E034
:10F6F00089E080935700949101C090E01A821B82A8
:10F700008D818C831D829E831F8227E030E009C299
:10F710001A8288E08B8381E48C8386E58D8382E581
:10F720008E8389E48F8383E5888780E589878FE5E9
:10F730008A8782E38B872BE030E0F3C18A818139AD
:10F7400041F0823941F0803911F48FE005C080E04A
:10F7500003C082E001C08AE01A828B8344C0772410
:10F76000739482C08D81882311F48EE12CC0813086
:10F7700011F081E028C088E926C01A82E1E0F0E0BB
:10F7800089E08093570084918B831C8224E030E0D1
:10F79000C8C18B81803589F48C81883039F4E2E0EE
:10F7A000F0E089E08093570084910DC0E0E0F0E044
:10F7B00089E080935700849106C0E3E0F0E089E09F
:10F7C0008093570084911A82DFCF8D81836C99E0FA
:10F7D000E1E0F0E0082E90935700E89507B600FCB2
:10F7E000FDCF1A821B8223E030E09BC180EC8A832C
:10F7F000CE5CDE4F188219821A821B82C253D1401E
:10F800008EC18A8190E0A0E0B0E0582F44273327D2
:10F8100022278B8190E0A0E0B0E0DC0199278827C7
:10F82000282B392B4A2B5B2B8D8190E0A0E0B0E098
:10F83000282B392B4A2B5B2B8C8190E0A0E0B0E089
:10F84000BA2FA92F982F8827282B392B4A2B5B2BCF
:10F85000220F331F441F551FC05EDE4F288339839C
:10F860004A835B83C052D1401A8259C13A81C95C34
:10F87000DE4F3883C753D140CA5CDE4F1882C6536F
:10F88000D1408B81C82EDD24CA5CDE4F488159816E
:10F89000C653D140C42AD52A933109F082C0CE5C28
:10F8A000DE4F88819981AA81BB81C253D1408050AB
:10F8B000904CA340B04030F583E0CE5CDE4FE88052
:10F8C000F9800A811B81C253D140F70100935B008C
:10F8D00080935700E89507B600FCFDCFCE5CDE4F65
:10F8E000088119812A813B81C253D14000501F4FAA
:10F8F0002F4F3F4FCE5CDE4F088319832A833B8313
:10F90000C253D140C05EDE4F488159816A817B81FC
:10F91000C052D140DE011B9631E08C9111962C91A2
:10F9200011971296C75CDE4F2883C953D140C85C3B
:10F93000DE4F1882C853D14090E0C85CDE4FE881AA
:10F94000F981C853D1408E2B9F2B0C01FA01609393
:10F950005B0030935700E89511244E5F5F4F6F4F67
:10F960007F4F0EEFE02E0FEFF02ECE0CDF1CC114F8
:10F97000D10499F685E0C05EDE4F088119812A81A5
:10F980003B81C052D140F80120935B008093570027
:10F99000E89507B600FCFDCF81E180935700E8951C
:10F9A00035C0C05EDE4F88819981AA81BB81C0527B
:10F9B000D140B695A795979587957C018601ABE0D8
:10F9C000AA2EB12CAC0EBD1E0BC0D5016D915D01F0
:10F9D000C7010F947FFE0894E11CF11C01501040F8
:10F9E0000115110591F7A60160E070E0440F551F65
:10F9F000661F771FC05EDE4FE880F9800A811B8199
:10FA0000C052D1404E0D5F1D601F711F1A82C05E33
:10FA1000DE4F488359836A837B83C052D1407FC0C5
:10FA2000FA80C55CDE4FF882CB53D140C65CDE4F16
:10FA30001882CA53D1408B81C82EDD24C65CDE4FAC
:10FA400008811981CA53D140C02AD12A1A828981DA
:10FA5000BE016D5F7F4F843121F59601C05EDE4FA0
:10FA6000E880F9800A811B81C052D1400BBFF701A9
:10FA700087919691DB018C9311969C936E5F7F4FDB
:10FA8000D801C7010296A11DB11DC05EDE4F88835B
:10FA90009983AA83BB83C052D14022503040F1F6F3
:10FAA00036C0C05EDE4F288139814A815B81C052F9
:10FAB000D1400894C108D108760100E010E0089414
:10FAC000C11CD11C0894E11CF11C011D111DE20E8A
:10FAD000F31E041F151F21BDBB27A52F942F832FB5
:10FAE00082BD2F5F3F4F4F4F5F4FF89A80B5DB01CC
:10FAF0008D93BD012E153F054007510761F7C05E8C
:10FB0000DE4F288339834A835B83C052D1409601FC
:10FB10002D5F3F4FFB01108204C080EC8A8322E0FE
:10FB200030E08BE18093C6008091C00086FFFCCF5F
:10FB30008091C00080648093C000C15DDE4FF88179
:10FB4000CF52D140F093C6008091C00086FFFCCF19
:10FB50008091C00080648093C000432F3093C60022
:10FB60008091C00086FFFCCF8091C00080648093AC
:10FB7000C000922F2093C6008091C00086FFFCCF6A
:10FB80008091C00080648093C0008EE08093C600A6
:10FB90008091C00086FFFCCF8091C000806480937C
:10FBA000C00065E1C15DDE4FE880CF52D1406E25D7
:10FBB00069276427FE01319610C090819093C6009A
:10FBC0008091C00086FFFCCF31968091C000806498
:10FBD0008093C0006927215030402115310569F715
:10FBE0006093C6008091C00086FFFCCF8091C0006A
:10FBF00080648093C00085B1805885B9772081F4F6
:10FC0000C15DDE4F0881CF52D1400F5FC15DDE4F35
:10FC10000883CF52D14090E0A0E0B0E00D941AF4F8
:10FC200027982F9880E090E020ED37E0F901319798
:10FC3000F1F7019684369105C9F700008091C00064
:10FC40008D7F8093C00081E180935700E895EE2777
:10FC5000FF270994FFCF90E00D941AF497FB092E2B
:10FC600007260AD077FD04D02ED006D000201AF443
:10FC7000709561957F4F0895F6F7909581959F4F08
:10FC80000895A1E21A2EAA1BBB1BFD010DC0AA1FDD
:10FC9000BB1FEE1FFF1FA217B307E407F50720F0F5
:10FCA000A21BB30BE40BF50B661F771F881F991F70
:10FCB0001A9469F760957095809590959B01AC01B9
:10FCC000BD01CF010895AA1BBB1B51E107C0AA1FAC
:10FCD000BB1FA617B70710F0A61BB70B881F991FED
:10FCE0005A95A9F780959095BC01CD010895F99991
:10FCF000FECF92BD81BDF89A992780B50895262F31
:10FD0000F999FECF1FBA92BD81BD20BD0FB6F89400
:0EFD1000FA9AF99A0FBE01960895F894FFCF63
:040000033000E000E9
:00000001FF