:1000000045C1000073C1000071C100006FC1000054
:100010006DC100006BC1000069C1000067C1000034
:1000200065C1000063C1000061C100005FC1000044
:100030005DC100005BC1000059C1000057C1000054
:1000400055C1000053C1000051C100004FC1000064
:100050004DC100004BC1000049C1000026C5000091
:1000600045C1000075C200004AC200003FC1000047
:100070003DC100003BC1000039C1000037C1000094
:1000800035C1000033C1000031C100002FC10000A4
:100090002DC100002BC1000029C1000050C5000087
:1000A00025C1000023C1000021C100001FC10000C4
:1000B0001DC100001BC1000019C1000017C10000D4
:1000C00015C1000013C1000011C100000FC10000E4
:1000D0000DC100000BC1000009C1000007C10000F4
:1000E00005C10000CE0A230B2C0C2C0C2C0C2C0C64
:1000F0004B0B4D0B2C0C2C0C2C0C2C0C2C0C2C0C02
:10010000560B7A0B2C0C2C0CB30BEA0B2C0C2C0C76
:100110002C0CC90AC40CED0C020D220D250D280D66
:100120002B0DA403A70396039A03A003DE03AB03DE
:10013000AF03B503B903BD03C303C703CB03DE039A
:10014000D103D503D903710476047B0485048F049D
:1001500008059904A104A904B304BD04C704D60486
:10016000E0040805EA04F404FE0400002000230073
:10017000260029002C002F0032000001000003019E
:10018000060109010505050507050808080802021A
:1001900002020A0A08080404040401010101010121
:1001A00001010303030303030303040707070C0C04
:1001B0000C0C0C0C0C0C02020202060606060606CB
:1001C00006060B0B0B0B0B0B0B0B01021020200870
:1001D00008102040102040800201020108040201A2
:1001E0000102040810204080804020100804020111
:1001F000800402018040201008040201080402016A
:1002000001020408102040800102040810204080F0
:1002100000000A0B02090C0D0E0807030401000080
:1002200000000000000000000000000000000000CE
:10023000000000000000000000000000121110008B
:1002400000000000000000000000000000000000AE
:1002500000000000000000002100240027002A0008
:100260002D003000330001010000040107010A01E4
:1002700000002200250028002B002E003100340051
:1002800002010000050108010B01BD0D11241FBE74
:10029000CFEFD1E2DEBFCDBF00E00CBF13E0A0E0A6
:1002A000B2E0E6EFFCE100E00BBF02C007900D9268
:1002B000A23CB107D9F726E0A2ECB3E001C01D9241
:1002C000AB39B207E1F711E0C6E4D1E000E006C0C7
:1002D00021970109802FFE010E94600EC534D107CD
:1002E00080E00807A9F7BED70C94790E89CEFC01EF
:1002F000538D448D252F30E0842F90E0821B930B8B
:10030000541710F0CF96089501970895FC01918D30
:10031000828D981761F0828DDF01A80FB11D5D9667
:100320008C91928D9F5F9F73928F90E008958FEFD5
:100330009FEF0895FC01918D828D981731F0828D89
:10034000E80FF11D858D90E008958FEF9FEF0895E0
:10035000FC01918D228D892F90E0805C9F4F821B44
:1003600091098F739927089588EC95E0F1DF21E0DA
:10037000892B09F420E0822F0895FC01848DDF0190
:10038000A80FB11DA35ABF4F2C91848D90E0019608
:100390008F739927848FA689B7892C93A089B189F7
:1003A0008C9180648C93938D848D981306C0028801
:1003B000F389E02D80818F7D80830895EF92FF92F5
:1003C0000F931F93CF93DF93EC0181E0888F9B8D78
:1003D0008C8D981305C0E889F989808185FD23C03B
:1003E000F62E0B8D10E00F5F1F4F0F731127E02EBD
:1003F0008C8DE8120BC00FB607FCFACFE889F9899B
:10040000808185FFF5CFCE01B8DFF2CF8B8DFE0165
:10041000E80FF11DE35AFF4FF0820B8FEA89FB8949
:100420008081806207C0EE89FF896083E889F9894D
:1004300080818064808381E090E0DF91CF911F9183
:100440000F91FF90EF900895CF93DF93EC01888D8B
:100450008823C1F0EA89FB89808185FD05C0A889D0
:10046000B9898C9186FD0EC00FB607FCF5CF80814F
:1004700085FFF2CFA889B9898C9185FFEDCFCE0198
:100480007CDFE8CFDF91CF91089580E090E0892B69
:1004900019F06ADF811125C080E090E0892B41F0DE
:1004A00080E090E0892B21F00E94000081111CC0A7
:1004B00080E090E0892B41F080E090E0892B21F0F2
:1004C0000E940000811113C080E090E0892BA1F010
:1004D00080E090E0892B81F00E94000081110AC029
:1004E00008950E940000D8CF0E940000E1CF0E9432
:1004F0000000EACF0C94000008950E94680E1F923D
:100500000F920FB60F9211240BB60F922F933F93B9
:100510004F935F936F937F938F939F93AF93BF930B
:10052000EF93FF9388EC95E028DFFF91EF91BF9167
:10053000AF919F918F917F916F915F914F913F917B
:100540002F910F900BBE0F900FBE0F901F9018951C
:100550001F920F920FB60F9211240BB60F922F938A
:100560008F939F93EF93FF93E091D805F091D90576
:100570008081E091DE05F091DF0582FD12C090815F
:100580008091E1058F5F8F732091E205821751F012
:10059000E091E105F0E0E853FA4F958F8093E10593
:1005A00001C08081FF91EF919F918F912F910F90CA
:1005B0000BBE0F900FBE0F901F9018953FB7F89489
:1005C0008091C4059091C505A091C605B091C7055D
:1005D00026B5A89B05C02F3F19F00196A11DB11D9E
:1005E0003FBFBA2FA92F982F8827820F911DA11DD9
:1005F000B11DBC01CD0142E0660F771F881F991F16
:100600004A95D1F7089585ED8093BC008091BC0098
:1006100084FDFCCF1092C403089540917605262FE7
:1006200030E0240F311D21323105DCF42091C40368
:100630002430C9F4FC0180E090E0861758F4309132
:1006400076052191DC01AC5ABA4FA30FB11D2C9352
:100650000196F3CF80917605680F6093760580E070
:10066000089581E0089582E008950895E091C80317
:100670008091C703E81730F4F0E0EC5CFA4F80811A
:1006800090E008958FEF9FEF08959091C8038091B7
:10069000C703981750F4E92FF0E0EC5CFA4F208183
:1006A00030E09F5F9093C80302C02FEF3FEFC90176
:1006B00008958091C70390E02091C803821B91099F
:1006C0000895CF93DF931F921F92CDB7DEB7CB0172
:1006D000642F49835A83A1DF4981842F5A81952F42
:1006E0000F900F90DF91CF910895CF93DF931F92DA
:1006F000CDB7DEB7698361E0CE0101968EDF81E080
:1007000090E00F90DF91CF910895089580E090E000
:10071000089590E0FC013197E231F10508F04EC0F8
:100720008827EF56FF4F8F4F0C94600E809180000A
:100730008F7703C0809180008F7D80938000089523
:1007400080918000877FF9CF84B58F7702C084B510
:100750008F7D84BD08958091B0008F7703C0809114
:10076000B0008F7D8093B0000895809190008F77C6
:1007700007C0809190008F7D03C080919000877F9B
:100780008093900008958091A0008F7707C080919A
:10079000A0008F7D03C08091A000877F8093A00080
:1007A0000895809120018F7707C0809120018F7D6F
:1007B00003C080912001877F8093200108951F93BB
:1007C000CF93DF93282F30E0F901E05FFD4F849154
:1007D000F901E653FE4FD491F901EC57FE4FC49155
:1007E000CC23C1F0162F811194DFEC2FF0E0EE0F37
:1007F000FF1FE059FD4FA591B4918FB7F8941111E7
:1008000005C09C91ED2FE095E92302C0EC91ED2B02
:10081000EC938FBFDF91CF911F910895CF93DF931A
:1008200090E0FC01E653FE4F2491FC01EC57FE4F93
:100830008491882361F190E0880F991FFC01EA5AA6
:10084000FD4FC591D491FC01E059FD4FA591B491A4
:10085000611109C09FB7F89488812095822388830D
:10086000EC912E230BC0623061F49FB7F89438816D
:10087000822F809583238883EC912E2B2C939FBF0E
:1008800006C08FB7F894E8812E2B28838FBFDF91A5
:10089000CF9108951F93CF93DF93182FEB0161E061
:1008A000BDDF209711F460E004C0CF3FD10531F4E3
:1008B00061E0812FDF91CF911F9181CFE12FF0E097
:1008C000E05FFD4FE4914E2F50E0FA013197E231A5
:1008D000F10508F09DC08827ED55FF4F8F4F0C9410
:1008E000600E84B5806884BDC7BD97C084B5806242
:1008F00084BDC8BD92C080918000806880938000D4
:10090000D0938900C093880088C080918000806265
:1009100080938000D0938B00C0938A007EC080912A
:100920008000886080938000D0938D00C0938C00FD
:1009300074C08091B00080688093B000C093B30011
:100940006CC08091B00080628093B000C093B4000E
:1009500064C080919000806880939000D09399004B
:10096000C09398005AC0809190008062809390005C
:10097000D0939B00C0939A0050C0809190008860F3
:1009800080939000D0939D00C0939C0046C08091BE
:10099000A00080688093A0008091A0008F7B80934E
:1009A000A000D093A900C093A80037C08091A000F8
:1009B00080628093A000D093AB00C093AA002DC0AA
:1009C0008091A00088608093A000D093AD00C09378
:1009D000AC0023C080912001806880932001D093D7
:1009E0002901C093280119C0809120018062809361
:1009F0002001D0932B01C0932A010FC080912001C8
:100A0000886080932001D0932D01C0932C0105C0F4
:100A1000C038D1050CF04CCF46CFDF91CF911F915C
:100A200008958F929F92AF92BF92CF92DF92EF92F2
:100A3000FF926B017C01C2DD4B015C01C114D1044A
:100A4000E104F104E9F0BADDDC01CB018819990970
:100A5000AA09BB09883E9340A105B10578F321E0BE
:100A6000C21AD108E108F10888EE880E83E0981ECA
:100A7000A11CB11CC114D104E104F10421F7DECFA3
:100A8000FF90EF90DF90CF90BF90AF909F908F90AE
:100A900008952FB7F8946091C0057091C1058091B9
:100AA000C2059091C3052FBF08951F920F920FB6F4
:100AB0000F9211242F933F938F939F93AF93BF93E4
:100AC0008091C0059091C105A091C205B091C30568
:100AD0003091BF0523E0230F2D3720F40196A11D8F
:100AE000B11D05C026E8230F0296A11DB11D20935C
:100AF000BF058093C0059093C105A093C205B09334
:100B0000C3058091C4059091C505A091C605B0911B
:100B1000C7050196A11DB11D8093C4059093C5051D
:100B2000A093C605B093C705BF91AF919F918F91D8
:100B30003F912F910F900FBE0F901F9018951F920D
:100B40000F920FB60F9211240BB60F922F933F9373
:100B50004F935F936F937F938F939F93AF93BF93C5
:100B6000EF93FF938091B900887F803609F49CC091
:100B700068F5883209F45BC090F4803109F454C000
:100B800038F4882309F4F6C0883009F44DC0F5C064
:100B9000883109F44CC0803209F45DC0EEC0803465
:100BA00009F468C048F4803309F455C0883309F06B
:100BB000E4C080939B05D8C0803509F44FC08835C8
:100BC00009F45DC0883409F0D8C0D6C0883909F46A
:100BD000C7C0A8F4883709F467C038F4883609F428
:100BE00063C0803709F460C0C8C0883809F4B8C051
:100BF000803909F45FC0803809F0BFC05BC0803B1A
:100C000009F486C038F4803A09F466C0883A09F4D9
:100C10007FC0B3C0803C09F4A7C0883C09F4A4C0DD
:100C2000883B09F48AC0A9C08091BE0510C090918C
:100C3000BD058091BC05981770F5E091BD0581E078
:100C40008E0F8093BD05F0E0E456FA4F80818093CB
:100C5000BB0085EC86C080939B058EC0E091BD05EE
:100C600081E08E0F8093BD058091BB00F0E0E456DB
:100C7000FA4F80839091BD058091BC056EC0E091D4
:100C8000BD0581E08E0F8093BD058091BB00F0E033
:100C9000E456FA4F80838091C30381116DC081E0D7
:100CA0008093C20384EA61C083E08093C4031092FE
:100CB0009A05CFCF80919A05803208F051C0E0911B
:100CC0009A0581E08E0F80939A058091BB00F0E039
:100CD000E658FA4F8083BDCF85EC8093BC0010921C
:100CE000C40380919A05803230F4E0919A05F0E0D7
:100CF000E658FA4F108260919A0570E0E09178050D
:100D0000F09179058AE795E0199510929A0535C01A
:100D100084E08093C4031092770510927605E091E9
:100D20007405F0917505199580917605811105C0BE
:100D300081E08093760510925405E091770581E07B
:100D40008E0F80937705F0E0EC5AFA4F8081809304
:100D5000BB009091770580917605981708F479CFBC
:100D600085E88093BC0009C085EC8093BC0010929C
:100D7000C40303C010929B0546DCFF91EF91BF9125
:100D8000AF919F918F917F916F915F914F913F9123
:100D90002F910F900BBE0F900FBE0F901F901895C4
:100DA000CF93DF938A30910548F5FC01EE0FFF1FCA
:100DB000ED58FB4F11821082FC01EE0FFF1FEE0F6A
:100DC000FF1FE55BFB4F10821182128213822DE020
:100DD000289FF001299FF00D1124E753FC4F80E379
:100DE00080838183828383838483858386838783CF
:100DF000808781878287838714864FC0019609F098
:100E000047C043E754E0ABE4B4E0E5EDF3E080E352
:100E1000EA0119921992AE011D921D921D921D9226
:100E20009F012C503109E90188832F5F3F4FE90171
:100E300088832F5F3F4FE90188832F5F3F4FE90190
:100E400088832F5F3F4FE90188832F5F3F4FE90180
:100E500088832F5F3F4FE90188832F5F3F4FE90170
:100E600088832F5F3F4FE90188832F5F3F4FE90160
:100E700088832F5F3F4FE90188832F5F3F4FE90150
:100E8000888310823D96D4E0A337BD0709F605C0DC
:100E900082E893E0DF91CF91DDC0DF91CF9108959B
:100EA000FF920F931F93CF93DF93F82E8B01EA01EC
:100EB00083EA93E073D18F2D72D187EA93E06ED1EC
:100EC000C80178D187EA93E069D1CE0167D187EA7A
:100ED00093E064D189EA93E061D180E992E0DF9107
:100EE000CF911F910F91FF9059C10F931F93CF93F3
:100EF000DF938091C4038111FCCF81E08093C40310
:100F00008093C3039FEF90939B051092BD0593E0E0
:100F10009093BC058093BE058091BE05846080934C
:100F2000BE058091C203813061F41092C2038091AA
:100F3000BE058093BB008091BC0083FDF8CF85EC9B
:100F400001C085EE8093BC008091C4038130E1F341
:100F50008091BD05843018F48091BD0501C084E006
:100F6000ACE9B5E024E335E0F9019E2F921B981718
:100F700018F49D919193F9CF1092C8038093C70301
:100F8000882319F185E696E080DBD82F85E696E088
:100F90007CDB182F85E696E078DBC82F85E696E0A7
:100FA00074DB412F50E060E070E05D2B762F652F01
:100FB000542F44274C2B762F652F542F44278A011A
:100FC0009B01082BC901B80104C061E070E080E01A
:100FD00090E0DF91CF911F910F910895CF92DF9212
:100FE000EF92FF920F931F93CF93DF936C017A01DF
:100FF0008B01C0E0D0E0CE15DF0589F0D8016D91FE
:101000008D01D601ED91FC910190F081E02DC6019A
:101010001995892B11F47E0102C02196ECCFC701EE
:10102000DF91CF911F910F91FF90EF90DF90CF90C4
:101030000895009761F0FC0101900020E9F73197D5
:10104000AF01481B590BBC0188EC95E0C7CF80E08D
:1010500090E00895CF93DF93ECDFEC0182E992E01A
:10106000E8DF8C0F9D1FDF91CF9108950F931F93A1
:101070009091760680917506992331F081111EC0FA
:1010800081E0809375061AC0811146C002DD60932D
:101090007706709378068093790690937A0681E0BC
:1010A000809376068093750664E170E08091710606
:1010B000F1DB89EB93E01F910F91CCCFEADC00913B
:1010C0007706109178062091790630917A06DC0136
:1010D000CB01801B910BA20BB30B00917B061091EF
:1010E0007C0620917D0630917E06081719072A0795
:1010F0003B0790F410927606E0917306F091740627
:10110000EE0FFF1FEF57F94F6081718180917106DB
:10111000C1DB8EEA93E0CFCF1F910F9108958F929C
:101120009F92AF92BF920F931F93CF93DF93CDB750
:10113000DEB7A1970FB6F894DEBF0FBECDBF19A2E0
:10114000423008F44AE08E010F5D1F4F842E912C2F
:10115000A12CB12CA501940191D5E62FB901CA01AA
:1011600001501109EA3014F4E05D01C0E95CD801D6
:10117000EC93232B242B252B69F7C8015ADFA1966A
:101180000FB6F894DEBF0FBECDBFDF91CF911F9198
:101190000F91BF90AF909F908F9008954ACFE091AC
:1011A000C805F091C9050190F081E02D682F88EC09
:1011B00095E01994CF92DF92EF92FF92CF93DF9355
:1011C0006C01990FEE08FF08F7FE15C08DE2E7DF0E
:1011D000EC0166277727CB016C197D098E099F09E1
:1011E0004AE09DDF8C0F9D1FDF91CF91FF90EF9024
:1011F000DF90CF9008954AE0C701B601DF91CF910B
:10120000FF90EF90DF90CF908ACFCF92DF92EF9256
:10121000FF92CF93DF936C01990FEE08FF08F7FE62
:1012200010C08DE2BCDFEC0166277727CB016C197B
:101230007D098E099F094AE072DF7C01EC0EFD1EDC
:1012400005C04AE0C701B6016ADF7C0182E992E08D
:10125000F0DE8E0D9F1DDF91CF91FF90EF90DF901C
:10126000CF900895CF93DF93CDB7DEB764970FB6D5
:10127000F894DEBF0FBECDBF789484B5826084BD84
:1012800084B5816084BD85B5826085BD85B581608A
:1012900085BD80916E00816080936E001092810008
:1012A00080918100826080938100809181008160C3
:1012B0008093810080918000816080938000809184
:1012C000B10084608093B1008091B0008160809310
:1012D000B000809191008260809391008091910094
:1012E0008160809391008091900081608093900054
:1012F0008091A10082608093A1008091A100816013
:101300008093A1008091A00081608093A0008091D3
:10131000210182608093210180912101816080936D
:1013200021018091200181608093200180917A00C9
:10133000846080937A0080917A00826080937A0042
:1013400080917A00816080937A0080917A00806831
:1013500080937A001092C10003E112E0F801F0805E
:101360000E5F1F4F61E08F2D59DA60E08F2D27DA75
:10137000F2E003331F0791F768EAE62E64E0F62EE9
:1013800001E012E0DD24D394F80180810E5F1F4F4D
:1013900062E044DAF701D1927F01F2E001311F07E8
:1013A00099F71092B0041092B1041092B204109206
:1013B000B30484E694E4A0E0B0E08093B404909396
:1013C000B504A093B604B093B70487E49FE4A0E00B
:1013D000B0E08093B8049093B904A093BA04B0939A
:1013E000BB0461E084E31ADA60E084E3E8D9109298
:1013F000C8031092C7031092C6031092C50310923F
:10140000C40381E08093C3031092C20361E084E1CE
:10141000D6D961E085E1D3D98091B9008E7F8093E0
:10142000B9008091B9008D7F8093B90088E48093E2
:10143000B80085E48093BC00E091D805F091D9050F
:1014400082E08083E091D805F091D9051082E09187
:10145000D405F091D5051082E091D605F091D7051D
:1014600080E180831092E005E091DC05F091DD05DC
:1014700086E08083E091DA05F091DB058081806170
:101480008083E091DA05F091DB05808188608083BC
:10149000E091DA05F091DB05808180688083E0913E
:1014A000DA05F091DB0580818F7D808381E792E012
:1014B00075DE64E670E080E090E0B3DA8DE792E0FC
:1014C0006DDE5BE8E52E54E0F52ECE010D969C8B8B
:1014D0008B8B88EC95E00E94A801181619060CF079
:1014E000D2C188EC95E00E9486018C3339F02091BE
:1014F000890430918A048E3379F0B8C198E1F701FC
:1015000011929A95E9F780938B0481E090E0909393
:101510008A0480938904B7C1F901E557FB4F8083A2
:10152000F70101900020E9F7E35AF44009F07CC18B
:1015300080918D048E8780918E048F8780918F0497
:10154000888B80919004898B1A8ACE010E9671D374
:101550004C01A1E9B4E0FE0131966F018D918193B8
:101560008B899C89E817F907C9F71D86E0918C04DF
:101570008E2FEE0F990BAA0BBB0BFC01E154F10966
:10158000E831F10508F068C18827EE58FF4F8F4F0A
:1015900097C349ECC42E43E0D42EA9C009EC13E054
:1015A0004DE050E0BE016F5F7F4FC80195D3892B9E
:1015B00009F443C0035F1F4F94E00B34190781F710
:1015C00000918704109188048DE0809FA001819F85
:1015D000500D112480E090E0F60121916F01FC0193
:1015E000E40FF51FE753FC4F208301968D309105E2
:1015F00099F77BDCF801EE0FFF1FEE0FFF1FE55B95
:10160000FB4F6083718382839383F801EE0FFF1F8A
:10161000ED58FB4F118210820F5F1F4F0A301105EA
:1016200028F4109388040093870404C0109288045F
:101630001092870468EC70E002C069E971E0AE01C5
:101640004F5F5F4F3AC099ECC92E93E0D92E00E06E
:1016500010E04DE050E0BE016F5F7F4FC6013CD30C
:10166000892B51F4000F111FF801ED58FB4F9182A7
:10167000808268EC70E00AC00F5F1F4FFDE0CF0E64
:10168000D11C0A30110529F764E971E0AE014F5F02
:101690005F4F82E414C029DCDAC085E992E07EDD88
:1016A00080918C047CDD8EE992E0BCC0C40178DBC3
:1016B000AE014F5F5F4F60E070E080918C04F0DB23
:1016C000CBC0F601E00FF11F808169DD0F5F1F4F76
:1016D0000D301105B1F783E992E060DD2DE0C20E17
:1016E000D11C8BE4C81684E0D80609F4B5C000E02C
:1016F00010E0E7CF88EA92E0ADDC1BE4C12E14E0F5
:10170000D12E03E7A02E04E0B02E09EC13E0812CCB
:10171000912CF801E80DF91D808141DD9FEF891AB8
:10172000990AEDE08E169104A1F784EC92E036DD83
:10173000F60161917191819191916F014AE0EFDC25
:1017400084EC92E02BDDF501819191915F0132DD16
:1017500083E992E023DD035F1F4FF3E7CF16F4E048
:10176000DF06A9F679C088EA92E074DC8DE0889DF6
:101770006001899DD00C112400E010E0F801EC0D0F
:10178000FD1DE753FC4F80810ADD0F5F1F4F0D30B9
:101790001105A1F784EC92E001DDF401EE0FFF1FCB
:1017A000EE0FFF1FE55BFB4F6081718182819381AA
:1017B0004AE0B5DC84EC92E0F1DCC401880F991FAB
:1017C000FC01ED58FB4F80819181F4DC83E992E0CC
:1017D000E5DC42C088EC92E03DDC03E112E0092C3C
:1017E000000CAA08BB08F801D080C1800E5F1F4F13
:1017F00061E08D2D0E94DF03C501B40112D960E0C4
:101800008D2D0E94DF03C501B4010BD98BED92E051
:10181000C5DC8D2D9C2DF9DCF2E003331F0719F791
:1018200084EE92E017DC18C082EF92E0B7DC87E12B
:1018300090E0C0DC80E293E0B1DCF7010190002091
:10184000E9F73197BF016B58744080E090E04AE0BF
:1018500066DC82E992E0EDDB88E1F70111928A957E
:10186000E9F710928A04109289040DC026313105DF
:1018700098F7F901E557FB4F80832F5F3F4F309377
:101880008A042093890478EAC72E74E0D72EE1E019
:10189000AE2EE2E0BE2E00E010E099249394F60113
:1018A000708070920002F501219131915F01332720
:1018B000F901E05FFD4F8491F901E653FE4F8490FA
:1018C000F901EC57FE4F64906620A1F081110E944F
:1018D0008903E62DF0E0EE0FFF1FE659FE4FA591BC
:1018E000B491EC918E2231E020E009F430E0832FB6
:1018F000922F02C080E090E0282F2170F601219302
:101900006F01892B09F0AAC0772009F4A7C0C1D8BC
:101910004090A4045090A5046090A6047090A70481
:10192000DC01CB0184199509A609B709833D91050E
:10193000A105B10508F492C0ACD86093A4047093DB
:10194000A5048093A6049093A704F8013197E7308B
:10195000F10528F48827E657FF4F8F4FB1C18091DA
:1019600073069091740601969093740680937306A3
:1019700020917F063091800628173907ACF4309308
:1019800074062093730610C08091730690917406BC
:10199000019797FD05C0909374068093730604C069
:1019A000109274061092730680917506882391F048
:1019B0008091760681110EC0E0917306F091740655
:1019C000EE0FFF1FEF57F94F608171818091710613
:1019D0000E944A048FE293E02EC08091A3048823E2
:1019E00021F01092A30460E003C09092A30461E090
:1019F00084E30E94DF0387E393E0D0DB8091A304BC
:101A000090E01EC080917506882359F010927506EB
:101A10001092760660E070E0809171060E944A04A0
:101A200001C024DB81E493E0B9DB8091750690E08E
:101A3000C1DB88E493E0B2DB809173069091740679
:101A4000E4DB0CC081E593E008C08CE593E005C0C1
:101A500088E693E002C084E793E0FCDA0F5F1F4F53
:101A60000830110509F01BCF40DA1B012C0133E7C8
:101A7000632E34E0732E4BE4842E44E0942EC12C6C
:101A8000D12CF301019111913F0110161106CCF5F3
:101A9000F40180819181A281B381B201A101481B2F
:101AA000590B6A0B7B0B5801AA0CBB1CAA0CBB1C64
:101AB000F501E055FB4F80819181A281B3814817E8
:101AC00059076A077B07E8F084529A4FAF4FBF4F20
:101AD00084179507A607B707A0F00E944905F501EE
:101AE000EC50FB4F6083718382839383000F111F3F
:101AF000F801EF5EFD4F61E080810E94DF03C601C7
:101B00004FD9FFEFCF1ADF0A24E0820E911C8AE042
:101B1000C816D10409F0B5CF04EF14E081E1C82E56
:101B200082E0D82E0E944905F80180809180A28031
:101B3000B380F8EC8F0E911CA11CB11C8616970681
:101B4000A806B90650F460E0F60180810E94DF0328
:101B5000F80110821182128213820C5F1F4FF2E093
:101B6000CF0ED11C25E004331207E1F680917606F2
:101B700081117CDA0E944502ACCCE8ECF5E01382DE
:101B8000128288EE93E0A0E0B0E084839583A68380
:101B9000B78321E532E03183208325EC30E03587BF
:101BA000248724EC30E03787268720EC30E0318B27
:101BB000208B21EC30E0338B228B22EC30E0358B14
:101BC000248B26EC30E0378B268B118E128E138EF1
:101BD000148EE5E6F6E01382128284839583A68351
:101BE000B78383E692E091838083E1E7F6E083E0C8
:101BF00090E0918380831382128214821582168270
:101C000017821086118680ED97E0A0E0B0E0828711
:101C10009387A487B5878CE090E0978786878AE1D1
:101C2000E3E3F2E0A1E8B6E001900D928A95E1F7D6
:101C30000895FC0188279927E89421912032E9F33F
:101C4000293010F02E30C8F32B3239F02D3231F418
:101C5000689403C00BD0820F911D219120532A302C
:101C6000C8F31EF4909581959F4F08957AE0979F51
:101C7000902D879F802D910D11240895A1E21A2E99
:101C8000AA1BBB1BFD010DC0AA1FBB1FEE1FFF1F20
:101C9000A217B307E407F50720F0A21BB30BE40B70
:101CA000F50B661F771F881F991F1A9469F76095B7
:101CB0007095809590959B01AC01BD01CF01089571
:101CC000EE0FFF1F881F8BBF0790F691E02D199430
:101CD00081E090E0F8940DC0FB01DC0104C08D911F
:101CE0000190801921F441505040C8F7881B990B8E
:061CF0000895F894FFCFF7
:101CF600010400050006000700080009000A000BA1
:101D060000000016001700180019001A001B001C1E
:101D1600001D001E001F00200021002200230024B9
:101D260000250014001E00280032003C004B006411
:101D3600007D009600AF00C800E100FF0000000033
:101D460000DE01EE0777012402A80186019A010050
:101D56000000007503610386033503590345033606
:101D6600035B42425F4F4E4C494E455D005B426508
:101D76006C74204275636B6C652076302E352E3779
:101D86005D000D0A00436F6D6D616E642000205288
:101D9600656369657665640020205061796C6F61C2
:101DA60064202020203A2020446973742E203A2093
:101DB60042696E00203A200054657374696E67208C
:101DC6006F7574707574732E2E2E006F7574707522
:101DD600743A20005465737420636F6D706C65747B
:101DE600650050617273696E67207061636B65741C
:101DF600203A20426164205061636B6574204C6513
:101E06006E6774682E20457870656374656420007B
:101E16002062757420726563696576656420007357
:101E2600706565643A200062656C742069733A20B7
:101E3600004D6F64653A20002053706565643A2052
:101E460000627574746F6E5F72756E00627574747D
:101E56006F6E5F73746F7000627574746F6E5F621D
:101E6600656C7400627574746F6E5F666565646533
:101E760072004572726F723A20466C7573682069FB
:101E86006E646578206F7574206F662072616E6768
:101E96006521005B41434B2D004353554D0066754C
:101EA6006C6C207370656564007374617274757010
:021EB60000002A
:020000023000CC
:10E000000D9489F10D94B2F10D94B2F10D94B2F129
:10E010000D94B2F10D94B2F10D94B2F10D94B2F1F0
:10E020000D94B2F10D94B2F10D94B2F10D94B2F1E0
:10E030000D94B2F10D94B2F10D94B2F10D94B2F1D0
:10E040000D94B2F10D94B2F10D94B2F10D94B2F1C0
:10E050000D94B2F10D94B2F10D94B2F10D94B2F1B0
:10E060000D94B2F10D94B2F10D94B2F10D94B2F1A0
:10E070000D94B2F10D94B2F10D94B2F10D94B2F190
:10E080000D94B2F10D94B2F10D94B2F10D94B2F180
:10E090000D94B2F10D94B2F10D94B2F10D94B2F170
:10E0A0000D94B2F10D94B2F10D94B2F10D94B2F160
:10E0B0000D94B2F10D94B2F10D94B2F10D94B2F150
:10E0C0000D94B2F10D94B2F10D94B2F10D94B2F140
:10E0D0000D94B2F10D94B2F10D94B2F10D94B2F130
:10E0E0000D94B2F141546D656761323536300041AF
:10E0F000726475696E6F206578706C6F72657220DE
:10E1000073746B3530305632206279204D4C530099
:10E11000426F6F746C6F616465723E004875683F52
:10E1200000436F6D70696C6564206F6E203D200048
:10E130004350552054797065202020203D20005FF9
:10E140005F4156525F415243485F5F3D2000415658
:10E1500052204C696243205665723D20004743437C
:10E160002056657273696F6E203D20004350552024
:10E1700049442020202020203D20004C6F7720663D
:10E18000757365202020203D20004869676820665F
:10E190007573652020203D200045787420667573D6
:10E1A00065202020203D20004C6F636B2066757336
:10E1B000652020203D20004D617220203720323024
:10E1C000313300312E362E3800342E332E350056A2
:10E1D00023202020414444522020206F7020636F70
:10E1E00064652020202020696E73747275637469E1
:10E1F0006F6E2061646472202020496E74657272B3
:10E20000757074006E6F20766563746F7200726A49
:10E210006D702020006A6D70200057686174207056
:10E220006F72743A00506F7274206E6F7420737541
:10E2300070706F72746564004D7573742062652030
:10E2400061206C6574746572002000577269747483
:10E25000696E672045450052656164696E672045B7
:10E26000450045452065727220636E743D00504F35
:10E27000525400303D5A65726F2061646472003FF1
:10E280003D43505520737461747300403D454550C3
:10E29000524F4D207465737400423D426C696E6B41
:10E2A000204C454400453D44756D70204545505215
:10E2B0004F4D00463D44756D7020464C415348001B
:10E2C000483D48656C70004C3D4C69737420492F83
:10E2D0004F20506F72747300513D51756974005234
:10E2E0003D44756D702052414D00563D73686F7707
:10E2F00020696E7465727275707420566563746FF0
:10E30000727300593D506F727420626C696E6B00BD
:10E310002A0011241FBECFEFD1E2DEBFCDBF01E046
:10E320000CBF12E0A0E0B2E0EEE1FDEF03E00BBFB6
:10E3300002C007900D92A030B107D9F712E0A0E01B
:10E34000B2E001C01D92AE30B107E1F70F9460F367
:10E350000D948DFE01E20EBF0FEF0DBF11241FBE05
:10E360000D9460F30D9400F020E030E040ED57E0B4
:10E3700005C0FA013197F1F72F5F3F4F2817390792
:10E38000C0F308959C01260F311DC901A0E0B0E043
:10E390002F5F3F4FABBFFC018791882361F08093D3
:10E3A000C6008091C00086FFFCCF8091C0008064D1
:10E3B0008093C000EACF08958DE08093C6008091DD
:10E3C000C00086FFFCCF8091C00080648093C000B5
:10E3D0008AE08093C6008091C00086FFFCCF8091C8
:10E3E000C00080648093C00008950F94C2F10F9420
:10E3F000DCF10895FC019081992359F09093C600B7
:10E400008091C00086FFFCCF8091C0008064809323
:10E41000C0003196992379F70895282F982F929567
:10E420009F70892F805D8A3308F0895F8093C600D2
:10E430008091C00086FFFCCF8091C00080648093F3
:10E44000C000822F8F70982F905D9A3308F0995FEB
:10E450009093C6008091C00086FFFCCF8091C000E1
:10E4600080648093C00008959C01FB01853691056E
:10E470001CF46330710594F0C90164E670E00F94F8
:10E480002EFE605D7F4F6093C6008091C00086FFC6
:10E49000FCCF8091C00080648093C0002B30310598
:10E4A00014F43297B4F0C90164E670E00F942EFEC4
:10E4B0006AE070E00F942EFE605D7F4F6093C600AF
:10E4C0008091C00086FFFCCF8091C0008064809363
:10E4D000C000C9016AE070E00F942EFEC0968093E0
:10E4E000C6008091C00086FFFCCF8091C000806490
:10E4F0008093C00008951F93182F8EE692EE60E07F
:10E500000F94C2F11093C6008091C00086FFFCCF2B
:10E510008091C00080648093C0000F94DCF11F9153
:10E5200008952F923F924F925F926F927F928F92B7
:10E530009F92AF92BF92CF92DF92EF92FF920F9392
:10E540001F93DF93CF93CDB7DEB762970FB6F894E2
:10E55000DEBF0FBECDBF382E622ECA01DB015C01CB
:10E560006D01772420E2222E2E010894411C511CBB
:10E570008BC081E0A81680E0B80681E0C80680E084
:10E58000D80628F0C601AA27BB270F940DF2BB2797
:10E59000AD2D9C2D8B2D0F940DF28A2D0F940DF225
:10E5A0002092C6008091C00086FFFCCF8091C00001
:10E5B00080648093C0009DE29093C6008091C0006B
:10E5C00086FFFCCF8091C00080648093C0002092C1
:10E5D000C6008091C00086FFFCCF8091C00080649F
:10E5E0008093C00019828601750188249924A1E0D6
:10E5F0003A1651F03A1620F0B2E03B1661F409C029
:10E600000BBFF701779007C0C7010F9477FE782EF4
:10E6100002C0F7017080872D0F940DF22092C60082
:10E620008091C00086FFFCCF8091C0008064809301
:10E63000C000872D8052F401EF70F0708F3520F408
:10E64000E40DF51D708204C0E40DF51D8EE280839B
:10E650000894E11CF11C011D111D0894811C911CE2
:10E6600090E18916910409F0C2CF80E190E0A0E02A
:10E67000B0E0A80EB91ECA1EDB1E198AC2010F9493
:10E68000FAF10F94DCF16A94662009F072CF629679
:10E690000FB6F894DEBF0FBECDBFCF91DF911F91B3
:10E6A0000F91FF90EF90DF90CF90BF90AF909F9031
:10E6B0008F907F906F905F904F903F902F90089534
:10E6C0002F923F924F925F926F927F928F929F9282
:10E6D000AF92BF92CF92DF92EF92FF920F931F9370
:10E6E000DF93CF93CDB7DEB7CD53D1400FB6F894BB
:10E6F000DEBF0FBECDBF01E20EBF0FEF0DBF94B75F
:10E70000F894A89514BE80916000886180936000A1
:10E7100010926000789493FF05C0E0910002F091A0
:10E7200001021995279A2F9A8091C00082608093E8
:10E73000C00080E18093C40088E18093C1000000A4
:10E74000EE24FF24870144E0A42EB12CCC24DD2448
:10E7500024C0C5010197F1F70894E11CF11C011DCB
:10E76000111D21E2E2162EE4F20620E0020720E06D
:10E77000120718F031E0C32ED12CC801B70127ECE5
:10E780003BE140E050E00F9441FE611571058105C9
:10E79000910519F485B1805885B98091C00087FD35
:10E7A00003C0C114D104A9F2A6014F5F5F4FC25E3E
:10E7B000DE4F59834883CE51D140C25EDE4F8881FF
:10E7C0009981CE51D140019711F00D9410FEC05D9A
:10E7D000DE4F19821882C053D14060E0C15DDE4F28
:10E7E0001882CF52D14088249924C35DDE4F19820C
:10E7F0001882CD52D140C05EDE4F188219821A8233
:10E800001B82C052D140CE5CDE4F188219821A8220
:10E810001B82C253D140EE24FF2487010BBFF701B6
:10E8200007911691C45CDE4F19830883CC53D14005
:10E830000D940BFEC25EDE4F28813981CE51D1404E
:10E840002130310509F52091C600C25EDE4F1982E4
:10E850001882CE51D14022C02F5F3F4F4F4F5F4FA4
:10E86000213082E138078AE7480780E0580780F0C6
:10E87000C45CDE4FE881F981CC53D140EF5FFF4F9C
:10E8800019F0EE27FF27099420E030E040E050E047
:10E890008091C00087FFE0CF2091C600C35DDE4FAE
:10E8A00048815981CD52D1404F5F5F4FC35DDE4FEC
:10E8B00059834883CD52D140213209F063C64A3092
:10E8C000510508F05FC60894811C911C53E0851621
:10E8D000910409F059C600E010E018C081E280936D
:10E8E000C6008091C00086FFFCCF8091C00080648C
:10E8F0008093C0002F5F3F4F2931310579F70F9486
:10E90000DCF10F5F1F4F0530110519F020E030E0FA
:10E91000E5CF10920A0210920B0210920C02109294
:10E920000D02109206021092070210920802109235
:10E930000902109202021092030210920402109235
:10E9400005028FEE90EE60E00F94F5F180E191EE1C
:10E9500060E00F94C2F18091C00087FFFCCF9091DE
:10E96000C600903608F09F759032B8F09093C600BC
:10E970008091C00086FFFCCF8091C00080648093AE
:10E98000C000A0E2A093C6008091C00086FFFCCF2B
:10E990008091C00080648093C000983409F4D7C18E
:10E9A0009934B8F4923409F459C1933458F490333B
:10E9B00019F1903308F4E3C59F33A1F1903409F0C5
:10E9C000DEC5BDC0953409F470C1963409F0D7C5D1
:10E9D00098C1923509F42BC2933538F49C3409F46C
:10E9E000F5C1913509F0CBC518C2963509F445C279
:10E9F000993509F0C4C567C483E792EE62E00F94CD
:10EA0000F5F110920602109207021092080210927D
:10EA1000090210920A0210920B0210920C0210923C
:10EA20000D0213C18FE792EE62E00F94F5F18FEEC5
:10EA300090EE60E00F94F5F181E291EE60E00F94CA
:10EA4000C2F187EB91EE60E00F94F5F180E391EE77
:10EA500060E00F94C2F184EE90EE60E00F94F5F167
:10EA60008FE391EE60E00F94C2F186E090E061E008
:10EA700070E00F9434F20F94DCF18DE591EE60E0DC
:10EA80000F94C2F189EC91EE60E00F94F5F18EE401
:10EA900091EE60E00F94C2F183EC91EE60E00F9490
:10EAA000F5F18CE691EE60E00F94C2F18EE10F94E7
:10EAB0000DF288E90F940DF281E00F940DF20F949E
:10EAC000DCF18BE791EE60E00F94C2F119E0E0E039
:10EAD000F0E010935700E4918E2F0F940DF20F94F5
:10EAE000DCF18AE891EE60E00F94C2F1E3E0F0E03F
:10EAF00010935700E4918E2F0F940DF20F94DCF1D8
:10EB000089E991EE60E00F94C2F1E2E0F0E0109349
:10EB10005700E4918E2F0F940DF20F94DCF188EAE8
:10EB200091EE60E00F94C2F1E1E0F0E01093570045
:10EB30001491812F0F940DF20F94DCF107CF8BE825
:10EB400092EE62E00F94F5F18BE492EE60E00F94A8
:10EB5000F5F10F94DCF100E010E019C0C8016F2D51
:10EB60000F947FFEFF2031F489E492EE60E00F9471
:10EB7000C2F10BC0F092C6008091C00086FFFCCFAE
:10EB80008091C00080648093C0000F5F1F4FC80158
:10EB900081519F41A0E0B0E0ABBFFC01F790BAE229
:10EBA000FB1621F0E2E000301E07C1F60F94DCF105
:10EBB0000F94DCF187E592EE60E00F94F5F10F948D
:10EBC000DCF1CC24DD2400E010E01EC0C8010F946D
:10EBD00077FEF82E882331F489E492EE60E00F94FA
:10EBE000C2F10BC08093C6008091C00086FFFCCFAD
:10EBF0008091C00080648093C000FE1419F00894D6
:10EC0000C11CD11C0F5F1F4FC80181519F41A0E063
:10EC1000B0E0ABBFFC01E790FAE2EF1621F022E092
:10EC20000030120799F60F94DCF10F94DCF182E6C4
:10EC300092EE60E00F94C2F1C60161E070E00F94C3
:10EC400034F20F94DCF10F94DCF110920202109276
:10EC50000302109204021092050278CE89E992EE26
:10EC600062E00F94F5F1279A2F9A16C02F9880E052
:10EC700090E0E0EDF7E03197F1F7019684369105E9
:10EC8000C1F72F9A80E090E0E0EDF7E03197F1F7DF
:10EC9000019684369105C1F78091C00087FFE6CFC9
:10ECA0008091C00087FFFCCF64C485EA92EE62E0E9
:10ECB0000F94F5F140910202509103026091040219
:10ECC0007091050281E020E10F9491F2809102029F
:10ECD00090910302A0910402B091050280509F4FD1
:10ECE000AF4FBF4F8093020290930302A0930402A0
:10ECF000B093050280509041A040B04008F426CE69
:10ED0000A4CF83EB92EE62E00F94F5F140910602FE
:10ED100050910702609108027091090280E020E1A1
:10ED20000F9491F28091060290910702A09108023F
:10ED3000B091090280509F4FAF4FBF4F80930602A2
:10ED400090930702A0930802B0930902FFCD80ECD4
:10ED500092EE62E00F94F5F183E792EE60E00F949B
:10ED6000F5F18FE792EE60E00F94F5F18BE892EE0B
:10ED700060E00F94F5F189E992EE60E00F94F5F10F
:10ED800085EA92EE60E00F94F5F183EB92EE60E09D
:10ED90000F94F5F180EC92EE60E00F94F5F187ECC2
:10EDA00092EE60E00F94F5F188ED92EE60E00F9442
:10EDB000F5F18FED92EE60E00F94F5F18AEE92EEB0
:10EDC00060E00F94F5F183E093EEBDCD87EC92EE19
:10EDD00062E00F94F5F181E40F947BF282E40F94EA
:10EDE0007BF283E40F947BF284E40F947BF285E45E
:10EDF0000F947BF286E40F947BF287E40F947BF20E
:10EE000088E40F947BF28AE40F947BF28BE40F94F6
:10EE10007BF28CE40F947BF299CD88ED92EE62E068
:10EE20000F94F5F1772473948824992409C48FED05
:10EE300092EE62E00F94F5F140910A0250910B02BC
:10EE400060910C0270910D0282E020E10F9491F22A
:10EE500080910A0290910B02A0910C02B0910D02D8
:10EE600080509F4FAF4FBF4F80930A0290930B0289
:10EE7000A0930C02B0930D0269CD8AEE92EE62E08F
:10EE80000F94F5F184EE90EE60E00F94F5F18FECC5
:10EE900091EE60E00F94F5F1662477244301CC5D98
:10EEA000DE4F19821882C452D140D401C301B695F5
:10EEB000A79597958795CA5DDE4F88839983AA8326
:10EEC000BB83C652D140CC5DDE4FA881B981C4520C
:10EED000D1401196CC5DDE4FB983A883C452D14096
:10EEE000CD0162E070E00F9434F2B0E2B093C6005E
:10EEF0008091C00086FFFCCF8091C0008064809329
:10EF0000C000EDE2E093C6008091C00086FFFCCF18
:10EF10008091C00080648093C000F0E2F093C6004E
:10EF20008091C00086FFFCCF8091C00080648093F8
:10EF3000C000CA5DDE4FE880F9800A811B81C6529D
:10EF4000D140BB27A12F902F8F2D0F940DF2CA5DBA
:10EF5000DE4F8881C652D1400F940DF2B0E2FB2EF5
:10EF6000F092C6008091C00086FFFCCF8091C00067
:10EF700080648093C0000DE30093C6008091C000C0
:10EF800086FFFCCF8091C00080648093C00010E2B7
:10EF90001093C6008091C00086FFFCCF8091C00016
:10EFA00080648093C0008BBEF3012791C65DDE4F65
:10EFB0002883CA52D140A22EBB24CC24DD2408943D
:10EFC000611C711C811C911C8BBEF3018791282E42
:10EFD0003324442455240894611C711C811C911C09
:10EFE0008BBEF3013791C55DDE4F3883CB52D140E4
:10EFF0000894611C711C811C911C8BBEF30147910C
:10F00000C45DDE4F4883CC52D140ADEFEA2EAFEF66
:10F01000FA2EAFEF0A2FAFEF1A2F6E0C7F1C801E57
:10F02000911E142D032DF22CEE24EA0CFB1C0C1D5A
:10F030001D1D0F940DF220E22093C6008091C000A8
:10F0400086FFFCCF8091C00080648093C000C65DC5
:10F05000DE4F8881CA52D1400F940DF230E23093D6
:10F06000C6008091C00086FFFCCF8091C000806404
:10F070008093C000C45DDE4F8881CC52D1400F9494
:10F080000DF240E24093C6008091C00086FFFCCFA5
:10F090008091C00080648093C000C55DDE4F888190
:10F0A000CB52D1400F940DF250E25093C6008091A4
:10F0B000C00086FFFCCF8091C00080648093C000B8
:10F0C0008FEFE8168FEFF80680E0080780E018075A
:10F0D00031F484E092EE60E00F94C2F1DFC0D80119
:10F0E000C7018070907CA070B0708050904CA040A0
:10F0F000B040D1F52FEF3FE340E050E0E222F322B1
:10F1000004231523CA5DDE4FA880B980CA80DB8046
:10F11000C652D140AE0CBF1CC01ED11EAA0CBB1CD7
:10F12000CC1CDD1C8EE092EE60E00F94C2F1BB2798
:10F13000A12F902F8F2D0F940DF28E2D0F940DF285
:10F1400030E23093C6008091C00086FFFCCF8091F2
:10F15000C00080648093C0004EE34093C60080915D
:10F16000C00086FFFCCF87C08EE09EEFA0E0B0E03D
:10F17000E822F9220A231B239CE0E91694E9F90608
:10F1800090E0090790E0190709F088C0C45DDE4FE0
:10F19000A881CC52D140EA2EFF2400E010E0102FCD
:10F1A0000F2DFE2CEE24C55DDE4FB881CB52D14031
:10F1B000EB0EF11C011D111DD601C501817090706F
:10F1C000A070B070DC0199278827E80EF91E0A1F8D
:10F1D0001B1F20EF30E040E050E0A222B322C42207
:10F1E000D52241E1AA0CBB1CCC1CDD1C4A95D1F7F1
:10F1F000EA0CFB1C0C1D1D1D81E090E0A0E0B0E0BE
:10F20000282239224A225B2235E1220C331C441C7D
:10F21000551C3A95D1F7E20CF31C041D151D57013E
:10F220006801AA0CBB1CCC1CDD1C85E192EE60E0E1
:10F230000F94C2F1C801AA27BB270F940DF2BB2778
:10F24000A12F902F8F2D0F940DF28E2D0F940DF274
:10F2500090E29093C6008091C00086FFFCCF809121
:10F26000C00080648093C000AEE3A093C60080918C
:10F27000C00086FFFCCF8091C00080648093C000F6
:10F28000C601AA27BB270F940DF2BB27AD2D9C2DDD
:10F290008B2D0F940DF28A2D0F940DF20F94DCF14B
:10F2A000CC5DDE4FE881F981C452D140F99709F471
:10F2B0004DCBF4E0EF2EF12C012D112D6E0C7F1CA7
:10F2C000801E911EF2CD83E093EE62E00F94F5F183
:10F2D0008AE192EE60E00F94C2F18091C00087FF56
:10F2E000FCCF1091C6001F751093C6008091C0001E
:10F2F00086FFFCCF8091C00080648093C0000F9493
:10F30000DCF1812F81548A3108F036C1163409F4BA
:10F3100095C0173490F4133409F44EC0143430F40B
:10F320001134F1F0123409F01DC130C0143409F465
:10F3300059C0153409F016C16BC01A3409F4C4C0A1
:10F340001B3438F4173409F48FC0183409F00AC19B
:10F35000A1C01B3409F4D2C01C3409F003C1E8C0B9
:10F360008FEF81B90DC082B1809582B980E090E0C5
:10F37000E0EDF7E03197F1F70196883C9105C1F790
:10F380008091C00087FFEFCF12B8EFC08FEF84B934
:10F390000DC085B1809585B980E090E0E0EDF7E0A3
:10F3A0003197F1F70196883C9105C1F78091C00033
:10F3B00087FFEFCF15B8D9C08FEF87B90DC088B1DF
:10F3C000809588B980E090E0E0EDF7E03197F1F7C3
:10F3D0000196883C9105C1F78091C00087FFEFCF6F
:10F3E00018B8C3C08FEF8AB90DC08BB180958BB9A7
:10F3F00080E090E0E0EDF7E03197F1F70196883C8E
:10F400009105C1F78091C00087FFEFCF1BB8ADC059
:10F410008FEF8DB90DC08EB180958EB980E090E0F0
:10F42000E0EDF7E03197F1F70196883C9105C1F7DF
:10F430008091C00087FFEFCF1EB897C08FEF80BBD1
:10F440000DC081B3809581BB80E090E0E0EDF7E0F6
:10F450003197F1F70196883C9105C1F78091C00082
:10F4600087FFEFCF11BA81C08FEF83BB0DC084B38C
:10F47000809584BB80E090E0E0EDF7E03197F1F714
:10F480000196883C9105C1F78091C00087FFEFCFBE
:10F4900014BA6BC08FEF809301010FC080910201FD
:10F4A00080958093020180E090E0E0EDF7E03197F5
:10F4B000F1F70196883C9105C1F78091C00087FF64
:10F4C000EDCF1092020151C08FEF809304010FC065
:10F4D0008091050180958093050180E090E0E0ED4A
:10F4E000F7E03197F1F70196883C9105C1F78091DB
:10F4F000C00087FFEDCF1092050137C08FEF8093DA
:10F5000007010FC08091080180958093080180E079
:10F5100090E0E0EDF7E03197F1F70196883C910536
:10F52000C1F78091C00087FFEDCF109208011DC088
:10F530008FEF80930A010FC080910B01809580931B
:10F540000B0180E090E0E0EDF7E03197F1F70196F4
:10F55000883C9105C1F78091C00087FFEDCF1092E4
:10F560000B0103C085E292EEEEC98091C00087FFD7
:10F57000FCCF8091C600EAC988E392EEE4C98CE131
:10F5800091EEE1C988249924933011F1943028F444
:10F59000913089F09230B8F408C0953061F195301F
:10F5A000F0F0963009F048C043C02B3109F042C951
:10F5B00091E06BE13FC96227C15DDE4F2883CF52E6
:10F5C000D14092E037C9B22FA0E0622793E032C960
:10F5D000822F90E0A82BB92B622794E02BC92E3004
:10F5E00009F039C3622795E0C05DDE4F19821882A9
:10F5F000C053D1401FC9E1E0F0E0EC0FFD1FC05D3A
:10F60000DE4F08811981C053D140E00FF11F2083E4
:10F610000F5F1F4FC05DDE4F19830883C053D14079
:10F6200062270A171B0709F005C9D80196E002C92D
:10F63000261709F010C303C0973009F0FBC87724E0
:10F640009981933109F412C19431C8F4963009F4C8
:10F65000D8C0973050F4923009F406C1933009F4C1
:10F660006DC0913009F059C253C0913109F477C08F
:10F67000923108F0BBC0903109F04FC2F5C098310B
:10F6800009F487C0993150F4953109F4EFC09531F0
:10F6900008F4C6C1963109F040C2C2C19A3109F4DA
:10F6A0006CC09A3108F491C09B3109F45BC09D3164
:10F6B00009F033C29D81903359F48F81882311F46E
:10F6C0009EE11CC0813011F091E018C098E916C08D
:10F6D000892F807591F0903539F4E0E0F0E089E011
:10F6E0008093570094910AC0983539F4E3E0F0E034
:10F6F00089E080935700949101C090E01A821B82A8
:10F700008D818C831D829E831F8227E030E009C299
:10F710001A8288E08B8381E48C8386E58D8382E581
:10F720008E8389E48F8383E5888780E589878FE5E9
:10F730008A8782E38B872BE030E0F3C18A818139AD
:10F7400041F0823941F0803911F48FE005C080E04A
:10F7500003C082E001C08AE01A828B8344C0772410
:10F76000739482C08D81882311F48EE12CC0813086
:10F7700011F081E028C088E926C01A82E1E0F0E0BB
:10F7800089E08093570084918B831C8224E030E0D1
:10F79000C8C18B81803589F48C81883039F4E2E0EE
:10F7A000F0E089E08093570084910DC0E0E0F0E044
:10F7B00089E080935700849106C0E3E0F0E089E09F
:10F7C0008093570084911A82DFCF8D81836C99E0FA
:10F7D000E1E0F0E0082E90935700E89507B600FCB2
:10F7E000FDCF1A821B8223E030E09BC180EC8A832C
:10F7F000CE5CDE4F188219821A821B82C253D1401E
:10F800008EC18A8190E0A0E0B0E0582F44273327D2
:10F8100022278B8190E0A0E0B0E0DC0199278827C7
:10F82000282B392B4A2B5B2B8D8190E0A0E0B0E098
:10F83000282B392B4A2B5B2B8C8190E0A0E0B0E089
:10F84000BA2FA92F982F8827282B392B4A2B5B2BCF
:10F85000220F331F441F551FC05EDE4F288339839C
:10F860004A835B83C052D1401A8259C13A81C95C34
:10F87000DE4F3883C753D140CA5CDE4F1882C6536F
:10F88000D1408B81C82EDD24CA5CDE4F488159816E
:10F89000C653D140C42AD52A933109F082C0CE5C28
:10F8A000DE4F88819981AA81BB81C253D1408050AB
:10F8B000904CA340B04030F583E0CE5CDE4FE88052
:10F8C000F9800A811B81C253D140F70100935B008C
:10F8D00080935700E89507B600FCFDCFCE5CDE4F65
:10F8E000088119812A813B81C253D14000501F4FAA
:10F8F0002F4F3F4FCE5CDE4F088319832A833B8313
:10F90000C253D140C05EDE4F488159816A817B81FC
:10F91000C052D140DE011B9631E08C9111962C91A2
:10F9200011971296C75CDE4F2883C953D140C85C3B
:10F93000DE4F1882C853D14090E0C85CDE4FE881AA
:10F94000F981C853D1408E2B9F2B0C01FA01609393
:10F950005B0030935700E89511244E5F5F4F6F4F67
:10F960007F4F0EEFE02E0FEFF02ECE0CDF1CC114F8
:10F97000D10499F685E0C05EDE4F088119812A81A5
:10F980003B81C052D140F80120935B008093570027
:10F99000E89507B600FCFDCF81E180935700E8951C
:10F9A00035C0C05EDE4F88819981AA81BB81C0527B
:10F9B000D140B695A795979587957C018601ABE0D8
:10F9C000AA2EB12CAC0EBD1E0BC0D5016D915D01F0
:10F9D000C7010F947FFE0894E11CF11C01501040F8
:10F9E0000115110591F7A60160E070E0440F551F65
:10F9F000661F771FC05EDE4FE880F9800A811B8199
:10FA0000C052D1404E0D5F1D601F711F1A82C05E33
:10FA1000DE4F488359836A837B83C052D1407FC0C5
:10FA2000FA80C55CDE4FF882CB53D140C65CDE4F16
:10FA30001882CA53D1408B81C82EDD24C65CDE4FAC
:10FA400008811981CA53D140C02AD12A1A828981DA
:10FA5000BE016D5F7F4F843121F59601C05EDE4FA0
:10FA6000E880F9800A811B81C052D1400BBFF701A9
:10FA700087919691DB018C9311969C936E5F7F4FDB
:10FA8000D801C7010296A11DB11DC05EDE4F88835B
:10FA90009983AA83BB83C052D14022503040F1F6F3
:10FAA00036C0C05EDE4F288139814A815B81C052F9
:10FAB000D1400894C108D108760100E010E0089414
:10FAC000C11CD11C0894E11CF11C011D111DE20E8A
:10FAD000F31E041F151F21BDBB27A52F942F832FB5
:10FAE00082BD2F5F3F4F4F4F5F4FF89A80B5DB01CC
:10FAF0008D93BD012E153F054007510761F7C05E8C
:10FB0000DE4F288339834A835B83C052D1409601FC
:10FB10002D5F3F4FFB01108204C080EC8A8322E0FE
:10FB200030E08BE18093C6008091C00086FFFCCF5F
:10FB30008091C00080648093C000C15DDE4FF88179
:10FB4000CF52D140F093C6008091C00086FFFCCF19
:10FB50008091C00080648093C000432F3093C60022
:10FB60008091C00086FFFCCF8091C00080648093AC
:10FB7000C000922F2093C6008091C00086FFFCCF6A
:10FB80008091C00080648093C0008EE08093C600A6
:10FB90008091C00086FFFCCF8091C000806480937C
:10FBA000C00065E1C15DDE4FE880CF52D1406E25D7
:10FBB00069276427FE01319610C090819093C6009A
:10FBC0008091C00086FFFCCF31968091C000806498
:10FBD0008093C0006927215030402115310569F715
:10FBE0006093C6008091C00086FFFCCF8091C0006A
:10FBF00080648093C00085B1805885B9772081F4F6
:10FC0000C15DDE4F0881CF52D1400F5FC15DDE4F35
:10FC10000883CF52D14090E0A0E0B0E00D941AF4F8
:10FC200027982F9880E090E020ED37E0F901319798
:10FC3000F1F7019684369105C9F700008091C00064
:10FC40008D7F8093C00081E180935700E895EE2777
:10FC5000FF270994FFCF90E00D941AF497FB092E2B
:10FC600007260AD077FD04D02ED006D000201AF443
:10FC7000709561957F4F0895F6F7909581959F4F08
:10FC80000895A1E21A2EAA1BBB1BFD010DC0AA1FDD
:10FC9000BB1FEE1FFF1FA217B307E407F50720F0F5
:10FCA000A21BB30BE40BF50B661F771F881F991F70
:10FCB0001A9469F760957095809590959B01AC01B9
:10FCC000BD01CF010895AA1BBB1B51E107C0AA1FAC
:10FCD000BB1FA617B70710F0A61BB70B881F991FED
:10FCE0005A95A9F780959095BC01CD010895F99991
:10FCF000FECF92BD81BDF89A992780B50895262F31
:10FD0000F999FECF1FBA92BD81BD20BD0FB6F89400
:0EFD1000FA9AF99A0FBE01960895F894FFCF63
:040000033000E000E9
:00000001FF