:1000000045C1000073C1000071C100006FC1000054
:100010006DC100006BC1000069C1000067C1000034
:1000200065C1000063C1000061C100005FC1000044
:100030005DC100005BC1000059C1000057C1000054
:1000400055C1000053C1000051C100004FC1000064
:100050004DC100004BC1000049C1000094C5000023
:1000600045C10000EFC40000C4C400003FC100004F
:100070003DC100003BC1000039C1000037C1000094
:1000800035C1000033C1000031C100002FC10000A4
:100090002DC100002BC1000029C10000BEC5000019
:1000A00025C1000023C1000021C100001FC10000C4
:1000B0001DC100001BC1000019C1000017C10000D4
:1000C00015C1000013C1000011C100000FC10000E4
:1000D0000DC100000BC1000009C1000007C10000F4
:1000E00005C1000098029B028A028E029402D2028D
:1000F0009F02A302A902AD02B102B702BB02BF0276
:10010000D202C502C902CD02800AD50AE50BE50B71
:10011000E50BE50BFF0A010BE50BE50BE50BE50B2A
:10012000E50BE50B0A0B2E0BE50BE50B670B9F0BA5
:10013000E50BE50BE50B7B0A770C940C970CA90CEF
:10014000AC0CAF0CB30CA807AD07B207BC07C607D1
:100150003F08D007D807E007EA07F407FE070D08B5
:1001600017083F0821082B0835080000210024004B
:1001700027002A002D003000330001010000040197
:1001800007010A0100002200250028002B002E0094
:100190003100340002010000050108010B010000DC
:1001A00020002300260029002C002F00320000012F
:1001B00000000301060109010505050507050808FA
:1001C0000808020202020A0A0808040404040101E1
:1001D00001010101010103030303030303030407F6
:1001E00007070C0C0C0C0C0C0C0C0202020206068D
:1001F0000606060606060B0B0B0B0B0B0B0B010280
:100200001020200808102040102040800201020128
:1002100008040201010204081020408080402010E0
:100220000804020180040201804020100804020139
:1002300008040201010204081020408001020408A1
:100240001020408000000A0B02090C0D0E08070365
:100250000401000000000000000000000000000099
:10026000000000000000000000000000000000008E
:10027000121110000000000000000000000000004B
:1002800000000000000000000000440D11241FBE0B
:10029000CFEFD1E2DEBFCDBF00E00CBF13E0A0E0A6
:1002A000B2E0EEEBFBE100E00BBF02C007900D9265
:1002B000A03BB107D9F726E0A0EBB3E001C01D9247
:1002C000A136B207E1F711E0C6E4D1E000E006C0D4
:1002D00021970109802FFE010E94C40DC534D1076A
:1002E00080E00807A9F776D70C94DD0D89CEFC01D4
:1002F000538D448D252F30E0842F90E0821B930B8B
:10030000541710F0CF96089501970895FC01918D30
:10031000828D981761F0828DDF01A80FB11D5D9667
:100320008C91928D9F5F9F73928F90E008958FEFD5
:100330009FEF0895FC01918D828D981731F0828D89
:10034000E80FF11D858D90E008958FEF9FEF0895E0
:10035000FC01918D228D892F90E0805C9F4F821B44
:1003600091098F739927089588EB95E0F1DF21E0DB
:10037000892B09F420E0822F0895FC01848DDF0190
:10038000A80FB11DA35ABF4F2C91848D90E0019608
:100390008F739927848FA689B7892C93A089B189F7
:1003A0008C9180648C93938D848D981306C0028801
:1003B000F389E02D80818F7D80830895EF92FF92F5
:1003C0000F931F93CF93DF93EC0181E0888F9B8D78
:1003D0008C8D981305C0E889F989808185FD23C03B
:1003E000F62E0B8D10E00F5F1F4F0F731127E02EBD
:1003F0008C8DE8120BC00FB607FCFACFE889F9899B
:10040000808185FFF5CFCE01B8DFF2CF8B8DFE0165
:10041000E80FF11DE35AFF4FF0820B8FEA89FB8949
:100420008081806207C0EE89FF896083E889F9894D
:1004300080818064808381E090E0DF91CF911F9183
:100440000F91FF90EF900895CF93DF93EC01888D8B
:100450008823C1F0EA89FB89808185FD05C0A889D0
:10046000B9898C9186FD0EC00FB607FCF5CF80814F
:1004700085FFF2CFA889B9898C9185FFEDCFCE0198
:100480007CDFE8CFDF91CF91089580E090E0892B69
:1004900019F06ADF811125C080E090E0892B41F0DE
:1004A00080E090E0892B21F00E94000081111CC0A7
:1004B00080E090E0892B41F080E090E0892B21F0F2
:1004C0000E940000811113C080E090E0892BA1F010
:1004D00080E090E0892B81F00E94000081110AC029
:1004E00008950E940000D8CF0E940000E1CF0E9432
:1004F0000000EACF0C940000089590E0FC013197D1
:10050000E231F10508F04EC08827EE58FF4F8F4FBB
:100510000C94C40D809180008F7703C0809180007F
:100520008F7D80938000089580918000877FF9CF30
:1005300084B58F7702C084B58F7D84BD0895809186
:10054000B0008F7703C08091B0008F7D8093B000A2
:100550000895809190008F7707C0809190008F7DE3
:1005600003C080919000877F8093900008958091D0
:10057000A0008F7707C08091A0008F7D03C080917D
:10058000A000877F8093A0000895809120018F773D
:1005900007C0809120018F7D03C080912001877F5B
:1005A0008093200108953FB7F89480914004909182
:1005B0004104A0914204B091430426B5A89B05C014
:1005C0002F3F19F00196A11DB11D3FBFBA2FA92FD2
:1005D000982F8827820F911DA11DB11DBC01CD014F
:1005E00042E0660F771F881F991F4A95D1F708953B
:1005F0008F929F92AF92BF92CF92DF92EF92FF9233
:100600006B017C01D0DF4B015C01C114D104E1041A
:10061000F104E9F0C8DFDC01CB0188199909AA09C6
:10062000BB09883E9340A105B10578F321E0C21AC9
:10063000D108E108F10888EE880E83E0981EA11C1D
:10064000B11CC114D104E104F10421F7DECFFF9005
:10065000EF90DF90CF90BF90AF909F908F900895D4
:100660002FB7F89460913C0470913D0480913E0452
:1006700090913F042FBF089585ED8093BC00809139
:10068000BC0084FDFCCF1092460408954091F20313
:10069000262F30E0240F311D21323105DCF420916A
:1006A00046042430C9F4FC0180E090E0861758F439
:1006B0003091F2032191DC01A053BC4FA30FB11D77
:1006C0002C930196F3CF8091F203680F6093F203AD
:1006D00080E0089581E0089582E008950895E09112
:1006E0004A0480914904E81730F4F0E0E055FC4FEB
:1006F000808190E008958FEF9FEF089590914A04D4
:1007000080914904981750F4E92FF0E0E055FC4F30
:10071000208130E09F5F90934A0402C02FEF3FEFAB
:10072000C90108958091490490E020914A04821BF8
:1007300091090895CF93DF931F921F92CDB7DEB733
:10074000CB01642F49835A83A1DF4981842F5A81C9
:10075000952F0F900F90DF91CF910895CF93DF9356
:100760001F92CDB7DEB7698361E0CE0101968EDFBF
:1007700081E090E00F90DF91CF910895089580E09F
:1007800090E00895CF93DF938A30910548F5FC01FE
:10079000EE0FFF1FEC59FA4F11821082FC01EE0F91
:1007A000FF1FEE0FFF1FE45CFA4F108211821282CE
:1007B00013822DE0289FF001299FF00D1124E35BA7
:1007C000FB4F80E38083818382838383848385835B
:1007D00086838783808781878287838714864FC03B
:1007E000019609F047C044E655E0ACE3B5E0E9E521
:1007F000F4E080E3EA0119921992AE011D921D9274
:100800001D921D929F012C503109E90188832F5FB1
:100810003F4FE90188832F5F3F4FE90188832F5FB6
:100820003F4FE90188832F5F3F4FE90188832F5FA6
:100830003F4FE90188832F5F3F4FE90188832F5F96
:100840003F4FE90188832F5F3F4FE90188832F5F86
:100850003F4FE90188832F5F3F4FE90188832F5F76
:100860003F4FE901888310823D96D5E0A436BD074D
:1008700009F605C081E792E0DF91CF913BC3DF919C
:10088000CF9108958091E904882329F01092E9041A
:1008900080E090E00DC081E08093E904E091EA04FB
:1008A000F091EB04EE0FFF1FEF5FFD4F8081918110
:1008B0002DC3FF920F931F93CF93DF93F82E8B01DD
:1008C000EA0182E992E022D48F2D21D486E992E0D8
:1008D0001DD4C80127D486E992E018D4CE0116D4DD
:1008E00086E992E013D488E992E010D48CEB92E090
:1008F000DF91CF911F910F91FF9008C40F931F9329
:10090000CF93DF93809146048111FCCF81E08093E7
:100910004604809345049FEF909317041092390486
:1009200093E09093380480933A0480913A04846071
:1009300080933A0480914404813061F4109244041D
:1009400080913A048093BB008091BC0083FDF8CF76
:1009500085EC01C085EE8093BC0080914604813017
:10096000E1F380913904843018F48091390401C096
:1009700084E0A8E1B4E020EB33E0F9019E2F921B64
:10098000981718F49D919193F9CF10924A0480938F
:100990004904882319F185E596E0B0DED82F85E576
:1009A00096E0ACDE182F85E596E0A8DEC82F85E539
:1009B00096E0A4DE412F50E060E070E05D2B762FE2
:1009C000652F542F44274C2B762F652F542F442707
:1009D0008A019B01082BC901B80104C061E070E0E5
:1009E00080E090E0DF91CF911F910F9108950E94D8
:1009F000CC0D1F920F920FB60F9211240BB60F92CF
:100A00002F933F934F935F936F937F938F939F9316
:100A1000AF93BF93EF93FF9388EB95E0AEDCFF912C
:100A2000EF91BF91AF919F918F917F916F915F9166
:100A30004F913F912F910F900BBE0F900FBE0F90D3
:100A40001F9018951F920F920FB60F9211240BB69C
:100A50000F922F938F939F93EF93FF93E091C8058D
:100A6000F091C9058081E091CE05F091CF0582FD1E
:100A700012C090818091D1058F5F8F732091D20534
:100A8000821751F0E091D105F0E0E854FA4F958FCC
:100A90008093D10501C08081FF91EF919F918F914B
:100AA0002F910F900BBE0F900FBE0F901F901895B7
:100AB0001F93CF93DF93282F30E0F901EC5BFD4FBC
:100AC0008491F901E250FE4FD491F901E854FE4FB0
:100AD000C491CC23C1F0162F81110FDDEC2FF0E073
:100AE000EE0FFF1FEC57FE4FA591B4918FB7F8940E
:100AF000111105C09C91ED2FE095E92302C0EC9106
:100B0000ED2BEC938FBFDF91CF911F910895CF9381
:100B1000DF9390E0FC01E250FE4F2491FC01E85489
:100B2000FE4F8491882361F190E0880F991FFC01AA
:100B3000E659FE4FC591D491FC01EC57FE4FA591AB
:100B4000B491611109C09FB7F894888120958223E0
:100B50008883EC912E230BC0623061F49FB7F89428
:100B60003881822F809583238883EC912E2B2C93C0
:100B70009FBF06C08FB7F894E8812E2B28838FBFC4
:100B8000DF91CF9108951F920F920FB60F9211240B
:100B90002F933F938F939F93AF93BF9380913C0488
:100BA00090913D04A0913E04B0913F0430913B04EC
:100BB00023E0230F2D3720F40196A11DB11D05C0A0
:100BC00026E8230F0296A11DB11D20933B048093BC
:100BD0003C0490933D04A0933E04B0933F04809165
:100BE000400490914104A0914204B09143040196C5
:100BF000A11DB11D8093400490934104A093420431
:100C0000B0934304BF91AF919F918F913F912F91EA
:100C10000F900FBE0F901F9018951F920F920FB656
:100C20000F9211240BB60F922F933F934F935F9324
:100C30006F937F938F939F93AF93BF93EF93FF93A4
:100C40008091B900887F803609F49CC068F58832AD
:100C500009F45BC090F4803109F454C038F488235F
:100C600009F4F6C0883009F44DC0F5C0883109F4A4
:100C70004CC0803209F45DC0EEC0803409F468C015
:100C800048F4803309F455C0883309F0E4C08093F8
:100C90001704D8C0803509F44FC0883509F45DC009
:100CA000883409F0D8C0D6C0883909F4C7C0A8F480
:100CB000883709F467C038F4883609F463C0803790
:100CC00009F460C0C8C0883809F4B8C0803909F494
:100CD0005FC0803809F0BFC05BC0803B09F486C0AC
:100CE00038F4803A09F466C0883A09F47FC0B3C08A
:100CF000803C09F4A7C0883C09F4A4C0883B09F4EF
:100D00008AC0A9C080913A0410C0909139048091A2
:100D10003804981770F5E091390481E08E0F8093C4
:100D20003904F0E0E85EFB4F80818093BB0085ECE6
:100D300086C0809317048EC0E091390481E08E0F45
:100D4000809339048091BB00F0E0E85EFB4F808324
:100D500090913904809138046EC0E091390481E0AB
:100D60008E0F809339048091BB00F0E0E85EFB4F6A
:100D700080838091450481116DC081E0809344049B
:100D800084EA61C083E08093460410921604CFCFBA
:100D900080911604803208F051C0E091160481E081
:100DA0008E0F809316048091BB00F0E0EA50FC4F58
:100DB0008083BDCF85EC8093BC0010924604809167
:100DC0001604803230F4E0911604F0E0EA50FC4F53
:100DD00010826091160470E0E091F403F091F50345
:100DE00086EF93E019951092160435C084E0809345
:100DF00046041092F3031092F203E091F003F09195
:100E0000F10319958091F203811105C081E080936F
:100E1000F2031092D003E091F30381E08E0F8093F0
:100E2000F303F0E0E053FC4F80818093BB0090918E
:100E3000F3038091F203981708F479CF85E8809343
:100E4000BC0009C085EC8093BC001092460403C02E
:100E50001092170411DCFF91EF91BF91AF919F9118
:100E60008F917F916F915F914F913F912F910F9053
:100E70000BBE0F900FBE0F901F901895CF92DF9270
:100E8000EF92FF920F931F93CF93DF936C017A0140
:100E90008B01C0E0D0E0CE15DF0589F0D8016D915F
:100EA0008D01D601ED91FC910190F081E02DC601FC
:100EB0001995892B11F47E0102C02196ECCFC70150
:100EC000DF91CF911F910F91FF90EF90DF90CF9026
:100ED0000895009761F0FC0101900020E9F7319737
:100EE000AF01481B590BBC0188EB95E0C7CF80E0F0
:100EF00090E00895CF93DF93ECDFEC018EEB92E06E
:100F0000E8DF8C0F9D1FDF91CF910895CF93DF9382
:100F1000EC0161E083E0FBDD209711F460E004C0A8
:100F2000CF3FD10529F461E083E0DF91CF91C0CDBF
:100F3000E7E4F2E0E4918E2F90E0FC013197E2319A
:100F4000F10508F09CC08827ED55FF4F8F4F1CC658
:100F500084B5806884BDC7BD97C084B5806284BDF8
:100F6000C8BD92C080918000806880938000D0933B
:100F70008900C093880088C080918000806280933F
:100F80008000D0938B00C0938A007EC08091800047
:100F9000886080938000D0938D00C0938C0074C0D3
:100FA0008091B00080688093B000C093B3006CC0A3
:100FB0008091B00080628093B000C093B40064C0A0
:100FC00080919000806880939000D0939900C093A6
:100FD00098005AC080919000806280939000D093D6
:100FE0009B00C0939A0050C08091900088608093CD
:100FF0009000D0939D00C0939C0046C08091A000BB
:1010000080688093A0008091A0008F7B8093A000D7
:10101000D093A900C093A80037C08091A00080623F
:101020008093A000D093AB00C093AA002DC0809104
:10103000A00088608093A000D093AD00C093AC0066
:1010400023C080912001806880932001D0932901E2
:10105000C093280119C080912001806280932001F3
:10106000D0932B01C0932A010FC08091200188608A
:1010700080932001D0932D01C0932C0105C0C0386E
:10108000D1050CF050CF4ACFDF91CF9108958F92C8
:101090009F92AF92BF920F931F93CF93DF93CDB7E1
:1010A000DEB7A1970FB6F894DEBF0FBECDBF19A271
:1010B000423008F44AE08E010F5D1F4F842E912CC0
:1010C000A12CB12CA50194013DD5E62FB901CA018F
:1010D00001501109EA3014F4E05D01C0E95CD80167
:1010E000EC93232B242B252B69F7C801F2DEA19664
:1010F0000FB6F894DEBF0FBECDBFDF91CF911F9129
:101100000F91BF90AF909F908F900895E2CEE091A5
:10111000B805F091B9050190F081E02D682F88EBBA
:1011200095E01994CF92DF92EF92FF92CF93DF93E5
:101130006C01990FEE08FF08F7FE15C08DE2E7DF9E
:10114000EC0166277727CB016C197D098E099F0971
:101150004AE09DDF8C0F9D1FDF91CF91FF90EF90B4
:10116000DF90CF9008954AE0C701B601DF91CF919B
:10117000FF90EF90DF90CF908ACFCF92DF92EF92E7
:10118000FF92CF93DF936C01990FEE08FF08F7FEF3
:1011900010C08DE2BCDFEC0166277727CB016C190C
:1011A0007D098E099F094AE072DF7C01EC0EFD1E6D
:1011B00005C04AE0C701B6016ADF7C018EEB92E010
:1011C00088DE8E0D9F1DDF91CF91FF90EF90DF9015
:1011D000CF900895CF93DF93CDB7DEB764970FB666
:1011E000F894DEBF0FBECDBF789484B5826084BD15
:1011F00084B5816084BD85B5826085BD85B581601B
:1012000085BD80916E00816080936E001092810098
:101210008091810082608093810080918100816053
:101220008093810080918000816080938000809114
:10123000B10084608093B1008091B00081608093A0
:10124000B000809191008260809391008091910024
:1012500081608093910080919000816080939000E4
:101260008091A10082608093A1008091A1008160A3
:101270008093A1008091A00081608093A000809164
:1012800021018260809321018091210181608093FE
:1012900021018091200181608093200180917A005A
:1012A000846080937A0080917A00826080937A00D3
:1012B00080917A00816080937A0080917A008068C2
:1012C00080937A001092C1000DE212E0F801F080E4
:1012D0000E5F1F4F61E08F2D1ADC60E08F2DE8DB81
:1012E000F2E00D341F0791F760EFE62E64E0F62E72
:1012F0000BE112E0DD24D394F80180810E5F1F4FD3
:1013000062E005DCF701D1927F01F2E00B321F07AA
:1013100099F71092F8041092F9041092FA041092BE
:10132000FB0484E694E4A0E0B0E08093FC04909396
:10133000FD04A093FE04B093FF0487E49FE4A0E0C3
:10134000B0E08093000590930105A0930205B0934F
:10135000030510924A041092490410924804109216
:1013600047041092460481E080934504109244049F
:1013700061E084E19DDB61E085E19ADB8091B90069
:101380008E7F8093B9008091B9008D7F8093B900E2
:1013900088E48093B80085E48093BC00E091C805A0
:1013A000F091C90582E08083E091C805F091C905FC
:1013B0001082E091C405F091C5051082E091C60548
:1013C000F091C70580E180831092D005E091CC05B3
:1013D000F091CD0586E08083E091CA05F091CB05C0
:1013E000808180618083E091CA05F091CB05808186
:1013F00088608083E091CA05F091CB058081806888
:101400008083E091CA05F091CB0580818F7D808338
:101410008DE992E07BDE64E670E080E090E0E8D861
:1014200089EA92E073DE51EDE52E54E0F52ECE010F
:101430000D969C8B8B8B88EB95E00E94A80118166B
:1014400019060CF0D9C188EB95E00E9486018C3317
:1014500039F02091CF043091D0048E3379F0BFC1A0
:1014600098E1F70111929A95E9F78093D10481E010
:1014700090E09093D0048093CF04BEC1F901EF5265
:10148000FB4F8083F70101900020E9F7E95EF4400B
:1014900009F083C18091D3048E878091D4048F8713
:1014A0008091D504888B8091D604898B1A8ACE01CD
:1014B0000E9623D38C01A7EDB4E0FE0131966F01A7
:1014C0008D9181938B899C89E817F907C9F71D864F
:1014D000E091D2048E2FEE0F990BAA0BBB0BFC01EF
:1014E000E154F109E831F10508F06FC18827EC57A4
:1014F000FF4F8F4F49C34DE4C42E44E0D42EABC000
:101500000DE414E04DE050E0BE016F5F7F4FC80175
:1015100047D3892B09F443C0035F1F4F94E00F3C6E
:10152000190781F700914B0410914C048DE0809FC6
:101530009001819F300D112480E090E0F6014191EF
:101540006F01FC01E20FF31FE35BFB4F4083019649
:101550008D30910599F7D2D9F801EE0FFF1FEE0FEC
:10156000FF1FE45CFA4F6083718382839383F801E9
:10157000EE0FFF1FEC59FA4F118210820F5F1F4FC1
:101580000A30110528F410934C0400934B0404C056
:1015900010924C0410924B0468EC70E002C069E9B0
:1015A00071E0AE014F5F5F4F3CC09DE4A92E94E017
:1015B000B92EC12CD12C4DE050E0BE016F5F7F4FA2
:1015C000C501EED2892B51F4F601EE0FFF1FEC5945
:1015D000FA4F1183008368EC70E00CC0FFEFCF1A64
:1015E000DF0A2DE0A20EB11C8AE0C816D10419F75B
:1015F00064E971E0AE014F5F5F4F82E414C07ED9B1
:10160000DFC081EC92E082DD8091D20480DD8AEC43
:1016100092E0C1C0C801B6D8AE014F5F5F4F60E035
:1016200070E08091D20445D9D0C0F601E00FF11FDF
:1016300080816DDD0F5F1F4F0D301105B1F78FEB0E
:1016400092E064DD9DE0C90ED11CEFECCE16E4E023
:10165000DE0609F4BAC000E010E0E7CF84ED92E0C6
:1016600049DC1CE3C12E15E0D12E04E6A02E05E0D6
:10167000B02E0DE414E0812C912CF801E80DF91D39
:10168000808145DDFFEF8F1A9F0A2DE082169104BD
:10169000A1F780EF92E03ADDF601619171918191BD
:1016A00091916F014AE0F3DC80EF92E02FDDF501CC
:1016B000819191915F0136DD8FEB92E027DD035F31
:1016C0001F4FF4E6CF16F5E0DF06A9F67EC084EDE5
:1016D00092E010DC8DE0809F6001819FD00C11248E
:1016E000A12CB12CF501EC0DFD1DE35BFB4F8081BE
:1016F0000EDD2FEFA21AB20A8DE0A816B10491F701
:1017000080EF92E003DDF801EE0FFF1FEE0FFF1FE9
:10171000E45CFA4F60817181828193814AE0B7DC99
:1017200080EF92E0F3DC000F111FF801EC59FA4F43
:1017300080819181F7DC8FEB92E0E8DC46C084EF9A
:1017400092E0D8DBFDE2CF2EF2E0DF2E4801110F50
:10175000AA08BB08F60110810181F2E0CF0ED11C6E
:1017600061E0812FA5D9C501B4010E94F80260E0B3
:10177000812F9ED9C501B4010E94F80287E093E051
:10178000C5DC812F902FF9DC2DE4C21622E0D206B1
:1017900009F780E193E0AEDB18C08EE193E0B6DCA0
:1017A00087E190E0BFDC8CE493E0B0DCF7010190CE
:1017B0000020E9F73197BF01615D744080E090E05F
:1017C0004AE065DC8EEB92E084DB88E1F701119260
:1017D0008A95E9F71092D0041092CF040DC02631FB
:1017E000310598F7F901EF52FB4F80832F5F3F4F90
:1017F0003093D0042093CF0470EFC72E74E0D72E1F
:10180000EBE1AE2EE2E0BE2E00E010E0F6018080BB
:1018100080920002F501219131915F013327F90196
:10182000EC5BFD4F8491F901E250FE4F9490F90179
:10183000E854FE4F74907720A1F081110E947D0240
:10184000E72DF0E0EE0FFF1FE256FE4FA591B49199
:10185000EC919E2231E020E009F430E0832F922FBA
:1018600002C080E090E0282F2170F60121936F01E3
:10187000892B09F07DC0882009F47AC00E943003CA
:101880004090EC045090ED046090EE047090EF04F2
:10189000DC01CB0184199509A609B709833D91059F
:1018A000A105B10508F464C00E9430036093EC0404
:1018B0007093ED048093EE049093EF04F801319758
:1018C000E730F10528F48827E456FF4F8F4F5CC1BD
:1018D0008091EA049091EB0401968D30910514F00B
:1018E0008CE090E09093EB048093EA040BC080912D
:1018F000EA049091EB04019797FFF4CF1092EB0468
:101900001092EA048091E904882359F0E091EA04F6
:10191000F091EB04EE0FFF1FEF5FFD4F808191818F
:10192000F5DA8BE593E00EC083E693E01AC00E94DF
:1019300042048EE693E0EADB8091E90490E0F2DB7A
:1019400085E793E0E3DB8091EA049091EB0415DCFA
:101950000FC08EE793E005C089E893E002C085E9F7
:1019600093E0C8DA05C081EA93E0C4DA0E94420439
:101970000F5F1F4F0830110509F048CF0E947E0409
:101980001B012C0134E6632E35E0732E4CE3842ECC
:1019900045E0942EC12CD12CF301019111913F010E
:1019A00010161106CCF5F40180819181A281B381DA
:1019B000B201A101481B590B6A0B7B0B5801AA0C01
:1019C000BB1CAA0CBB1CF501E850FB4F8081918128
:1019D000A281B381481759076A077B07E8F0845250
:1019E0009A4FAF4FBF4F84179507A607B707A0F0D0
:1019F0000E943003F501E858FA4F608371838283B7
:101A00009383000F111FF801E55DFD4F61E08081B8
:101A10004FD8C6010E94C203FFEFCF1ADF0A24E0AD
:101A2000820E911C8AE0C816D10409F0B5CF88E770
:101A3000C82E85E0D82E0BE212E00E943003F6019A
:101A400080809180A280B380F8EC8F0E911CA11C45
:101A5000B11C86169706A806B90648F460E0F8019E
:101A6000808126D8F6011082118212821382F4E05E
:101A7000CF0ED11C0E5F1F4F28EBC21625E0D206F9
:101A8000E1F60E944502D7CCE8EBF5E01382128222
:101A900088EE93E0A0E0B0E084839583A683B783CB
:101AA00021E532E03183208325EC30E0358724873F
:101AB00024EC30E03787268720EC30E0318B208B18
:101AC00021EC30E0338B228B22EC30E0358B248B01
:101AD00026EC30E0378B268B118E128E138E148EEF
:101AE000E5E5F6E01382128284839583A683B783AB
:101AF00083E692E0918380830895FC0188279927EB
:101B0000E89421912032E9F3293010F02E30C8F307
:101B10002B3239F02D3231F4689403C00BD0820F90
:101B2000911D219120532A30C8F31EF49095819580
:101B30009F4F08957AE0979F902D879F802D910D5C
:101B400011240895A1E21A2EAA1BBB1BFD010DC092
:101B5000AA1FBB1FEE1FFF1FA217B307E407F5075D
:101B600020F0A21BB30BE40BF50B661F771F881F39
:101B7000991F1A9469F760957095809590959B01CF
:101B8000AC01BD01CF010895EE0FFF1F881F8BBF71
:101B90000790F691E02D199481E090E0F8940DC043
:101BA000FB01DC0104C08D910190801921F44150AA
:0E1BB0005040C8F7881B990B0895F894FFCF9A
:101BBE000114001E00280032003C004B0064007D22
:101BCE00009600AF00C800E100FF0004000500060B
:101BDE00000700080009000A000B0000001600179D
:101BEE0000180019001A001B001C001D001E001F0B
:101BFE000020002100220023002400250000000008
:101C0E0000DE013E0777012402A80186019A010039
:101C1E00000000AE039A03BF036E0392037E036FB0
:101C2E00034572726F723A20466C75736820696E46
:101C3E00646578206F7574206F662072616E6765BB
:101C4E0021005B41434B2D004353554D005B4242F7
:101C5E005F4F4E4C494E455D005B42656C742042B1
:101C6E0075636B6C652076302E352E365D000D0A51
:101C7E0000436F6D6D616E6420002052656369656F
:101C8E007665640020205061796C6F61642020209D
:101C9E00203A2020446973742E203A2042696E0047
:101CAE00203A200054657374696E67206F757470E6
:101CBE007574732E2E2E006F75747075743A200025
:101CCE005465737420636F6D706C6574650050613C
:101CDE007273696E67207061636B6574203A20427F
:101CEE006164205061636B6574204C656E67746827
:101CFE002E204578706563746564200020627574CB
:101D0E00207265636965766564200073706565642D
:101D1E003A2000737469636B5F6C656674004D6F77
:101D2E0064653A20002053706565643A2000627540
:101D3E0074746F6E5F72756E00627574746F6E5F21
:101D4E0073746F7000627574746F6E5F62656C741D
:101D5E0000627574746F6E5F66656564657200000F
:00000001FF
