:1000000045C1000073C1000071C100006FC1000054
:100010006DC100006BC1000069C1000067C1000034
:1000200065C1000063C1000061C100005FC1000044
:100030005DC100005BC1000059C1000057C1000054
:1000400055C1000053C1000051C100004FC1000064
:100050004DC100004BC1000049C1000087C4000031
:1000600045C10000D7C30000ACC300003FC1000081
:100070003DC100003BC1000039C1000037C1000094
:1000800035C1000033C1000031C100002FC10000A4
:100090002DC100002BC1000029C10000B1C4000027
:1000A00025C1000023C1000021C100001FC10000C4
:1000B0001DC100001BC1000019C1000017C10000D4
:1000C00015C1000013C1000011C100000FC10000E4
:1000D0000DC100000BC1000009C1000007C10000F4
:1000E00005C10000CB02CE02BD02C102C70205035A
:1000F000D202D602DC02E002E402EA02EE02F202DE
:100100000503F802FC020003410A920AAE0BAE0B93
:10011000AE0BAE0BB90ABB0AAE0BAE0BAE0BAE0B01
:10012000C40AAE0B140B250BAE0BAE0B7A0B7F0B78
:10013000AE0BAE0BAA0B220B490C6F0C840CA30C5C
:10014000A60CA90CAC0C540659065E06680672068D
:10015000EB067C0684068C069606A006AA06B9065F
:10016000C306EB06CD06D706E106000021002400F9
:1001700027002A002D003000330001010000040197
:1001800007010A0100002200250028002B002E0094
:100190003100340002010000050108010B010000DC
:1001A00020002300260029002C002F00320000012F
:1001B00000000301060109010505050507050808FA
:1001C0000808020202020A0A0808040404040101E1
:1001D00001010101010103030303030303030407F6
:1001E00007070C0C0C0C0C0C0C0C0202020206068D
:1001F0000606060606060B0B0B0B0B0B0B0B010280
:100200001020200808102040102040800201020128
:1002100008040201010204081020408080402010E0
:100220000804020180040201804020100804020139
:1002300008040201010204081020408001020408A1
:100240001020408000000A0B02090C0D0E08070365
:100250000401000000000000000000000000000099
:10026000000000000000000000000000000000008E
:10027000121110000000000000000000000000004B
:10028000000000000000000000005F0D11241FBEF0
:10029000CFEFD1E2DEBFCDBF00E00CBF18E0A0E0A1
:1002A000B2E0E0E4FFE100E00BBF02C007900D9276
:1002B000A03EB107D9F720E1A0EEB8E001C01D9241
:1002C000A035B207E1F711E0C6E4D1E000E006C0D6
:1002D00021970109802FFE010E94850FC534D107A7
:1002E00080E00807A9F788D70C949E0F89CECF929B
:1002F000DF92EF92FF920F931F93CF93DF936C01E6
:100300007A018B01C0E0D0E0CE15DF0581F0D80185
:100310006D918D01D601ED91FC910190F081E02D60
:10032000C6011995892B11F02196EECF7E01C701E8
:10033000DF91CF911F910F91FF90EF90DF90CF90C1
:10034000089508950895FC01538D448D252F30E0C4
:10035000842F90E0821B930B541710F0CF960895D2
:1003600001970895FC01918D828D981761F0828D1F
:10037000DF01A80FB11D5D968C91928D9F5F9F73D9
:10038000928F90E008958FEF9FEF0895FC01918D7B
:10039000828D981731F0828DE80FF11D858D90E0E8
:1003A00008958FEF9FEF0895FC01918D228D892F85
:1003B00090E0805C9F4F821B91098F73992708956D
:1003C0008BE799E0F1DF21E0892B09F420E0822F0F
:1003D0000895FC01848DDF01A80FB11DA35ABF4F02
:1003E0002C91848D90E001968F739927848FA68934
:1003F000B7892C93A089B1898C91837080648C9388
:10040000938D848D981306C00288F389E02D808136
:100410008F7D80830895EF92FF920F931F93CF9368
:10042000DF93EC0181E0888F9B8D8C8D981305C044
:10043000E889F989808185FD25C0F62E0B8D10E0B5
:100440000F5F1F4F0F731127E02E8C8DE8120BC02A
:100450000FB607FCFACFE889F989808185FFF5CFCF
:10046000CE01B7DFF2CF8B8DFE01E80FF11DE35A0D
:10047000FF4FF0829FB7F8940B8FEA89FB89808148
:1004800080620AC09FB7F894EE89FF896083E8898B
:10049000F98980818370806480839FBF81E090E0D0
:1004A000DF91CF911F910F91FF90EF900895CF931F
:1004B000DF93EC01888D8823C1F0EA89FB89808174
:1004C00085FD05C0A889B9898C9186FD0EC00FB63F
:1004D00007FCF5CF808185FFF2CFA889B9898C917F
:1004E00085FFEDCFCE0175DFE8CFDF91CF91089585
:1004F00080E090E0892B19F063DF811125C080E056
:1005000090E0892B41F080E090E0892B21F00E945F
:10051000000081111CC080E090E0892B41F080E058
:1005200090E0892B21F00E940000811113C080E02F
:1005300090E0892BA1F080E090E0892B81F00E946F
:10054000000081110AC008950E940000D8CF0E94C7
:100550000000E1CF0E940000EACF0C940000089553
:1005600090E0FC013197E231F10508F04EC0882798
:10057000EE58FF4F8F4F0C94850F809180008F773E
:1005800003C0809180008F7D8093800008958091CA
:100590008000877FF9CF84B58F7702C084B58F7DC7
:1005A00084BD08958091B0008F7703C08091B00022
:1005B0008F7D8093B0000895809190008F7707C061
:1005C000809190008F7D03C080919000877F809301
:1005D000900008958091A0008F7707C08091A000BF
:1005E0008F7D03C08091A000877F8093A000089535
:1005F000809120018F7707C0809120018F7D03C0FB
:1006000080912001877F8093200108953FB7F8945F
:100610008091280990912909A0912A09B0912B096C
:1006200026B5A89B05C02F3F19F00196A11DB11D4D
:100630003FBFBA2FA92F982F8827820F911DA11D88
:10064000B11DBC01CD0142E0660F771F881F991FC5
:100650004A95D1F708958F929F92AF92BF92CF9211
:10066000DF92EF92FF926B017C01D0DF4B015C01C6
:10067000C114D104E104F104E9F0C8DFDC01CB01CD
:1006800088199909AA09BB09883E9340A105B105BB
:1006900078F321E0C21AD108E108F10888EE880E4B
:1006A00083E0981EA11CB11CC114D104E104F10423
:1006B00021F7DECFFF90EF90DF90CF90BF90AF900B
:1006C0009F908F90089585ED8093BC008091BC0031
:1006D00084FDFCCF10925809089540910009262FFF
:1006E00030E0240F311D21323105DCF4209158090E
:1006F0002430C9F4FC0180E090E0861758F4309172
:1007000000092191DC01A052B74FA30FB11D2C931A
:100710000196F3CF80910009680F6093000980E093
:10072000089581E0089582E008950895E0915A09BE
:1007300080915909E81730F4F0E0E55AF64F8081CE
:1007400090E008958FEF9FEF089590915A0980915E
:100750005909981750F4E92FF0E0E55AF64F208137
:1007600030E09F5F90935A0902C02FEF3FEFC9011D
:1007700008958091590990E020915A09821B9109AE
:100780000895CF93DF93CB01EA01642FA6DFCE015A
:10079000DF91CF910895CF93DF931F92CDB7DEB74E
:1007A000698361E0CE01019698DF81E090E00F90CF
:1007B000DF91CF910895089580E090E008950E9420
:1007C0008D0F1F920F920FB60F9211240BB60F923E
:1007D0002F933F934F935F936F937F938F939F9349
:1007E000AF93BF93EF93FF938BE799E0F2DDFF9117
:1007F000EF91BF91AF919F918F917F916F915F9199
:100800004F913F912F910F900BBE0F900FBE0F9005
:100810001F9018951F920F920FB60F9211240BB6CE
:100820000F922F938F939F93EF93FF93E0918B09F8
:10083000F0918C098081E0919109F091920982FDFB
:1008400012C09081809194098F5F8F7320919509D8
:10085000821751F0E0919409F0E0E558F64F958F3A
:100860008093940901C08081FF91EF919F918F91B6
:100870002F910F900BBE0F900FBE0F901F901895E9
:100880001F93CF93DF93282F30E0F901EC5BFD4FEE
:100890008491F901E250FE4FD491F901E854FE4FE2
:1008A000C491CC23B9F0162F81115ADEEC2FF0E061
:1008B000EE0FFF1FEC57FE4FA591B4919FB7F89430
:1008C000111104C08C91D095D82302C0EC91DE2B7D
:1008D000DC939FBFDF91CF911F910895CF93DF935A
:1008E00090E0FC01E250FE4F2491FC01E854FE4FE1
:1008F0008491882361F190E0880F991FFC01E659EB
:10090000FE4FC591D491FC01EC57FE4FA591B491D7
:10091000611109C09FB7F89488812095822388834C
:10092000EC912E230BC0623061F49FB7F89488815C
:10093000322F309583238883EC912E2B2C939FBFED
:1009400006C08FB7F894E8812E2B28838FBFDF91E4
:10095000CF9108952FB7F8946091240970912509DB
:1009600080912609909127092FBF08951F920F9219
:100970000FB60F9211242F933F938F939F93AF93B2
:10098000BF938091240990912509A0912609B091E7
:1009900027093091230923E0230F2D3720F40196F6
:1009A000A11DB11D05C026E8230F0296A11DB11D92
:1009B000209323098093240990932509A093260965
:1009C000B09327098091280990912909A0912A09BB
:1009D000B0912B090196A11DB11D80932809909318
:1009E0002909A0932A09B0932B09BF91AF919F9138
:1009F0008F913F912F910F900FBE0F901F901895E0
:100A00001F920F920FB60F9211240BB60F922F93D5
:100A10003F934F935F936F937F938F939F93AF9386
:100A2000BF93EF93FF938091B900887F803609F4DC
:100A30009CC068F5883209F45BC090F4803109F4F9
:100A400054C038F4882309F4F6C0883009F44DC046
:100A5000F5C0883109F44CC0803209F45DC0EEC0A5
:100A6000803409F468C048F4803309F455C08833F1
:100A700009F0E4C080935609D8C0803509F44FC00E
:100A8000883509F45DC0883409F0D8C0D6C08839EB
:100A900009F4C7C0A8F4883709F467C038F4883669
:100AA00009F463C0803709F460C0C8C0883809F40D
:100AB000B8C0803909F45FC0803809F0BFC05BC09E
:100AC000803B09F486C038F4803A09F466C0883A5D
:100AD00009F47FC0B3C0803C09F4A7C0883C09F486
:100AE000A4C0883B09F48AC0A9C08091530910C0F2
:100AF0009091550980915409981770F5E091550926
:100B000081E08E0F80935509F0E0EE5CF64F808116
:100B10008093BB0085EC86C0809356098EC0E0911F
:100B2000550981E08E0F809355098091BB00F0E05C
:100B3000EE5CF64F808390915509809154096EC008
:100B4000E091550981E08E0F809355098091BB009B
:100B5000F0E0EE5CF64F80838091570981116DC003
:100B600081E08093520984EA61C083E08093580950
:100B700010922209CFCF80912209803208F051C013
:100B8000E091220981E08E0F809322098091BB00C1
:100B9000F0E0EE5FF64F8083BDCF85EC8093BC0024
:100BA0001092580980912209803230F4E091220994
:100BB000F0E0EE5FF64F10826091220970E0E09164
:100BC0002C09F0912D0982E099E0199510922209E3
:100BD00035C084E0809358091092010910920009F1
:100BE000E0912E09F0912F0919958091000981114A
:100BF00005C081E0809300091092E008E0910109AE
:100C000081E08E0F80930109F0E0E052F74F808180
:100C10008093BB009091010980910009981708F416
:100C200079CF85E88093BC0009C085EC8093BC0037
:100C30001092580903C01092560945DDFF91EF91BB
:100C4000BF91AF919F918F917F916F915F914F91E4
:100C50003F912F910F900BBE0F900FBE0F901F90E2
:100C60001895CF93DF93EC0161E083E037DE2097A6
:100C700011F460E004C0CF3FD10529F461E083E0C6
:100C8000DF91CF91FDCDE7E4F2E0E4918E2F90E08B
:100C9000FC013197E231F10508F09DC08827ED5540
:100CA000FF4F8F4F0C94850F84B5806884BDC7BDFE
:100CB00097C084B5806284BDC8BD92C08091800019
:100CC000806880938000D0938900C093880088C09A
:100CD00080918000806280938000D0938B00C093CD
:100CE0008A007EC080918000886080938000D093CD
:100CF0008D00C0938C0074C08091B0008068809398
:100D0000B000C093B3006CC08091B000806280934B
:100D1000B000C093B40064C080919000806880935C
:100D20009000D0939900C09398005AC08091900091
:100D3000806280939000D0939B00C0939A0050C033
:100D400080919000886080939000D0939D00C09324
:100D50009C0046C08091A00080688093A000809194
:100D6000A0008F7B8093A000D093A900C093A8001F
:100D700037C08091A00080628093A000D093AB0028
:100D8000C093AA002DC08091A00088608093A0002D
:100D9000D093AD00C093AC0023C080912001806847
:100DA00080932001D0932901C093280119C080911C
:100DB0002001806280932001D0932B01C0932A01EF
:100DC0000FC080912001886080932001D0932D0175
:100DD000C0932C0105C0C038D1050CF04FCF49CFCE
:100DE000DF91CF910895009761F0FC010190002000
:100DF000E9F73197AF01481B590BBC018BE799E02C
:100E000076CA80E090E00895CF93DF93ECDFEC01A9
:100E10008CED97E0E8DF8C0F9D1FDF91CF91089557
:100E20000F931F9390916D0A80916C0A992331F072
:100E300081111CC081E080936C0A18C0811142C0EE
:100E400089DD60936E0A70936F0A8093700A9093A5
:100E5000710A81E080936D0A80936C0A84E190E0CE
:100E600000DF8CEC98E01F910F91CECF73DD0091E5
:100E70006E0A10916F0A2091700A3091710ADC019C
:100E8000CB01801B910BA20BB30B0091720A109146
:100E9000730A2091740A3091750A081719072A07F6
:100EA0003B0780F410926D0AE0916A0AF0916B0A98
:100EB000EE0FFF1FE858F54F80819181D2DE81EC63
:100EC00098E0D1CF1F910F9108958F929F92AF928A
:100ED000BF920F931F93CF93DF93CDB7DEB7A19748
:100EE0000FB6F894DEBF0FBECDBF19A2423008F492
:100EF0004AE08E010F5D1F4F842E912CA12CB12C46
:100F0000A5019401E0D7E62FB901CA0101501109EA
:100F1000EA3014F4E05D01C0E95CD801EC93232BC6
:100F2000242B252B69F7C8015EDFA1960FB6F89434
:100F3000DEBF0FBECDBFDF91CF911F910F91BF904C
:100F4000AF909F908F900895682F8BE799E063CAC8
:100F5000CF92DF92EF92FF92CF93DF9397FF17C06C
:100F60006B017C018DE2F0DFEC0166277727CB0176
:100F70006C197D098E099F094AE0A7DF8C0F9D1F20
:100F8000DF91CF91FF90EF90DF90CF9008954AE0EE
:100F9000DF91CF91FF90EF90DF90CF9096CFCF93DE
:100FA000DF93BC01990F880B990BD2DFEC018CED1C
:100FB00097E019DF8C0F9D1FDF91CF91089513CF1C
:100FC00084ED98E0FCDF80913002BEDF88ED98E090
:100FD000F6DF6091490270914A02072E000C880BDF
:100FE000990BB6DF88ED98E0EADF88E392E0E7DF6F
:100FF00088ED98E0E4DF8AED98E0E1DF8AED97E0A4
:1010000003CF0F931F93CF93DF93FC01DC010D906F
:101010000020E9F7CD0148978E179F0709F060C0BF
:1010200088E192E0EF01DF010D900020E9F71197D0
:10103000AE1BBF0B9E012E1B3F0B2A173B0728F44C
:101040002991DC012D93CD01EECF81818093300277
:10105000DF011296C3E3D2E08F010A5F1F4F8D912B
:101060008993A017B107D9F7EF011092370283E3F4
:1010700092E0C9D69093320280933102A8E3B2E0A5
:10108000FE017296E80189918E018D93CE17DF07DC
:10109000C9F71092440220913802822F022E000CD0
:1010A000990BC0970A9710F02D3261F488E392E013
:1010B000C7D660934502709346028093470290938F
:1010C00048020BC08FEF9FEFDC01809345029093A5
:1010D0004602A0934702B093480288EC90E002C019
:1010E00081E991E090934A0280934902DF91CF9188
:1010F0001F910F9108950F931F93CF93DF938091CA
:10110000680A882329F0DF91CF911F910F9122CC9B
:10111000809158098111FCCF81E080935809809318
:1011200057099FEF909356091092550993E09093B9
:101130005409809353098091530984608093530923
:1011400080915209813061F41092520980915309C3
:101150008093BB008091BC0083FDF8CF85EC01C07B
:1011600085EE8093BC00809158098130E1F3809135
:101170005509843018F49091550901C094E0A2E318
:10118000B9E0EBE5F9E080E0891721F02D9121939A
:101190008F5FFACF10925A0980935909882319F169
:1011A00088E19AE0D2DA182F88E19AE0CEDAC82FE7
:1011B00088E19AE0CADAD82F88E19AE0C6DA4C2FA3
:1011C00050E060E070E0512B762F652F542F4427BC
:1011D0004D2B762F652F542F44278A019B01082B16
:1011E000C901B80104C061E070E080E090E0DF91E7
:1011F000CF911F910F910895789484B5826084BD3A
:1012000084B5816084BD85B5826085BD85B581600A
:1012100085BD80916E00816080936E001092810088
:101220008091810082608093810080918100816043
:101230008093810080918000816080938000809104
:10124000B10084608093B1008091B0008160809390
:10125000B000809191008260809391008091910014
:1012600081608093910080919000816080939000D4
:101270008091A10082608093A1008091A100816093
:101280008093A1008091A00081608093A000809154
:1012900021018260809321018091210181608093EE
:1012A00021018091200181608093200180917A004A
:1012B000846080937A0080917A00826080937A00C3
:1012C00080917A00816080937A0080917A008068B2
:1012D00080937A001092C100E0918B09F0918C0903
:1012E00082E08083E0918B09F0918C091082E0917B
:1012F0008709F09188091082E0918909F0918A09A3
:1013000080E1808310929309E0918F09F091900918
:1013100086E08083E0918D09F0918E098081806163
:101320008083E0918D09F0918E09808188608083AF
:10133000E0918D09F0918E09808180688083E09131
:101340008D09F0918E0980818F7D80838BEB97E0F2
:1013500036DE64E670E080E090E07DD987EC97E0CF
:101360002EDE10925A0910925909109231091092EA
:10137000300910925809C1E0C093570910925209E0
:1013800061E084E17DDA61E085E17ADA8091B9009B
:101390008E7F8093B9008091B9008D7F8093B900D2
:1013A00088E48093B80085E48093BC0081EA91E0F2
:1013B00090932F0980932E0982EA91E090932D0952
:1013C00080932C09C093620A1092680AF8E16F2E8C
:1013D000A4E17A2EB8EC4B2E512CC2ED2C2ECFE08E
:1013E0003C2E8BE799E00E94D401892BE9F08BE732
:1013F00099E00E94B2018093440A8C3339F0209125
:101400002A0A30912B0A8E33D1F0B3C1ECE2FAE014
:10141000262D11922A95E9F780932C0A81E090E01D
:1014200090932B0A80932A0AE2E5CE2EEAE0DE2E84
:101430000AE41AE0C0E0D0E0AA24A394B3C1F90101
:10144000EC5DF54F80878CE29AE0DBDD809149020C
:1014500090914A02883C910509F086C1E0913002E2
:101460008E2FEE0F990BAA0BBB0BFC01E154F10977
:10147000E831F10508F072C18827EC57FF4F8F4F14
:1014800044C539DE4B015C01C0E0D0E04DE050E0E6
:1014900068E372E0CE018D56954F43D5892B39F420
:1014A000E9E9F1E0F0934A02E09349025DC16496F4
:1014B000C115F5E0DF0751F7E2E9FAE080E090E0DE
:1014C000208121110AC0A8E3B2E0789EA001799E94
:1014D000500D112421E030E008C00196749680344C
:1014E000910571F783EA91E03BC16D91FA01E20F3A
:1014F000F31FEE56F54F60832F5F3F4F2E303105BF
:10150000A1F7789E9001799E300D1124F901EE56D5
:10151000F54F81E08083808A918AA28AB38A1786F8
:10152000168619C003E91AE0C0E0D0E04DE050E0B3
:1015300068E372E0C801F5D4892B91F47C9EF00138
:101540007D9EF00D1124EE56F54F80913102909161
:1015500032029787868750924A024092490204C11C
:1015600021960C5E1F4FC034D10501F784E991E04C
:10157000F7C0C1DDB9C08FED97E021DD8091300269
:10158000E3DC88EE97E0E8C080913102909132026E
:101590008932E3E29E0721F08A32934219F1E4C0D6
:1015A0008091450290914602A0914702B091480275
:1015B0000097A105B10519F41092680AD5C08130D1
:1015C0009105A105B10521F481E08093680ACCC0A2
:1015D0000297A105B10509F0C7C08091680A882368
:1015E00099F3EACF8091450290914602A09147027B
:1015F000B09148020097A105B10519F41092490A6B
:10160000B3C081309105A105B10521F481E080933B
:10161000490AAAC00297A105B10509F0A5C08091A9
:10162000490A882399F3EACF20913102309132029E
:10163000729EC001739E900D1124FC01EE56F54F71
:10164000108292C082EF97E087C0C0903102D090A4
:101650003202C60101978034910518F070E4C72E5C
:10166000D12C89EF97E0D0DBC2E9DAE000E010E0AE
:101670000C151D0599F1688170E080E090E068DC50
:101680008FE198E09CDC6E857F8580E090E04AE009
:101690001CDC80E298E093DC688979898A899B89DF
:1016A0004AE013DC8CE298E08ADC4E012FEF821ACC
:1016B000920A5E0182E4A80EB11CF40181914F01EF
:1016C000811104C08CED97E07ADC04C03DDCA814E5
:1016D000B90499F70F5F1F4F6496CACF609131022A
:1016E0007091320280E090E04AE0EFDB8CED97E011
:1016F0007ADB3BC08091680A90E051DC36C0809074
:1017000031029090320281E398E07EDBC4E2D0E1C6
:10171000092C000CAA08BB088E0161E08881B0D8B2
:10172000C501B4010E942B0360E08881A9D8C501DE
:10173000B4010E942B0384E498E041DC2296F80176
:10174000808191812CDCF0E1C434DF0729F78DE43E
:1017500098E002C08BE598E057DB07C086E991E08E
:1017600090934A02809349022BDC80E092E049DCAE
:101770000EC02631310558F4F901EC5DF54F808734
:101780002F5F3F4F30932B0A20932A0A4DCEECE275
:10179000FAE0262D11922A95E9F710922B0A109261
:1017A0002A0A42CEF80180818093290AF60121910C
:1017B00031916F013327F901EC5BFD4F8491F90101
:1017C000E250FE4FB490F901E854FE4F94909920F6
:1017D000A1F081110E94B002E92DF0E0EE0FFF1F91
:1017E000E256FE4FA591B491EC91BE2231E020E08B
:1017F00009F430E0832F922F02C080E090E0282F80
:101800002170F80121938F01892B09F0A8C08091E4
:10181000290A281709F4A3C09DD82091250A3091E0
:10182000260A4091270A5091280ADC01CB01821B2D
:10183000930BA40BB50B833D9105A105B10508F4ED
:101840008EC088D86093250A7093260A8093270A51
:101850009093280AFE013197E730F10528F4882794
:10186000E456FF4F8F4F51C380916A0A90916B0AE3
:10187000019690936B0A80936A0A2091760A3091C0
:10188000770A28173907ACF430936B0A20936A0A59
:1018900010C080916A0A90916B0A019797FD05C06C
:1018A00090936B0A80936A0A04C010926B0A10929C
:1018B0006A0A80916C0A882379F080916D0A8111FF
:1018C0000BC0E0916A0AF0916B0AEE0FFF1FE85817
:1018D000F54F80819181C5D982E698E02DC0809135
:1018E000690A882321F01092690A60E003C0A0927F
:1018F000690A61E084E30E9440048AE698E05FDBC5
:101900008091690A90E01DC080916C0A882341F0A3
:1019100010926C0A10926D0A80E090E0A2D901C08A
:101920007FDA84E798E04BDB60916C0A70E080E03E
:1019300090E00EDB8BE798E042DB80916A0A9091A1
:101940006B0A2DDB0CC084E898E008C08FE898E0B3
:1019500005C08BE998E002C087EA98E055DA219645
:10196000C830D10509F01ECFC6DB4B015C01C2E9CE
:10197000DAE08881882309F448C00E851F858889AC
:101980009989AA89BB8975016401C81AD90AEA0A2A
:10199000FB0AF801EE0FFF1FEE0FFF1FE252F04FA0
:1019A00040815181628173818091920F9091930F58
:1019B000A091940FB091950F840F951FA61FB71F8C
:1019C0008C159D05AE05BF0508F475C04C155D0569
:1019D0006E057F05D0F401151105B1F00E94AA042F
:1019E000F801EE0FFF1FEE0FFF1FEA56F04F608366
:1019F000718382839383000F111FF801EE5DFF4E08
:101A000061E080810E9440041882649682E99FE030
:101A10008C179D0709F0ADCF80916D0A811100DA16
:101A20006ADB0091640A1091650A2091660A309180
:101A3000670A601771078207930749F06093640A89
:101A40007093650A8093660A9093670A07C0809135
:101A5000240A811103C081E08093240AC2E9DFE0F7
:101A600002E210E10E94AA048C809D80AE80BF80BB
:101A7000C090DA0FD090DB0FE090DC0FF090DD0F1C
:101A8000C80CD91CEA1CFB1CC616D706E806F906CA
:101A900048F460E0F80180810E9440041C821D82AD
:101AA0001E821F8224960E5F1F4F2C163D06D1F614
:101AB0000E94780296CC85EB98E0A6D9A5CFFF923C
:101AC0000F931F93CF93DF9310927E0910927D099D
:101AD00088EE93E0A0E0B0E080937F0990938009C6
:101AE000A0938109B09382092BE937E030937C09F8
:101AF00020937B0925EC30E03093880920938709F7
:101B000024EC30E030938A092093890920EC30E0FE
:101B100030938C0920938B0921EC30E030938E09AF
:101B200020938D0922EC30E03093900920938F09A7
:101B300026EC30E030939209209391091092940999
:101B400010929509109296091092970910921B0A0B
:101B500010921A0A80931C0A90931D0AA0931E0AE1
:101B6000B0931F0A8DEA97E09093190A8093180AA0
:101B700082E2EBE4F2E0A2E2B0E101900D928A95FC
:101B8000E1F788EC90E0A0E0B0E08093DA0F90936A
:101B9000DB0FA093DC0FB093DD0F8EE390E1A0E0AC
:101BA000B0E08093920F9093930FA093940FB09313
:101BB000950F85E29AE5A0E0B0E08093DE0F909368
:101BC000DF0FA093E00FB093E10F4DE259E160E029
:101BD00070E04093E20F5093E30F6093E40F709333
:101BE000E50F4093E60F5093E70F6093E80F709373
:101BF000E90F4BE659E260E070E04093EA0F509342
:101C0000EB0F6093EC0F7093ED0F4093EE0F50933A
:101C1000EF0F6093F00F7093F10F49EA59E360E022
:101C200070E04093F20F5093F30F6093F40F7093B2
:101C3000F50F4093F60F5093F70F6093F80F7093E2
:101C4000F90F47EE59E460E070E04093FA0F5093CB
:101C5000FB0F6093FC0F7093FD0F4093FE0F5093AA
:101C6000FF0F609300107093011080930210909307
:101C70000310A0930410B093051080930610909366
:101C80000710A0930810B093091080930A10909346
:101C90000B10A0930C10B0930D1080930E10909326
:101CA0000F10A0931010B093111080931210909306
:101CB0001310A0931410B0931510809316109093E6
:101CC0001710A0931810B093191080931A109093C6
:101CD0001B10A0931C10B0931D1080931E109093A6
:101CE0001F10A0932010B0932110C4E2D0E18E0108
:101CF00061E088810E946E04229660E0F801808194
:101D00000E944004F0E1C434DF0789F780E095E0E9
:101D1000EDE6F2E0A2E9BAE001900D920197E1F759
:101D200010926B0A10926A0A10926C0A10926D0A55
:101D300010926E0A10926F0A1092700A1092710A35
:101D400080ED97E0A0E0B0E08093720A9093730A70
:101D5000A093740AB093750A8CE090E09093770A90
:101D60008093760A8AE1EDE6F7E0A8E7BAE0019011
:101D70000D928A95E1F761E084E30E946E0410926F
:101D8000690A1092640A1092650A1092660A10920B
:101D9000670A1092680A1092450A1092460A109239
:101DA000470A1092480A1092490A80E1E7E8F7E0F2
:101DB000A2E5BAE001900D928A95E1F71092240A0B
:101DC0001092250A1092260A1092270A1092280AC9
:101DD00081E08093290AC2E5DAE00AE41AE0FF24F0
:101DE000F3948881229662E00E946E04F801F192D9
:101DF0008F01FAE0C236DF07A1F7DF91CF911F9183
:101E00000F91FF900895FC0188279927E89421916C
:101E10002032E9F3293010F02E30C8F32B3239F09C
:101E20002D3231F4689403C046D0820F911D219168
:101E300020532A30C8F31EF4909581959F4F089542
:101E40001F93FC0199278827BC01E8941191103257
:101E5000E9F3193010F01E30C8F31B3249F01D327F
:101E600041F4689405C012D0610F711D811D911D50
:101E7000119110531A30B8F33EF4909580957095F7
:101E800061957F4F8F4F9F4F1F910895592F482F76
:101E9000372F262F660F771F881F991F660F771F12
:101EA000881F991F620F731F841F951F660F771F6E
:101EB000881F991F08957AE0979F902D879F802D06
:101EC000910D11240895A1E21A2EAA1BBB1BFD013E
:101ED0000DC0AA1FBB1FEE1FFF1FA217B307E40709
:101EE000F50720F0A21BB30BE40BF50B661F771F61
:101EF000881F991F1A9469F7609570958095909541
:101F00009B01AC01BD01CF010895EE0FFF1F881F9B
:101F10008BBF0790F691E02D199481E090E0F89442
:101F20000DC0FB01DC0104C08D910190801921F4EA
:101F300041505040C8F7881B990B0895F894FFCF83
:101F40003C7A5A5A5A7A7A7A7A7A7A7A7A7A7A7A8F
:101F50007A7A4353554D3E003C7A5A5A5A7A7A7AE5
:101F60007A7A7A7A7A7A7A7A7A7A4353554D3E0037
:101F70007A00007A000000007A00000000000000F3
:101F80000000000000FFFFFFFF980100001600178F
:101F900000180019001A001B001C001D001E001F65
:101FA00000200021002200230024002500007A7A6E
:101FB0007A7A7A7A7A7A7A7A7A7A0000000000005D
:101FC00000007A7A7A7A7A7A7A7A7A7A7A7A000059
:101FD0000000000000007A7A7A7A7A7A7A7A7A7A3D
:101FE0007A7A00000000000000007A7A7A7A7A7A21
:101FF0007A7A7A7A7A7A00000000000000007A7A11
:102000007A7A7A7A7A7A7A7A7A7A0000000000000C
:1020100000007A7A7A7A7A7A7A7A7A7A7A7A000008
:102020000000000000007A7A7A7A7A7A7A7A7A7AEC
:102030007A7A00000000000000007A7A7A7A7A7AD0
:102040007A7A7A7A7A7A00000000000000007A7AC0
:102050007A7A7A7A7A7A7A7A7A7A000000000000BC
:1020600000007A7A7A7A7A7A7A7A7A7A7A7A0000B8
:102070000000000000007A7A7A7A7A7A7A7A7A7A9C
:102080007A7A00000000000000007A7A7A7A7A7A80
:102090007A7A7A7A7A7A00000000000000007A7A70
:1020A0007A7A7A7A7A7A7A7A7A7A0000000000006C
:1020B00000007A7A7A7A7A7A7A7A7A7A7A7A000068
:1020C0000000000000007A7A7A7A7A7A7A7A7A7A4C
:1020D0007A7A00000000000000007A7A7A7A7A7A30
:1020E0007A7A7A7A7A7A00000000000000007A7A20
:1020F0007A7A7A7A7A7A7A7A7A7A0000000000001C
:1021000000007A7A7A7A7A7A7A7A7A7A7A7A000017
:102110000000000000007A7A7A7A7A7A7A7A7A7AFB
:102120007A7A00000000000000007A7A7A7A7A7ADF
:102130007A7A7A7A7A7A00000000000000007A7ACF
:102140007A7A7A7A7A7A7A7A7A7A000000000000CB
:1021500000007A7A7A7A7A7A7A7A7A7A7A7A0000C7
:102160000000000000007A7A7A7A7A7A7A7A7A7AAB
:102170007A7A00000000000000007A7A7A7A7A7A8F
:102180007A7A7A7A7A7A00000000000000007A7A7F
:102190007A7A7A7A7A7A7A7A7A7A0000000000007B
:1021A00000007A7A7A7A7A7A7A7A7A7A7A7A000077
:1021B0000000000000007A7A7A7A7A7A7A7A7A7A5B
:1021C0007A7A00000000000000007A7A7A7A7A7A3F
:1021D0007A7A7A7A7A7A00000000000000007A7A2F
:1021E0007A7A7A7A7A7A7A7A7A7A0000000000002B
:1021F00000007A7A7A7A7A7A7A7A7A7A7A7A000027
:102200000000000000007A7A7A7A7A7A7A7A7A7A0A
:102210007A7A00000000000000007A7A7A7A7A7AEE
:102220007A7A7A7A7A7A00000000000000007A7ADE
:102230007A7A7A7A7A7A7A7A7A7A000000000000DA
:1022400000007A7A7A7A7A7A7A7A7A7A7A7A0000D6
:102250000000000000007A7A7A7A7A7A7A7A7A7ABA
:102260007A7A00000000000000007A7A7A7A7A7A9E
:102270007A7A7A7A7A7A00000000000000007A7A8E
:102280007A7A7A7A7A7A7A7A7A7A0000000000008A
:1022900000007A7A7A7A7A7A7A7A7A7A7A7A000086
:1022A0000000000000007A7A7A7A7A7A7A7A7A7A6A
:1022B0007A7A00000000000000007A7A7A7A7A7A4E
:1022C0007A7A7A7A7A7A00000000000000007A7A3E
:1022D0007A7A7A7A7A7A7A7A7A7A0000000000003A
:1022E00000007A7A7A7A7A7A7A7A7A7A7A7A000036
:1022F0000000000000007A7A7A7A7A7A7A7A7A7A1A
:102300007A7A00000000000000007A7A7A7A7A7AFD
:102310007A7A7A7A7A7A00000000000000007A7AED
:102320007A7A7A7A7A7A7A7A7A7A000000000000E9
:1023300000007A7A7A7A7A7A7A7A7A7A7A7A0000E5
:102340000000000000007A7A7A7A7A7A7A7A7A7AC9
:102350007A7A00000000000000007A7A7A7A7A7AAD
:102360007A7A7A7A7A7A00000000000000007A7A9D
:102370007A7A7A7A7A7A7A7A7A7A00000000000099
:1023800000007A7A7A7A7A7A7A7A7A7A7A7A000095
:102390000000000000007A7A7A7A7A7A7A7A7A7A79
:1023A0007A7A00000000000000007A7A7A7A7A7A5D
:1023B0007A7A7A7A7A7A00000000000000007A7A4D
:1023C0007A7A7A7A7A7A7A7A7A7A00000000000049
:1023D00000007A7A7A7A7A7A7A7A7A7A7A7A000045
:1023E0000000000000007A7A7A7A7A7A7A7A7A7A29
:1023F0007A7A00000000000000007A7A7A7A7A7A0D
:102400007A7A7A7A7A7A00000000000000007A7AFC
:102410007A7A7A7A7A7A7A7A7A7A000000000000F8
:1024200000007A7A7A7A7A7A7A7A7A7A7A7A0000F4
:102430000000000000007A7A7A7A7A7A7A7A7A7AD8
:102440007A7A00000000000000007A7A7A7A7A7ABC
:102450007A7A7A7A7A7A00000000000000007A7AAC
:102460007A7A7A7A7A7A7A7A7A7A000000000000A8
:1024700000007A7A7A7A7A7A7A7A7A7A7A7A0000A4
:102480000000000000007A7A7A7A7A7A7A7A7A7A88
:102490007A7A00000000000000007A7A7A7A7A7A6C
:1024A0007A7A7A7A7A7A0000000000000014001E1E
:1024B00000280032003C004B0064007D009600AF15
:1024C00000C800E100FF0006000700080009000A3C
:1024D000000B000C000D00000000000B027701A3B0
:1024E000015702D401B201C60100000000CB03C1B4
:1024F00003DC039503B903A50396035B42425F4FD8
:102500004E4C494E455D005B42656C7420427563DC
:102510006B6C652076302E362E305D000D0A004340
:102520006F6D6D616E64200020526563656976652C
:102530006400544F444F2058004F63632E202020E6
:102540003A2020202042696E202020203A2020209E
:1025500020446973742020203A2020204964002000
:1025600020202020203A20202020200020203A2057
:102570000054657374696E67206F75747075747339
:102580002E2E2E006F75747075743A20005465738A
:102590007420636F6D706C65746500544F444F20F8
:1025A000570073706565643A200062656C74206939
:1025B000733A20004D6F64653A20002053706565C2
:1025C000643A2000627574746F6E5F72756E00629B
:1025D0007574746F6E5F73746F7000627574746F6E
:1025E0006E5F62656C7400627574746F6E5F6665B1
:1025F00065646572004C6F73742061207061727441
:102600000066756C6C20737065656400737461722C
:10261000747570005B41434B2D004353554D0000D2
:00000001FF
