:1000000045C1000073C1000071C100006FC1000054
:100010006DC100006BC1000069C1000067C1000034
:1000200065C1000063C1000061C100005FC1000044
:100030005DC100005BC1000059C1000057C1000054
:1000400055C1000053C1000051C100004FC1000064
:100050004DC100004BC1000049C1000094C5000023
:1000600045C10000EFC40000C4C400003FC100004F
:100070003DC100003BC1000039C1000037C1000094
:1000800035C1000033C1000031C100002FC10000A4
:100090002DC100002BC1000029C10000BEC5000019
:1000A00025C1000023C1000021C100001FC10000C4
:1000B0001DC100001BC1000019C1000017C10000D4
:1000C00015C1000013C1000011C100000FC10000E4
:1000D0000DC100000BC1000009C1000007C10000F4
:1000E00005C1000098029B028A028E029402D2028D
:1000F0009F02A302A902AD02B102B702BB02BF0276
:10010000D202C502C902CD02860ADB0AEB0BEB0B59
:10011000EB0BEB0B050B070BEB0BEB0BEB0BEB0BF9
:10012000EB0BEB0B100B340BEB0BEB0B6D0BA50B75
:10013000EB0BEB0BEB0B810A7F0C9C0CB00CC20C95
:10014000C50CC80CCC0CA807AD07B207BC07C60786
:100150003F08D007D807E007EA07F407FE070D08B5
:1001600017083F0821082B0835080000210024004B
:1001700027002A002D003000330001010000040197
:1001800007010A0100002200250028002B002E0094
:100190003100340002010000050108010B010000DC
:1001A00020002300260029002C002F00320000012F
:1001B00000000301060109010505050507050808FA
:1001C0000808020202020A0A0808040404040101E1
:1001D00001010101010103030303030303030407F6
:1001E00007070C0C0C0C0C0C0C0C0202020206068D
:1001F0000606060606060B0B0B0B0B0B0B0B010280
:100200001020200808102040102040800201020128
:1002100008040201010204081020408080402010E0
:100220000804020180040201804020100804020139
:1002300008040201010204081020408001020408A1
:100240001020408000000A0B02090C0D0E08070365
:100250000401000000000000000000000000000099
:10026000000000000000000000000000000000008E
:10027000121110000000000000000000000000004B
:10028000000000000000000000005D0D11241FBEF2
:10029000CFEFD1E2DEBFCDBF00E00CBF13E0A0E0A6
:1002A000B2E0E0EFFBE100E00BBF02C007900D926F
:1002B000AE3AB107D9F726E0AEEAB3E001C01D922D
:1002C000A036B207E1F711E0C6E4D1E000E006C0D5
:1002D00021970109802FFE010E94DD0DC534D10751
:1002E00080E00807A9F776D70C94F60D89CEFC01BB
:1002F000538D448D252F30E0842F90E0821B930B8B
:10030000541710F0CF96089501970895FC01918D30
:10031000828D981761F0828DDF01A80FB11D5D9667
:100320008C91928D9F5F9F73928F90E008958FEFD5
:100330009FEF0895FC01918D828D981731F0828D89
:10034000E80FF11D858D90E008958FEF9FEF0895E0
:10035000FC01918D228D892F90E0805C9F4F821B44
:1003600091098F739927089587EB95E0F1DF21E0DC
:10037000892B09F420E0822F0895FC01848DDF0190
:10038000A80FB11DA35ABF4F2C91848D90E0019608
:100390008F739927848FA689B7892C93A089B189F7
:1003A0008C9180648C93938D848D981306C0028801
:1003B000F389E02D80818F7D80830895EF92FF92F5
:1003C0000F931F93CF93DF93EC0181E0888F9B8D78
:1003D0008C8D981305C0E889F989808185FD23C03B
:1003E000F62E0B8D10E00F5F1F4F0F731127E02EBD
:1003F0008C8DE8120BC00FB607FCFACFE889F9899B
:10040000808185FFF5CFCE01B8DFF2CF8B8DFE0165
:10041000E80FF11DE35AFF4FF0820B8FEA89FB8949
:100420008081806207C0EE89FF896083E889F9894D
:1004300080818064808381E090E0DF91CF911F9183
:100440000F91FF90EF900895CF93DF93EC01888D8B
:100450008823C1F0EA89FB89808185FD05C0A889D0
:10046000B9898C9186FD0EC00FB607FCF5CF80814F
:1004700085FFF2CFA889B9898C9185FFEDCFCE0198
:100480007CDFE8CFDF91CF91089580E090E0892B69
:1004900019F06ADF811125C080E090E0892B41F0DE
:1004A00080E090E0892B21F00E94000081111CC0A7
:1004B00080E090E0892B41F080E090E0892B21F0F2
:1004C0000E940000811113C080E090E0892BA1F010
:1004D00080E090E0892B81F00E94000081110AC029
:1004E00008950E940000D8CF0E940000E1CF0E9432
:1004F0000000EACF0C940000089590E0FC013197D1
:10050000E231F10508F04EC08827EE58FF4F8F4FBB
:100510000C94DD0D809180008F7703C08091800066
:100520008F7D80938000089580918000877FF9CF30
:1005300084B58F7702C084B58F7D84BD0895809186
:10054000B0008F7703C08091B0008F7D8093B000A2
:100550000895809190008F7707C0809190008F7DE3
:1005600003C080919000877F8093900008958091D0
:10057000A0008F7707C08091A0008F7D03C080917D
:10058000A000877F8093A0000895809120018F773D
:1005900007C0809120018F7D03C080912001877F5B
:1005A0008093200108953FB7F89480913E04909184
:1005B0003F04A0914004B091410426B5A89B05C01A
:1005C0002F3F19F00196A11DB11D3FBFBA2FA92FD2
:1005D000982F8827820F911DA11DB11DBC01CD014F
:1005E00042E0660F771F881F991F4A95D1F708953B
:1005F0008F929F92AF92BF92CF92DF92EF92FF9233
:100600006B017C01D0DF4B015C01C114D104E1041A
:10061000F104E9F0C8DFDC01CB0188199909AA09C6
:10062000BB09883E9340A105B10578F321E0C21AC9
:10063000D108E108F10888EE880E83E0981EA11C1D
:10064000B11CC114D104E104F10421F7DECFFF9005
:10065000EF90DF90CF90BF90AF909F908F900895D4
:100660002FB7F89460913A0470913B0480913C0458
:1006700090913D042FBF089585ED8093BC0080913B
:10068000BC0084FDFCCF1092440408954091F00317
:10069000262F30E0240F311D21323105DCF420916A
:1006A00044042430C9F4FC0180E090E0861758F43B
:1006B0003091F0032191DC01A253BC4FA30FB11D77
:1006C0002C930196F3CF8091F003680F6093F003B1
:1006D00080E0089581E0089582E008950895E09112
:1006E000480480914704E81730F4F0E0E255FC4FED
:1006F000808190E008958FEF9FEF089590914804D6
:1007000080914704981750F4E92FF0E0E255FC4F30
:10071000208130E09F5F9093480402C02FEF3FEFAD
:10072000C90108958091470490E020914804821BFC
:1007300091090895CF93DF931F921F92CDB7DEB733
:10074000CB01642F49835A83A1DF4981842F5A81C9
:10075000952F0F900F90DF91CF910895CF93DF9356
:100760001F92CDB7DEB7698361E0CE0101968EDFBF
:1007700081E090E00F90DF91CF910895089580E09F
:1007800090E00895CF93DF938A30910548F5FC01FE
:10079000EE0FFF1FED59FA4F11821082FC01EE0F90
:1007A000FF1FEE0FFF1FE55CFA4F108211821282CD
:1007B00013822DE0289FF001299FF00D1124E55BA5
:1007C000FB4F80E38083818382838383848385835B
:1007D00086838783808781878287838714864FC03B
:1007E000019609F047C043E655E0ABE3B5E0E7E525
:1007F000F4E080E3EA0119921992AE011D921D9274
:100800001D921D929F012C503109E90188832F5FB1
:100810003F4FE90188832F5F3F4FE90188832F5FB6
:100820003F4FE90188832F5F3F4FE90188832F5FA6
:100830003F4FE90188832F5F3F4FE90188832F5F96
:100840003F4FE90188832F5F3F4FE90188832F5F86
:100850003F4FE90188832F5F3F4FE90188832F5F76
:100860003F4FE901888310823D96D5E0A336BD074E
:1008700009F605C081E792E0DF91CF913BC3DF919C
:10088000CF9108958091E704882329F01092E7041E
:1008900080E090E00DC081E08093E704E091E904FE
:1008A000F091EA04EE0FFF1FEF5FFD4F8081918111
:1008B0002DC3FF920F931F93CF93DF93F82E8B01DD
:1008C000EA0182E992E022D48F2D21D486E992E0D8
:1008D0001DD4C80127D486E992E018D4CE0116D4DD
:1008E00086E992E013D488E992E010D48CEB92E090
:1008F000DF91CF911F910F91FF9008C40F931F9329
:10090000CF93DF93809144048111FCCF81E08093E9
:100910004404809343049FEF90931504109237048E
:1009200093E0909336048093380480913804846077
:100930008093380480914204813061F41092420423
:10094000809138048093BB008091BC0083FDF8CF78
:1009500085EC01C085EE8093BC0080914404813019
:10096000E1F380913704843018F48091370401C09A
:1009700084E0A6E1B4E02EEA33E0F9019E2F921B59
:10098000981718F49D919193F9CF10924804809391
:100990004704882319F184E596E0B0DED82F84E57A
:1009A00096E0ACDE182F84E596E0A8DEC82F84E53B
:1009B00096E0A4DE412F50E060E070E05D2B762FE2
:1009C000652F542F44274C2B762F652F542F442707
:1009D0008A019B01082BC901B80104C061E070E0E5
:1009E00080E090E0DF91CF911F910F9108950E94D8
:1009F000E50D1F920F920FB60F9211240BB60F92B6
:100A00002F933F934F935F936F937F938F939F9316
:100A1000AF93BF93EF93FF9387EB95E0AEDCFF912D
:100A2000EF91BF91AF919F918F917F916F915F9166
:100A30004F913F912F910F900BBE0F900FBE0F90D3
:100A40001F9018951F920F920FB60F9211240BB69C
:100A50000F922F938F939F93EF93FF93E091C7058E
:100A6000F091C8058081E091CD05F091CE0582FD21
:100A700012C090818091D0058F5F8F732091D10536
:100A8000821751F0E091D005F0E0E954FA4F958FCC
:100A90008093D00501C08081FF91EF919F918F914C
:100AA0002F910F900BBE0F900FBE0F901F901895B7
:100AB0001F93CF93DF93282F30E0F901EC5BFD4FBC
:100AC0008491F901E250FE4FD491F901E854FE4FB0
:100AD000C491CC23C1F0162F81110FDDEC2FF0E073
:100AE000EE0FFF1FEC57FE4FA591B4918FB7F8940E
:100AF000111105C09C91ED2FE095E92302C0EC9106
:100B0000ED2BEC938FBFDF91CF911F910895CF9381
:100B1000DF9390E0FC01E250FE4F2491FC01E85489
:100B2000FE4F8491882361F190E0880F991FFC01AA
:100B3000E659FE4FC591D491FC01EC57FE4FA591AB
:100B4000B491611109C09FB7F894888120958223E0
:100B50008883EC912E230BC0623061F49FB7F89428
:100B60003881822F809583238883EC912E2B2C93C0
:100B70009FBF06C08FB7F894E8812E2B28838FBFC4
:100B8000DF91CF9108951F920F920FB60F9211240B
:100B90002F933F938F939F93AF93BF9380913A048A
:100BA00090913B04A0913C04B0913D0430913904F4
:100BB00023E0230F2D3720F40196A11DB11D05C0A0
:100BC00026E8230F0296A11DB11D209339048093BE
:100BD0003A0490933B04A0933C04B0933D0480916D
:100BE0003E0490913F04A0914004B09141040196CD
:100BF000A11DB11D80933E0490933F04A093400437
:100C0000B0934104BF91AF919F918F913F912F91EC
:100C10000F900FBE0F901F9018951F920F920FB656
:100C20000F9211240BB60F922F933F934F935F9324
:100C30006F937F938F939F93AF93BF93EF93FF93A4
:100C40008091B900887F803609F49CC068F58832AD
:100C500009F45BC090F4803109F454C038F488235F
:100C600009F4F6C0883009F44DC0F5C0883109F4A4
:100C70004CC0803209F45DC0EEC0803409F468C015
:100C800048F4803309F455C0883309F0E4C08093F8
:100C90001504D8C0803509F44FC0883509F45DC00B
:100CA000883409F0D8C0D6C0883909F4C7C0A8F480
:100CB000883709F467C038F4883609F463C0803790
:100CC00009F460C0C8C0883809F4B8C0803909F494
:100CD0005FC0803809F0BFC05BC0803B09F486C0AC
:100CE00038F4803A09F466C0883A09F47FC0B3C08A
:100CF000803C09F4A7C0883C09F4A4C0883B09F4EF
:100D00008AC0A9C08091380410C0909137048091A6
:100D10003604981770F5E091370481E08E0F8093C8
:100D20003704F0E0EA5EFB4F80818093BB0085ECE6
:100D300086C0809315048EC0E091370481E08E0F49
:100D4000809337048091BB00F0E0EA5EFB4F808324
:100D500090913704809136046EC0E091370481E0B1
:100D60008E0F809337048091BB00F0E0EA5EFB4F6A
:100D700080838091430481116DC081E0809342049F
:100D800084EA61C083E08093440410921404CFCFBE
:100D900080911404803208F051C0E091140481E085
:100DA0008E0F809314048091BB00F0E0EC50FC4F58
:100DB0008083BDCF85EC8093BC0010924404809169
:100DC0001404803230F4E0911404F0E0EC50FC4F55
:100DD00010826091140470E0E091F203F091F3034B
:100DE00084EF93E019951092140435C084E0809349
:100DF00044041092F1031092F003E091EE03F0919D
:100E0000EF0319958091F003811105C081E0809373
:100E1000F0031092CE03E091F10381E08E0F8093F6
:100E2000F103F0E0E253FC4F80818093BB0090918E
:100E3000F1038091F003981708F479CF85E8809347
:100E4000BC0009C085EC8093BC001092440403C030
:100E50001092150411DCFF91EF91BF91AF919F911A
:100E60008F917F916F915F914F913F912F910F9053
:100E70000BBE0F900FBE0F901F901895CF92DF9270
:100E8000EF92FF920F931F93CF93DF936C017A0140
:100E90008B01C0E0D0E0CE15DF0589F0D8016D915F
:100EA0008D01D601ED91FC910190F081E02DC601FC
:100EB0001995892B11F47E0102C02196ECCFC70150
:100EC000DF91CF911F910F91FF90EF90DF90CF9026
:100ED0000895009761F0FC0101900020E9F7319737
:100EE000AF01481B590BBC0187EB95E0C7CF80E0F1
:100EF00090E00895CF93DF93ECDFEC018EEB92E06E
:100F0000E8DF8C0F9D1FDF91CF910895CF93DF9382
:100F1000EC0161E083E0FBDD209711F460E004C0A8
:100F2000CF3FD10529F461E083E0DF91CF91C0CDBF
:100F3000E7E4F2E0E4918E2F90E0FC013197E2319A
:100F4000F10508F09CC08827ED55FF4F8F4F35C63F
:100F500084B5806884BDC7BD97C084B5806284BDF8
:100F6000C8BD92C080918000806880938000D0933B
:100F70008900C093880088C080918000806280933F
:100F80008000D0938B00C0938A007EC08091800047
:100F9000886080938000D0938D00C0938C0074C0D3
:100FA0008091B00080688093B000C093B3006CC0A3
:100FB0008091B00080628093B000C093B40064C0A0
:100FC00080919000806880939000D0939900C093A6
:100FD00098005AC080919000806280939000D093D6
:100FE0009B00C0939A0050C08091900088608093CD
:100FF0009000D0939D00C0939C0046C08091A000BB
:1010000080688093A0008091A0008F7B8093A000D7
:10101000D093A900C093A80037C08091A00080623F
:101020008093A000D093AB00C093AA002DC0809104
:10103000A00088608093A000D093AD00C093AC0066
:1010400023C080912001806880932001D0932901E2
:10105000C093280119C080912001806280932001F3
:10106000D0932B01C0932A010FC08091200188608A
:1010700080932001D0932D01C0932C0105C0C0386E
:10108000D1050CF050CF4ACFDF91CF9108958F92C8
:101090009F92AF92BF920F931F93CF93DF93CDB7E1
:1010A000DEB7A1970FB6F894DEBF0FBECDBF19A271
:1010B000423008F44AE08E010F5D1F4F842E912CC0
:1010C000A12CB12CA501940156D5E62FB901CA0176
:1010D00001501109EA3014F4E05D01C0E95CD80167
:1010E000EC93232B242B252B69F7C801F2DEA19664
:1010F0000FB6F894DEBF0FBECDBFDF91CF911F9129
:101100000F91BF90AF909F908F900895E2CEE091A5
:10111000B705F091B8050190F081E02D682F87EBBD
:1011200095E01994CF92DF92EF92FF92CF93DF93E5
:101130006C01990FEE08FF08F7FE15C08DE2E7DF9E
:10114000EC0166277727CB016C197D098E099F0971
:101150004AE09DDF8C0F9D1FDF91CF91FF90EF90B4
:10116000DF90CF9008954AE0C701B601DF91CF919B
:10117000FF90EF90DF90CF908ACFCF92DF92EF92E7
:10118000FF92CF93DF936C01990FEE08FF08F7FEF3
:1011900010C08DE2BCDFEC0166277727CB016C190C
:1011A0007D098E099F094AE072DF7C01EC0EFD1E6D
:1011B00005C04AE0C701B6016ADF7C018EEB92E010
:1011C00088DE8E0D9F1DDF91CF91FF90EF90DF9015
:1011D000CF900895CF93DF93CDB7DEB764970FB666
:1011E000F894DEBF0FBECDBF789484B5826084BD15
:1011F00084B5816084BD85B5826085BD85B581601B
:1012000085BD80916E00816080936E001092810098
:101210008091810082608093810080918100816053
:101220008093810080918000816080938000809114
:10123000B10084608093B1008091B00081608093A0
:10124000B000809191008260809391008091910024
:1012500081608093910080919000816080939000E4
:101260008091A10082608093A1008091A1008160A3
:101270008093A1008091A00081608093A000809164
:1012800021018260809321018091210181608093FE
:1012900021018091200181608093200180917A005A
:1012A000846080937A0080917A00826080937A00D3
:1012B00080917A00816080937A0080917A008068C2
:1012C00080937A001092C1000DE212E0F801F080E4
:1012D0000E5F1F4F61E08F2D1ADC60E08F2DE8DB81
:1012E000F2E00D341F0791F76FEEE62E64E0F62E64
:1012F0000BE112E0DD24D394F80180810E5F1F4FD3
:1013000062E005DCF701D1927F01F2E00B321F07AA
:1013100099F71092F7041092F8041092F9041092C1
:10132000FA0484E694E4A0E0B0E08093FB04909398
:10133000FC04A093FD04B093FE0487E49FE4A0E0C6
:10134000B0E08093FF0490930005A0930105B09353
:10135000020561E084E3DBDB60E084E3A9DB10925B
:1013600048041092470410924604109245041092CB
:10137000440481E0809343041092420461E084E1DC
:1013800097DB61E085E194DB8091B9008E7F8093EB
:10139000B9008091B9008D7F8093B90088E4809373
:1013A000B80085E48093BC00E091C705F091C805C2
:1013B00082E08083E091C705F091C8051082E0913A
:1013C000C305F091C4051082E091C505F091C605F2
:1013D00080E180831092CF05E091CB05F091CC05A0
:1013E00086E08083E091C905F091CA058081806123
:1013F0008083E091C905F091CA058081886080836F
:10140000E091C905F091CA05808180688083E091F0
:10141000C905F091CA0580818F7D80838DE992E0B6
:1014200075DE64E670E080E090E0E2D889EA92E060
:101430006DDE5FECE52E54E0F52ECE010D969C8B13
:101440008B8B87EB95E00E94A801181619060CF00B
:10145000D9C187EB95E00E9486018C3339F0209149
:10146000CD043091CE048E3379F0BFC198E1F701FD
:1014700011929A95E9F78093CF0481E090E09093E0
:10148000CE048093CD04BEC1F901E153FB4F8083AC
:10149000F70101900020E9F7E75EF44009F083C10D
:1014A0008091D1048E878091D2048F878091D3045C
:1014B000888B8091D404898B1A8ACE010E9636D3FC
:1014C0008C01A5EDB4E0FE0131966F018D91819301
:1014D0008B899C89E817F907C9F71D86E091D0042C
:1014E0008E2FEE0F990BAA0BBB0BFC01E154F109F7
:1014F000E831F10508F06FC18827EC57FF4F8F4F97
:101500005CC34BE4C42E44E0D42EABC00BE414E027
:101510004DE050E0BE016F5F7F4FC8015AD3892B69
:1015200009F443C0035F1F4F94E00D3C190781F796
:101530000091490410914A048DE0809F9001819FA1
:10154000300D112480E090E0F60141916F01FC0123
:10155000E20FF31FE55BFB4F408301968D30910551
:1015600099F7CCD9F801EE0FFF1FEE0FFF1FE55CD6
:10157000FA4F6083718382839383F801EE0FFF1F1C
:10158000ED59FA4F118210820F5F1F4F0A3011057B
:1015900028F410934A040093490404C010924A04AA
:1015A0001092490468EC70E002C069E971E0AE0194
:1015B0004F5F5F4F3CC09BE4A92E94E0B92EC12C35
:1015C000D12C4DE050E0BE016F5F7F4FC50101D3CC
:1015D000892B51F4F601EE0FFF1FED59FA4F1183DD
:1015E000008368EC70E00CC0FFEFCF1ADF0A2DE03B
:1015F000A20EB11C8AE0C816D10419F764E971E0A3
:10160000AE014F5F5F4F82E414C078D9DFC081EC38
:1016100092E07CDD8091D0047ADD8AEC92E0C1C05A
:10162000C801B0D8AE014F5F5F4F60E070E08091BD
:10163000D0043FD9D0C0F601E00FF11F808167DDF3
:101640000F5F1F4F0D301105B1F78FEB92E05EDD9C
:101650009DE0C90ED11CEDECCE16E4E0DE0609F4E7
:10166000BAC000E010E0E7CF84ED92E043DC1BE37A
:10167000C12E15E0D12E03E6A02E05E0B02E0BE41E
:1016800014E0812C912CF801E80DF91D80813FDDDB
:10169000FFEF8F1A9F0A2DE082169104A1F780EFC9
:1016A00092E034DDF60161917191819191916F0128
:1016B0004AE0EDDC80EF92E029DDF5018191919126
:1016C0005F0130DD8FEB92E021DD035F1F4FF3E61A
:1016D000CF16F5E0DF06A9F67EC084ED92E00ADCC5
:1016E0008DE0809F6001819FD00C1124A12CB12C32
:1016F000F501EC0DFD1DE55BFB4F808108DD2FEF53
:10170000A21AB20A8DE0A816B10491F780EF92E018
:10171000FDDCF801EE0FFF1FEE0FFF1FE55CFA4F37
:1017200060817181828193814AE0B1DC80EF92E037
:10173000EDDC000F111FF801ED59FA4F8081918106
:10174000F1DC8FEB92E0E2DC46C084EF92E0D2DB8A
:10175000FDE2CF2EF2E0DF2E4801110FAA08BB08F0
:10176000F60110810181F2E0CF0ED11C61E0812FE2
:101770009FD9C501B4010E94F80260E0812F98D979
:10178000C501B4010E94F80287E093E0BFDC812F1D
:10179000902FF3DC2DE4C21622E0D20609F780E197
:1017A00093E0A8DB18C08EE193E0B0DC87E190E025
:1017B000B9DC8CE493E0AADCF70101900020E9F7A2
:1017C0003197BF016F5C744080E090E04AE05FDCDD
:1017D0008EEB92E07EDB88E1F70111928A95E9F7C2
:1017E0001092CE041092CD040DC02631310598F729
:1017F000F901E153FB4F80832F5F3F4F3093CE04BD
:101800002093CD047FEEC72E74E0D72EEBE1AE2EF1
:10181000E2E0BE2E00E010E099249394F60170807F
:1018200070920002F501219131915F013327F90196
:10183000EC5BFD4F8491F901E250FE4F8490F90179
:10184000E854FE4F64906620A1F081110E947D0251
:10185000E62DF0E0EE0FFF1FE256FE4FA591B4918A
:10186000EC918E2231E020E009F430E0832F922FBA
:1018700002C080E090E0282F2170F60121936F01D3
:10188000892B09F08EC0772009F48BC00E943003A9
:101890004090EB045090EC046090ED047090EE04E6
:1018A000DC01CB0184199509A609B709833D91058F
:1018B000A105B10508F475C00E9430036093EB04E4
:1018C0007093EC048093ED049093EE04F80131974B
:1018D000E730F10528F48827E456FF4F8F4F6DC19C
:1018E0008091E9049091EA0401968D30910514F0FD
:1018F0008CE090E09093EA048093E9040BC080911F
:10190000E9049091EA04019797FFF4CF1092EA045A
:101910001092E9048091E704882359F0E091E904EA
:10192000F091EA04EE0FFF1FEF5FFD4F8081918180
:10193000EDDA8BE593E01FC08091E804882321F065
:101940001092E80460E003C09092E80461E084E350
:10195000AFD883E693E0DADB8091E80490E010C032
:101960000E9442048DE693E0D1DB8091E70490E091
:10197000D9DB84E793E0CADB8091E9049091EA0423
:10198000FCDB0FC08DE793E005C088E893E002C060
:1019900084E993E0AFDA05C080EA93E0ABDA0E9415
:1019A00042040F5F1F4F0830110509F037CF0E9426
:1019B0007E041B012C0133E6632E35E0732E4BE3CE
:1019C000842E45E0942EC12CD12CF301019111916C
:1019D0003F0110161106CCF5F40180819181A2819E
:1019E000B381B201A101481B590B6A0B7B0B580153
:1019F000AA0CBB1CAA0CBB1CF501E950FB4F808153
:101A00009181A281B381481759076A077B07E8F0E3
:101A100084529A4FAF4FBF4F84179507A607B70759
:101A2000A0F00E943003F501E958FA4F60837183FA
:101A300082839383000F111FF801E55DFD4F61E084
:101A4000808136D8C6010E94C203FFEFCF1ADF0A99
:101A500024E0820E911C8AE0C816D10409F0B5CFAB
:101A600087E7C82E85E0D82E0BE212E00E943003F3
:101A7000F60180809180A280B380F8EC8F0E911CDB
:101A8000A11CB11C86169706A806B90648F460E0AA
:101A9000F80180810DD8F601108211821282138222
:101AA000F4E0CF0ED11C0E5F1F4F27EBC21625E0CE
:101AB000D206E1F60E944502C4CCE7EBF5E01382C2
:101AC000128288EE93E0A0E0B0E084839583A68341
:101AD000B78321E532E03183208325EC30E0358780
:101AE000248724EC30E03787268720EC30E0318BE8
:101AF000208B21EC30E0338B228B22EC30E0358BD5
:101B0000248B26EC30E0378B268B118E128E138EB1
:101B1000148EE4E5F6E01382128284839583A68313
:101B2000B78383E692E0918380830895FC01882740
:101B30009927E89421912032E9F3293010F02E30D2
:101B4000C8F32B3239F02D3231F4689403C00BD036
:101B5000820F911D219120532A30C8F31EF49095D5
:101B600081959F4F08957AE0979F902D879F802DB4
:101B7000910D11240895A1E21A2EAA1BBB1BFD0191
:101B80000DC0AA1FBB1FEE1FFF1FA217B307E4075C
:101B9000F50720F0A21BB30BE40BF50B661F771FB4
:101BA000881F991F1A9469F7609570958095909594
:101BB0009B01AC01BD01CF010895EE0FFF1F881FEF
:101BC0008BBF0790F691E02D199481E090E0F89496
:101BD0000DC0FB01DC0104C08D910190801921F43E
:101BE00041505040C8F7881B990B0895F894FFCFD7
:101BF0000114001E00280032003C004B0064007DF0
:101C0000009600AF00C800E100FF000400050006D8
:101C1000000700080009000A000B0000001600176A
:101C200000180019001A001B001C001D001E001FD8
:101C300000200021002200230024002500000000D5
:101C400000DE013E0777012402A80186019A010007
:101C5000000000AE039A03BF036E0392037E036F7E
:101C6000034572726F723A20466C75736820696E14
:101C7000646578206F7574206F662072616E676589
:101C800021005B41434B2D004353554D005B4242C5
:101C90005F4F4E4C494E455D005B42656C7420427F
:101CA00075636B6C652076302E352E365D000D0A1F
:101CB00000436F6D6D616E6420002052656369653D
:101CC0007665640020205061796C6F61642020206B
:101CD000203A2020446973742E203A2042696E0015
:101CE000203A200054657374696E67206F757470B4
:101CF0007574732E2E2E006F75747075743A2000F3
:101D00005465737420636F6D706C65746500506109
:101D10007273696E67207061636B6574203A20424C
:101D20006164205061636B6574204C656E677468F4
:101D30002E20457870656374656420002062757498
:101D400020726563696576656420007370656564FB
:101D50003A200062656C742069733A20004D6F640C
:101D6000653A20002053706565643A2000627574FE
:101D7000746F6E5F72756E00627574746F6E5F73F0
:101D8000746F7000627574746F6E5F62656C74005E
:0E1D9000627574746F6E5F66656564657200DF
:00000001FF
