:1000000045C1000073C1000071C100006FC1000054
:100010006DC100006BC1000069C1000067C1000034
:1000200065C1000063C1000061C100005FC1000044
:100030005DC100005BC1000059C1000057C1000054
:1000400055C1000053C1000051C100004FC1000064
:100050004DC100004BC1000049C100008AC400002E
:1000600045C10000D9C30000AEC300003FC100007D
:100070003DC100003BC1000039C1000037C1000094
:1000800035C1000033C1000031C100002FC10000A4
:100090002DC100002BC1000029C10000B4C4000024
:1000A00025C1000023C1000021C100001FC10000C4
:1000B0001DC100001BC1000019C1000017C10000D4
:1000C00015C1000013C1000011C100000FC10000E4
:1000D0000DC100000BC1000009C1000007C10000F4
:1000E00005C10000C302C602B502B902BF02FD028B
:1000F000CA02CE02D402D802DC02E202E602EA021E
:10010000FD02F002F402F802270A840A990B990B07
:10011000990B990BAE0AB50A990B990B990B990B90
:10012000BE0A990B0E0B1F0B990B990B600B630BFF
:10013000990B990B960B1C0B3F0C650C7A0C970CCA
:100140009A0C9D0CA00C57065C0661066B067506A2
:10015000EE067F0687068F069906A306AD06BC0647
:10016000C606EE06D006DA06E406000021002400EA
:1001700027002A002D003000330001010000040197
:1001800007010A0100002200250028002B002E0094
:100190003100340002010000050108010B010000DC
:1001A00020002300260029002C002F00320000012F
:1001B00000000301060109010505050507050808FA
:1001C0000808020202020A0A0808040404040101E1
:1001D00001010101010103030303030303030407F6
:1001E00007070C0C0C0C0C0C0C0C0202020206068D
:1001F0000606060606060B0B0B0B0B0B0B0B010280
:100200001020200808102040102040800201020128
:1002100008040201010204081020408080402010E0
:100220000804020180040201804020100804020139
:1002300008040201010204081020408001020408A1
:100240001020408000000A0B02090C0D0E08070365
:100250000401000000000000000000000000000099
:10026000000000000000000000000000000000008E
:10027000121110000000000000000000000000004B
:1002800000000000000000000000660D11241FBEE9
:10029000CFEFD1E2DEBFCDBF00E00CBF13E0A0E0A6
:1002A000B2E0E8EBFFE100E00BBF02C007900D9267
:1002B000A43FB107D9F72BE0A4EFB3E001C01D9232
:1002C000A436B207E1F711E0C6E4D1E000E006C0D1
:1002D00021970109802FFE010E94C10FC534D1076B
:1002E00080E00807A9F7B0D70C94DA0F89CECF9237
:1002F000DF92EF92FF920F931F93CF93DF936C01E6
:100300007A018B01C0E0D0E0CE15DF0589F0D8017D
:100310006D918D01D601ED91FC910190F081E02D60
:10032000C6011995892B11F47E0102C02196ECCFEC
:10033000C701DF91CF911F910F91FF90EF90DF9058
:10034000CF900895FC01538D448D252F30E0842FEC
:1003500090E0821B930B541710F0CF9608950197ED
:100360000895FC01918D828D981761F0828DDF01D7
:10037000A80FB11D5D968C91928D9F5F9F73928F98
:1003800090E008958FEF9FEF0895FC01918D828D8D
:10039000981731F0828DE80FF11D858D90E008955A
:1003A0008FEF9FEF0895FC01918D228D892F90E0B2
:1003B000805C9F4F821B91098F739927089588E86D
:1003C00094E0F1DF21E0892B09F420E0822F0895E9
:1003D000FC01848DDF01A80FB11DA35ABF4F2C91E2
:1003E000848D90E001968F739927848FA689B789B1
:1003F0002C93A089B1898C9180648C93938D848D8A
:10040000981306C00288F389E02D80818F7D808358
:100410000895EF92FF920F931F93CF93DF93EC0118
:1004200081E0888F9B8D8C8D981305C0E889F989B0
:10043000808185FD23C0F62E0B8D10E00F5F1F4FCE
:100440000F731127E02E8C8DE8120BC00FB607FC3E
:10045000FACFE889F989808185FFF5CFCE01B8DF31
:10046000F2CF8B8DFE01E80FF11DE35AFF4FF082B2
:100470000B8FEA89FB898081806207C0EE89FF8942
:100480006083E889F98980818064808381E090E0DD
:10049000DF91CF911F910F91FF90EF900895CF932F
:1004A000DF93EC01888D8823C1F0EA89FB89808184
:1004B00085FD05C0A889B9898C9186FD0EC00FB64F
:1004C00007FCF5CF808185FFF2CFA889B9898C918F
:1004D00085FFEDCFCE017CDFE8CFDF91CF9108958E
:1004E00080E090E0892B19F06ADF811125C080E05F
:1004F00090E0892B41F080E090E0892B21F00E9470
:10050000000081111CC080E090E0892B41F080E068
:1005100090E0892B21F00E940000811113C080E03F
:1005200090E0892BA1F080E090E0892B81F00E947F
:10053000000081110AC008950E940000D8CF0E94D7
:100540000000E1CF0E940000EACF0C940000089563
:1005500090E0FC013197E231F10508F04EC08827A8
:10056000EE58FF4F8F4F0C94C10F809180008F7712
:1005700003C0809180008F7D8093800008958091DA
:100580008000877FF9CF84B58F7702C084B58F7DD7
:1005900084BD08958091B0008F7703C08091B00032
:1005A0008F7D8093B0000895809190008F7707C071
:1005B000809190008F7D03C080919000877F809311
:1005C000900008958091A0008F7707C08091A000CF
:1005D0008F7D03C08091A000877F8093A000089545
:1005E000809120018F7707C0809120018F7D03C00B
:1005F00080912001877F8093200108953FB7F89470
:100600008091400490914104A0914204B091430430
:1006100026B5A89B05C02F3F19F00196A11DB11D5D
:100620003FBFBA2FA92F982F8827820F911DA11D98
:10063000B11DBC01CD0142E0660F771F881F991FD5
:100640004A95D1F708958F929F92AF92BF92CF9221
:10065000DF92EF92FF926B017C01D0DF4B015C01D6
:10066000C114D104E104F104E9F0C8DFDC01CB01DD
:1006700088199909AA09BB09883E9340A105B105CB
:1006800078F321E0C21AD108E108F10888EE880E5B
:1006900083E0981EA11CB11CC114D104E104F10433
:1006A00021F7DECFFF90EF90DF90CF90BF90AF901B
:1006B0009F908F90089585ED8093BC008091BC0041
:1006C00084FDFCCF10922705089540911604262F33
:1006D00030E0240F311D21323105DCF42091270553
:1006E0002430C9F4FC0180E090E0861758F4309182
:1006F00016042191DC01AC50BC4FA30FB11D2C930B
:100700000196F3CF80911604680F6093160480E081
:10071000089581E0089582E008950895E0912B0501
:1007200080912A05E81730F4F0E0E859FB4F80810A
:1007300090E008958FEF9FEF089590912B058091A1
:100740002A05981750F4E92FF0E0E859FB4F208173
:1007500030E09F5F90932B0502C02FEF3FEFC90160
:10076000089580912A0590E020912B05821B910924
:100770000895CF93DF931F921F92CDB7DEB7CB01C1
:10078000642F49835A83A1DF4981842F5A81952F91
:100790000F900F90DF91CF910895CF93DF931F9229
:1007A000CDB7DEB7698361E0CE0101968EDF81E0CF
:1007B00090E00F90DF91CF910895089580E090E050
:1007C00008950E94C90F1F920F920FB60F92112425
:1007D0000BB60F922F933F934F935F936F937F933B
:1007E0008F939F93AF93BF93EF93FF9388E894E029
:1007F000EFDDFF91EF91BF91AF919F918F917F912D
:100800006F915F914F913F912F910F900BBE0F9081
:100810000FBE0F901F9018951F920F920FB60F9258
:1008200011240BB60F922F938F939F93EF93FF9307
:10083000E0919804F09199048081E0919E04F091F8
:100840009F0482FD12C090818091A1048F5F8F73FD
:100850002091A204821751F0E091A104F0E0E85742
:10086000FB4F958F8093A10401C08081FF91EF9190
:100870009F918F912F910F900BBE0F900FBE0F90F5
:100880001F9018951F93CF93DF93282F30E0F90125
:10089000EC5BFD4F8491F901E250FE4FD491F901D8
:1008A000E854FE4FC491CC23C1F0162F811150DEC5
:1008B000EC2FF0E0EE0FFF1FEC57FE4FA591B49127
:1008C0008FB7F894111105C09C91ED2FE095E923A5
:1008D00002C0EC91ED2BEC938FBFDF91CF911F9174
:1008E0000895CF93DF9390E0FC01E250FE4F2491F6
:1008F000FC01E854FE4F8491882361F190E0880F59
:10090000991FFC01E659FE4FC591D491FC01EC57AB
:10091000FE4FA591B491611109C09FB7F8948881E9
:10092000209582238883EC912E230BC0623061F4E2
:100930009FB7F8943881822F809583238883EC9128
:100940002E2B2C939FBF06C08FB7F894E8812E2BD7
:1009500028838FBFDF91CF9108952FB7F8946091CE
:100960003C0470913D0480913E0490913F042FBF60
:1009700008951F920F920FB60F9211242F933F9359
:100980008F939F93AF93BF9380913C0490913D04CC
:10099000A0913E04B0913F0430913B0423E0230F2B
:1009A0002D3720F40196A11DB11D05C026E8230FA7
:1009B0000296A11DB11D20933B0480933C049093AB
:1009C0003D04A0933E04B0933F0480914004909175
:1009D0004104A0914204B09143040196A11DB11DB0
:1009E0008093400490934104A0934204B093430445
:1009F000BF91AF919F918F913F912F910F900FBE1B
:100A00000F901F9018951F920F920FB60F921124FE
:100A10000BB60F922F933F934F935F936F937F93F8
:100A20008F939F93AF93BF93EF93FF938091B90000
:100A3000887F803609F49CC068F5883209F45BC071
:100A400090F4803109F454C038F4882309F4F6C0D6
:100A5000883009F44DC0F5C0883109F44CC08032AB
:100A600009F45DC0EEC0803409F468C048F48033F6
:100A700009F455C0883309F0E4C080936704D8C0F6
:100A8000803509F44FC0883509F45DC0883409F019
:100A9000D8C0D6C0883909F4C7C0A8F4883709F48B
:100AA00067C038F4883609F463C0803709F460C041
:100AB000C8C0883809F4B8C0803909F45FC08038EC
:100AC00009F0BFC05BC0803B09F486C038F4803AAF
:100AD00009F466C0883A09F47FC0B3C0803C09F4C9
:100AE000A7C0883C09F4A4C0883B09F48AC0A9C007
:100AF0008091640410C090916604809165049817F9
:100B000070F5E091660481E08E0F80936604F0E05A
:100B1000EC5BFB4F80818093BB0085EC86C08093AB
:100B200067048EC0E091660481E08E0F80936604B6
:100B30008091BB00F0E0EC5BFB4F808390916604FA
:100B4000809165046EC0E091660481E08E0F809311
:100B500066048091BB00F0E0EC5BFB4F80838091EA
:100B6000260581116DC081E08093250584EA61C06E
:100B700083E08093270510923A04CFCF80913A0406
:100B8000803208F051C0E0913A0481E08E0F8093EA
:100B90003A048091BB00F0E0E65EFB4F8083BDCF5E
:100BA00085EC8093BC001092270580913A04803236
:100BB00030F4E0913A04F0E0E65EFB4F1082609181
:100BC0003A0470E0E0911804F09119048AE194E08D
:100BD000199510923A0435C084E08093270510924D
:100BE000170410921604E0911404F091150419955D
:100BF00080911604811105C081E080931604109243
:100C0000F403E091170481E08E0F80931704F0E065
:100C1000EC50FC4F80818093BB0090911704809131
:100C20001604981708F479CF85E88093BC0009C0B2
:100C300085EC8093BC001092270503C010926704D6
:100C40003ADDFF91EF91BF91AF919F918F917F918D
:100C50006F915F914F913F912F910F900BBE0F902D
:100C60000FBE0F901F901895CF93DF93EC0161E0BA
:100C700083E037DE209711F460E004C0CF3FD10558
:100C800029F461E083E0DF91CF91FCCDE7E4F2E06D
:100C9000E4918E2F90E0FC013197E231F10508F0EC
:100CA0009DC08827ED55FF4F8F4F0C94C10F84B521
:100CB000806884BDC7BD97C084B5806284BDC8BD4F
:100CC00092C080918000806880938000D0938900DA
:100CD000C093880088C080918000806280938000EB
:100CE000D0938B00C0938A007EC080918000886082
:100CF00080938000D0938D00C0938C0074C080914D
:100D0000B00080688093B000C093B3006CC0809145
:100D1000B00080628093B000C093B40064C0809142
:100D20009000806880939000D0939900C0939800C1
:100D30005AC080919000806280939000D0939B0075
:100D4000C0939A0050C0809190008860809390007A
:100D5000D0939D00C0939C0046C08091A000806805
:100D60008093A0008091A0008F7B8093A000D093FF
:100D7000A900C093A80037C08091A0008062809332
:100D8000A000D093AB00C093AA002DC08091A0001A
:100D900088608093A000D093AD00C093AC0023C0C6
:100DA00080912001806880932001D0932901C09315
:100DB000280119C080912001806280932001D09386
:100DC0002B01C0932A010FC080912001886080937D
:100DD0002001D0932D01C0932C0105C0C038D1054E
:100DE0000CF04FCF49CFDF91CF910895009761F07C
:100DF000FC0101900020E9F73197AF01481B590B26
:100E0000BC0188E894E073CA80E090E00895CF9335
:100E1000DF93ECDFEC0189EE92E0E8DF8C0F9D1FA1
:100E2000DF91CF9108950F931F9390917505809155
:100E30007405992331F081111CC081E08093740501
:100E400018C0811142C089DD6093760570937705E3
:100E5000809378059093790581E080937505809360
:100E6000740584E190E000DF80EE93E01F910F9124
:100E7000CECF73DD0091760510917705209178052E
:100E800030917905DC01CB01801B910BA20BB30BD8
:100E900000917A0510917B0520917C0530917D05AC
:100EA000081719072A073B0780F410927505E0918F
:100EB0007205F0917305EE0FFF1FE058FA4F808125
:100EC0009181D2DE85ED93E0D1CF1F910F910895EE
:100ED0000F931F93CF93DF93FC01DC010D90002053
:100EE000E9F7CD0148978E179F0709F060C088E1A8
:100EF00092E0EF01DF010D900020E9F71197AE1BA2
:100F0000BF0B9E012E1B3F0B2A173B0728F429918C
:100F1000DC012D93CD01EECF818180933002DF0182
:100F20001296C3E3D2E08F010A5F1F4F8D91899320
:100F3000A017B107D9F7EF011092370283E392E0CF
:100F40009ED79093320280933102A8E3B2E0FE0173
:100F50007296E80189918E018D93CE17DF07C9F74C
:100F60001092440220913802822F022E000C990B1D
:100F7000C0970A9710F02D3261F488E392E09CD775
:100F80006093450270934602809347029093480213
:100F90000BC08FEF9FEFDC018093450290934602D8
:100FA000A0934702B093480288EC90E002C081E928
:100FB00091E090934A0280934902DF91CF911F9173
:100FC0000F9108950F931F93CF93DF938091700536
:100FD000882329F0DF91CF911F910F91BECC809192
:100FE00027058111FCCF81E080932705809326059A
:100FF0009FEF909367041092660493E090936504CA
:10100000809364048091640484608093640480917C
:101010002505813061F41092250580916404809348
:10102000BB008091BC0083FDF8CF85EC01C085EE4C
:101030008093BC00809127058130E1F380916604A4
:10104000843018F48091660401C084E0A4E4B4E024
:1010500028E634E0F9019E2F921B981718F49D9111
:101060009193F9CF10922B0580932A05882319F1CB
:1010700088E59BE062DBD82F88E59BE05EDB182FDC
:1010800088E59BE05ADBC82F88E59BE056DB412FC3
:1010900050E060E070E05D2B762F652F542F4427E1
:1010A0004C2B762F652F542F44278A019B01082B48
:1010B000C901B80104C061E070E080E090E0DF9118
:1010C000CF911F910F9108958F929F92AF92BF92EF
:1010D0000F931F93CF93DF93CDB7DEB7A1970FB6D2
:1010E000F894DEBF0FBECDBF19A2423008F44AE02B
:1010F0008E010F5D1F4F842E912CA12CB12CA501C8
:1011000094011DD7E62FB901CA0101501109EA3037
:1011100014F4E05D01C0E95CD801EC93232B242B8F
:10112000252B69F7C80162DEA1960FB6F894DEBFE1
:101130000FBECDBFDF91CF911F910F91BF90AF90A8
:101140009F908F900895E0918804F0918904019018
:10115000F081E02D682F88E894E01994CF92DF9217
:10116000EF92FF92CF93DF936C01990FEE08FF0887
:10117000F7FE10C08DE2E7DFEC0166277727CB0191
:101180006C197D098E099F094AE09EDF7C01EC0EF7
:10119000FD1E05C04AE0C701B60196DF7C0189EE5D
:1011A00092E024DE8E0D9F1DDF91CF91FF90EF9096
:1011B000DF90CF9008951ACECF92DF92EF92FF92F8
:1011C000CF93DF936C01990FEE08FF08F7FE15C06F
:1011D0008DE2B9DFEC0166277727CB016C197D0919
:1011E0008E099F094AE070DF8C0F9D1FDF91CF9120
:1011F000FF90EF90DF90CF9008954AE0C701B601CD
:10120000DF91CF91FF90EF90DF90CF905DCF88EE90
:1012100093E0D1DF8091300296DF8CEE93E0CBDF5C
:101220008091490290914A02C7DF8CEE93E0C3DFC0
:1012300088E392E0C0DF8CEE93E0BDDF8EEE93E0BA
:10124000BADF87EE92E0E3CD789484B5826084BD06
:1012500084B5816084BD85B5826085BD85B58160BA
:1012600085BD80916E00816080936E001092810038
:1012700080918100826080938100809181008160F3
:1012800080938100809180008160809380008091B4
:10129000B10084608093B1008091B0008160809340
:1012A000B0008091910082608093910080919100C4
:1012B0008160809391008091900081608093900084
:1012C0008091A10082608093A1008091A100816043
:1012D0008093A1008091A00081608093A000809104
:1012E000210182608093210180912101816080939E
:1012F00021018091200181608093200180917A00FA
:10130000846080937A0080917A00826080937A0072
:1013100080917A00816080937A0080917A00806861
:1013200080937A001092C100E0919804F0919904A2
:1013300082E08083E0919804F09199041082E0911A
:101340009404F09195041082E0919604F091970432
:1013500080E180831092A004E0919C04F0919D04B0
:1013600086E08083E0919A04F0919B048081806103
:101370008083E0919A04F0919B048081886080834F
:10138000E0919A04F0919B04808180688083E091D1
:101390009A04F0919B0480818F7D808388EC92E099
:1013A0000ADF64E670E080E090E04DD984ED92E0E1
:1013B00002DFC4E3D5E008EC10E093EA292E3324E1
:1013C000339488E894E00E94D301892B09F4C9C1C1
:1013D00088E894E00E94B10180934C058C3339F089
:1013E00020913205309133058E3379F0ADC198E10B
:1013F000FE0111929A95E9F78093340581E090E01F
:101400009093330580933205ACC1F901E45DFA4F46
:10141000808784E395E05CDD8091490290914A02E7
:10142000883C910509F08BC1E09130028E2FEE0FC0
:10143000990BAA0BBB0BFC01E154F109E831F10552
:1014400008F077C18827EC57FF4F8F4F9AC5BADD58
:101450006B017C01812C912C4DE050E068E372E03F
:10146000C40185569A4F99D5892B39F4E9E9F1E001
:10147000F0934A02E093490262C1F4E18F0E911C9D
:10148000811425E0920641F7EAE9F5E080E090E07A
:101490002081211109C024E1289FA001299F500D1E
:1014A000112421E030E00AC0019674968034910541
:1014B00079F730924A022092490241C1F901E40FC2
:1014C000F51FE656FA4FD901A050BE4FD7966C9142
:1014D00060832F5F3F4F2E30310581F744E1489FF5
:1014E0009001499F300D1124F901E656FA4F81E031
:1014F0008083C08AD18AE28AF38A1786168610937F
:101500004A02009349021BC18BE9C82E85E0D82E00
:10151000E12CF12C4DE050E068E372E0C6013DD5CE
:10152000892B79F484E18E9DF0018F9DF00D1124BB
:10153000E656FA4F80913102909132029787868762
:10154000DECF8FEFE81AF80A94E1C90ED11CE0E46F
:10155000EE16F104F9F684E991E0EDC033DD4AE0DE
:10156000B3DD89EE92E042DCEBC08CEE92E023DE4C
:1015700080913002E8DD85EF92E0D6C080913102A3
:10158000909132028932E3E29E0721F08A3293423F
:1015900019F1D5C08091450290914602A091470271
:1015A000B09148020097A105B10519F41092700599
:1015B000C6C081309105A105B10521F481E0809379
:1015C0007005BDC00297A105B10509F0B8C08091B2
:1015D0007005882399F3EACF8091450290914602E5
:1015E000A0914702B09148020097A105B10519F4F6
:1015F00010925105A4C081309105A105B10521F4D7
:1016000081E0809351059BC00297A105B10509F0C7
:1016100096C080915105882399F3EACF80913102D9
:101620009091320224E1289FF001299FF00D1124AE
:10163000E656FA4F108283C08FEF92E075C086E0C5
:1016400093E0E5DBBAE9EB2EB5E0FB2EF7018081F4
:1016500090E0B2DD8CE293E0AEDDF7016685778540
:1016600080E090E04AE030DD8DE293E0A4DDF70118
:1016700060897189828993894AE026DD89E393E054
:101680009ADD4701FFEF8F1A9F0A670122E4C20E1D
:10169000D11CF40181914F01811104C089EE92E0C7
:1016A0008ADD04C050DD8C149D0499F7F4E1EF0E3F
:1016B000F11C2AE9E2162AE0F20609F0C7CF40C081
:1016C0008EE393E031C0409031025090320285E4C5
:1016D00093E09DDBACE2EA2EABE0FA2E052C000C89
:1016E00066087708670161E0F7018081CBD8C30104
:1016F000B2010E94230360E0F7018081C3D8C301D7
:10170000B2010E94230388E593E055DDF2E0EF0E7D
:10171000F11CF6018081918121DDFCE4EF16FBE0F4
:10172000FF0601F781E693E072DB0AC08FE693E0E3
:10173000FBCF86E991E090934A028093490267DDEE
:1017400080E092E0C5DB1AC026313105B8F4F9011A
:10175000E45DFA4F80872F5F3F4F3093330520932E
:101760003205EAE58E2EE5E09E2EF2E5CF2EF5E07D
:10177000DF2EE12CF12C772473940AC088E1FE015E
:1017800011928A95E9F71092330510923205E9CF4C
:10179000F601808180933105F401219131914F014F
:1017A0003327F901EC5BFD4F8491F901E250FE4FC4
:1017B0006490F901E854FE4F54905520A1F0811136
:1017C0000E94A802E52DF0E0EE0FFF1FE256FE4F4B
:1017D000A591B491EC916E2231E020E009F430E063
:1017E000832F922F02C080E090E0282F2170F60115
:1017F00021936F01892B09F0A6C0809131058823C0
:1018000009F4A1C0AAD820912D0530912E05409150
:101810002F0550913005DC01CB01821B930BA40BEB
:10182000B50B833D9105A105B10508F48CC095D891
:1018300060932D0570932E0580932F0590933005AE
:10184000F7013197E730F10528F48827E456FF4F78
:101850008F4F97C380917205909173050196909375
:1018600073058093720520917E0530917F052817BE
:101870003907ACF4309373052093720510C0809142
:10188000720590917305019797FD05C090937305BC
:101890008093720504C010927305109272058091B6
:1018A0007405882379F08091750581110BC0E09152
:1018B0007205F0917305EE0FFF1FE058FA4F80811B
:1018C0009181D2D986E793E02BC08091710588235E
:1018D00021F01092710560E003C07092710561E023
:1018E00084E30E9442048EE793E065DC80917105F9
:1018F00090E01BC080917405882341F0109274051C
:101900001092750580E090E0AFD901C08CDA88E8CC
:1019100093E051DC8091740590E04EDC8FE893E019
:101920004ADC809172059091730518DC0CC088E93F
:1019300093E008C083EA93E005C08FEA93E002C019
:101940008BEB93E064DAFFEFEF1AFF0A28E0E21670
:10195000F10409F01DCF36DB2B013C015AE9E52EDD
:1019600055E0F52EF701C684D7848081882309F4D9
:1019700047C080899189A289B38953014201881A9D
:10198000990AAA0ABB0AF601EE0FFF1FEE0FFF1F0E
:10199000EA51F54F408151816281738180919A0AA9
:1019A00090919B0AA0919C0AB0919D0A840F951F6B
:1019B000A61FB71F88159905AA05BB0508F482C0A4
:1019C000481559056A057B05D8F4C114D104B1F056
:1019D0000E94AD04F601EE0FFF1FEE0FFF1FE2564F
:1019E000F54F6083718382839383F601EE0FFF1FAF
:1019F000E65DF44F61E080810E944204F7011082AD
:101A0000F4E1EF0EF11C2AE9E2162AE0F20609F0F1
:101A1000A9CF80917505811106DAD4DAC0906C05E2
:101A2000D0906D05E0906E05F0906F05C616D70654
:101A3000E806F90649F060936C0570936D05809394
:101A40006E0590936F0507C080912C05811103C02E
:101A500081E080932C058AE9C82E8AE0D82EE12CFB
:101A6000F12C0E94AD04F601448055806680778099
:101A70008090E20A9090E30AA090E40AB090E50A10
:101A8000840C951CA61CB71C86169706A806B906DA
:101A900060F460E0F701E65DF44F80810E9442044B
:101AA000F6011482158216821782F4E0CF0ED11C43
:101AB00022E0E20EF11C80E2E816F10491F60E94A9
:101AC00070027FCC89EC93E0A2D998CFFF920F935C
:101AD0001F93CF93DF9310928B0410928A0488EEA9
:101AE00093E0A0E0B0E080938C0490938D04A093E9
:101AF0008E04B0938F0428EA32E030938904209357
:101B0000880425EC30E0309395042093940424EC71
:101B100030E0309397042093960420EC30E030932B
:101B200099042093980421EC30E030939B04209397
:101B30009A0422EC30E030939D0420939C0426EC20
:101B400030E030939F0420939E041092A1041092E1
:101B5000A2041092A3041092A40410925B0B1092A2
:101B60005A0B80935C0B90935D0BA0935E0BB0932C
:101B70005F0B8AEB92E09093590B8093580B82E2B3
:101B8000EBE4F2E0AAE2BBE001900D928A95E1F766
:101B900088EC90E0A0E0B0E08093E20A9093E30A42
:101BA000A093E40AB093E50A8EE390E1A0E0B0E0F0
:101BB00080939A0A90939B0AA0939C0AB0939D0AE3
:101BC00085E29AE5A0E0B0E08093E60A9093E70A08
:101BD000A093E80AB093E90A4DE259E160E070E0B1
:101BE0004093EA0A5093EB0A6093EC0A7093ED0A73
:101BF0004093EE0A5093EF0A6093F00A7093F10A53
:101C00004BE659E260E070E04093F20A5093F30A29
:101C10006093F40A7093F50A4093F60A5093F70A1A
:101C20006093F80A7093F90A49EA59E360E070E0BA
:101C30004093FA0A5093FB0A6093FC0A7093FD0AE2
:101C40004093FE0A5093FF0A6093000B7093010BC0
:101C500047EE59E460E070E04093020B5093030BB1
:101C60006093040B7093050B4093060B5093070B86
:101C70006093080B7093090B80930A0B90930B0BE6
:101C8000A0930C0BB0930D0B80930E0B90930F0B46
:101C9000A093100BB093110B8093120B9093130B26
:101CA000A093140BB093150B8093160B9093170B06
:101CB000A093180BB093190B80931A0B90931B0BE6
:101CC000A0931C0BB0931D0B80931E0B90931F0BC6
:101CD000A093200BB093210B8093220B9093230BA6
:101CE000A093240BB093250B8093260B9093270B86
:101CF000A093280BB093290BCCE2DBE08E0161E0CE
:101D000088810E947104229660E0F80180810E941F
:101D10004204FBE0CC34DF0789F7CAE9D5E08DE067
:101D2000DE011D92EDE6F2E0982F01900D929A955A
:101D3000E1F71F861E86188A198A1A8A1B8A6496FA
:101D40009AE0CA39D90761F71092730510927205AB
:101D50001092740510927505109276051092770511
:101D6000109278051092790580ED97E0A0E0B0E040
:101D700080937A0590937B05A0937C05B0937D05B5
:101D80008CE090E090937F0580937E058AE1EAE7FE
:101D9000F2E0A0E8B5E001900D928A95E1F761E0EC
:101DA00084E30E9471041092710510926C051092E8
:101DB0006D0510926E0510926F05109270051092CD
:101DC0002B0510922A0510922905109228051092D1
:101DD0002705C1E0C09326051092250561E084E146
:101DE0000E94420461E085E10E9442048091B900B2
:101DF0008E7F8093B9008091B9008D7F8093B90068
:101E000088E48093B80085E48093BC00C0936A05A1
:101E100010924D0510924E0510924F0510925005EC
:101E20001092510580E1E4E9F2E0AAE5B5E0019005
:101E30000D928A95E1F710922C0510922D051092C3
:101E40002E0510922F0510923005C0933105CAE57A
:101E5000D5E002E515E0FF24F3948881229662E044
:101E60000E947104F801F1928F01F5E0CA36DF0794
:101E7000A1F7DF91CF911F910F91FF900895FC0181
:101E800088279927E89421912032E9F3293010F02E
:101E90002E30C8F32B3239F02D3231F4689403C060
:101EA00046D0820F911D219120532A30C8F31EF491
:101EB000909581959F4F08951F93FC01992788273E
:101EC000BC01E89411911032E9F3193010F01E3082
:101ED000C8F31B3249F01D3241F4689405C012D09A
:101EE000610F711D811D911D119110531A30B8F3AE
:101EF0003EF490958095709561957F4F8F4F9F4FE1
:101F00001F910895592F482F372F262F660F771FBF
:101F1000881F991F660F771F881F991F620F731FF5
:101F2000841F951F660F771F881F991F08957AE0F9
:101F3000979F902D879F802D910D11240895A1E2E8
:101F40001A2EAA1BBB1BFD010DC0AA1FBB1FEE1F33
:101F5000FF1FA217B307E407F50720F0A21BB30B7E
:101F6000E40BF50B661F771F881F991F1A9469F7FA
:101F700060957095809590959B01AC01BD01CF0156
:101F80000895EE0FFF1F881F8BBF0790F691E02D7D
:101F9000199481E090E0F8940DC0FB01DC0104C0CD
:101FA0008D910190801921F441505040C8F7881B51
:081FB000990B0895F894FFCF8E
:101FB8003C7A5A5A5A7A7A7A7A7A7A7A7A7A7A7A17
:101FC8007A7A4353554D3E003C7A5A5A5A7A7A7A6D
:101FD8007A7A7A7A7A7A7A7A7A7A4353554D3E00BF
:101FE8007A00007A000000007A000000000000007B
:101FF8000000000000FFFFFFFF9801000016001717
:1020080000180019001A001B001C001D001E001FEC
:10201800002000210022002300240025007A7A7A7B
:102028007A7A7A7A7A7A7A7A7A0014001E00280004
:1020380032003C004B0064007D009600AF00C800F1
:10204800E100FF0006000700080009000A000B0075
:102058000C000D000000000009027701A2014F02E8
:10206800D301B101C50100000000CD03B903DE03AF
:102078008D03B1039D038E035B42425F4F4E4C4973
:102088004E455D005B42656C74204275636B6C6500
:102098002076302E362E305D000D0A00436F6D6DB0
:1020A800616E64200020526563656976656400543A
:1020B8004F444F2058004F63632E2020203A2020A1
:1020C800202042696E202020203A202020204469C8
:1020D80073742020203A20202049640020202020EA
:1020E80020203A20202020200020203A2000544F91
:1020F800444F20530054657374696E67206F75747C
:10210800707574732E2E2E006F75747075743A2066
:10211800005465737420636F6D706C65746500544A
:102128004F444F20570073706565643A200062651C
:102138006C742069733A20004D6F64653A20002062
:1021480053706565643A2000627574746F6E5F72CF
:10215800756E00627574746F6E5F73746F70006271
:102168007574746F6E5F62656C7400627574746FF9
:102178006E5F666565646572004C6F7374206120DC
:10218800706172740066756C6C20737065656400AC
:1021980073746172747570005B41434B2D00435337
:0421A800554D000091
:020000023000CC
:10E000000D9489F10D94B2F10D94B2F10D94B2F129
:10E010000D94B2F10D94B2F10D94B2F10D94B2F1F0
:10E020000D94B2F10D94B2F10D94B2F10D94B2F1E0
:10E030000D94B2F10D94B2F10D94B2F10D94B2F1D0
:10E040000D94B2F10D94B2F10D94B2F10D94B2F1C0
:10E050000D94B2F10D94B2F10D94B2F10D94B2F1B0
:10E060000D94B2F10D94B2F10D94B2F10D94B2F1A0
:10E070000D94B2F10D94B2F10D94B2F10D94B2F190
:10E080000D94B2F10D94B2F10D94B2F10D94B2F180
:10E090000D94B2F10D94B2F10D94B2F10D94B2F170
:10E0A0000D94B2F10D94B2F10D94B2F10D94B2F160
:10E0B0000D94B2F10D94B2F10D94B2F10D94B2F150
:10E0C0000D94B2F10D94B2F10D94B2F10D94B2F140
:10E0D0000D94B2F10D94B2F10D94B2F10D94B2F130
:10E0E0000D94B2F141546D656761323536300041AF
:10E0F000726475696E6F206578706C6F72657220DE
:10E1000073746B3530305632206279204D4C530099
:10E11000426F6F746C6F616465723E004875683F52
:10E1200000436F6D70696C6564206F6E203D200048
:10E130004350552054797065202020203D20005FF9
:10E140005F4156525F415243485F5F3D2000415658
:10E1500052204C696243205665723D20004743437C
:10E160002056657273696F6E203D20004350552024
:10E1700049442020202020203D20004C6F7720663D
:10E18000757365202020203D20004869676820665F
:10E190007573652020203D200045787420667573D6
:10E1A00065202020203D20004C6F636B2066757336
:10E1B000652020203D20004D617220203720323024
:10E1C000313300312E362E3800342E332E350056A2
:10E1D00023202020414444522020206F7020636F70
:10E1E00064652020202020696E73747275637469E1
:10E1F0006F6E2061646472202020496E74657272B3
:10E20000757074006E6F20766563746F7200726A49
:10E210006D702020006A6D70200057686174207056
:10E220006F72743A00506F7274206E6F7420737541
:10E2300070706F72746564004D7573742062652030
:10E2400061206C6574746572002000577269747483
:10E25000696E672045450052656164696E672045B7
:10E26000450045452065727220636E743D00504F35
:10E27000525400303D5A65726F2061646472003FF1
:10E280003D43505520737461747300403D454550C3
:10E29000524F4D207465737400423D426C696E6B41
:10E2A000204C454400453D44756D70204545505215
:10E2B0004F4D00463D44756D7020464C415348001B
:10E2C000483D48656C70004C3D4C69737420492F83
:10E2D0004F20506F72747300513D51756974005234
:10E2E0003D44756D702052414D00563D73686F7707
:10E2F00020696E7465727275707420566563746FF0
:10E30000727300593D506F727420626C696E6B00BD
:10E310002A0011241FBECFEFD1E2DEBFCDBF01E046
:10E320000CBF12E0A0E0B2E0EEE1FDEF03E00BBFB6
:10E3300002C007900D92A030B107D9F712E0A0E01B
:10E34000B2E001C01D92AE30B107E1F70F9460F367
:10E350000D948DFE01E20EBF0FEF0DBF11241FBE05
:10E360000D9460F30D9400F020E030E040ED57E0B4
:10E3700005C0FA013197F1F72F5F3F4F2817390792
:10E38000C0F308959C01260F311DC901A0E0B0E043
:10E390002F5F3F4FABBFFC018791882361F08093D3
:10E3A000C6008091C00086FFFCCF8091C0008064D1
:10E3B0008093C000EACF08958DE08093C6008091DD
:10E3C000C00086FFFCCF8091C00080648093C000B5
:10E3D0008AE08093C6008091C00086FFFCCF8091C8
:10E3E000C00080648093C00008950F94C2F10F9420
:10E3F000DCF10895FC019081992359F09093C600B7
:10E400008091C00086FFFCCF8091C0008064809323
:10E41000C0003196992379F70895282F982F929567
:10E420009F70892F805D8A3308F0895F8093C600D2
:10E430008091C00086FFFCCF8091C00080648093F3
:10E44000C000822F8F70982F905D9A3308F0995FEB
:10E450009093C6008091C00086FFFCCF8091C000E1
:10E4600080648093C00008959C01FB01853691056E
:10E470001CF46330710594F0C90164E670E00F94F8
:10E480002EFE605D7F4F6093C6008091C00086FFC6
:10E49000FCCF8091C00080648093C0002B30310598
:10E4A00014F43297B4F0C90164E670E00F942EFEC4
:10E4B0006AE070E00F942EFE605D7F4F6093C600AF
:10E4C0008091C00086FFFCCF8091C0008064809363
:10E4D000C000C9016AE070E00F942EFEC0968093E0
:10E4E000C6008091C00086FFFCCF8091C000806490
:10E4F0008093C00008951F93182F8EE692EE60E07F
:10E500000F94C2F11093C6008091C00086FFFCCF2B
:10E510008091C00080648093C0000F94DCF11F9153
:10E5200008952F923F924F925F926F927F928F92B7
:10E530009F92AF92BF92CF92DF92EF92FF920F9392
:10E540001F93DF93CF93CDB7DEB762970FB6F894E2
:10E55000DEBF0FBECDBF382E622ECA01DB015C01CB
:10E560006D01772420E2222E2E010894411C511CBB
:10E570008BC081E0A81680E0B80681E0C80680E084
:10E58000D80628F0C601AA27BB270F940DF2BB2797
:10E59000AD2D9C2D8B2D0F940DF28A2D0F940DF225
:10E5A0002092C6008091C00086FFFCCF8091C00001
:10E5B00080648093C0009DE29093C6008091C0006B
:10E5C00086FFFCCF8091C00080648093C0002092C1
:10E5D000C6008091C00086FFFCCF8091C00080649F
:10E5E0008093C00019828601750188249924A1E0D6
:10E5F0003A1651F03A1620F0B2E03B1661F409C029
:10E600000BBFF701779007C0C7010F9477FE782EF4
:10E6100002C0F7017080872D0F940DF22092C60082
:10E620008091C00086FFFCCF8091C0008064809301
:10E63000C000872D8052F401EF70F0708F3520F408
:10E64000E40DF51D708204C0E40DF51D8EE280839B
:10E650000894E11CF11C011D111D0894811C911CE2
:10E6600090E18916910409F0C2CF80E190E0A0E02A
:10E67000B0E0A80EB91ECA1EDB1E198AC2010F9493
:10E68000FAF10F94DCF16A94662009F072CF629679
:10E690000FB6F894DEBF0FBECDBFCF91DF911F91B3
:10E6A0000F91FF90EF90DF90CF90BF90AF909F9031
:10E6B0008F907F906F905F904F903F902F90089534
:10E6C0002F923F924F925F926F927F928F929F9282
:10E6D000AF92BF92CF92DF92EF92FF920F931F9370
:10E6E000DF93CF93CDB7DEB7CD53D1400FB6F894BB
:10E6F000DEBF0FBECDBF01E20EBF0FEF0DBF94B75F
:10E70000F894A89514BE80916000886180936000A1
:10E7100010926000789493FF05C0E0910002F091A0
:10E7200001021995279A2F9A8091C00082608093E8
:10E73000C00080E18093C40088E18093C1000000A4
:10E74000EE24FF24870144E0A42EB12CCC24DD2448
:10E7500024C0C5010197F1F70894E11CF11C011DCB
:10E76000111D21E2E2162EE4F20620E0020720E06D
:10E77000120718F031E0C32ED12CC801B70127ECE5
:10E780003BE140E050E00F9441FE611571058105C9
:10E79000910519F485B1805885B98091C00087FD35
:10E7A00003C0C114D104A9F2A6014F5F5F4FC25E3E
:10E7B000DE4F59834883CE51D140C25EDE4F8881FF
:10E7C0009981CE51D140019711F00D9410FEC05D9A
:10E7D000DE4F19821882C053D14060E0C15DDE4F28
:10E7E0001882CF52D14088249924C35DDE4F19820C
:10E7F0001882CD52D140C05EDE4F188219821A8233
:10E800001B82C052D140CE5CDE4F188219821A8220
:10E810001B82C253D140EE24FF2487010BBFF701B6
:10E8200007911691C45CDE4F19830883CC53D14005
:10E830000D940BFEC25EDE4F28813981CE51D1404E
:10E840002130310509F52091C600C25EDE4F1982E4
:10E850001882CE51D14022C02F5F3F4F4F4F5F4FA4
:10E86000213082E138078AE7480780E0580780F0C6
:10E87000C45CDE4FE881F981CC53D140EF5FFF4F9C
:10E8800019F0EE27FF27099420E030E040E050E047
:10E890008091C00087FFE0CF2091C600C35DDE4FAE
:10E8A00048815981CD52D1404F5F5F4FC35DDE4FEC
:10E8B00059834883CD52D140213209F063C64A3092
:10E8C000510508F05FC60894811C911C53E0851621
:10E8D000910409F059C600E010E018C081E280936D
:10E8E000C6008091C00086FFFCCF8091C00080648C
:10E8F0008093C0002F5F3F4F2931310579F70F9486
:10E90000DCF10F5F1F4F0530110519F020E030E0FA
:10E91000E5CF10920A0210920B0210920C02109294
:10E920000D02109206021092070210920802109235
:10E930000902109202021092030210920402109235
:10E9400005028FEE90EE60E00F94F5F180E191EE1C
:10E9500060E00F94C2F18091C00087FFFCCF9091DE
:10E96000C600903608F09F759032B8F09093C600BC
:10E970008091C00086FFFCCF8091C00080648093AE
:10E98000C000A0E2A093C6008091C00086FFFCCF2B
:10E990008091C00080648093C000983409F4D7C18E
:10E9A0009934B8F4923409F459C1933458F490333B
:10E9B00019F1903308F4E3C59F33A1F1903409F0C5
:10E9C000DEC5BDC0953409F470C1963409F0D7C5D1
:10E9D00098C1923509F42BC2933538F49C3409F46C
:10E9E000F5C1913509F0CBC518C2963509F445C279
:10E9F000993509F0C4C567C483E792EE62E00F94CD
:10EA0000F5F110920602109207021092080210927D
:10EA1000090210920A0210920B0210920C0210923C
:10EA20000D0213C18FE792EE62E00F94F5F18FEEC5
:10EA300090EE60E00F94F5F181E291EE60E00F94CA
:10EA4000C2F187EB91EE60E00F94F5F180E391EE77
:10EA500060E00F94C2F184EE90EE60E00F94F5F167
:10EA60008FE391EE60E00F94C2F186E090E061E008
:10EA700070E00F9434F20F94DCF18DE591EE60E0DC
:10EA80000F94C2F189EC91EE60E00F94F5F18EE401
:10EA900091EE60E00F94C2F183EC91EE60E00F9490
:10EAA000F5F18CE691EE60E00F94C2F18EE10F94E7
:10EAB0000DF288E90F940DF281E00F940DF20F949E
:10EAC000DCF18BE791EE60E00F94C2F119E0E0E039
:10EAD000F0E010935700E4918E2F0F940DF20F94F5
:10EAE000DCF18AE891EE60E00F94C2F1E3E0F0E03F
:10EAF00010935700E4918E2F0F940DF20F94DCF1D8
:10EB000089E991EE60E00F94C2F1E2E0F0E0109349
:10EB10005700E4918E2F0F940DF20F94DCF188EAE8
:10EB200091EE60E00F94C2F1E1E0F0E01093570045
:10EB30001491812F0F940DF20F94DCF107CF8BE825
:10EB400092EE62E00F94F5F18BE492EE60E00F94A8
:10EB5000F5F10F94DCF100E010E019C0C8016F2D51
:10EB60000F947FFEFF2031F489E492EE60E00F9471
:10EB7000C2F10BC0F092C6008091C00086FFFCCFAE
:10EB80008091C00080648093C0000F5F1F4FC80158
:10EB900081519F41A0E0B0E0ABBFFC01F790BAE229
:10EBA000FB1621F0E2E000301E07C1F60F94DCF105
:10EBB0000F94DCF187E592EE60E00F94F5F10F948D
:10EBC000DCF1CC24DD2400E010E01EC0C8010F946D
:10EBD00077FEF82E882331F489E492EE60E00F94FA
:10EBE000C2F10BC08093C6008091C00086FFFCCFAD
:10EBF0008091C00080648093C000FE1419F00894D6
:10EC0000C11CD11C0F5F1F4FC80181519F41A0E063
:10EC1000B0E0ABBFFC01E790FAE2EF1621F022E092
:10EC20000030120799F60F94DCF10F94DCF182E6C4
:10EC300092EE60E00F94C2F1C60161E070E00F94C3
:10EC400034F20F94DCF10F94DCF110920202109276
:10EC50000302109204021092050278CE89E992EE26
:10EC600062E00F94F5F1279A2F9A16C02F9880E052
:10EC700090E0E0EDF7E03197F1F7019684369105E9
:10EC8000C1F72F9A80E090E0E0EDF7E03197F1F7DF
:10EC9000019684369105C1F78091C00087FFE6CFC9
:10ECA0008091C00087FFFCCF64C485EA92EE62E0E9
:10ECB0000F94F5F140910202509103026091040219
:10ECC0007091050281E020E10F9491F2809102029F
:10ECD00090910302A0910402B091050280509F4FD1
:10ECE000AF4FBF4F8093020290930302A0930402A0
:10ECF000B093050280509041A040B04008F426CE69
:10ED0000A4CF83EB92EE62E00F94F5F140910602FE
:10ED100050910702609108027091090280E020E1A1
:10ED20000F9491F28091060290910702A09108023F
:10ED3000B091090280509F4FAF4FBF4F80930602A2
:10ED400090930702A0930802B0930902FFCD80ECD4
:10ED500092EE62E00F94F5F183E792EE60E00F949B
:10ED6000F5F18FE792EE60E00F94F5F18BE892EE0B
:10ED700060E00F94F5F189E992EE60E00F94F5F10F
:10ED800085EA92EE60E00F94F5F183EB92EE60E09D
:10ED90000F94F5F180EC92EE60E00F94F5F187ECC2
:10EDA00092EE60E00F94F5F188ED92EE60E00F9442
:10EDB000F5F18FED92EE60E00F94F5F18AEE92EEB0
:10EDC00060E00F94F5F183E093EEBDCD87EC92EE19
:10EDD00062E00F94F5F181E40F947BF282E40F94EA
:10EDE0007BF283E40F947BF284E40F947BF285E45E
:10EDF0000F947BF286E40F947BF287E40F947BF20E
:10EE000088E40F947BF28AE40F947BF28BE40F94F6
:10EE10007BF28CE40F947BF299CD88ED92EE62E068
:10EE20000F94F5F1772473948824992409C48FED05
:10EE300092EE62E00F94F5F140910A0250910B02BC
:10EE400060910C0270910D0282E020E10F9491F22A
:10EE500080910A0290910B02A0910C02B0910D02D8
:10EE600080509F4FAF4FBF4F80930A0290930B0289
:10EE7000A0930C02B0930D0269CD8AEE92EE62E08F
:10EE80000F94F5F184EE90EE60E00F94F5F18FECC5
:10EE900091EE60E00F94F5F1662477244301CC5D98
:10EEA000DE4F19821882C452D140D401C301B695F5
:10EEB000A79597958795CA5DDE4F88839983AA8326
:10EEC000BB83C652D140CC5DDE4FA881B981C4520C
:10EED000D1401196CC5DDE4FB983A883C452D14096
:10EEE000CD0162E070E00F9434F2B0E2B093C6005E
:10EEF0008091C00086FFFCCF8091C0008064809329
:10EF0000C000EDE2E093C6008091C00086FFFCCF18
:10EF10008091C00080648093C000F0E2F093C6004E
:10EF20008091C00086FFFCCF8091C00080648093F8
:10EF3000C000CA5DDE4FE880F9800A811B81C6529D
:10EF4000D140BB27A12F902F8F2D0F940DF2CA5DBA
:10EF5000DE4F8881C652D1400F940DF2B0E2FB2EF5
:10EF6000F092C6008091C00086FFFCCF8091C00067
:10EF700080648093C0000DE30093C6008091C000C0
:10EF800086FFFCCF8091C00080648093C00010E2B7
:10EF90001093C6008091C00086FFFCCF8091C00016
:10EFA00080648093C0008BBEF3012791C65DDE4F65
:10EFB0002883CA52D140A22EBB24CC24DD2408943D
:10EFC000611C711C811C911C8BBEF3018791282E42
:10EFD0003324442455240894611C711C811C911C09
:10EFE0008BBEF3013791C55DDE4F3883CB52D140E4
:10EFF0000894611C711C811C911C8BBEF30147910C
:10F00000C45DDE4F4883CC52D140ADEFEA2EAFEF66
:10F01000FA2EAFEF0A2FAFEF1A2F6E0C7F1C801E57
:10F02000911E142D032DF22CEE24EA0CFB1C0C1D5A
:10F030001D1D0F940DF220E22093C6008091C000A8
:10F0400086FFFCCF8091C00080648093C000C65DC5
:10F05000DE4F8881CA52D1400F940DF230E23093D6
:10F06000C6008091C00086FFFCCF8091C000806404
:10F070008093C000C45DDE4F8881CC52D1400F9494
:10F080000DF240E24093C6008091C00086FFFCCFA5
:10F090008091C00080648093C000C55DDE4F888190
:10F0A000CB52D1400F940DF250E25093C6008091A4
:10F0B000C00086FFFCCF8091C00080648093C000B8
:10F0C0008FEFE8168FEFF80680E0080780E018075A
:10F0D00031F484E092EE60E00F94C2F1DFC0D80119
:10F0E000C7018070907CA070B0708050904CA040A0
:10F0F000B040D1F52FEF3FE340E050E0E222F322B1
:10F1000004231523CA5DDE4FA880B980CA80DB8046
:10F11000C652D140AE0CBF1CC01ED11EAA0CBB1CD7
:10F12000CC1CDD1C8EE092EE60E00F94C2F1BB2798
:10F13000A12F902F8F2D0F940DF28E2D0F940DF285
:10F1400030E23093C6008091C00086FFFCCF8091F2
:10F15000C00080648093C0004EE34093C60080915D
:10F16000C00086FFFCCF87C08EE09EEFA0E0B0E03D
:10F17000E822F9220A231B239CE0E91694E9F90608
:10F1800090E0090790E0190709F088C0C45DDE4FE0
:10F19000A881CC52D140EA2EFF2400E010E0102FCD
:10F1A0000F2DFE2CEE24C55DDE4FB881CB52D14031
:10F1B000EB0EF11C011D111DD601C501817090706F
:10F1C000A070B070DC0199278827E80EF91E0A1F8D
:10F1D0001B1F20EF30E040E050E0A222B322C42207
:10F1E000D52241E1AA0CBB1CCC1CDD1C4A95D1F7F1
:10F1F000EA0CFB1C0C1D1D1D81E090E0A0E0B0E0BE
:10F20000282239224A225B2235E1220C331C441C7D
:10F21000551C3A95D1F7E20CF31C041D151D57013E
:10F220006801AA0CBB1CCC1CDD1C85E192EE60E0E1
:10F230000F94C2F1C801AA27BB270F940DF2BB2778
:10F24000A12F902F8F2D0F940DF28E2D0F940DF274
:10F2500090E29093C6008091C00086FFFCCF809121
:10F26000C00080648093C000AEE3A093C60080918C
:10F27000C00086FFFCCF8091C00080648093C000F6
:10F28000C601AA27BB270F940DF2BB27AD2D9C2DDD
:10F290008B2D0F940DF28A2D0F940DF20F94DCF14B
:10F2A000CC5DDE4FE881F981C452D140F99709F471
:10F2B0004DCBF4E0EF2EF12C012D112D6E0C7F1CA7
:10F2C000801E911EF2CD83E093EE62E00F94F5F183
:10F2D0008AE192EE60E00F94C2F18091C00087FF56
:10F2E000FCCF1091C6001F751093C6008091C0001E
:10F2F00086FFFCCF8091C00080648093C0000F9493
:10F30000DCF1812F81548A3108F036C1163409F4BA
:10F3100095C0173490F4133409F44EC0143430F40B
:10F320001134F1F0123409F01DC130C0143409F465
:10F3300059C0153409F016C16BC01A3409F4C4C0A1
:10F340001B3438F4173409F48FC0183409F00AC19B
:10F35000A1C01B3409F4D2C01C3409F003C1E8C0B9
:10F360008FEF81B90DC082B1809582B980E090E0C5
:10F37000E0EDF7E03197F1F70196883C9105C1F790
:10F380008091C00087FFEFCF12B8EFC08FEF84B934
:10F390000DC085B1809585B980E090E0E0EDF7E0A3
:10F3A0003197F1F70196883C9105C1F78091C00033
:10F3B00087FFEFCF15B8D9C08FEF87B90DC088B1DF
:10F3C000809588B980E090E0E0EDF7E03197F1F7C3
:10F3D0000196883C9105C1F78091C00087FFEFCF6F
:10F3E00018B8C3C08FEF8AB90DC08BB180958BB9A7
:10F3F00080E090E0E0EDF7E03197F1F70196883C8E
:10F400009105C1F78091C00087FFEFCF1BB8ADC059
:10F410008FEF8DB90DC08EB180958EB980E090E0F0
:10F42000E0EDF7E03197F1F70196883C9105C1F7DF
:10F430008091C00087FFEFCF1EB897C08FEF80BBD1
:10F440000DC081B3809581BB80E090E0E0EDF7E0F6
:10F450003197F1F70196883C9105C1F78091C00082
:10F4600087FFEFCF11BA81C08FEF83BB0DC084B38C
:10F47000809584BB80E090E0E0EDF7E03197F1F714
:10F480000196883C9105C1F78091C00087FFEFCFBE
:10F4900014BA6BC08FEF809301010FC080910201FD
:10F4A00080958093020180E090E0E0EDF7E03197F5
:10F4B000F1F70196883C9105C1F78091C00087FF64
:10F4C000EDCF1092020151C08FEF809304010FC065
:10F4D0008091050180958093050180E090E0E0ED4A
:10F4E000F7E03197F1F70196883C9105C1F78091DB
:10F4F000C00087FFEDCF1092050137C08FEF8093DA
:10F5000007010FC08091080180958093080180E079
:10F5100090E0E0EDF7E03197F1F70196883C910536
:10F52000C1F78091C00087FFEDCF109208011DC088
:10F530008FEF80930A010FC080910B01809580931B
:10F540000B0180E090E0E0EDF7E03197F1F70196F4
:10F55000883C9105C1F78091C00087FFEDCF1092E4
:10F560000B0103C085E292EEEEC98091C00087FFD7
:10F57000FCCF8091C600EAC988E392EEE4C98CE131
:10F5800091EEE1C988249924933011F1943028F444
:10F59000913089F09230B8F408C0953061F195301F
:10F5A000F0F0963009F048C043C02B3109F042C951
:10F5B00091E06BE13FC96227C15DDE4F2883CF52E6
:10F5C000D14092E037C9B22FA0E0622793E032C960
:10F5D000822F90E0A82BB92B622794E02BC92E3004
:10F5E00009F039C3622795E0C05DDE4F19821882A9
:10F5F000C053D1401FC9E1E0F0E0EC0FFD1FC05D3A
:10F60000DE4F08811981C053D140E00FF11F2083E4
:10F610000F5F1F4FC05DDE4F19830883C053D14079
:10F6200062270A171B0709F005C9D80196E002C92D
:10F63000261709F010C303C0973009F0FBC87724E0
:10F640009981933109F412C19431C8F4963009F4C8
:10F65000D8C0973050F4923009F406C1933009F4C1
:10F660006DC0913009F059C253C0913109F477C08F
:10F67000923108F0BBC0903109F04FC2F5C098310B
:10F6800009F487C0993150F4953109F4EFC09531F0
:10F6900008F4C6C1963109F040C2C2C19A3109F4DA
:10F6A0006CC09A3108F491C09B3109F45BC09D3164
:10F6B00009F033C29D81903359F48F81882311F46E
:10F6C0009EE11CC0813011F091E018C098E916C08D
:10F6D000892F807591F0903539F4E0E0F0E089E011
:10F6E0008093570094910AC0983539F4E3E0F0E034
:10F6F00089E080935700949101C090E01A821B82A8
:10F700008D818C831D829E831F8227E030E009C299
:10F710001A8288E08B8381E48C8386E58D8382E581
:10F720008E8389E48F8383E5888780E589878FE5E9
:10F730008A8782E38B872BE030E0F3C18A818139AD
:10F7400041F0823941F0803911F48FE005C080E04A
:10F7500003C082E001C08AE01A828B8344C0772410
:10F76000739482C08D81882311F48EE12CC0813086
:10F7700011F081E028C088E926C01A82E1E0F0E0BB
:10F7800089E08093570084918B831C8224E030E0D1
:10F79000C8C18B81803589F48C81883039F4E2E0EE
:10F7A000F0E089E08093570084910DC0E0E0F0E044
:10F7B00089E080935700849106C0E3E0F0E089E09F
:10F7C0008093570084911A82DFCF8D81836C99E0FA
:10F7D000E1E0F0E0082E90935700E89507B600FCB2
:10F7E000FDCF1A821B8223E030E09BC180EC8A832C
:10F7F000CE5CDE4F188219821A821B82C253D1401E
:10F800008EC18A8190E0A0E0B0E0582F44273327D2
:10F8100022278B8190E0A0E0B0E0DC0199278827C7
:10F82000282B392B4A2B5B2B8D8190E0A0E0B0E098
:10F83000282B392B4A2B5B2B8C8190E0A0E0B0E089
:10F84000BA2FA92F982F8827282B392B4A2B5B2BCF
:10F85000220F331F441F551FC05EDE4F288339839C
:10F860004A835B83C052D1401A8259C13A81C95C34
:10F87000DE4F3883C753D140CA5CDE4F1882C6536F
:10F88000D1408B81C82EDD24CA5CDE4F488159816E
:10F89000C653D140C42AD52A933109F082C0CE5C28
:10F8A000DE4F88819981AA81BB81C253D1408050AB
:10F8B000904CA340B04030F583E0CE5CDE4FE88052
:10F8C000F9800A811B81C253D140F70100935B008C
:10F8D00080935700E89507B600FCFDCFCE5CDE4F65
:10F8E000088119812A813B81C253D14000501F4FAA
:10F8F0002F4F3F4FCE5CDE4F088319832A833B8313
:10F90000C253D140C05EDE4F488159816A817B81FC
:10F91000C052D140DE011B9631E08C9111962C91A2
:10F9200011971296C75CDE4F2883C953D140C85C3B
:10F93000DE4F1882C853D14090E0C85CDE4FE881AA
:10F94000F981C853D1408E2B9F2B0C01FA01609393
:10F950005B0030935700E89511244E5F5F4F6F4F67
:10F960007F4F0EEFE02E0FEFF02ECE0CDF1CC114F8
:10F97000D10499F685E0C05EDE4F088119812A81A5
:10F980003B81C052D140F80120935B008093570027
:10F99000E89507B600FCFDCF81E180935700E8951C
:10F9A00035C0C05EDE4F88819981AA81BB81C0527B
:10F9B000D140B695A795979587957C018601ABE0D8
:10F9C000AA2EB12CAC0EBD1E0BC0D5016D915D01F0
:10F9D000C7010F947FFE0894E11CF11C01501040F8
:10F9E0000115110591F7A60160E070E0440F551F65
:10F9F000661F771FC05EDE4FE880F9800A811B8199
:10FA0000C052D1404E0D5F1D601F711F1A82C05E33
:10FA1000DE4F488359836A837B83C052D1407FC0C5
:10FA2000FA80C55CDE4FF882CB53D140C65CDE4F16
:10FA30001882CA53D1408B81C82EDD24C65CDE4FAC
:10FA400008811981CA53D140C02AD12A1A828981DA
:10FA5000BE016D5F7F4F843121F59601C05EDE4FA0
:10FA6000E880F9800A811B81C052D1400BBFF701A9
:10FA700087919691DB018C9311969C936E5F7F4FDB
:10FA8000D801C7010296A11DB11DC05EDE4F88835B
:10FA90009983AA83BB83C052D14022503040F1F6F3
:10FAA00036C0C05EDE4F288139814A815B81C052F9
:10FAB000D1400894C108D108760100E010E0089414
:10FAC000C11CD11C0894E11CF11C011D111DE20E8A
:10FAD000F31E041F151F21BDBB27A52F942F832FB5
:10FAE00082BD2F5F3F4F4F4F5F4FF89A80B5DB01CC
:10FAF0008D93BD012E153F054007510761F7C05E8C
:10FB0000DE4F288339834A835B83C052D1409601FC
:10FB10002D5F3F4FFB01108204C080EC8A8322E0FE
:10FB200030E08BE18093C6008091C00086FFFCCF5F
:10FB30008091C00080648093C000C15DDE4FF88179
:10FB4000CF52D140F093C6008091C00086FFFCCF19
:10FB50008091C00080648093C000432F3093C60022
:10FB60008091C00086FFFCCF8091C00080648093AC
:10FB7000C000922F2093C6008091C00086FFFCCF6A
:10FB80008091C00080648093C0008EE08093C600A6
:10FB90008091C00086FFFCCF8091C000806480937C
:10FBA000C00065E1C15DDE4FE880CF52D1406E25D7
:10FBB00069276427FE01319610C090819093C6009A
:10FBC0008091C00086FFFCCF31968091C000806498
:10FBD0008093C0006927215030402115310569F715
:10FBE0006093C6008091C00086FFFCCF8091C0006A
:10FBF00080648093C00085B1805885B9772081F4F6
:10FC0000C15DDE4F0881CF52D1400F5FC15DDE4F35
:10FC10000883CF52D14090E0A0E0B0E00D941AF4F8
:10FC200027982F9880E090E020ED37E0F901319798
:10FC3000F1F7019684369105C9F700008091C00064
:10FC40008D7F8093C00081E180935700E895EE2777
:10FC5000FF270994FFCF90E00D941AF497FB092E2B
:10FC600007260AD077FD04D02ED006D000201AF443
:10FC7000709561957F4F0895F6F7909581959F4F08
:10FC80000895A1E21A2EAA1BBB1BFD010DC0AA1FDD
:10FC9000BB1FEE1FFF1FA217B307E407F50720F0F5
:10FCA000A21BB30BE40BF50B661F771F881F991F70
:10FCB0001A9469F760957095809590959B01AC01B9
:10FCC000BD01CF010895AA1BBB1B51E107C0AA1FAC
:10FCD000BB1FA617B70710F0A61BB70B881F991FED
:10FCE0005A95A9F780959095BC01CD010895F99991
:10FCF000FECF92BD81BDF89A992780B50895262F31
:10FD0000F999FECF1FBA92BD81BD20BD0FB6F89400
:0EFD1000FA9AF99A0FBE01960895F894FFCF63
:040000033000E000E9
:00000001FF