:1000000045C1000073C1000071C100006FC1000054
:100010006DC100006BC1000069C1000067C1000034
:1000200065C1000063C1000061C100005FC1000044
:100030005DC100005BC1000059C1000057C1000054
:1000400055C1000053C1000051C100004FC1000064
:100050004DC100004BC1000049C100009FC7000016
:1000600045C10000DEC5000075C100003FC10000B1
:100070003DC100003BC1000039C1000037C1000094
:1000800035C1000033C1000031C100002FC10000A4
:100090002DC100002BC1000029C10000C9C700000C
:1000A00025C1000023C1000021C100001FC10000C4
:1000B0001DC100001BC1000019C1000017C10000D4
:1000C00015C1000013C1000011C100000FC10000E4
:1000D0000DC100000BC1000009C1000007C10000F4
:1000E00005C10000960AF60A770C770C770C770C9E
:1000F000210B2A0B770C770C770C770C330B770CD2
:10010000A60BD60B770C770C340C3A0C770C770CCB
:10011000720CD30B130D3A0D4F0D770D7A0D7D0D2B
:10012000800DF601FB0100020A0214028D021E027C
:1001300026022E02380242024C025B0265028D0248
:100140006F0279028302F106F406E306E706ED0684
:100150002B07F806FC06020706070A071007140714
:1001600018072B071E072207260700002000230080
:10017000260029002C002F0032000001000003019E
:10018000060109010505050507050808080802021A
:1001900002020A0A08080404040401010101010121
:1001A00001010303030303030303040707070C0C04
:1001B0000C0C0C0C0C0C02020202060606060606CB
:1001C00006060B0B0B0B0B0B0B0B01021020200870
:1001D00008102040102040800201020108040201A2
:1001E0000102040810204080804020100804020111
:1001F000800402018040201008040201080402016A
:1002000001020408102040800102040810204080F0
:1002100000000A0B02090C0D0E0807030401000080
:1002200000000000000000000000000000000000CE
:10023000000000000000000000000000121110008B
:1002400000000000000000000000000000000000AE
:1002500000000000000000002100240027002A0008
:100260002D003000330001010000040107010A01E4
:1002700000002200250028002B002E003100340051
:1002800002010000050108010B017D0E11241FBEB3
:10029000CFEFD1E2DEBFCDBF00E00CBF19E0A0E0A0
:1002A000B2E0E0E9F1E200E00BBF02C007900D927E
:1002B000AE36B107D9F721E1AEE6B9E001C01D9233
:1002C000A132B207E1F711E0C6E4D1E000E006C0D8
:1002D00021970109802FFE010E94AD10C534D1077E
:1002E00080E00807A9F7D5D70C94C61089CECF9225
:1002F000DF92EF92FF920F931F93CF93DF936C01E6
:100300007A018B01C0E0D0E0CE15DF0581F0D80185
:100310006D918D01D601ED91FC910190F081E02D60
:10032000C6011995892B11F02196EECF7E01C701E8
:10033000DF91CF911F910F91FF90EF90DF90CF90C1
:1003400008958DEB99E078D321E0892B09F420E022
:10035000822F08951F920F920FB60F9211240BB6A1
:100360000F922F933F934F935F936F937F938F934E
:100370009F93AF93BF93EF93FF938DEB99E087D457
:10038000FF91EF91BF91AF919F918F917F916F916D
:100390005F914F913F912F910F900BBE0F900FBE29
:1003A0000F901F901895CF93DF93EC0161E083E0ED
:1003B00081D5209711F460E004C0CF3FD10529F426
:1003C00061E083E0DF91CF9147C5E3E1F2E0E491A2
:1003D0008E2F90E0FC013197E231F10508F09DC0CD
:1003E0008827EF56FF4F8F4F0C94AD1084B580686F
:1003F00084BDC7BD97C084B5806284BDC8BD92C0AE
:1004000080918000806880938000D0938900C093A1
:10041000880088C080918000806280938000D093A3
:100420008B00C0938A007EC080918000886080939A
:100430008000D0938D00C0938C0074C08091B00078
:1004400080688093B000C093B3006CC08091B0000E
:1004500080628093B000C093B40064C0809190002B
:10046000806880939000D0939900C09398005AC000
:1004700080919000806280939000D0939B00C09305
:100480009A0050C080919000886080939000D09333
:100490009D00C0939C0046C08091A000806880931E
:1004A000A0008091A0008F7B8093A000D093A90032
:1004B000C093A80037C08091A00080628093A00004
:1004C000D093AB00C093AA002DC08091A00088609B
:1004D0008093A000D093AD00C093AC0023C0809166
:1004E0002001806880932001D0932901C0932801C6
:1004F00019C080912001806280932001D0932B014C
:10050000C0932A010FC08091200188608093200150
:10051000D0932D01C0932C0105C0C038D1050CF03B
:100520004FCF49CFDF91CF910895009761F0FC0143
:1005300001900020E9F73197AF01481B590BBC012E
:100540008DEB99E0D4CE80E090E00895CF93DF93D7
:10055000ECDFEC018CE198E0E8DF8C0F9D1FDF9170
:10056000CF9108950F931F939091AF0A8091AE0A97
:10057000992331F081111CC081E08093AE0A18C02C
:10058000811145C0C2D26093B00A7093B10A8093C2
:10059000B20A9093B30A81E08093AF0A8093AE0AC7
:1005A0008FEF90E000DF8BE299E01F910F91CECFAB
:1005B000ACD20091B00A1091B10A2091B20A3091E8
:1005C000B30ADC01CB01801B910BA20BB30B009192
:1005D000B40A1091B50A2091B60A3091B70A0817EB
:1005E00019072A073B0798F41092AF0A61E082E0EE
:1005F00033D4E091AC0AF091AD0AEE0FFF1FE65440
:10060000F54F80819181CFDE80E299E0CECF1F91BE
:100610000F9108957AD22091D40A211109C021E0C6
:100620002093D40A62517D4F7093D60A6093D50A05
:100630008091D50A9091D60A8558954018F4109269
:10064000D40A90CF08958F929F92AF92BF920F934A
:100650001F93CF93DF93CDB7DEB7A1970FB6F89472
:10066000DEBF0FBECDBF19A2423008F44AE08E01B2
:100670000F5D1F4F842E912CA12CB12CA50194014C
:100680000E948B10E62FB901CA0101501109EA300E
:1006900014F4E05D01C0E95CD801EC93232B242B1A
:1006A000252B61F7C80141DFA1960FB6F894DEBF94
:1006B0000FBECDBFDF91CF911F910F91BF90AF9033
:1006C0009F908F900895682F8DEB99E002C3CF9291
:1006D000DF92EF92FF92CF93DF9397FF17C06B01EA
:1006E0007C018DE2F0DFEC0166277727CB016C19E6
:1006F0007D098E099F094AE0A6DF8C0F9D1FDF91BF
:10070000CF91FF90EF90DF90CF9008954AE0DF9176
:10071000CF91FF90EF90DF90CF9095CFCF93DF9365
:10072000BC01990F880B990BD2DFEC018CE198E0AA
:10073000FCDE8C0F9D1FDF91CF910895F6CE0F93B5
:100740001F93CF93DF93EC018C010F5B1F4F8991B7
:10075000882321F0B8DFC017D107C9F7DF91CF9107
:100760001F910F910895CF93DF938034910518F076
:1007700083E399E00FC0EC0187E599E0DFDF25E135
:100780002C9FC0012D9F900D11248152954FD7DFD2
:100790008DE099E0DF91CF91D9CE83E699E0CEDF6D
:1007A0008091300290DF8BE099E0C8DF60914902D0
:1007B00070914A02072E000C880B990B88DF8BE0A2
:1007C00099E0BCDF88E392E0B9DF8BE099E0B6DF27
:1007D00089E699E0B3DF8AE198E0B8CE0F931F93E2
:1007E000CF93DF93FC01DC010D900020E9F7CD01F0
:1007F00048978E179F0709F062C088E192E0EF01E9
:10080000DF010D900020E9F71197AE1BBF0B9E0191
:100810002E1B3F0B2A173B0728F42991DC012D934F
:10082000CD01EECF818180933002DF011296C3E3C8
:10083000D2E08F010A5F1F4F8D918993A017B107F6
:10084000D9F7EF011092370283E392E00E942B1058
:100850009093320280933102A8E3B2E0FE017296D7
:10086000E80189918E018D93CE17DF07C9F71092A9
:10087000440220913802822F022E000C990BC0975F
:100880000A9710F02D3269F488E392E00E94481034
:10089000609345027093460280934702909348020A
:1008A0000BC08FEF9FEFDC018093450290934602CF
:1008B000A0934702B093480288EC90E002C081E91F
:1008C00091E090934A0280934902DF91CF911F916A
:1008D0000F9108950F931F93CF93DF938091AA0AEE
:1008E000882329F0DF91CF911F910F910EC1809144
:1008F0009A098111FCCF81E080939A09809399092C
:100900009FEF909398091092970993E0909396091E
:1009100080939509809195098460809395098091D1
:100920009409813061F41092940980919509809323
:10093000BB008091BC0083FDF8CF85EC01C085EE43
:100940008093BC0080919A098130E1F380919709EE
:10095000843018F49091970901C094E0A4E7B9E0BD
:10096000EDE9F9E080E0891721F02D9121938F5F67
:10097000FACF10929C0980939B09882319F18AE58C
:100980009AE013D1182F8AE59AE00FD1C82F8AE593
:100990009AE00BD1D82F8AE59AE007D14C2F50E08E
:1009A00060E070E0512B762F652F542F44274D2B9C
:1009B000762F652F542F44278A019B01082BC901EC
:1009C000B80104C061E070E080E090E0DF91CF9179
:1009D0001F910F910895FC01538D448D252F30E018
:1009E000842F90E0821B930B541710F0CF9608953C
:1009F00001970895FC01918D828D981761F0828D89
:100A0000DF01A80FB11D5D968C91928D9F5F9F7342
:100A1000928F90E008958FEF9FEF0895FC01918DE4
:100A2000828D981731F0828DE80FF11D858D90E051
:100A300008958FEF9FEF0895FC01918D228D892FEE
:100A400090E0805C9F4F821B91098F7399270895D6
:100A500080E090E0892B19F074DC811125C080E0E2
:100A600090E0892B41F080E090E0892B21F00E94FA
:100A7000000081111CC080E090E0892B41F080E0F3
:100A800090E0892B21F00E940000811113C080E0CA
:100A900090E0892BA1F080E090E0892B81F00E940A
:100AA000000081110AC008950E940000D8CF0E9462
:100AB0000000E1CF0E940000EACF0C9400000895EE
:100AC0003FB7F89480911D1190911E11A0911F11B4
:100AD000B091201126B5A89B05C02F3F19F00196B3
:100AE000A11DB11D3FBFBA2FA92F982F8827820FB4
:100AF000911DA11DB11DBC01CD0142E0660F771F04
:100B0000881F991F4A95D1F708952FB7F8946091DF
:100B1000191170911A1180911B1190911C112FBF06
:100B2000089585ED8093BC008091BC0084FDFCCFCE
:100B300010929A0908954091F510262F30E0240F65
:100B4000311D21323105DCF420919A092430C9F499
:100B5000FC0180E090E0861758F43091F510219167
:100B6000DC01AB52BF4EA30FB11D2C930196F3CF06
:100B70008091F510680F6093F51080E0089581E092
:100B8000089582E00895089508950895E0919C09DC
:100B900080919B09E81730F4F0E0E356F64F80812E
:100BA00090E008958FEF9FEF089590919C098091B8
:100BB0009B09981750F4E92FF0E0E356F64F208197
:100BC00030E09F5F90939C0902C02FEF3FEFC90177
:100BD000089580919B0990E020919C09821B9109C6
:100BE0000895CF93DF93CB01EA01642FA4DFCE01F8
:100BF000DF91CF910895CF93DF931F92CDB7DEB7EA
:100C0000698361E0CE01019696DF81E090E00F906C
:100C1000DF91CF910895089580E090E008950E94BB
:100C2000B5101F920F920FB60F9211240BB60F92B0
:100C30002F938F939F93EF93FF93E091CD09F091C2
:100C4000CE098081E091D309F091D40982FD12C0D0
:100C500090818091D6098F5F8F732091D709821779
:100C600051F0E091D609F0E0E354F64F958F809370
:100C7000D60901C08081FF91EF919F918F912F91B3
:100C80000F900BBE0F900FBE0F901F901895FC0198
:100C9000848DDF01A80FB11DA35ABF4F2C91848D05
:100CA00090E001968F739927848FA689B7892C933A
:100CB000A089B1898C91837080648C93938D848D8D
:100CC000981306C00288F389E02D80818F7D808390
:100CD0000895EF92FF920F931F93CF93DF93EC0150
:100CE00081E0888F9B8D8C8D981305C0E889F989E8
:100CF000808185FD25C0F62E0B8D10E00F5F1F4F04
:100D00000F731127E02E8C8DE8120BC00FB607FC75
:100D1000FACFE889F989808185FFF5CFCE01B7DF69
:100D2000F2CF8B8DFE01E80FF11DE35AFF4FF082E9
:100D30009FB7F8940B8FEA89FB89808180620AC093
:100D40009FB7F894EE89FF896083E889F9898081EB
:100D50008370806480839FBF81E090E0DF91CF91BA
:100D60001F910F91FF90EF900895CF93DF93EC01C7
:100D7000888D8823C1F0EA89FB89808185FD05C0C3
:100D8000A889B9898C9186FD0EC00FB607FCF5CFF6
:100D9000808185FFF2CFA889B9898C9185FFEDCF3D
:100DA000CE0175DFE8CFDF91CF91089590E0FC018F
:100DB0003197E231F10508F04EC08827ED55FF4F1D
:100DC0008F4F0C94AD10809180008F7703C080917D
:100DD00080008F7D80938000089580918000877FC0
:100DE000F9CF84B58F7702C084B58F7D84BD089517
:100DF0008091B0008F7703C08091B0008F7D809389
:100E0000B0000895809190008F7707C08091900086
:100E10008F7D03C080919000877F8093900008951C
:100E20008091A0008F7707C08091A0008F7D03C0C4
:100E30008091A000877F8093A00008958091200179
:100E40008F7707C0809120018F7D03C080912001A2
:100E5000877F8093200108951F93CF93DF93282FDE
:100E600030E0F901E05FFD4F8491F901E653FE4F58
:100E7000D491F901EC57FE4FC491CC23B9F0162F51
:100E8000811194DFEC2FF0E0EE0FFF1FE059FD4FD2
:100E9000A591B4919FB7F894111104C08C91D0958D
:100EA000D82302C0EC91DE2BDC939FBFDF91CF9162
:100EB0001F910895CF93DF9390E0FC01E653FE4F1E
:100EC0002491FC01EC57FE4F8491882361F190E05E
:100ED000880F991FFC01EA5AFD4FC591D491FC017E
:100EE000E059FD4FA591B491611109C09FB7F894E5
:100EF0008881209582238883EC912E230BC0623059
:100F000061F49FB7F8948881322F309583238883CA
:100F1000EC912E2B2C939FBF06C08FB7F894E881DD
:100F20002E2B28838FBFDF91CF9108958F929F92B0
:100F3000AF92BF92CF92DF92EF92FF926B017C0152
:100F4000BFDD4B015C01C114D104E104F104E9F0FF
:100F5000B7DDDC01CB0188199909AA09BB09883ED4
:100F60009340A105B10578F321E0C21AD108E10848
:100F7000F10888EE880E83E0981EA11CB11CC114F4
:100F8000D104E104F10421F7DECFFF90EF90DF9070
:100F9000CF90BF90AF909F908F9008951F920F9227
:100FA0000FB60F9211242F933F938F939F93AF937C
:100FB000BF938091191190911A11A0911B11B091BA
:100FC0001C113091181123E0230F2D3720F40196C6
:100FD000A11DB11D05C026E8230F0296A11DB11D5C
:100FE000209318118093191190931A11A0931B113B
:100FF000B0931C1180911D1190911E11A0911F1191
:10100000B09120110196A11DB11D80931D119093E7
:101010001E11A0931F11B0932011BF91AF919F910A
:101020008F913F912F910F900FBE0F901F901895A9
:101030001F920F920FB60F9211240BB60F922F939F
:101040003F934F935F936F937F938F939F93AF9350
:10105000BF93EF93FF938091B900887F803609F4A6
:101060009CC068F5883209F45BC090F4803109F4C3
:1010700054C038F4882309F4F6C0883009F44DC010
:10108000F5C0883109F44CC0803209F45DC0EEC06F
:10109000803409F468C048F4803309F455C08833BB
:1010A00009F0E4C080939809D8C0803509F44FC096
:1010B000883509F45DC0883409F0D8C0D6C08839B5
:1010C00009F4C7C0A8F4883709F467C038F4883633
:1010D00009F463C0803709F460C0C8C0883809F4D7
:1010E000B8C0803909F45FC0803809F0BFC05BC068
:1010F000803B09F486C038F4803A09F466C0883A27
:1011000009F47FC0B3C0803C09F4A7C0883C09F44F
:10111000A4C0883B09F48AC0A9C08091950910C079
:101120009091970980919609981770F5E091970929
:1011300081E08E0F80939709F0E0EC58F64F8081A4
:101140008093BB0085EC86C0809398098EC0E091A7
:10115000970981E08E0F809397098091BB00F0E0A2
:10116000EC58F64F808390919709809196096EC054
:10117000E091970981E08E0F809397098091BB00E1
:10118000F0E0EC58F64F80838091990981116DC091
:1011900081E08093940984EA61C083E080939A0996
:1011A00010921711CFCF80911711803208F051C0E3
:1011B000E091171181E08E0F809317118091BB0091
:1011C000F0E0E950FF4E8083BDCF85EC8093BC00FA
:1011D00010929A0980911711803230F4E091171122
:1011E000F0E0E950FF4E10826091171170E0E0913D
:1011F0006E09F0916F0987EF90E119951092171120
:1012000035C084E080939A091092F6101092F51080
:10121000E0917009F091710919958091F510811193
:1012200005C081E08093F5101092D510E091F61082
:1012300081E08E0F8093F610F0E0EB52FF4E80813C
:101240008093BB009091F6108091F510981708F4E8
:1012500079CF85E88093BC0009C085EC8093BC0001
:1012600010929A0903C0109298095BDCFF91EF91EC
:10127000BF91AF919F918F917F916F915F914F91AE
:101280003F912F910F900BBE0F900FBE0F901F90AC
:101290001895CF93DF9300D000D0CDB7DEB7789408
:1012A00084B5826084BD84B5816084BD85B582606B
:1012B00085BD85B5816085BD80916E00816080931C
:1012C0006E00109281008091810082608093810085
:1012D0008091810081608093810080918000816095
:1012E000809380008091B10084608093B1008091F0
:1012F000B00081608093B000809191008260809303
:101300009100809191008160809391008091900084
:101310008160809390008091A10082608093A10001
:101320008091A10081608093A1008091A0008160E4
:101330008093A0008091210182608093210180919F
:10134000210181608093210180912001816080933F
:10135000200180917A00846080937A0080917A00E5
:10136000826080937A0080917A00816080937A0015
:1013700080917A00806880937A001092C100E09199
:10138000CD09F091CE0982E08083E091CD09F09102
:10139000CE091082E091C909F091CA091082E0914A
:1013A000CB09F091CC0980E180831092D509E091BE
:1013B000D109F091D20986E08083E091CF09F091C4
:1013C000D009808180618083E091CF09F091D009BC
:1013D000808188608083E091CF09F091D00980817D
:1013E00080688083E091CF09F091D00980818F7D62
:1013F00080838BEF97E0A2D964E670E080E090E014
:1014000095DD87E098E09AD910929C0910929B098B
:10141000109273091092720910929A0921E0209398
:1014200099091092940961E084E116DD61E085E19B
:1014300013DD8091B9008E7F8093B9008091B9004F
:101440008D7F8093B90088E48093B80085E4809311
:10145000BC0083EC95E0909371098093700984EC53
:1014600095E090936F0980936E0931E03093A40A60
:101470001092AA0AEEE68E2EEAE09E2EF8E1AF2E3A
:10148000A5E1BA2EB8ECCB2ED12C17E5212E10E118
:10149000312E8DEB99E0D0DA892BD9F08DEB99E0E4
:1014A000A9DA8093860A8C3339F020916C0A309146
:1014B0006D0A8E33C9F028C2F4012A2D11922A95A3
:1014C000E9F780936E0A81E090E090936D0A809333
:1014D0006C0A74E9E72E7AE0F72E0CE81AE01A821B
:1014E00019826624639428C2F901EA59F54F80876E
:1014F0008EE69AE073D98091490290914A02883C25
:10150000910509F0FAC1E09130028E2FEE0F990B90
:10151000AA0BBB0BFC01E154F109E831F10508F01D
:10152000E6C18827EE58FF4F8F4F17C6D3D92B013E
:101530003C0107ED1AE01A830983E981FA81808171
:10154000882381F04DE050E068E372E0CF01089617
:1015500010D6892B39F429E931E030934A022093DF
:101560004902CBC189819A8145969A838983E7E1B3
:10157000F0E1E817F90709F780E090E0F801208131
:1015800021110AC0A8E3B2E0B89EA001B99E500D97
:10159000112420E030E00DC001960B5E1F4F803417
:1015A000910561F783EA91E090934A0280934902A2
:1015B000A4C16D91F901E40FF51FE952F54F608761
:1015C0002F5F3F4F2D303105A1F7B89E9001B99E96
:1015D000300D1124F901E952F54F81E080834482F6
:1015E00055826682778213821282CDC00FED1AE097
:1015F0001A8219824DE050E068E372E0C801B9D563
:10160000892B91F429813A81B29EF001B39EF00DAD
:101610001124E952F54F8091310290913202938367
:10162000828381E08183AFC089819A8101969A8308
:1016300089830B5E1F4F80349105E1F6E4E9F1E008
:1016400058C148D94AE00E9423038CE198E00E94E7
:10165000950255C18FE198E071D88091300233D85E
:1016600088E298E041C18091310290913202893E36
:10167000F3E09F07F1F0A8F4883E934009F03DC1E4
:101680001092AB0A60E084E3E7DB1092AE0A10929E
:10169000AF0A60E082E0E0DB80E090E00E94D301EE
:1016A0002CC18932E3E29E0769F08A32934261F1EC
:1016B00024C181E08093AB0A61E084E3CDDB0E942A
:1016C0000A031BC18091450290914602A0914702F6
:1016D000B09148020097A105B10519F41092AA0A29
:1016E0000CC181309105A105B10521F481E0809301
:1016F000AA0A03C10297A105B10509F0FEC08091B5
:10170000AA0A882399F3EACF809145029091460274
:10171000A0914702B09148020097A105B10519F4C4
:1017200010928B0AEAC081309105A105B10521F420
:1017300081E080938B0AE1C00297A105B10509F011
:10174000DCC080918B0A882399F3EACF0FED1AE071
:101750001A8219824DE050E068E372E0C80109D5B1
:10176000892BB1F429813A81B29EF001B39EF00D2C
:101770001124E952F54F10821182138212821482D1
:10178000158216821782D0924A02C0924902B5C0D1
:1017900089819A8101969A8389830B5E1F4F8034D9
:1017A0009105C1F64BCF82E398E09EC000913102D3
:1017B00010913202C80101978034910510F000E4C5
:1017C00010E089E398E00E94A602E7EDFAE0FA83D0
:1017D000E983E12CF12CE016F10609F490C0E981CF
:1017E000FA81608170E080E090E00E9467038BE600
:1017F00098E00E949E03E981FA81618170E080E0B7
:1018000090E00E9467038BE698E00E949E03E981C6
:10181000FA816281738180E090E04AE00E942303B4
:101820008CE698E00E949E03E981FA8164817581CB
:10183000868197814AE00E94230388E798E00E940E
:101840009E0389819A8108960E949F038EE198E009
:101850000E94A602FFEFEF1AFF0A29813A812B5E50
:101860003F4F3A832983B7CF8091AA0A90E00E9424
:101870008E0345C040903102509032028DE798E0CF
:101880000E94A60289EA90E19A838983052C000CC4
:101890006608770809811A8161E0F8018081DCDA45
:1018A000C301B20143DB60E0E981FA818081D4DACF
:1018B000C301B2013BDB80E998E00E949E032981CD
:1018C0003A812E5F3F4F3A832983F80180819181CD
:1018D0000E948E0329813A81295C3041D9F689E939
:1018E00098E002C087EA98E00E94A60208C0E6E9F4
:1018F000F1E0F0934A02E09349020E94CD0380E0B8
:1019000092E00E94EE030EC02631310558F4F90131
:10191000EA59F54F80872F5F3F4F30936D0A209330
:101920006C0AD7CDF4012A2D11922A95E9F710926D
:101930006D0A10926C0ACDCDF801808180936B0AFC
:10194000F701219131917F013327F901E05FFD4FCC
:101950008491F901E653FE4F7490F901EC57FE4F64
:101960005490552099F0811121DAE52DF0E0EE0F29
:10197000FF1FE659FE4FA591B491EC917E2231E014
:1019800020E009F430E0832F922F02C080E090E045
:10199000282F2170F80121938F01892B09F0B4C001
:1019A00080916B0A281709F4AFC0AFD82091670A5D
:1019B0003091680A4091690A50916A0ADC01CB01B2
:1019C000821B930BA40BB50B833D9105A105B105BB
:1019D00008F49AC09AD86093670A7093680A809353
:1019E000690A90936A0AE981FA813197E730F10533
:1019F00028F48827E657FF4F8F4FAFC38091AC0A7A
:101A00009091AD0A01969093AD0A8093AC0A209113
:101A1000B80A3091B90A28173907ACF43093AD0AE7
:101A20002093AC0A10C08091AC0A9091AD0A019746
:101A300097FD05C09093AD0A8093AC0A04C0109244
:101A4000AD0A1092AC0A8091AE0A882381F0809191
:101A5000AF0A81110CC0E091AC0AF091AD0AEE0F13
:101A6000FF1FE654F54F808191810E94D3018EEAD9
:101A700098E034C08091AB0A882321F01092AB0A21
:101A800060E003C06092AB0A61E084E3E5D986EBD5
:101A900098E00E949E038091AB0A90E025C080915F
:101AA000AE0A882361F01092AE0A1092AF0A60E08D
:101AB00082E0D2D980E090E00E94D30102C00E946F
:101AC000B20280EC98E00E949E036091AE0A70E042
:101AD00080E090E00E94670387EC98E00E949E03FC
:101AE0008091AC0A9091AD0A0E948E030DC080EDEA
:101AF00098E008C08BED98E005C087EE98E002C042
:101B000083EF98E00E94A60229813A812F5F3F4F20
:101B10003A8329832830310509F00ECF0E946A04E8
:101B200069837A838B839C8387ED9AE09E838D8380
:101B3000E12CF12CED81FE818081882309F465C0C0
:101B40000281138184819581A681B78149805A8061
:101B50006B807C80481A590A6A0A7B0AF801EE0FEA
:101B6000FF1FEE0FFF1FED59FF4E40815181628133
:101B700073818091171090911810A0911910B09155
:101B80001A10840F951FA61FB71F84159505A6056B
:101B9000B70508F4AAC04415550566057705A8F5EC
:101BA00001151105A9F00E948505F801EE0FFF1F30
:101BB000EE0FFF1FE55EFF4E608371838283938388
:101BC000000F111FF801E955FF4E61E0808144D9F3
:101BD000ED81FE818181882309F48BC081E099E049
:101BE0000E949E038D819E8108960E949F038DE036
:101BF00099E00E94A602ED81FE811082118213827B
:101C000012821482158216821782FFEFEF1AFF0AE2
:101C10002D813E812B5E3F4F3E832D8330E4E316C2
:101C2000F10409F087CF8091D40A882319F00E942B
:101C30000A0305C08091AF0A81110E94B2020E947E
:101C40006A040091A60A1091A70A2091A80A30916F
:101C5000A90A601771078207930749F06093A60AE3
:101C60007093A70A8093A80A9093A90A07C080914D
:101C7000660A811103C081E08093660A87E190E1E2
:101C80009A83898307EA10E10E948505E981FA8138
:101C9000448055806680778020915F10309160107D
:101CA0004091611050916210420E531E641E751EC9
:101CB000461657066806790650F460E0F801808100
:101CC000CBD8E981FA811482158216821782298184
:101CD0003A812C5F3F4F3A8329830E5F1F4F2216B4
:101CE000330691F60E942805D4CB84E199E00E9446
:101CF000A602C7010E94B3037ECFFF920F931F93EA
:101D0000CF93DF931092C0091092BF0988EE93E041
:101D1000A0E0B0E08093C1099093C209A093C309E9
:101D2000B093C4092BED37E03093BE092093BD0971
:101D300025EC30E03093CA092093C90924EC30E047
:101D40003093CC092093CB0920EC30E03093CE09BE
:101D50002093CD0921EC30E03093D0092093CF09B6
:101D600022EC30E03093D2092093D10926EC30E008
:101D70003093D4092093D3091092D6091092D70931
:101D80001092D8091092D90910925D0A10925C0A3B
:101D900080935E0A90935F0AA093600AB093610AF1
:101DA0008DEE97E090935B0A80935A0A82E2EBE40F
:101DB000F2E0A7EAB0E101900D928A95E1F788EC94
:101DC00090E0A0E0B0E080935F1090936010A0934B
:101DD0006110B09362108EE390E1A0E0B0E08093D8
:101DE000171090931810A0931910B0931A1085E251
:101DF0009AE5A0E0B0E08093631090936410A09304
:101E00006510B09366104DE259E160E070E04093D8
:101E10006710509368106093691070936A10409334
:101E20006B1050936C1060936D1070936E104BE6B6
:101E300059E260E070E040936F105093701060932F
:101E400071107093721040937310509374106093DC
:101E500075107093761049EA59E360E070E04093A2
:101E60007710509378106093791070937A104093A4
:101E70007B1050937C1060937D1070937E1047EE22
:101E800059E460E070E040937F10509380106093BD
:101E9000811070938210409383105093841060934C
:101EA0008510709386108093871090938810A0936C
:101EB0008910B0938A1080938B1090938C10A0930C
:101EC0008D10B0938E1080938F1090939010A093EC
:101ED0009110B09392108093931090939410A093CC
:101EE0009510B09396108093971090939810A093AC
:101EF0009910B0939A1080939B1090939C10A0938C
:101F00009D10B0939E1080939F109093A010A0936B
:101F1000A110B093A2108093A3109093A410A0934B
:101F2000A510B093A610C9EAD0E18E0161E08881C6
:101F30000E945A07229660E0F80180810E942C07D7
:101F4000F0E1C93CDF0789F780E495E0EDE6F2E0D7
:101F5000A7EDBAE001900D920197E1F71092AD0A5A
:101F60001092AC0A1092AE0A1092AF0A1092B00A08
:101F70001092B10A1092B20A1092B30A88EB9BE059
:101F8000A0E0B0E08093B40A9093B50AA093B60A9B
:101F9000B093B70A8CE090E09093B90A8093B80AA6
:101FA0008AE1EDEAF7E0AAEBBAE001900D928A959A
:101FB000E1F71092D40A1092D60A1092D50A61E085
:101FC00082E00E945A0761E084E30E945A0710925F
:101FD000AB0A1092A60A1092A70A1092A80A1092B1
:101FE000A90A1092AA0A1092870A1092880A1092DF
:101FF000890A10928A0A10928B0A80E1E7ECF7E0D6
:10200000A4E9BAE001900D928A95E1F71092660A70
:102010001092670A1092680A1092690A10926A0A6E
:1020200081E080936B0AC4E9DAE00CE81AE0FF244F
:10203000F3948881229662E00E945A07F801F19297
:102040008F01FAE0C43ADF07A1F7DF91CF911F912A
:102050000F91FF900895FC0188279927E89421911A
:102060002032E9F3293010F02E30C8F32B3239F04A
:102070002D3231F4689403C046D0820F911D219116
:1020800020532A30C8F31EF4909581959F4F0895F0
:102090001F93FC0199278827BC01E8941191103205
:1020A000E9F3193010F01E30C8F31B3249F01D322D
:1020B00041F4689405C012D0610F711D811D911DFE
:1020C000119110531A30B8F33EF4909580957095A5
:1020D00061957F4F8F4F9F4F1F910895592F482F24
:1020E000372F262F660F771F881F991F660F771FC0
:1020F000881F991F620F731F841F951F660F771F1C
:10210000881F991F08957AE0979F902D879F802DB3
:10211000910D11240895A1E21A2EAA1BBB1BFD01EB
:102120000DC0AA1FBB1FEE1FFF1FA217B307E407B6
:10213000F50720F0A21BB30BE40BF50B661F771F0E
:10214000881F991F1A9469F76095709580959095EE
:102150009B01AC01BD01CF010895EE0FFF1F881F49
:102160008BBF0790F691E02D199481E090E0F894F0
:102170000DC0FB01DC0104C08D910190801921F498
:1021800041505040C8F7881B990B0895F894FFCF31
:102190003C7A5A5A5A7A7A7A7A7A7A7A7A7A7A7A3D
:1021A0007A7A4353554D3E003C7A5A5A5A7A7A7A93
:1021B0007A7A7A7A7A7A7A7A7A7A4353554D3E00E5
:1021C0007A00007A000000007A00000000000000A1
:1021D0000000000000FFFFFFFF980100001600173D
:1021E00000180019001A001B001C001D001E001F13
:1021F0000020002100220023002400250000000010
:1022000000000000007A7A7A7A7A7A7A7A7A7A7A90
:102210007A0000000000000000007A7A7A7A7A7A68
:102220007A7A7A7A7A7A0000000000000000007A58
:102230007A7A7A7A7A7A7A7A7A7A7A000000000060
:10224000000000007A7A7A7A7A7A7A7A7A7A7A7AD6
:102250000000000000000000007A7A7A7A7A7A7A28
:102260007A7A7A7A7A0000000000000000007A7A18
:102270007A7A7A7A7A7A7A7A7A7A0000000000009A
:102280000000007A7A7A7A7A7A7A7A7A7A7A7A0096
:1022900000000000000000007A7A7A7A7A7A7A7A6E
:1022A0007A7A7A7A0000000000000000007A7A7AD8
:1022B0007A7A7A7A7A7A7A7A7A00000000000000D4
:1022C00000007A7A7A7A7A7A7A7A7A7A7A7A000056
:1022D000000000000000007A7A7A7A7A7A7A7A7AB4
:1022E0007A7A7A0000000000000000007A7A7A7A98
:1022F0007A7A7A7A7A7A7A7A00000000000000000E
:10230000007A7A7A7A7A7A7A7A7A7A7A7A00000015
:102310000000000000007A7A7A7A7A7A7A7A7A7AF9
:102320007A7A0000000000000000007A7A7A7A7A57
:102330007A7A7A7A7A7A7A00000000000000000047
:102340007A7A7A7A7A7A7A7A7A7A7A7A00000000D5
:1023500000000000007A7A7A7A7A7A7A7A7A7A7A3F
:102360007A0000000000000000007A7A7A7A7A7A17
:102370007A7A7A7A7A7A0000000000000000007A07
:102380007A7A7A7A7A7A7A7A7A7A7A00000000000F
:10239000000000007A7A7A7A7A7A7A7A7A7A7A7A85
:1023A0000000000000000000007A7A7A7A7A7A7AD7
:1023B0007A7A7A7A7A0000000000000000007A7AC7
:1023C0007A7A7A7A7A7A7A7A7A7A00000000000049
:1023D0000000007A7A7A7A7A7A7A7A7A7A7A7A0045
:1023E00000000000000000007A7A7A7A7A7A7A7A1D
:1023F0007A7A7A7A0000000000000000007A7A7A87
:102400007A7A7A7A7A7A7A7A7A0000000000000082
:1024100000007A7A7A7A7A7A7A7A7A7A7A7A000004
:10242000000000000000007A7A7A7A7A7A7A7A7A62
:102430007A7A7A0000000000000000007A7A7A7A46
:102440007A7A7A7A7A7A7A7A0000000000000000BC
:10245000007A7A7A7A7A7A7A7A7A7A7A7A000000C4
:102460000000000000007A7A7A7A7A7A7A7A7A7AA8
:102470007A7A0000000000000000007A7A7A7A7A06
:102480007A7A7A7A7A7A7A000000000000000000F6
:102490007A7A7A7A7A7A7A7A7A7A7A7A0000000084
:1024A00000000000007A7A7A7A7A7A7A7A7A7A7AEE
:1024B0007A0000000000000000007A7A7A7A7A7AC6
:1024C0007A7A7A7A7A7A0000000000000000007AB6
:1024D0007A7A7A7A7A7A7A7A7A7A7A0000000000BE
:1024E000000000007A7A7A7A7A7A7A7A7A7A7A7A34
:1024F0000000000000000000007A7A7A7A7A7A7A86
:102500007A7A7A7A7A0000000000000000007A7A75
:102510007A7A7A7A7A7A7A7A7A7A000000000000F7
:102520000000007A7A7A7A7A7A7A7A7A7A7A7A00F3
:1025300000000000000000007A7A7A7A7A7A7A7ACB
:102540007A7A7A7A0000000000000000007A7A7A35
:102550007A7A7A7A7A7A7A7A7A0000000000000031
:1025600000007A7A7A7A7A7A7A7A7A7A7A7A0000B3
:10257000000000000000007A7A7A7A7A7A7A7A7A11
:102580007A7A7A0000000000000000007A7A7A7AF5
:102590007A7A7A7A7A7A7A7A00000000000000006B
:1025A000007A7A7A7A7A7A7A7A7A7A7A7A00000073
:1025B0000000000000007A7A7A7A7A7A7A7A7A7A57
:1025C0007A7A0000000000000000007A7A7A7A7AB5
:1025D0007A7A7A7A7A7A7A000000000000000000A5
:1025E0007A7A7A7A7A7A7A7A7A7A7A7A0000000033
:1025F00000000000007A7A7A7A7A7A7A7A7A7A7A9D
:102600007A0000000000000000007A7A7A7A7A7A74
:102610007A7A7A7A7A7A0000000000000000007A64
:102620007A7A7A7A7A7A7A7A7A7A7A00000000006C
:10263000000000007A7A7A7A7A7A7A7A7A7A7A7AE2
:102640000000000000000000007A7A7A7A7A7A7A34
:102650007A7A7A7A7A0000000000000000007A7A24
:102660007A7A7A7A7A7A7A7A7A7A000000000000A6
:102670000000007A7A7A7A7A7A7A7A7A7A7A7A00A2
:1026800000000000000000007A7A7A7A7A7A7A7A7A
:102690007A7A7A7A0000000000000000007A7A7AE4
:1026A0007A7A7A7A7A7A7A7A7A00000000000000E0
:1026B00000007A7A7A7A7A7A7A7A7A7A7A7A000062
:1026C000000000000000007A7A7A7A7A7A7A7A7AC0
:1026D0007A7A7A0000000000000000007A7A7A7AA4
:1026E0007A7A7A7A7A7A7A7A00000000000000001A
:1026F000007A7A7A7A7A7A7A7A7A7A7A7A00000022
:102700000000000000007A7A7A7A7A7A7A7A7A7A05
:102710007A7A0000000000000000007A7A7A7A7A63
:102720007A7A7A7A7A7A7A00000000000000000053
:102730007A7A7A7A7A7A7A7A7A7A7A7A0014001EAF
:1027400000280032003C004B0064007D009600AF82
:1027500000C800E100FF0006000700080009000AA9
:10276000000B000C000D000000000069067701EB73
:1027700004B5061C05FA040E0500000000FB05F177
:10278000050C06C505E905D505C6055B42425F4F48
:102790004E4C494E455D005B42656C74204275634A
:1027A0006B6C652076302E362E315D000D0A0043AD
:1027B0006F6D6D616E64200020526563656976659A
:1027C0006400544F444F2058004F636365642020D9
:1027D000203A2020417369676E6420203A2020202F
:1027E0002042696E202020203A2020202044697356
:1027F000742020203A20202049640020202020201E
:10280000203A20202020200020203A200054657308
:1028100074696E67206F7574707574732E2E2E0038
:102820006F75747075743A20005465737420636F0B
:102830006D706C65746500544F444F205700737081
:102840006565643A200062656C742069733A200003
:102850004D6F64653A20002053706565643A20002E
:10286000627574746F6E5F72756E00627574746FEA
:102870006E5F73746F7000627574746F6E5F626503
:102880006C7400627574746F6E5F66656564657202
:10289000005B54454C2D432D3230302D002D4353D9
:1028A000554D5D004C6F737420612070617274002F
:1028B00066756C6C20737065656400737461727406
:1028C000757000426164207061727420696E646585
:1028D0007820696E2074656C5F7365727665725FCF
:1028E000736F72746564005B54454C2D462D323015
:0E28F000302D005B41434B2D004353554D00EE
:00000001FF
