:1000000045C1000073C1000071C100006FC1000054
:100010006DC100006BC1000069C1000067C1000034
:1000200065C1000063C1000061C100005FC1000044
:100030005DC100005BC1000059C1000057C1000054
:1000400055C1000053C1000051C100004FC1000064
:100050004DC100004BC1000049C1000087C4000031
:1000600045C10000E3C30000B8C300003FC1000069
:100070003DC100003BC1000039C1000037C1000094
:1000800035C1000033C1000031C100002FC10000A4
:100090002DC100002BC1000029C10000B1C4000027
:1000A00025C1000023C1000021C100001FC10000C4
:1000B0001DC100001BC1000019C1000017C10000D4
:1000C00015C1000013C1000011C100000FC10000E4
:1000D0000DC100000BC1000009C1000007C10000F4
:1000E00005C10000CB02CE02BD02C102C70205035A
:1000F000D202D602DC02E002E402EA02EE02F202DE
:100100000503F802FC020003750AC40AFB0BFB0B93
:10011000FB0BFB0BEC0AF30AFB0BFB0BFB0BFB0BC8
:10012000FC0AFB0B6A0B8E0BFB0BFB0BC60BCB0B02
:10013000FB0BFB0BF70B8B0B970CBD0CD20CF10CD4
:10014000F40CF70CFA0C540659065E0668067206A3
:10015000EB067C0684068C069606A006AA06B9065F
:10016000C306EB06CD06D706E106000021002400F9
:1001700027002A002D003000330001010000040197
:1001800007010A0100002200250028002B002E0094
:100190003100340002010000050108010B010000DC
:1001A00020002300260029002C002F00320000012F
:1001B00000000301060109010505050507050808FA
:1001C0000808020202020A0A0808040404040101E1
:1001D00001010101010103030303030303030407F6
:1001E00007070C0C0C0C0C0C0C0C0202020206068D
:1001F0000606060606060B0B0B0B0B0B0B0B010280
:100200001020200808102040102040800201020128
:1002100008040201010204081020408080402010E0
:100220000804020180040201804020100804020139
:1002300008040201010204081020408001020408A1
:100240001020408000000A0B02090C0D0E08070365
:100250000401000000000000000000000000000099
:10026000000000000000000000000000000000008E
:10027000121110000000000000000000000000004B
:1002800000000000000000000000BE0D11241FBE91
:10029000CFEFD1E2DEBFCDBF00E00CBF18E0A0E0A1
:1002A000B2E0EAE0F0E200E00BBF02C007900D927E
:1002B000AE3FB107D9F720E1AEEFB8E001C01D9223
:1002C000A137B207E1F711E0C6E4D1E000E006C0D3
:1002D00021970109802FFE010E94EA0FC534D10742
:1002E00080E00807A9F7BDD70C94031089CECF9200
:1002F000DF92EF92FF920F931F93CF93DF936C01E6
:100300007A018B01C0E0D0E0CE15DF0581F0D80185
:100310006D918D01D601ED91FC910190F081E02D60
:10032000C6011995892B11F02196EECF7E01C701E8
:10033000DF91CF911F910F91FF90EF90DF90CF90C1
:10034000089508950895FC01538D448D252F30E0C4
:10035000842F90E0821B930B541710F0CF960895D2
:1003600001970895FC01918D828D981761F0828D1F
:10037000DF01A80FB11D5D968C91928D9F5F9F73D9
:10038000928F90E008958FEF9FEF0895FC01918D7B
:10039000828D981731F0828DE80FF11D858D90E0E8
:1003A00008958FEF9FEF0895FC01918D228D892F85
:1003B00090E0805C9F4F821B91098F73992708956D
:1003C00089E999E0F1DF21E0892B09F420E0822F0F
:1003D0000895FC01848DDF01A80FB11DA35ABF4F02
:1003E0002C91848D90E001968F739927848FA68934
:1003F000B7892C93A089B1898C91837080648C9388
:10040000938D848D981306C00288F389E02D808136
:100410008F7D80830895EF92FF920F931F93CF9368
:10042000DF93EC0181E0888F9B8D8C8D981305C044
:10043000E889F989808185FD25C0F62E0B8D10E0B5
:100440000F5F1F4F0F731127E02E8C8DE8120BC02A
:100450000FB607FCFACFE889F989808185FFF5CFCF
:10046000CE01B7DFF2CF8B8DFE01E80FF11DE35A0D
:10047000FF4FF0829FB7F8940B8FEA89FB89808148
:1004800080620AC09FB7F894EE89FF896083E8898B
:10049000F98980818370806480839FBF81E090E0D0
:1004A000DF91CF911F910F91FF90EF900895CF931F
:1004B000DF93EC01888D8823C1F0EA89FB89808174
:1004C00085FD05C0A889B9898C9186FD0EC00FB63F
:1004D00007FCF5CF808185FFF2CFA889B9898C917F
:1004E00085FFEDCFCE0175DFE8CFDF91CF91089585
:1004F00080E090E0892B19F063DF811125C080E056
:1005000090E0892B41F080E090E0892B21F00E945F
:10051000000081111CC080E090E0892B41F080E058
:1005200090E0892B21F00E940000811113C080E02F
:1005300090E0892BA1F080E090E0892B81F00E946F
:10054000000081110AC008950E940000D8CF0E94C7
:100550000000E1CF0E940000EACF0C940000089553
:1005600090E0FC013197E231F10508F04EC0882798
:10057000EE58FF4F8F4F0C94EA0F809180008F77D9
:1005800003C0809180008F7D8093800008958091CA
:100590008000877FF9CF84B58F7702C084B58F7DC7
:1005A00084BD08958091B0008F7703C08091B00022
:1005B0008F7D8093B0000895809190008F7707C061
:1005C000809190008F7D03C080919000877F809301
:1005D000900008958091A0008F7707C08091A000BF
:1005E0008F7D03C08091A000877F8093A000089535
:1005F000809120018F7707C0809120018F7D03C0FB
:1006000080912001877F8093200108953FB7F8945F
:100610008091460990914709A0914809B0914909F4
:1006200026B5A89B05C02F3F19F00196A11DB11D4D
:100630003FBFBA2FA92F982F8827820F911DA11D88
:10064000B11DBC01CD0142E0660F771F881F991FC5
:100650004A95D1F708958F929F92AF92BF92CF9211
:10066000DF92EF92FF926B017C01D0DF4B015C01C6
:10067000C114D104E104F104E9F0C8DFDC01CB01CD
:1006800088199909AA09BB09883E9340A105B105BB
:1006900078F321E0C21AD108E108F10888EE880E4B
:1006A00083E0981EA11CB11CC114D104E104F10423
:1006B00021F7DECFFF90EF90DF90CF90BF90AF900B
:1006C0009F908F9008952FB7F89460914209709190
:1006D000430980914409909145092FBF089585ED04
:1006E0008093BC008091BC0084FDFCCF1092760901
:1006F000089540911E09262F30E0240F311D21322C
:100700003105DCF4209176092430C9F4FC0180E045
:1007100090E0861758F430911E092191DC01A25017
:10072000B74FA30FB11D2C930196F3CF80911E09F3
:10073000680F60931E0980E0089581E0089582E0CB
:1007400008950895E091780980917709E81730F4C9
:10075000F0E0E758F64F808190E008958FEF9FEF2B
:1007600008959091780980917709981750F4E92FAE
:10077000F0E0E758F64F208130E09F5F90937809D2
:1007800002C02FEF3FEFC90108958091770990E0F3
:1007900020917809821B91090895CF93DF93CB01B3
:1007A000EA01642FA6DFCE01DF91CF910895CF93A8
:1007B000DF931F92CDB7DEB7698361E0CE0101966A
:1007C00098DF81E090E00F90DF91CF910895089538
:1007D00080E090E008950E94F20F1F920F920FB6F2
:1007E0000F9211240BB60F922F933F934F935F9369
:1007F0006F937F938F939F93AF93BF93EF93FF93E9
:1008000089E999E0E6DDFF91EF91BF91AF919F916A
:100810008F917F916F915F914F913F912F910F90A9
:100820000BBE0F900FBE0F901F9018951F920F9246
:100830000FB60F9211240BB60F922F938F939F93A5
:10084000EF93FF93E091A909F091AA098081E091CB
:10085000AF09F091B00982FD12C090818091B20978
:100860008F5F8F732091B309821751F0E091B20925
:10087000F0E0E756F64F958F8093B20901C0808172
:10088000FF91EF919F918F912F910F900BBE0F9041
:100890000FBE0F901F9018951F93CF93DF93282FB3
:1008A00030E0F901EC5BFD4F8491F901E250FE4F1D
:1008B000D491F901E854FE4FC491CC23B9F0162F1E
:1008C00081114EDEEC2FF0E0EE0FFF1FEC57FE4FD4
:1008D000A591B4919FB7F894111104C08C91D09553
:1008E000D82302C0EC91DE2BDC939FBFDF91CF9128
:1008F0001F910895CF93DF9390E0FC01E250FE4FEB
:100900002491FC01E854FE4F8491882361F190E02A
:10091000880F991FFC01E659FE4FC591D491FC0147
:10092000EC57FE4FA591B491611109C09FB7F8949F
:100930008881209582238883EC912E230BC062301E
:1009400061F49FB7F8948881322F30958323888390
:10095000EC912E2B2C939FBF06C08FB7F894E881A3
:100960002E2B28838FBFDF91CF9108951F920F9276
:100970000FB60F9211242F933F938F939F93AF93B2
:10098000BF938091420990914309A0914409B0918D
:1009900045093091410923E0230F2D3720F40196BA
:1009A000A11DB11D05C026E8230F0296A11DB11D92
:1009B000209341098093420990934309A0934409ED
:1009C000B09345098091460990914709A091480943
:1009D000B09149090196A11DB11D809346099093DC
:1009E0004709A0934809B0934909BF91AF919F91DE
:1009F0008F913F912F910F900FBE0F901F901895E0
:100A00001F920F920FB60F9211240BB60F922F93D5
:100A10003F934F935F936F937F938F939F93AF9386
:100A2000BF93EF93FF938091B900887F803609F4DC
:100A30009CC068F5883209F45BC090F4803109F4F9
:100A400054C038F4882309F4F6C0883009F44DC046
:100A5000F5C0883109F44CC0803209F45DC0EEC0A5
:100A6000803409F468C048F4803309F455C08833F1
:100A700009F0E4C080937409D8C0803509F44FC0F0
:100A8000883509F45DC0883409F0D8C0D6C08839EB
:100A900009F4C7C0A8F4883709F467C038F4883669
:100AA00009F463C0803709F460C0C8C0883809F40D
:100AB000B8C0803909F45FC0803809F0BFC05BC09E
:100AC000803B09F486C038F4803A09F466C0883A5D
:100AD00009F47FC0B3C0803C09F4A7C0883C09F486
:100AE000A4C0883B09F48AC0A9C08091710910C0D4
:100AF0009091730980917209981770F5E0917309CC
:100B000081E08E0F80937309F0E0E05BF64F808107
:100B10008093BB0085EC86C0809374098EC0E09101
:100B2000730981E08E0F809373098091BB00F0E020
:100B3000E05BF64F808390917309809172096EC0DB
:100B4000E091730981E08E0F809373098091BB005F
:100B5000F0E0E05BF64F80838091750981116DC0F4
:100B600081E08093700984EA61C083E08093760914
:100B700010924009CFCF80914009803208F051C0D7
:100B8000E091400981E08E0F809340098091BB0085
:100B9000F0E0E05EF64F8083BDCF85EC8093BC0033
:100BA0001092760980914009803230F4E09140093A
:100BB000F0E0E05EF64F10826091400970E0E09155
:100BC0004A09F0914B0980E299E019951092400989
:100BD00035C084E08093760910921F0910921E0997
:100BE000E0914C09F0914D09199580911E098111F0
:100BF00005C081E080931E091092FE08E0911F0954
:100C000081E08E0F80931F09F0E0E250F74F808162
:100C10008093BB0090911F0980911E09981708F4DA
:100C200079CF85E88093BC0009C085EC8093BC0037
:100C30001092760903C01092740951DDFF91EF9173
:100C4000BF91AF919F918F917F916F915F914F91E4
:100C50003F912F910F900BBE0F900FBE0F901F90E2
:100C60001895CF93DF93EC0161E083E043DE20979A
:100C700011F460E004C0CF3FD10529F461E083E0C6
:100C8000DF91CF9109CEE7E4F2E0E4918E2F90E07E
:100C9000FC013197E231F10508F09DC08827ED5540
:100CA000FF4F8F4F0C94EA0F84B5806884BDC7BD99
:100CB00097C084B5806284BDC8BD92C08091800019
:100CC000806880938000D0938900C093880088C09A
:100CD00080918000806280938000D0938B00C093CD
:100CE0008A007EC080918000886080938000D093CD
:100CF0008D00C0938C0074C08091B0008068809398
:100D0000B000C093B3006CC08091B000806280934B
:100D1000B000C093B40064C080919000806880935C
:100D20009000D0939900C09398005AC08091900091
:100D3000806280939000D0939B00C0939A0050C033
:100D400080919000886080939000D0939D00C09324
:100D50009C0046C08091A00080688093A000809194
:100D6000A0008F7B8093A000D093A900C093A8001F
:100D700037C08091A00080628093A000D093AB0028
:100D8000C093AA002DC08091A00088608093A0002D
:100D9000D093AD00C093AC0023C080912001806847
:100DA00080932001D0932901C093280119C080911C
:100DB0002001806280932001D0932B01C0932A01EF
:100DC0000FC080912001886080932001D0932D0175
:100DD000C0932C0105C0C038D1050CF04FCF49CFCE
:100DE000DF91CF910895009761F0FC010190002000
:100DF000E9F73197AF01481B590BBC0189E999E02C
:100E000076CA80E090E00895CF93DF93ECDFEC01A9
:100E10008CED97E0E8DF8C0F9D1FDF91CF91089557
:100E20000F931F9390918B0A80918A0A992331F036
:100E300081111CC081E080938A0A18C0811142C0D0
:100E400042DC60938C0A70938D0A80938E0A909393
:100E50008F0A81E080938B0A80938A0A84E190E074
:100E600000DF8BEE98E01F910F91CECF2CDC00912C
:100E70008C0A10918D0A20918E0A30918F0ADC0124
:100E8000CB01801B910BA20BB30B0091900A109128
:100E9000910A2091920A3091930A081719072A079C
:100EA0003B0780F410928B0AE091880AF091890A3E
:100EB000EE0FFF1FEA56F54F80819181D2DE80EE62
:100EC00098E0D1CF1F910F910895FDDB2091B00ADA
:100ED000211109C021E02093B00A62517D4F709327
:100EE000B20A6093B10A8091B10A9091B20A835616
:100EF000934018F41092B00A93CF08958F929F9266
:100F0000AF92BF920F931F93CF93DF93CDB7DEB70E
:100F1000A1970FB6F894DEBF0FBECDBF19A2423025
:100F200008F44AE08E010F5D1F4F842E912CA12CF6
:100F3000B12CA50194010E94C80FE62FB901CA0186
:100F400001501109EA3014F4E05D01C0E95CD801F8
:100F5000EC93232B242B252B61F7C80144DFA196AA
:100F60000FB6F894DEBF0FBECDBFDF91CF911F91BA
:100F70000F91BF90AF909F908F900895682F89E94F
:100F800099E049CACF92DF92EF92FF92CF93DF931D
:100F900097FF17C06B017C018DE2F0DFEC01662743
:100FA0007727CB016C197D098E099F094AE0A6DFDE
:100FB0008C0F9D1FDF91CF91FF90EF90DF90CF902E
:100FC00008954AE0DF91CF91FF90EF90DF90CF90AE
:100FD00095CFCF93DF93BC01990F880B990BD2DF8C
:100FE000EC018CED97E0FFDE8C0F9D1FDF91CF9120
:100FF0000895F9CE0F931F93CF93DF93EC018C01EB
:101000000F5B1F4F8991811107C08CED97E0DF9135
:10101000CF911F910F91EDCFB1DFC017D10791F79D
:10102000DF91CF911F910F91089583EF98E0E1DF59
:1010300080913002A3DF8FEB98E0DBDF6091490203
:1010400070914A02072E000C880B990B9BDF8FEBE7
:1010500098E0CFDF88E392E0CCDF8FEB98E0C9DF48
:1010600089EF98E0C6DF8AED97E0CECE0F931F930D
:10107000CF93DF93FC01DC010D900020E9F7CD0157
:1010800048978E179F0709F060C088E192E0EF0152
:10109000DF010D900020E9F71197AE1BBF0B9E01F9
:1010A0002E1B3F0B2A173B0728F42991DC012D93B7
:1010B000CD01EECF818180933002DF011296C3E330
:1010C000D2E08F010A5F1F4F8D918993A017B1075E
:1010D000D9F7EF011092370283E392E0F9D69093AB
:1010E000320280933102A8E3B2E0FE017296E80179
:1010F00089918E018D93CE17DF07C9F710924402B4
:1011000020913802822F022E000C990BC0970A976B
:1011100010F02D3261F488E392E0F7D66093450237
:101120007093460280934702909348020BC08FEF62
:101130009FEFDC018093450290934602A093470203
:10114000B093480288EC90E002C081E991E090936E
:101150004A0280934902DF91CF911F910F91089528
:101160000F931F93CF93DF938091860A882329F0F2
:10117000DF91CF911F910F91A6CA809176098111BD
:10118000FCCF81E080937609809375099FEF90935F
:1011900074091092730993E0909372098093710916
:1011A0008091710984608093710980917009813008
:1011B00061F410927009809171098093BB00809155
:1011C000BC0083FDF8CF85EC01C085EE8093BC00A8
:1011D000809176098130E1F380917309843018F4AD
:1011E0009091730901C094E0A0E5B9E0E9E7F9E066
:1011F00080E0891721F02D9121938F5FFACF109213
:10120000780980937709882319F186E39AE0A9DAAF
:10121000182F86E39AE0A5DAC82F86E39AE0A1DAD0
:10122000D82F86E39AE09DDA4C2F50E060E070E022
:10123000512B762F652F542F44274D2B762F652F5A
:10124000542F44278A019B01082BC901B80104C00F
:1012500061E070E080E090E0DF91CF911F910F910D
:101260000895789484B5826084BD84B5816084BD1E
:1012700085B5826085BD85B5816085BD80916E0034
:10128000816080936E001092810080918100826065
:1012900080938100809181008160809381008091A2
:1012A00080008160809380008091B1008460809391
:1012B000B1008091B00081608093B0008091910076
:1012C0008260809391008091910081608093910071
:1012D000809190008160809390008091A100826055
:1012E0008093A1008091A10081608093A1008091F2
:1012F000A00081608093A000809121018260809392
:101300002101809121018160809321018091200140
:1013100081608093200180917A00846080937A00BC
:1013200080917A00826080937A0080917A00816057
:1013300080937A0080917A00806880937A0010927E
:10134000C100E091A909F091AA0982E08083E091AF
:10135000A909F091AA091082E091A509F091A609C6
:101360001082E091A709F091A80980E18083109292
:10137000B109E091AD09F091AE0986E08083E0917A
:10138000AB09F091AC09808180618083E091AB0969
:10139000F091AC09808188608083E091AB09F09185
:1013A000AC09808180688083E091AB09F091AC0941
:1013B00080818F7D80838BEB97E01BDE64E670E09D
:1013C00080E090E048D987EC97E013DE109278092E
:1013D0001092770910924F0910924E0910927609D7
:1013E000C1E0C09375091092700961E084E154DA9C
:1013F00061E085E151DA8091B9008E7F8093B90078
:101400008091B9008D7F8093B90088E48093B80003
:1014100085E48093BC0081EA91E090934D0980932C
:101420004C0982EA91E090934B0980934A09C0935A
:10143000800A1092860AFAE4EF2EFAE0FF2EA8EC5A
:10144000CA2ED12CB3EB2B2EBFE03B2E89E999E0BD
:101450000E94D401892BE1F089E999E00E94B20150
:101460008093620A8C3339F02091480A3091490AFE
:101470008E33C9F0CBC1F70128E111922A95E9F723
:1014800080934A0A81E090E09093490A8093480A49
:10149000E0E76E2EEAE07E2E08E61AE0C0E0D0E03B
:1014A00044244394CBC1F901EE5BF54F80878AE475
:1014B0009AE0DCDD8091490290914A02883C9105D6
:1014C00009F09FC1E09130028E2FEE0F990BAA0B0D
:1014D000BB0BFC01E154F109E831F10508F08BC1C7
:1014E0008827EC57FF4F8F4F75C53ADE2B013C0123
:1014F000C0E0D0E04DE050E068E372E0CE018C54F3
:10150000954F74D5892B19F4E9E9F1E076C1649619
:10151000C115F5E0DF0771F7E3EBFAE080E090E05A
:10152000208121110BC0A8E3B2E024E1289FA00193
:10153000299F500D112421E030E008C001967496D7
:101540008034910569F7E3EAF1E057C16D91FA0142
:10155000E20FF31FED54F54F60832F5F3F4F2E30A6
:101560003105A1F744E1489F9001499F300D1124B6
:10157000F901ED54F54F81E08083408A518A628AF7
:10158000738A17861686BBC004EB1AE0C0E0D0E071
:101590004DE050E068E372E0C80128D5892B79F46A
:1015A00084E18C9FF0018D9FF00D1124ED54F54FD7
:1015B000809131029091320297878687A0C0219650
:1015C0000C5E1F4FC034D10519F784E991E0909368
:1015D0004A028093490215C1C3DD4AE08FDC8CEDDD
:1015E00097E001DC0FC18FED97E003DD80913002C1
:1015F000C5DC88EE97E0FDC0809131029091320207
:10160000893EE3E09E07D1F088F4883E934009F0DC
:10161000F8C01092870A60E084E33ED910928A0AEB
:1016200010928B0A80E090E01CDBEBC08932E3E291
:101630009E0761F08A32934259F1E3C081E08093C2
:10164000870A61E084E328D940DCDBC08091450251
:1016500090914602A0914702B09148020097A105DF
:10166000B10519F41092860ACCC081309105A1050C
:10167000B10521F481E08093860AC3C00297A105D9
:10168000B10509F0BEC08091860A882399F3EACF9C
:101690008091450290914602A0914702B091480284
:1016A0000097A105B10519F41092670AAAC081300C
:1016B0009105A105B10521F481E08093670AA1C0DD
:1016C0000297A105B10509F09CC08091670A8823A3
:1016D00099F3EACF04EB1AE0C0E0D0E04DE050E02F
:1016E00068E372E0C80182D4892B71F484E18C9F95
:1016F000F0018D9FF00D1124ED54F54F1082D09222
:101700004A02C09249027DC021960C5E1F4FC03430
:10171000D10521F75ACF82EF97E06BC0609031027C
:1017200070903202C30101978034910518F070E483
:10173000672E712C89EF97E067DBC3EBDAE000E0FE
:1017400010E06016710609F45DC0688170E080E009
:1017500090E018DC8FE198E04CDC6E857F8580E0BE
:1017600090E04AE0CBDB80E298E043DC688979894D
:101770008A899B894AE0C2DB8CE298E03ADCCE01A0
:10178000019638DC0F5F1F4F6496DBCF8091860A8D
:1017900090E01FDC37C0409031025090320281E36C
:1017A00098E032DBC5E4D0E1052C000C6608770830
:1017B0008E0161E0888170D8C301B2010E942B03C1
:1017C00060E0888169D8C301B2010E942B0384E4E0
:1017D00098E00FDC2296F80180819181FADB85E6A2
:1017E00090E18C179D0721F78DE498E002C08BE50E
:1017F00098E00ADB07C0E6E9F1E0F0934A02E093E3
:10180000490213DC80E092E031DC0EC02631310564
:1018100058F4F901EE5BF54F80872F5F3F4F30930F
:10182000490A2093480A34CEF70128E111922A95FB
:10183000E9F71092490A1092480A2ACEF8018081ED
:101840008093470AF301219131913F013327F90138
:10185000EC5BFD4F8491F901E250FE4F5490F90189
:10186000E854FE4FA490AA20A1F081110E94B0027A
:10187000EA2DF0E0EE0FFF1FE256FE4FA591B49166
:10188000EC915E2231E020E009F430E0832F922FCA
:1018900002C080E090E0282F2170F80121938F0191
:1018A000892B09F0AAC08091470A281709F4A5C01E
:1018B0000E9463038090430A9090440AA090450AD6
:1018C000B090460ADC01CB0188199909AA09BB0925
:1018D000833D9105A105B10508F48FC00E94630303
:1018E0006093430A7093440A8093450A9093460A92
:1018F000FE013197E730F10528F48827E456FF4FC1
:101900008F4F68C38091880A9091890A01969093BD
:10191000890A8093880A2091940A3091950A2817A1
:101920003907ACF43093890A2093880A10C080915B
:10193000880A9091890A019797FD05C09093890ABA
:101940008093880A04C01092890A1092880A8091B4
:101950008A0A882379F080918B0A81110BC0E0916B
:10196000880AF091890AEE0FFF1FEA56F54F808131
:10197000918177D982E698E02DC08091870A8823EB
:1019800021F01092870A60E003C04092870A61E06C
:1019900084E30E944C048AE698E02BDB8091870A5E
:1019A00090E01DC080918A0A882341F010928A0A33
:1019B00010928B0A80E090E054D901C031DA84E7BC
:1019C00098E017DB60918A0A70E080E090E0DADA54
:1019D0008BE798E00EDB8091880A9091890AF9DA0A
:1019E0000CC084E898E008C08FE898E005C08BE957
:1019F00098E002C087EA98E007DA2196C830D1055E
:101A000009F01CCFADDB2B013C01C3EBDAE0888190
:101A1000882309F451C00E851F8588899989AA8970
:101A2000BB8953014201881A990AAA0ABB0AF80124
:101A3000EE0FFF1FEE0FFF1FE150F04F408151816D
:101A4000628173818091B30F9091B40FA091B50F13
:101A5000B091B60F840F951FA61FB71F8815990563
:101A6000AA05BB0508F484C0481559056A057B051D
:101A700018F501151105B1F00E946303F801EE0F8E
:101A8000FF1FEE0FFF1FE954F04F608371838283C5
:101A90009383000F111FF801ED5BFF4E61E0808121
:101AA0000E944C0485EB98E0A4DACE010196A2DAFC
:101AB00081EC98E0A9D9188264962C163D0609F0AD
:101AC000A6CF8091B00A882311F0FFD904C080917D
:101AD0008B0A8111A5D944DB0091820A1091830AF7
:101AE0002091840A3091850A601771078207930755
:101AF00049F06093820A7093830A8093840A9093DA
:101B0000850A07C08091420A811103C081E0809359
:101B1000420AC3EBDFE003E410E10E9463034C8060
:101B20005D806E807F808090FB0F9090FC0FA09076
:101B3000FD0FB090FE0F840C951CA61CB71C8616DA
:101B40009706A806B90648F460E0F80180810E9473
:101B50004C041C821D821E821F8224960E5F1F4F22
:101B600083EF9FE08C179D07C1F60E9478026ECC30
:101B700088EC98E049D984ED98E096CFFF920F93D6
:101B80001F93CF93DF9310929C0910929B0988EECC
:101B900093E0A0E0B0E080939D0990939E09A0930C
:101BA0009F09B093A0092BE937E030939A0920935D
:101BB000990925EC30E03093A6092093A50924EC7F
:101BC00030E03093A8092093A70920EC30E030934F
:101BD000AA092093A90921EC30E03093AC092093A5
:101BE000AB0922EC30E03093AE092093AD0926EC2E
:101BF00030E03093B0092093AF091092B2091092EF
:101C0000B3091092B4091092B5091092390A1092D2
:101C1000380A80933A0A90933B0AA0933C0AB09307
:101C20003D0A8DEA97E09093370A8093360A82E264
:101C3000EBE4F2E0A3E4B0E101900D928A95E1F7C4
:101C400088EC90E0A0E0B0E08093FB0F9093FC0F55
:101C5000A093FD0FB093FE0F8EE390E1A0E0B0E003
:101C60008093B30F9093B40FA093B50FB093B60FBA
:101C700085E29AE5A0E0B0E08093FF0F909300101A
:101C8000A0930110B09302104DE259E160E070E0C2
:101C90004093031050930410609305107093061046
:101CA00040930710509308106093091070930A1026
:101CB0004BE659E260E070E040930B1050930C103B
:101CC00060930D1070930E1040930F1050931010EE
:101CD000609311107093121049EA59E360E070E0CC
:101CE00040931310509314106093151070931610B6
:101CF00040931710509318106093191070931A1096
:101D000047EE59E460E070E040931B1050931C10C4
:101D100060931D1070931E1040931F10509320105D
:101D200060932110709322108093231090932410BD
:101D3000A0932510B093261080932710909328101D
:101D4000A0932910B0932A1080932B1090932C10FD
:101D5000A0932D10B0932E1080932F1090933010DD
:101D6000A0933110B09332108093331090933410BD
:101D7000A0933510B093361080933710909338109D
:101D8000A0933910B0933A1080933B1090933C107D
:101D9000A0933D10B0933E1080933F10909340105D
:101DA000A0934110B0934210C5E4D0E18E0161E0F0
:101DB00088810E947A04229660E0F80180810E9466
:101DC0004C04F0E1C536DF0789F780E095E0EDE6E9
:101DD000F2E0A3EBBAE001900D920197E1F71092C7
:101DE000890A1092880A10928A0A10928B0A10921D
:101DF0008C0A10928D0A10928E0A10928F0A80ED32
:101E000097E0A0E0B0E08093900A9093910AA093AD
:101E1000920AB093930A8CE090E09093950A809395
:101E2000940A8AE1EDE6F7E0A6E9BAE001900D92A6
:101E30008A95E1F71092B00A1092B20A1092B10A94
:101E400061E084E30E947A041092870A1092820A69
:101E50001092830A1092840A1092850A1092860AC0
:101E60001092630A1092640A1092650A1092660A30
:101E70001092670A80E1E7E8F7E0A0E7BAE0019096
:101E80000D928A95E1F71092420A1092430A10923D
:101E9000440A1092450A1092460A81E08093470A4C
:101EA000C0E7DAE008E61AE0FF24F394888122967E
:101EB00062E00E947A04F801F1928F01FAE0C038E2
:101EC000DF07A1F7DF91CF911F910F91FF90089548
:101ED000FC0188279927E89421912032E9F32930E1
:101EE00010F02E30C8F32B3239F02D3231F46894D3
:101EF00003C046D0820F911D219120532A30C8F390
:101F00001EF4909581959F4F08951F93FC0199278A
:101F10008827BC01E89411911032E9F3193010F0D0
:101F20001E30C8F31B3249F01D3241F4689405C0DD
:101F300012D0610F711D811D911D119110531A3026
:101F4000B8F33EF490958095709561957F4F8F4FD3
:101F50009F4F1F910895592F482F372F262F660F17
:101F6000771F881F991F660F771F881F991F620FA1
:101F7000731F841F951F660F771F881F991F089571
:101F80007AE0979F902D879F802D910D11240895C1
:101F9000A1E21A2EAA1BBB1BFD010DC0AA1FBB1F6D
:101FA000EE1FFF1FA217B307E407F50720F0A21BDF
:101FB000B30BE40BF50B661F771F881F991F1A944C
:101FC00069F760957095809590959B01AC01BD0176
:101FD000CF010895EE0FFF1F881F8BBF0790F6916A
:101FE000E02D199481E090E0F8940DC0FB01DC0134
:101FF00004C08D910190801921F441505040C8F7E0
:0A200000881B990B0895F894FFCF98
:10200A003C7A5A5A5A7A7A7A7A7A7A7A7A7A7A7AC4
:10201A007A7A4353554D3E003C7A5A5A5A7A7A7A1A
:10202A007A7A7A7A7A7A7A7A7A7A4353554D3E006C
:10203A007A00007A000000007A0000000000000028
:10204A000000000000FFFFFFFF98010000160017C4
:10205A0000180019001A001B001C001D001E001F9A
:10206A0000200021002200230024002500007A7AA3
:10207A007A7A7A7A7A7A7A7A7A7A00000000000092
:10208A0000007A7A7A7A7A7A7A7A7A7A7A7A00008E
:10209A000000000000007A7A7A7A7A7A7A7A7A7A72
:1020AA007A7A00000000000000007A7A7A7A7A7A56
:1020BA007A7A7A7A7A7A00000000000000007A7A46
:1020CA007A7A7A7A7A7A7A7A7A7A00000000000042
:1020DA0000007A7A7A7A7A7A7A7A7A7A7A7A00003E
:1020EA000000000000007A7A7A7A7A7A7A7A7A7A22
:1020FA007A7A00000000000000007A7A7A7A7A7A06
:10210A007A7A7A7A7A7A00000000000000007A7AF5
:10211A007A7A7A7A7A7A7A7A7A7A000000000000F1
:10212A0000007A7A7A7A7A7A7A7A7A7A7A7A0000ED
:10213A000000000000007A7A7A7A7A7A7A7A7A7AD1
:10214A007A7A00000000000000007A7A7A7A7A7AB5
:10215A007A7A7A7A7A7A00000000000000007A7AA5
:10216A007A7A7A7A7A7A7A7A7A7A000000000000A1
:10217A0000007A7A7A7A7A7A7A7A7A7A7A7A00009D
:10218A000000000000007A7A7A7A7A7A7A7A7A7A81
:10219A007A7A00000000000000007A7A7A7A7A7A65
:1021AA007A7A7A7A7A7A00000000000000007A7A55
:1021BA007A7A7A7A7A7A7A7A7A7A00000000000051
:1021CA0000007A7A7A7A7A7A7A7A7A7A7A7A00004D
:1021DA000000000000007A7A7A7A7A7A7A7A7A7A31
:1021EA007A7A00000000000000007A7A7A7A7A7A15
:1021FA007A7A7A7A7A7A00000000000000007A7A05
:10220A007A7A7A7A7A7A7A7A7A7A00000000000000
:10221A0000007A7A7A7A7A7A7A7A7A7A7A7A0000FC
:10222A000000000000007A7A7A7A7A7A7A7A7A7AE0
:10223A007A7A00000000000000007A7A7A7A7A7AC4
:10224A007A7A7A7A7A7A00000000000000007A7AB4
:10225A007A7A7A7A7A7A7A7A7A7A000000000000B0
:10226A0000007A7A7A7A7A7A7A7A7A7A7A7A0000AC
:10227A000000000000007A7A7A7A7A7A7A7A7A7A90
:10228A007A7A00000000000000007A7A7A7A7A7A74
:10229A007A7A7A7A7A7A00000000000000007A7A64
:1022AA007A7A7A7A7A7A7A7A7A7A00000000000060
:1022BA0000007A7A7A7A7A7A7A7A7A7A7A7A00005C
:1022CA000000000000007A7A7A7A7A7A7A7A7A7A40
:1022DA007A7A00000000000000007A7A7A7A7A7A24
:1022EA007A7A7A7A7A7A00000000000000007A7A14
:1022FA007A7A7A7A7A7A7A7A7A7A00000000000010
:10230A0000007A7A7A7A7A7A7A7A7A7A7A7A00000B
:10231A000000000000007A7A7A7A7A7A7A7A7A7AEF
:10232A007A7A00000000000000007A7A7A7A7A7AD3
:10233A007A7A7A7A7A7A00000000000000007A7AC3
:10234A007A7A7A7A7A7A7A7A7A7A000000000000BF
:10235A0000007A7A7A7A7A7A7A7A7A7A7A7A0000BB
:10236A000000000000007A7A7A7A7A7A7A7A7A7A9F
:10237A007A7A00000000000000007A7A7A7A7A7A83
:10238A007A7A7A7A7A7A00000000000000007A7A73
:10239A007A7A7A7A7A7A7A7A7A7A0000000000006F
:1023AA0000007A7A7A7A7A7A7A7A7A7A7A7A00006B
:1023BA000000000000007A7A7A7A7A7A7A7A7A7A4F
:1023CA007A7A00000000000000007A7A7A7A7A7A33
:1023DA007A7A7A7A7A7A00000000000000007A7A23
:1023EA007A7A7A7A7A7A7A7A7A7A0000000000001F
:1023FA0000007A7A7A7A7A7A7A7A7A7A7A7A00001B
:10240A000000000000007A7A7A7A7A7A7A7A7A7AFE
:10241A007A7A00000000000000007A7A7A7A7A7AE2
:10242A007A7A7A7A7A7A00000000000000007A7AD2
:10243A007A7A7A7A7A7A7A7A7A7A000000000000CE
:10244A0000007A7A7A7A7A7A7A7A7A7A7A7A0000CA
:10245A000000000000007A7A7A7A7A7A7A7A7A7AAE
:10246A007A7A00000000000000007A7A7A7A7A7A92
:10247A007A7A7A7A7A7A00000000000000007A7A82
:10248A007A7A7A7A7A7A7A7A7A7A0000000000007E
:10249A0000007A7A7A7A7A7A7A7A7A7A7A7A00007A
:1024AA000000000000007A7A7A7A7A7A7A7A7A7A5E
:1024BA007A7A00000000000000007A7A7A7A7A7A42
:1024CA007A7A7A7A7A7A00000000000000007A7A32
:1024DA007A7A7A7A7A7A7A7A7A7A0000000000002E
:1024EA0000007A7A7A7A7A7A7A7A7A7A7A7A00002A
:1024FA000000000000007A7A7A7A7A7A7A7A7A7A0E
:10250A007A7A00000000000000007A7A7A7A7A7AF1
:10251A007A7A7A7A7A7A00000000000000007A7AE1
:10252A007A7A7A7A7A7A7A7A7A7A000000000000DD
:10253A0000007A7A7A7A7A7A7A7A7A7A7A7A0000D9
:10254A000000000000007A7A7A7A7A7A7A7A7A7ABD
:10255A007A7A00000000000000007A7A7A7A7A7AA1
:10256A007A7A7A7A7A7A0000000000000014001E53
:10257A0000280032003C004B0064007D009600AF4A
:10258A0000C800E100FF0006000700080009000A71
:10259A00000B000C000D00000000000B027701A3E5
:1025AA00015702D401B201C60100000000D703CDD1
:1025BA0003E803A103C503B103A2035B42425F4FD1
:1025CA004E4C494E455D005B42656C742042756312
:1025DA006B6C652076302E362E305D000D0A004376
:1025EA006F6D6D616E642000205265636569766562
:1025FA006400544F444F2058004F63632E2020201C
:10260A003A2020202042696E202020203A202020D3
:10261A0020446973742020203A2020204964002035
:10262A0020202020203A20202020200020203A208C
:10263A000054657374696E67206F7574707574736E
:10264A002E2E2E006F75747075743A2000546573BF
:10265A007420636F6D706C65746500544F444F202D
:10266A00570073706565643A200062656C7420696E
:10267A00733A20004D6F64653A20002053706565F7
:10268A00643A2000627574746F6E5F72756E0062D0
:10269A007574746F6E5F73746F7000627574746FA3
:1026AA006E5F62656C7400627574746F6E5F6665E6
:1026BA0065646572005B54454C2D432D3230302DD4
:1026CA00002D4353554D5D004C6F7374206120708B
:1026DA00617274005B54454C2D462D3230302D000A
:1026EA0066756C6C207370656564007374617274CE
:0E26FA007570005B41434B2D004353554D005E
:00000001FF
