:1000000045C1000073C1000071C100006FC1000054
:100010006DC100006BC1000069C1000067C1000034
:1000200065C1000063C1000061C100005FC1000044
:100030005DC100005BC1000059C1000057C1000054
:1000400055C1000053C1000051C100004FC1000064
:100050004DC100004BC1000049C1000087C4000031
:1000600045C10000D7C30000ACC300003FC1000081
:100070003DC100003BC1000039C1000037C1000094
:1000800035C1000033C1000031C100002FC10000A4
:100090002DC100002BC1000029C10000B1C4000027
:1000A00025C1000023C1000021C100001FC10000C4
:1000B0001DC100001BC1000019C1000017C10000D4
:1000C00015C1000013C1000011C100000FC10000E4
:1000D0000DC100000BC1000009C1000007C10000F4
:1000E00005C10000C902CC02BB02BF02C502030366
:1000F000D002D402DA02DE02E202E802EC02F002EE
:100100000303F602FA02FE025E0AB10A3C0B3C0B44
:100110003C0B3C0BE20AE90A3C0B3C0B3C0B3C0B56
:100120003C0B3C0BF50AFE0A3C0B3C0B010B040B91
:100130003C0B3C0B380BFB0AD70BFD0B110C300CA6
:10014000330C360C390C540659065E0668067206E6
:10015000EB067C0684068C069606A006AA06B9065F
:10016000C306EB06CD06D706E106000021002400F9
:1001700027002A002D003000330001010000040197
:1001800007010A0100002200250028002B002E0094
:100190003100340002010000050108010B010000DC
:1001A00020002300260029002C002F00320000012F
:1001B00000000301060109010505050507050808FA
:1001C0000808020202020A0A0808040404040101E1
:1001D00001010101010103030303030303030407F6
:1001E00007070C0C0C0C0C0C0C0C0202020206068D
:1001F0000606060606060B0B0B0B0B0B0B0B010280
:100200001020200808102040102040800201020128
:1002100008040201010204081020408080402010E0
:100220000804020180040201804020100804020139
:1002300008040201010204081020408001020408A1
:100240001020408000000A0B02090C0D0E08070365
:100250000401000000000000000000000000000099
:10026000000000000000000000000000000000008E
:10027000121110000000000000000000000000004B
:1002800000000000000000000000E00C11241FBE70
:10029000CFEFD1E2DEBFCDBF00E00CBF13E0A0E0A6
:1002A000B2E0EEEFFDE100E00BBF02C007900D925F
:1002B000A63CB107D9F729E0A6ECB3E001C01D9236
:1002C000A43BB207E1F711E0C6E4D1E000E006C0CC
:1002D00021970109802FFE010E94E40EC534D10749
:1002E00080E00807A9F7D7D70C94FD0E89CECF92EE
:1002F000DF92EF92FF920F931F93CF93DF936C01E6
:100300007A018B01C0E0D0E0CE15DF0581F0D80185
:100310006D918D01D601ED91FC910190F081E02D60
:10032000C6011995892B11F02196EECF7E01C701E8
:10033000DF91CF911F910F91FF90EF90DF90CF90C1
:100340000895FC01538D448D252F30E0842F90E0DB
:10035000821B930B541710F0CF96089501970895C0
:10036000FC01918D828D981761F0828DDF01A80FBD
:10037000B11D5D968C91928D9F5F9F73928F90E0DF
:1003800008958FEF9FEF0895FC01918D828D98174E
:1003900031F0828DE80FF11D858D90E008958FEF8B
:1003A0009FEF0895FC01918D228D892F90E0805C54
:1003B0009F4F821B91098F739927089588E594E0D8
:1003C000F1DF21E0892B09F420E0822F0895FC0160
:1003D000848DDF01A80FB11DA35ABF4F2C91848DCE
:1003E00090E001968F739927848FA689B7892C9303
:1003F000A089B1898C91837080648C93938D848D56
:10040000981306C00288F389E02D80818F7D808358
:100410000895EF92FF920F931F93CF93DF93EC0118
:1004200081E0888F9B8D8C8D981305C0E889F989B0
:10043000808185FD25C0F62E0B8D10E00F5F1F4FCC
:100440000F731127E02E8C8DE8120BC00FB607FC3E
:10045000FACFE889F989808185FFF5CFCE01B7DF32
:10046000F2CF8B8DFE01E80FF11DE35AFF4FF082B2
:100470009FB7F8940B8FEA89FB89808180620AC05C
:100480009FB7F894EE89FF896083E889F9898081B4
:100490008370806480839FBF81E090E0DF91CF9183
:1004A0001F910F91FF90EF900895CF93DF93EC0190
:1004B000888D8823C1F0EA89FB89808185FD05C08C
:1004C000A889B9898C9186FD0EC00FB607FCF5CFBF
:1004D000808185FFF2CFA889B9898C9185FFEDCF06
:1004E000CE0175DFE8CFDF91CF91089580E090E0F5
:1004F000892B19F063DF811125C080E090E0892B02
:1005000041F080E090E0892B21F00E9400008111F1
:100510001CC080E090E0892B41F080E090E0892BC6
:1005200021F00E940000811113C080E090E0892B2F
:10053000A1F080E090E0892B81F00E940000811101
:100540000AC008950E940000D8CF0E940000E1CFA9
:100550000E940000EACF0C940000089590E0FC0196
:100560003197E231F10508F04EC08827EE58FF4F71
:100570008F4F0C94E40E809180008F7703C08091A0
:1005800080008F7D80938000089580918000877F18
:10059000F9CF84B58F7702C084B58F7D84BD08956F
:1005A0008091B0008F7703C08091B0008F7D8093E1
:1005B000B0000895809190008F7707C080919000DF
:1005C0008F7D03C080919000877F80939000089575
:1005D0008091A0008F7707C08091A0008F7D03C01D
:1005E0008091A000877F8093A000089580912001D2
:1005F0008F7707C0809120018F7D03C080912001FB
:10060000877F8093200108953FB7F89480910E046E
:1006100090910F04A0911004B091110426B5A89BED
:1006200005C02F3F19F00196A11DB11D3FBFBA2F84
:10063000A92F982F8827820F911DA11DB11DBC01E4
:10064000CD0142E0660F771F881F991F4A95D1F7A9
:1006500008958F929F92AF92BF92CF92DF92EF92C6
:10066000FF926B017C01D0DF4B015C01C114D1040E
:10067000E104F104E9F0C8DFDC01CB018819990934
:10068000AA09BB09883E9340A105B10578F321E092
:10069000C21AD108E108F10888EE880E83E0981E9E
:1006A000A11CB11CC114D104E104F10421F7DECF77
:1006B000FF90EF90DF90CF90BF90AF909F908F9082
:1006C000089585ED8093BC008091BC0084FDFCCF33
:1006D0001092030508954091E603262F30E0240F81
:1006E000311D21323105DCF4209103052430C9F499
:1006F000FC0180E090E0861758F43091E6032191E8
:10070000DC01AA53BC4FA30FB11D2C930196F3CF6C
:100710008091E603680F6093E60380E0089581E02E
:10072000089582E00895089508950895E0910705D9
:1007300080910605E81730F4F0E0E85CFB4F80811B
:1007400090E008958FEF9FEF0895909107058091B5
:100750000605981750F4E92FF0E0E85CFB4F208184
:1007600030E09F5F9093070502C02FEF3FEFC90174
:1007700008958091060590E020910705821B91095C
:100780000895CF93DF93CB01EA01642FA4DFCE015C
:10079000DF91CF910895CF93DF931F92CDB7DEB74E
:1007A000698361E0CE01019696DF81E090E00F90D1
:1007B000DF91CF910895089580E090E008950E9420
:1007C000EC0E1F920F920FB60F9211240BB60F92E0
:1007D0002F933F934F935F936F937F938F939F9349
:1007E000AF93BF93EF93FF9388E594E0F0DDFF9123
:1007F000EF91BF91AF919F918F917F916F915F9199
:100800004F913F912F910F900BBE0F900FBE0F9005
:100810001F9018951F920F920FB60F9211240BB6CE
:100820000F922F938F939F93EF93FF93E091680420
:10083000F09169048081E0916E04F0916F0482FD73
:1008400012C09081809171048F5F8F732091720428
:10085000821751F0E0917104F0E0E85AFB4F958F58
:100860008093710401C08081FF91EF919F918F91DE
:100870002F910F900BBE0F900FBE0F901F901895E9
:100880001F93CF93DF93282F30E0F901EC5BFD4FEE
:100890008491F901E250FE4FD491F901E854FE4FE2
:1008A000C491CC23B9F0162F811158DEEC2FF0E063
:1008B000EE0FFF1FEC57FE4FA591B4919FB7F89430
:1008C000111104C08C91D095D82302C0EC91DE2B7D
:1008D000DC939FBFDF91CF911F910895CF93DF935A
:1008E00090E0FC01E250FE4F2491FC01E854FE4FE1
:1008F0008491882361F190E0880F991FFC01E659EB
:10090000FE4FC591D491FC01EC57FE4FA591B491D7
:10091000611109C09FB7F89488812095822388834C
:10092000EC912E230BC0623061F49FB7F89488815C
:10093000322F309583238883EC912E2B2C939FBFED
:1009400006C08FB7F894E8812E2B28838FBFDF91E4
:10095000CF9108952FB7F89460910A0470910B0419
:1009600080910C0490910D042FBF08951F920F9257
:100970000FB60F9211242F933F938F939F93AF93B2
:10098000BF9380910A0490910B04A0910C04B09144
:100990000D043091090423E0230F2D3720F4019634
:1009A000A11DB11D05C026E8230F0296A11DB11D92
:1009B0002093090480930A0490930B04A0930C04E1
:1009C000B0930D0480910E0490910F04A091100437
:1009D000B09111040196A11DB11D80930E04909356
:1009E0000F04A0931004B0931104BF91AF919F9195
:1009F0008F913F912F910F900FBE0F901F901895E0
:100A00001F920F920FB60F9211240BB60F922F93D5
:100A10003F934F935F936F937F938F939F93AF9386
:100A2000BF93EF93FF938091B900887F803609F4DC
:100A30009CC068F5883209F45BC090F4803109F4F9
:100A400054C038F4882309F4F6C0883009F44DC046
:100A5000F5C0883109F44CC0803209F45DC0EEC0A5
:100A6000803409F468C048F4803309F455C08833F1
:100A700009F0E4C080933704D8C0803509F44FC032
:100A8000883509F45DC0883409F0D8C0D6C08839EB
:100A900009F4C7C0A8F4883709F467C038F4883669
:100AA00009F463C0803709F460C0C8C0883809F40D
:100AB000B8C0803909F45FC0803809F0BFC05BC09E
:100AC000803B09F486C038F4803A09F466C0883A5D
:100AD00009F47FC0B3C0803C09F4A7C0883C09F486
:100AE000A4C0883B09F48AC0A9C08091340410C016
:100AF0009091360480913504981770F5E091360492
:100B000081E08E0F80933604F0E0EC5EFB4F808135
:100B10008093BB0085EC86C0809337048EC0E09143
:100B2000360481E08E0F809336048091BB00F0E0A4
:100B3000EC5EFB4F808390913604809135046EC04B
:100B4000E091360481E08E0F809336048091BB00E3
:100B5000F0E0EC5EFB4F80838091020581116DC057
:100B600081E08093010584EA61C083E080930305FE
:100B700010920804CFCF80910804803208F051C051
:100B8000E091080481E08E0F809308048091BB00FF
:100B9000F0E0E851FC4F8083BDCF85EC8093BC0032
:100BA0001092030580910804803230F4E09108042B
:100BB000F0E0E851FC4F10826091080470E0E09191
:100BC000FD04F091FE0488EE93E01995109208045C
:100BD00035C084E0809303051092E7031092E6038A
:100BE000E091FF04F091000519958091E6038111D1
:100BF00005C081E08093E6031092C603E091E7030D
:100C000081E08E0F8093E703F0E0EA53FC4F808190
:100C10008093BB009091E7038091E603981708F456
:100C200079CF85E88093BC0009C085EC8093BC0037
:100C30001092030503C01092370443DDFF91EF913A
:100C4000BF91AF919F918F917F916F915F914F91E4
:100C50003F912F910F900BBE0F900FBE0F901F90E2
:100C60001895CF93DF93EC0161E083E037DE2097A6
:100C700011F460E004C0CF3FD10529F461E083E0C6
:100C8000DF91CF91FDCDE7E4F2E0E4918E2F90E08B
:100C9000FC013197E231F10508F09DC08827ED5540
:100CA000FF4F8F4F0C94E40E84B5806884BDC7BDA0
:100CB00097C084B5806284BDC8BD92C08091800019
:100CC000806880938000D0938900C093880088C09A
:100CD00080918000806280938000D0938B00C093CD
:100CE0008A007EC080918000886080938000D093CD
:100CF0008D00C0938C0074C08091B0008068809398
:100D0000B000C093B3006CC08091B000806280934B
:100D1000B000C093B40064C080919000806880935C
:100D20009000D0939900C09398005AC08091900091
:100D3000806280939000D0939B00C0939A0050C033
:100D400080919000886080939000D0939D00C09324
:100D50009C0046C08091A00080688093A000809194
:100D6000A0008F7B8093A000D093A900C093A8001F
:100D700037C08091A00080628093A000D093AB0028
:100D8000C093AA002DC08091A00088608093A0002D
:100D9000D093AD00C093AC0023C080912001806847
:100DA00080932001D0932901C093280119C080911C
:100DB0002001806280932001D0932B01C0932A01EF
:100DC0000FC080912001886080932001D0932D0175
:100DD000C0932C0105C0C038D1050CF04FCF49CFCE
:100DE000DF91CF910895009761F0FC010190002000
:100DF000E9F73197AF01481B590BBC0188E594E036
:100E000076CA80E090E00895CF93DF93ECDFEC01A9
:100E100088ED92E0E8DF8C0F9D1FDF91CF91089560
:100E20000F931F939091330580913205992331F0F0
:100E300081111CC081E08093320518C0811142C02D
:100E400089DD609334057093350580933605909362
:100E5000370581E0809333058093320584E190E08B
:100E600000DF82E993E01F910F91CECF73DD0091F7
:100E70003405109135052091360530913705DC0198
:100E8000CB01801B910BA20BB30B00913805109185
:100E9000390520913A0530913B05081719072A07B3
:100EA0003B0780F410923305E0913005F091310555
:100EB000EE0FFF1FE25CFA4F80819181D2DE87E85E
:100EC00093E0D1CF1F910F9108958F929F92AF928F
:100ED000BF920F931F93CF93DF93CDB7DEB7A19748
:100EE0000FB6F894DEBF0FBECDBF19A2423008F492
:100EF0004AE08E010F5D1F4F842E912CA12CB12C46
:100F0000A50194013FD7E62FB901CA01015011098B
:100F1000EA3014F4E05D01C0E95CD801EC93232BC6
:100F2000242B252B69F7C8015EDFA1960FB6F89434
:100F3000DEBF0FBECDBFDF91CF911F910F91BF904C
:100F4000AF909F908F900895CF92DF92EF92FF9293
:100F5000CF93DF9397FF19C06B017C016DE288E5A9
:100F600094E057DAEC0166277727CB016C197D09ED
:100F70008E099F094AE0A9DF8C0F9D1FDF91CF9159
:100F8000FF90EF90DF90CF9008954AE0DF91CF91EE
:100F9000FF90EF90DF90CF9098CFCF93DF93BC017D
:100FA000990F880B990BD0DFEC0188ED92E01BDFE5
:100FB0008C0F9D1FDF91CF91089515CFCF93DF93B5
:100FC00080339105C8F5FC01EE0FFF1FE65EF94F77
:100FD00011821082FC01EE0FFF1FEE0FFF1FE85A77
:100FE000FA4F12821382148215824DE0489F9001BD
:100FF000499F300D1124C901885A9A4FFC01EE5DBA
:10100000FE4F20E320833196208331962083319652
:101010002083319620833196208331962083319628
:101020002083319620833196208331962083319618
:1010300020833196108239C0019691F5AAE1B6E07D
:10104000EAE5F5E088E595E040E050E020E31D9218
:101050001D921192119211921192EC01CE5DDE4F10
:1010600028832196288321962883219628832196F8
:1010700028832196288321962883219628832196E8
:1010800028832196288321962883219628832196D8
:1010900018824F5F5F4F0D9640335105C1F605C072
:1010A0008AE993E0DF91CF91AFCEDF91CF910895A0
:1010B0008BEB93E082DF6091300288E594E0A9D960
:1010C0008FEB93E07ADF6091450270914602072E24
:1010D000000C880B990B38DF8FEB93E06EDF88E311
:1010E00092E06BDF8FEB93E068DF81EC93E065DFEC
:1010F00086ED92E089CE0F931F93CF93DF93FC018F
:10110000DC010D900020E9F7CD0148978E179F076D
:1011100009F03EC088E192E0EF01DF010D90002070
:10112000E9F71197AE1BBF0B9E012E1B3F0B2A1731
:101130003B0728F42991DC012D93CD01EECF81816D
:1011400080933002DF011296C3E3D2E08F010A5F81
:101150001F4F8D918993A017B107D9F7EF01109216
:10116000370283E392E0E9D5909332028093310213
:10117000A8E3B2E0FE017296E80189918E018D9399
:10118000CE17DF07C9F71092440288EC90E002C046
:1011900081E991E09093460280934502DF91CF91DF
:1011A0001F910F9108950F931F93CF93DF93809119
:1011B00003058111FCCF81E0809303058093020534
:1011C0009FEF909337041092360493E09093350488
:1011D000809334048091340484608093340480913B
:1011E0000105813061F410920105809134048093EF
:1011F000BB008091BC0083FDF8CF85EC01C085EE7B
:101200008093BC00809103058130E1F38091360426
:10121000843018F49091360401C094E0E4E1F4E0E5
:10122000A8E3B4E080E0891721F021912D938F5F2E
:10123000FACF1092070580930605882319F188EAF2
:1012400099E083DA182F88EA99E07FDAC82F88EAD4
:1012500099E07BDAD82F88EA99E077DA4C2F50E0D2
:1012600060E070E0512B762F652F542F44274D2BD3
:10127000762F652F542F44278A019B01082BC90123
:10128000B80104C061E070E080E090E0DF91CF91B0
:101290001F910F910895CF93DF9300D000D0CDB769
:1012A000DEB7789484B5826084BD84B5816084BDE6
:1012B00085B5826085BD85B5816085BD80916E00F4
:1012C000816080936E001092810080918100826025
:1012D0008093810080918100816080938100809162
:1012E00080008160809380008091B1008460809351
:1012F000B1008091B00081608093B0008091910036
:101300008260809391008091910081608093910030
:10131000809190008160809390008091A100826014
:101320008093A1008091A10081608093A1008091B1
:10133000A00081608093A000809121018260809351
:101340002101809121018160809321018091200100
:1013500081608093200180917A00846080937A007C
:1013600080917A00826080937A0080917A00816017
:1013700080937A0080917A00806880937A0010923E
:10138000C100E0916804F091690482E08083E091FB
:101390006804F09169041082E0916404F09165049E
:1013A0001082E0916604F091670480E180831092DE
:1013B0007004E0916C04F0916D0486E08083E0910C
:1013C0006A04F0916B04808180618083E0916A04FB
:1013D000F0916B04808188608083E0916A04F091D1
:1013E0006B04808180688083E0916A04F0916B04D3
:1013F00080818F7D808387EB92E0DFDD64E670E0A3
:1014000080E090E026D983EC92E0D7DD90E1E92EF0
:1014100095E0F92E28E1D22E38EC832E912CCC24A5
:10142000C39488E594E00E94D201892BE1F088E51D
:1014300094E00E94B001809328058C3339F020910C
:101440000E0530910F058E33B9F021C1F7012D2D16
:1014500011922A95E9F78093100581E090E090932E
:101460000F0580930E0587EAA82E82E0B82E05EFBF
:1014700014E01A82198223C1F901E85FFA4F8087CC
:1014800080E195E038DE8091450290914602883CEB
:10149000910509F0F7C0E09130028E2FEE0F990B05
:1014A000AA0BBB0BFC01E154F109E831F10508F08E
:1014B000E3C08827EC57FF4F8F4F86C474DE2B01A3
:1014C0003C011A8219824DE050E068E372E08981A4
:1014D0009A818658994F84D4892B19F4E9E9F1E06F
:1014E0006CC089819A810D969A8389838037924056
:1014F00051F78091580590915905A8E3B2E0FDE0BD
:10150000F89FA001F99F500D112420E030E06D916B
:10151000F901E40FF51FE658F94F60832F5F3F4F45
:101520002D303105A1F7FC01EE0FFF1FEE0FFF1F5D
:10153000E85AFA4F4282538264827582FC01EE0FB0
:10154000FF1FE65EF94F11821082019690935905B4
:1015500080935805C09708F11092590510925805CC
:101560001CC00AE716E01A8219824DE050E068E3D9
:1015700072E0C80135D4892BA9F489819A81880F3A
:10158000991F865E994F9A83898380913102909149
:101590003202E981FA81918380839092460280929F
:1015A000450270C089819A8101969A838983035F7D
:1015B0001F4FC097D1F6E4E9F1E0F0934602E093C3
:1015C000450260C0F0DD4AE080DC88ED92E00BDC93
:1015D0005AC08BED92E0F1DC6091300288E594E036
:1015E0000E94090284EE92E045C080913102909100
:1015F0003202E4DC47C08EEE92E03CC085EF92E020
:1016000039C08CEF92E036C04090310250903202E7
:1016100083E093E0F9DB8CE799E09A838983052CDA
:10162000000C6608770809811A8161E0F801808161
:1016300027D9C301B2010DD860E0E981FA81808128
:101640001FD9C301B20105D886E193E0B6DC8981D8
:101650009A8102969A838983F801808191819DDC29
:1016600089819A818C599940F1F68FE193E002C00B
:101670008DE293E0C9DB07C086E991E090934602D2
:101680008093450215DD80E092E035DD0EC0263105
:10169000310558F4F901E85FFA4F80872F5F3F4F1B
:1016A00030930F0520930E05DECEF7012D2D1192FC
:1016B0002A95E9F710920F0510920E05D4CEF80185
:1016C000808180930D05F501219131915F013327D0
:1016D000F901EC5BFD4F8491F901E250FE4F7490EB
:1016E000F901E854FE4F64906620A1F081110E9438
:1016F000AE02E62DF0E0EE0FFF1FE256FE4FA59181
:10170000B491EC917E2231E020E009F430E0832FA7
:10171000922F02C080E090E0282F2170F8012193E1
:101720008F01892B09F0A8C080910D05281709F4B5
:10173000A3C010D94090090550900A0560900B0590
:1017400070900C05DC01CB0184199509A609B70935
:10175000833D9105A105B10508F48EC0FBD86093C7
:10176000090570930A0580930B0590930C05E98198
:10177000FA813197E730F10528F48827E456FF4FC6
:101780008F4F22C38091300590913105019690933F
:1017900031058093300520913C0530913D05281797
:1017A0003907ACF4309331052093300510C0809197
:1017B000300590913105019797FD05C09093310553
:1017C0008093300504C0109231051092300580914D
:1017D0003205882379F08091330581110BC0E091A7
:1017E0003005F0913105EE0FFF1FE25CFA4F80816A
:1017F000918137DA84E393E02CC080912F05882310
:1018000021F010922F0560E003C0C0922F0561E027
:1018100084E336D88CE393E0D0DB80912F0590E011
:101820001DC080913205882341F01092320510923C
:10183000330580E090E015DA01C0F2DA86E493E047
:10184000BCDB6091320570E080E090E07DDB8DE4F0
:1018500093E0B3DB80913005909131059EDB0CC0A5
:1018600086E593E008C081E693E005C08DE693E04D
:1018700002C089E793E0C8DA89819A8101969A8348
:101880008983089709F01BCF8EDC69837A838B8369
:101890009C835AE1252E56E0352E68E5A62E65E09C
:1018A000B62E00E010E0F101819191911F019E831D
:1018B0008D831816190684F5F50182819381A48120
:1018C000B58149805A806B807C80481A590A6A0A1F
:1018D0007B0AED81FE81EE0FFF1FEE0FFF1FEA5C1A
:1018E000F64F40815181628173818091EA08909125
:1018F000EB08A091EC08B091ED08840F951FA61F8E
:10190000B71F84159505A605B70508F456C04415FC
:10191000550566057705B0F10F5F1F4FF4E0AF0E78
:10192000B11C0033110509F0BECF3DDC00912B0541
:1019300010912C0520912D0530912E05601771070F
:101940008207930749F060932B0570932C058093D1
:101950002D0590932E0506C080910805811102C0C7
:10196000C09208058091330581115ADA80911204E2
:1019700090911304019690931304809312040E9493
:1019800076024FCD0E94AA04ED81FE81EE0FFF1F6B
:10199000EE0FFF1FE251F74F6083718382839383C1
:1019A0008D819E81880F991F8658964F9E838D83C7
:1019B00061E0FC0180810E944004C801FFDAACCFE5
:1019C000FF920F931F93CF93DF9310925B041092BB
:1019D0005A0488EE93E0A0E0B0E080935C0490931A
:1019E0005D04A0935E04B0935F0427E832E0309377
:1019F00059042093580425EC30E03093650420937B
:101A0000640424EC30E0309367042093660420ECF7
:101A100030E0309369042093680421EC30E0309387
:101A20006B0420936A0422EC30E030936D04209321
:101A30006C0426EC30E030936F0420936E04109217
:101A40007104109272041092730410927404109234
:101A5000AB091092AA098093AC099093AD09A093A9
:101A6000AE09B093AF0989E992E09093A9098093F8
:101A7000A80982E2E7E4F2E0AAE7B9E001900D925A
:101A80008A95E1F788EC90E0A0E0B0E0809332091D
:101A900090933309A0933409B09335098EE390E114
:101AA000A0E0B0E08093EA089093EB08A093EC08E4
:101AB000B093ED0810923609109237091092380948
:101AC000109239098DE299E1A0E0B0E080933A09E3
:101AD00090933B09A0933C09B0933D0980933E0944
:101AE00090933F09A0934009B09341098BE699E296
:101AF000A0E0B0E08093420990934309A093440989
:101B0000B09345098093460990934709A0934809EB
:101B1000B093490989EA99E3A0E0B0E080934A09CB
:101B200090934B09A0934C09B0934D0980934E09B3
:101B300090934F09A0935009B093510987EE99E40F
:101B4000A0E0B0E08093520990935309A093540908
:101B5000B09355098093560990935709A09358095B
:101B6000B093590985E29AE5A0E0B0E080935A0964
:101B700090935B09A0935C09B0935D0980935E0923
:101B800090935F09A0936009B09361098093620903
:101B900090936309A0936409B093650980936609E3
:101BA00090936709A0936809B093690980936A09C3
:101BB00090936B09A0936C09B0936D0980936E09A3
:101BC00090936F09A0937009B09371098093720983
:101BD00090937309A0937409B09375098093760963
:101BE00090937709A0937809B0937909CCE7D9E06D
:101BF0008E0161E088810E946E04229660E0F80107
:101C000080810E944004F9E0CC39DF0789F7109207
:101C10005905109258051092310510923005109216
:101C2000320510923305109234051092350510924A
:101C300036051092370580ED97E0A0E0B0E0809384
:101C4000380590933905A0933A05B0933B058CE095
:101C500090E090933D0580933C058AE1E9E6F2E04F
:101C6000AEE3B5E001900D928A95E1F761E084E37F
:101C70000E946E0410922F0510922B0510922C05D5
:101C800010922D0510922E05109207051092060550
:101C9000109205051092040510920305C1E0C0934F
:101CA00002051092010561E084E10E94400461E0B8
:101CB00085E10E9440048091B9008E7F8093B90035
:101CC0008091B9008D7F8093B90088E48093B8003B
:101CD00085E48093BC0083E993E0909300058093B2
:101CE000FF0484E993E09093FE048093FD04C09385
:101CF0002905109208051092090510920A05109204
:101D00000B0510920C05C0930D05C7EAD2E005EF54
:101D100014E0FF24F3948881229662E00E946E040E
:101D2000F801F1928F01F2E0C73BDF07A1F7DF91E5
:101D3000CF911F910F91FF900895FC01882799275B
:101D4000E89421912032E9F3293010F02E30C8F3C5
:101D50002B3239F02D3231F4689403C00BD0820F4E
:101D6000911D219120532A30C8F31EF4909581953E
:101D70009F4F08957AE0979F902D879F802D910D1A
:101D800011240895A1E21A2EAA1BBB1BFD010DC050
:101D9000AA1FBB1FEE1FFF1FA217B307E407F5071B
:101DA00020F0A21BB30BE40BF50B661F771F881FF7
:101DB000991F1A9469F760957095809590959B018D
:101DC000AC01BD01CF010895EE0FFF1F881F8BBF2F
:101DD0000790F691E02D199481E090E0F8940DC001
:101DE000FB01DC0104C08D910190801921F4415068
:0E1DF0005040C8F7881B990B0895F894FFCF58
:101DFE003C7A7A7A7A7A7A7A7A7A7A7A7A7A7A7A73
:101E0E007A7A4353554D3E003C7A7A7A7A7A7A7AC8
:101E1E007A7A7A7A7A7A7A7A7A7A4353554D3E007A
:101E2E007A00007A000000007A0000000000000036
:101E3E00000000000098010000160017001800199D
:101E4E00001A001B001C001D001E001F0020002198
:101E5E0000220023002400250014001E002800325A
:101E6E00003C004B0064007D009600AF00C800E10E
:101E7E0000FF000000000009027701A1015502D207
:101E8E0001B001C40100000000CB03C103DC0395C7
:101E9E0003B903A503960304000500060007000816
:101EAE000009000A000B005B42425F4F4E4C494E48
:101EBE00455D005B42656C74204275636B6C6520FA
:101ECE0076302E352E395D000D0A00436F6D6D6133
:101EDE006E64200020526563656976656400544F18
:101EEE00444F205800544F444F205000544F444FFD
:101EFE0020530054657374696E67206F7574707526
:101F0E0074732E2E2E006F75747075743A200054F3
:101F1E0065737420636F6D706C65746500544F4407
:101F2E004F20570073706565643A200062656C74CB
:101F3E002069733A20004D6F64653A20002053707B
:101F4E006565643A2000627574746F6E5F72756EAB
:101F5E0000627574746F6E5F73746F700062757467
:101F6E00746F6E5F62656C7400627574746F6E5F11
:101F7E006665656465720066756C6C207370656568
:101F8E00640073746172747570004572726F723A88
:101F9E0020466C75736820696E646578206F757461
:101FAE00206F662072616E676521005B41434B2D89
:061FBE00004353554D00E5
:00000001FF
